{
  "contractName": "AuthorizedIssuer",
  "abi": [
    {
      "constant": false,
      "inputs": [
        {
          "name": "_index",
          "type": "uint256"
        }
      ],
      "name": "getAuthorizedAccount",
      "outputs": [
        {
          "name": "_issuer",
          "type": "address"
        }
      ],
      "payable": false,
      "stateMutability": "nonpayable",
      "type": "function"
    },
    {
      "constant": false,
      "inputs": [
        {
          "name": "_newIssuer",
          "type": "address"
        }
      ],
      "name": "authorzeAccount",
      "outputs": [],
      "payable": false,
      "stateMutability": "nonpayable",
      "type": "function"
    },
    {
      "constant": false,
      "inputs": [],
      "name": "getNumberOfAuthorizedAccounts",
      "outputs": [
        {
          "name": "_numOfAccounts",
          "type": "uint256"
        }
      ],
      "payable": false,
      "stateMutability": "nonpayable",
      "type": "function"
    },
    {
      "constant": false,
      "inputs": [
        {
          "name": "_issuer",
          "type": "address"
        }
      ],
      "name": "removeAuthorizedAccount",
      "outputs": [],
      "payable": false,
      "stateMutability": "nonpayable",
      "type": "function"
    },
    {
      "constant": true,
      "inputs": [],
      "name": "admin",
      "outputs": [
        {
          "name": "",
          "type": "address"
        }
      ],
      "payable": false,
      "stateMutability": "view",
      "type": "function"
    },
    {
      "constant": true,
      "inputs": [
        {
          "name": "",
          "type": "address"
        }
      ],
      "name": "authorizedAccountsMap",
      "outputs": [
        {
          "name": "issuer",
          "type": "address"
        },
        {
          "name": "index",
          "type": "uint256"
        },
        {
          "name": "isAuthorized",
          "type": "bool"
        }
      ],
      "payable": false,
      "stateMutability": "view",
      "type": "function"
    },
    {
      "inputs": [
        {
          "name": "_adminWalletAddr",
          "type": "address"
        }
      ],
      "payable": false,
      "stateMutability": "nonpayable",
      "type": "constructor"
    },
    {
      "anonymous": false,
      "inputs": [
        {
          "indexed": false,
          "name": "_actor",
          "type": "address"
        },
        {
          "indexed": false,
          "name": "authorized",
          "type": "bool"
        }
      ],
      "name": "AuthorizeAttempt",
      "type": "event"
    },
    {
      "anonymous": false,
      "inputs": [
        {
          "indexed": false,
          "name": "_newIssuer",
          "type": "address"
        }
      ],
      "name": "NewAccountAuthorized",
      "type": "event"
    },
    {
      "anonymous": false,
      "inputs": [
        {
          "indexed": false,
          "name": "_issuer",
          "type": "address"
        }
      ],
      "name": "AuthorizedAccountRemoved",
      "type": "event"
    }
  ],
  "bytecode": "0x6060604052341561000f57600080fd5b6040516020806108d083398101604052808051906020019091905050806000806101000a81548173ffffffffffffffffffffffffffffffffffffffff021916908373ffffffffffffffffffffffffffffffffffffffff160217905550506108558061007b6000396000f300606060405260043610610078576000357c0100000000000000000000000000000000000000000000000000000000900463ffffffff1680633557b6c31461007d5780633b57391a146100e05780637c59fda014610119578063be47aa0914610142578063f851a4401461017b578063f9afc242146101d0575b600080fd5b341561008857600080fd5b61009e600480803590602001909190505061025b565b604051808273ffffffffffffffffffffffffffffffffffffffff1673ffffffffffffffffffffffffffffffffffffffff16815260200191505060405180910390f35b34156100eb57600080fd5b610117600480803573ffffffffffffffffffffffffffffffffffffffff16906020019091905050610338565b005b341561012457600080fd5b61012c6105bc565b6040518082815260200191505060405180910390f35b341561014d57600080fd5b610179600480803573ffffffffffffffffffffffffffffffffffffffff169060200190919050506105c9565b005b341561018657600080fd5b61018e61075c565b604051808273ffffffffffffffffffffffffffffffffffffffff1673ffffffffffffffffffffffffffffffffffffffff16815260200191505060405180910390f35b34156101db57600080fd5b610207600480803573ffffffffffffffffffffffffffffffffffffffff16906020019091905050610781565b604051808473ffffffffffffffffffffffffffffffffffffffff1673ffffffffffffffffffffffffffffffffffffffff16815260200183815260200182151515158152602001935050505060405180910390f35b60006001600060028481548110151561027057fe5b906000526020600020900160009054906101000a900473ffffffffffffffffffffffffffffffffffffffff1673ffffffffffffffffffffffffffffffffffffffff1673ffffffffffffffffffffffffffffffffffffffff16815260200190815260200160002060020160009054906101000a900460ff161561032e576002828154811015156102fb57fe5b906000526020600020900160009054906101000a900473ffffffffffffffffffffffffffffffffffffffff169050610333565b600090505b919050565b3360008060009054906101000a900473ffffffffffffffffffffffffffffffffffffffff1673ffffffffffffffffffffffffffffffffffffffff168273ffffffffffffffffffffffffffffffffffffffff161490507f7fca019a0a52664785803f352d793a992f66c4affa261b3daf127976e7ad67998282604051808373ffffffffffffffffffffffffffffffffffffffff1673ffffffffffffffffffffffffffffffffffffffff168152602001821515151581526020019250505060405180910390a180151561040857600080fd5b6060604051908101604052808473ffffffffffffffffffffffffffffffffffffffff16815260200160016002805480600101828161044691906107d8565b9160005260206000209001600088909190916101000a81548173ffffffffffffffffffffffffffffffffffffffff021916908373ffffffffffffffffffffffffffffffffffffffff16021790555003815260200160011515815250600160008573ffffffffffffffffffffffffffffffffffffffff1673ffffffffffffffffffffffffffffffffffffffff16815260200190815260200160002060008201518160000160006101000a81548173ffffffffffffffffffffffffffffffffffffffff021916908373ffffffffffffffffffffffffffffffffffffffff1602179055506020820151816001015560408201518160020160006101000a81548160ff0219169083151502179055509050507f7fd215c956537f33ef9064c457003d82df8562a7b03e1f896c0b39c7abc8355883604051808273ffffffffffffffffffffffffffffffffffffffff1673ffffffffffffffffffffffffffffffffffffffff16815260200191505060405180910390a1505050565b6000600280549050905090565b3360008060009054906101000a900473ffffffffffffffffffffffffffffffffffffffff1673ffffffffffffffffffffffffffffffffffffffff168273ffffffffffffffffffffffffffffffffffffffff161490507f7fca019a0a52664785803f352d793a992f66c4affa261b3daf127976e7ad67998282604051808373ffffffffffffffffffffffffffffffffffffffff1673ffffffffffffffffffffffffffffffffffffffff168152602001821515151581526020019250505060405180910390a180151561069957600080fd5b6000600160008573ffffffffffffffffffffffffffffffffffffffff1673ffffffffffffffffffffffffffffffffffffffff16815260200190815260200160002060020160006101000a81548160ff0219169083151502179055507f56a53756e1db2ff35a90edee9bd205b4b2bb8633ee3d6a53a5e85d5b46f0e9dc83604051808273ffffffffffffffffffffffffffffffffffffffff1673ffffffffffffffffffffffffffffffffffffffff16815260200191505060405180910390a1505050565b6000809054906101000a900473ffffffffffffffffffffffffffffffffffffffff1681565b60016020528060005260406000206000915090508060000160009054906101000a900473ffffffffffffffffffffffffffffffffffffffff16908060010154908060020160009054906101000a900460ff16905083565b8154818355818115116107ff578183600052602060002091820191016107fe9190610804565b5b505050565b61082691905b8082111561082257600081600090555060010161080a565b5090565b905600a165627a7a72305820afbe789a93b34a1b7ab9486d9375b16defe9d4aade2994e653913e7875502cbd0029",
  "source": "pragma solidity ^0.4.17;\n\ncontract AuthorizedIssuer {\n\n    /// @notice the god account for this contract\n    address public admin;\n\n    address constant NONE = 0x0000000000000000000000000000000000000000;\n\n    struct AuthorizedAccount {\n        address issuer;\n        uint index;\n        bool isAuthorized;\n    }\n\n    /// @notice authorized issuers on this contract\n    mapping (address=>AuthorizedAccount) public authorizedAccountsMap;\n    /// @notice list of authorized acounts\n    address[] authorizedAccountsList;\n\n    function AuthorizedIssuer(address _adminWalletAddr) public {\n        admin = _adminWalletAddr;\n    }\n\n    event AuthorizeAttempt(address _actor, bool authorized);\n    /// @notice make sure caller is the issuer that owns this contract because badgeforce tokens will be used \n    modifier authorized(address _issuer) {\n        bool isAuthorized = (_issuer == admin || authorizedAccountsMap[_issuer].isAuthorized);\n        AuthorizeAttempt(_issuer, isAuthorized);\n        require(isAuthorized);\n        _;\n    }\n\n    /// @notice make sure caller is the admin of this contract\n    modifier onlyAdmin(address _issuer) {\n        bool isAuthorized = (_issuer == admin);\n        AuthorizeAttempt(_issuer, isAuthorized);\n        require(isAuthorized);\n        _;\n    }\n\n    event NewAccountAuthorized(address _newIssuer);\n    /// @notice add a new account that will be able to issue credentials from this contract\n    function authorzeAccount(address _newIssuer) public onlyAdmin(msg.sender) {\n        authorizedAccountsMap[_newIssuer] = AuthorizedAccount(_newIssuer, authorizedAccountsList.push(_newIssuer)-1, true);\n        NewAccountAuthorized(_newIssuer);\n    }\n\n    event AuthorizedAccountRemoved(address _issuer);\n    /// @notice remove an authorized issuer from this contract \n    /// @param _issuer address of the account that will be authorized\n    //@TODO remove account entirely from contract\n    function removeAuthorizedAccount(address _issuer) public onlyAdmin(msg.sender) {\n        authorizedAccountsMap[_issuer].isAuthorized = false;\n        AuthorizedAccountRemoved(_issuer);\n    }\n\n    /// @notice gets a authorized account, can be used in conjuntion with numOfAuthorizedAccounts to get all in UI\n    /// @param _index the index of the account in the authorizedAccountsList\n    function getAuthorizedAccount(uint _index) public returns(address _issuer) {\n        if (authorizedAccountsMap[authorizedAccountsList[_index]].isAuthorized) {\n            return authorizedAccountsList[_index];\n        } else {\n            return NONE;\n        }\n    }\n\n    /// @notice returns number of accounts ever authorized \n    function getNumberOfAuthorizedAccounts() public returns(uint _numOfAccounts) {\n        return authorizedAccountsList.length;\n    }\n}",
  "sourcePath": "/Users/khalil.claybon/Desktop/migrate-to-new-cpu/some_work/badgeforce_dev/badgeforce/contracts/AuthorizedIssuer.sol",
  "compiler": {
    "name": "solc",
    "version": "0.4.18+commit.9cf6e910.Emscripten.clang"
  },
  "schemaVersion": "1.0.1",
  "updatedAt": "2017-12-29T12:58:31.821Z"
}