{
  "contractName": "BadgeLibrary",
  "abi": [
    {
      "constant": true,
      "inputs": [
        {
          "name": "_name",
          "type": "string"
        },
        {
          "name": "_issuer",
          "type": "address"
        }
      ],
      "name": "getBadgeLinkHash",
      "outputs": [
        {
          "name": "hash",
          "type": "bytes32"
        }
      ],
      "payable": false,
      "stateMutability": "view",
      "type": "function"
    },
    {
      "constant": true,
      "inputs": [
        {
          "name": "_badgename",
          "type": "string"
        }
      ],
      "name": "getBadgeNameHash",
      "outputs": [
        {
          "name": "_hash",
          "type": "bytes32"
        }
      ],
      "payable": false,
      "stateMutability": "view",
      "type": "function"
    },
    {
      "constant": true,
      "inputs": [
        {
          "name": "_issuer",
          "type": "address"
        },
        {
          "name": "_msgData",
          "type": "bytes"
        },
        {
          "name": "_nonce",
          "type": "uint256"
        }
      ],
      "name": "credentialTxKey",
      "outputs": [
        {
          "name": "key",
          "type": "bytes32"
        }
      ],
      "payable": false,
      "stateMutability": "view",
      "type": "function"
    }
  ],
  "bytecode": "0x6060604052341561000f57600080fd5b6103ee8061001e6000396000f300606060405260043610610057576000357c0100000000000000000000000000000000000000000000000000000000900463ffffffff168063164f0a4e1461005c578063c1eabde9146100e9578063cc2b2ca414610157575b600080fd5b6100cb600480803590602001908201803590602001908080601f0160208091040260200160405190810160405280939291908181526020018383808284378201915050505050509190803573ffffffffffffffffffffffffffffffffffffffff169060200190919050506101ed565b60405180826000191660001916815260200191505060405180910390f35b610139600480803590602001908201803590602001908080601f0160208091040260200160405190810160405280939291908181526020018383808284378201915050505050509190505061029d565b60405180826000191660001916815260200191505060405180910390f35b6101cf600480803573ffffffffffffffffffffffffffffffffffffffff1690602001909190803590602001908201803590602001908080601f01602080910402602001604051908101604052809392919081815260200183838082843782019150505050505091908035906020019091905050610309565b60405180826000191660001916815260200191505060405180910390f35b600082826040518083805190602001908083835b6020831015156102265780518252602082019150602081019050602083039250610201565b6001836020036101000a0380198251168184511680821785525050505050509050018273ffffffffffffffffffffffffffffffffffffffff1673ffffffffffffffffffffffffffffffffffffffff166c01000000000000000000000000028152601401925050506040518091039020905092915050565b6000816040518082805190602001908083835b6020831015156102d557805182526020820191506020810190506020830392506102b0565b6001836020036101000a03801982511681845116808217855250505050505090500191505060405180910390209050919050565b6000838383604051808473ffffffffffffffffffffffffffffffffffffffff1673ffffffffffffffffffffffffffffffffffffffff166c0100000000000000000000000002815260140183805190602001908083835b602083101515610384578051825260208201915060208101905060208303925061035f565b6001836020036101000a03801982511681845116808217855250505050505090500182815260200193505050506040518091039020905093925050505600a165627a7a72305820efa97606db9ce57fe060955acd4dd9e6ffd01d7e2172d873506674d89b614b910029",
  "source": "pragma solidity ^0.4.15;\n\nlibrary BadgeLibrary {\n\n    /// @notice represents simple details about a earnable badge\n    struct Badge {\n        address issuer;\n        string description;\n        string name;\n        string image;\n        string version; \n        // bytes32 linkHash;\n        // bytes32 chainHash;\n    }    \n\n    /// @notice represents details of an issued badge \n    struct Credential {\n        Badge badge;\n        uint expires;\n        address recipient;\n        bytes32 txKey;\n    }\n    /// @notice generate a credential transaction key\n    function credentialTxKey(address _issuer, bytes _msgData, uint _nonce) constant public returns(bytes32 key) {\n        return keccak256(_issuer, _msgData, _nonce);\n    }\n    /// @notice compute hash of badgename \n    function getBadgeNameHash(string _badgename) constant public returns (bytes32 _hash) {\n        return keccak256(_badgename);\n    }\n\n    /// @notice compute hash for badge linking\n    function getBadgeLinkHash(string _name, address _issuer) constant public returns (bytes32 hash) {\n        return keccak256(_name, _issuer);\n    }\n}",
  "sourcePath": "BadgeLibrary/contracts/BadgeLibrary.sol",
  "compiler": {
    "name": "solc",
    "version": "0.4.18+commit.9cf6e910.Emscripten.clang"
  },
  "schemaVersion": "1.0.1",
  "updatedAt": "2017-12-24T18:06:51.122Z"
}