{
  "contractName": "BadgeLibrary",
  "abi": [
    {
      "constant": true,
      "inputs": [
        {
          "name": "_name",
          "type": "string"
        },
        {
          "name": "_issuer",
          "type": "address"
        }
      ],
      "name": "getBadgeLinkHash",
      "outputs": [
        {
          "name": "hash",
          "type": "bytes32"
        }
      ],
      "payable": false,
      "stateMutability": "pure",
      "type": "function"
    },
    {
      "constant": true,
      "inputs": [
        {
          "name": "issuer",
          "type": "address"
        },
        {
          "name": "description",
          "type": "string"
        },
        {
          "name": "name",
          "type": "string"
        },
        {
          "name": "image",
          "type": "string"
        },
        {
          "name": "version",
          "type": "string"
        },
        {
          "name": "recipient",
          "type": "address"
        }
      ],
      "name": "getIntegrityHash",
      "outputs": [
        {
          "name": "_hash",
          "type": "bytes32"
        }
      ],
      "payable": false,
      "stateMutability": "pure",
      "type": "function"
    },
    {
      "constant": true,
      "inputs": [
        {
          "name": "_badgename",
          "type": "string"
        }
      ],
      "name": "getBadgeNameHash",
      "outputs": [
        {
          "name": "_hash",
          "type": "bytes32"
        }
      ],
      "payable": false,
      "stateMutability": "pure",
      "type": "function"
    }
  ],
  "bytecode": "0x6060604052341561000f57600080fd5b61060a8061001e6000396000f300606060405260043610610057576000357c0100000000000000000000000000000000000000000000000000000000900463ffffffff168063164f0a4e1461005c5780631ddb6af6146100e9578063c1eabde91461025e575b600080fd5b6100cb600480803590602001908201803590602001908080601f0160208091040260200160405190810160405280939291908181526020018383808284378201915050505050509190803573ffffffffffffffffffffffffffffffffffffffff169060200190919050506102cc565b60405180826000191660001916815260200191505060405180910390f35b610240600480803573ffffffffffffffffffffffffffffffffffffffff1690602001909190803590602001908201803590602001908080601f0160208091040260200160405190810160405280939291908181526020018383808284378201915050505050509190803590602001908201803590602001908080601f0160208091040260200160405190810160405280939291908181526020018383808284378201915050505050509190803590602001908201803590602001908080601f0160208091040260200160405190810160405280939291908181526020018383808284378201915050505050509190803590602001908201803590602001908080601f0160208091040260200160405190810160405280939291908181526020018383808284378201915050505050509190803573ffffffffffffffffffffffffffffffffffffffff1690602001909190505061037c565b60405180826000191660001916815260200191505060405180910390f35b6102ae600480803590602001908201803590602001908080601f01602080910402602001604051908101604052809392919081815260200183838082843782019150505050505091905050610572565b60405180826000191660001916815260200191505060405180910390f35b600082826040518083805190602001908083835b60208310151561030557805182526020820191506020810190506020830392506102e0565b6001836020036101000a0380198251168184511680821785525050505050509050018273ffffffffffffffffffffffffffffffffffffffff1673ffffffffffffffffffffffffffffffffffffffff166c01000000000000000000000000028152601401925050506040518091039020905092915050565b6000868686868686604051808773ffffffffffffffffffffffffffffffffffffffff1673ffffffffffffffffffffffffffffffffffffffff166c0100000000000000000000000002815260140186805190602001908083835b6020831015156103fa57805182526020820191506020810190506020830392506103d5565b6001836020036101000a03801982511681845116808217855250505050505090500185805190602001908083835b60208310151561044d5780518252602082019150602081019050602083039250610428565b6001836020036101000a03801982511681845116808217855250505050505090500184805190602001908083835b6020831015156104a0578051825260208201915060208101905060208303925061047b565b6001836020036101000a03801982511681845116808217855250505050505090500183805190602001908083835b6020831015156104f357805182526020820191506020810190506020830392506104ce565b6001836020036101000a0380198251168184511680821785525050505050509050018273ffffffffffffffffffffffffffffffffffffffff1673ffffffffffffffffffffffffffffffffffffffff166c010000000000000000000000000281526014019650505050505050604051809103902090509695505050505050565b6000816040518082805190602001908083835b6020831015156105aa5780518252602082019150602081019050602083039250610585565b6001836020036101000a038019825116818451168082178552505050505050905001915050604051809103902090509190505600a165627a7a723058205c53f007bf4bb434793e00c11459af4d44f323a785f1cdd4dab565103b8406ab0029",
  "source": "pragma solidity ^0.4.17;\n\nlibrary BadgeLibrary {\n\n    /// @notice represents simple details about a earnable badge\n    struct Badge {\n        address issuer;\n        string description;\n        string name;\n        string image;\n        string version; \n    }    \n\n    /// @notice represents details of an issued badge \n    struct Credential {\n        Badge badge;\n        uint expires;\n        address recipient;\n        bytes32 txnKey;\n        bool active;\n    }\n    \n    /// @notice compute hash of badgename \n    function getBadgeNameHash(string _badgename) pure public returns (bytes32 _hash) {\n        return keccak256(_badgename);\n    }\n\n    /// @notice compute hash for badge linking\n    function getBadgeLinkHash(string _name, address _issuer) pure public returns (bytes32 hash) {\n        return keccak256(_name, _issuer);\n    }\n\n    /// @notice compute integrity hash of credential data\n    function getIntegrityHash(\n        address issuer, \n        string description, \n        string name, \n        string image, \n        string version,\n        address recipient\n    ) pure public returns(bytes32 _hash) \n    {\n        return keccak256(\n                issuer, \n                description, \n                name, \n                image, \n                version, \n                recipient\n        );\n    }\n}",
  "sourcePath": "BadgeLibrary/contracts/BadgeLibrary.sol",
  "compiler": {
    "name": "solc",
    "version": "0.4.18+commit.9cf6e910.Emscripten.clang"
  },
  "schemaVersion": "1.0.1",
  "updatedAt": "2018-01-12T07:35:13.896Z"
}