{
  "contractName": "BadgeManager",
  "abi": [
    {
      "constant": true,
      "inputs": [],
      "name": "getNumberOfBadges",
      "outputs": [
        {
          "name": "count",
          "type": "uint256"
        }
      ],
      "payable": false,
      "stateMutability": "view",
      "type": "function"
    },
    {
      "constant": true,
      "inputs": [
        {
          "name": "_index",
          "type": "uint256"
        }
      ],
      "name": "getAuthorizedAccount",
      "outputs": [
        {
          "name": "_issuer",
          "type": "address"
        }
      ],
      "payable": false,
      "stateMutability": "view",
      "type": "function"
    },
    {
      "constant": false,
      "inputs": [
        {
          "name": "_newIssuer",
          "type": "address"
        }
      ],
      "name": "authorzeAccount",
      "outputs": [],
      "payable": false,
      "stateMutability": "nonpayable",
      "type": "function"
    },
    {
      "constant": true,
      "inputs": [
        {
          "name": "_index",
          "type": "uint256"
        }
      ],
      "name": "getNameByIndex",
      "outputs": [
        {
          "name": "_name",
          "type": "bytes32"
        }
      ],
      "payable": false,
      "stateMutability": "view",
      "type": "function"
    },
    {
      "constant": false,
      "inputs": [
        {
          "name": "_description",
          "type": "string"
        },
        {
          "name": "_name",
          "type": "string"
        },
        {
          "name": "_image",
          "type": "string"
        },
        {
          "name": "_version",
          "type": "string"
        }
      ],
      "name": "createBadge",
      "outputs": [],
      "payable": false,
      "stateMutability": "nonpayable",
      "type": "function"
    },
    {
      "constant": true,
      "inputs": [
        {
          "name": "_name",
          "type": "string"
        }
      ],
      "name": "isUnique",
      "outputs": [
        {
          "name": "unique",
          "type": "bool"
        }
      ],
      "payable": false,
      "stateMutability": "view",
      "type": "function"
    },
    {
      "constant": true,
      "inputs": [
        {
          "name": "_badgeNameHash",
          "type": "bytes32"
        }
      ],
      "name": "getBadge",
      "outputs": [
        {
          "name": "issuer",
          "type": "address"
        },
        {
          "name": "description",
          "type": "string"
        },
        {
          "name": "bName",
          "type": "string"
        },
        {
          "name": "image",
          "type": "string"
        },
        {
          "name": "version",
          "type": "string"
        }
      ],
      "payable": false,
      "stateMutability": "view",
      "type": "function"
    },
    {
      "constant": true,
      "inputs": [],
      "name": "getNumberOfAuthorizedAccounts",
      "outputs": [
        {
          "name": "_numOfAccounts",
          "type": "uint256"
        }
      ],
      "payable": false,
      "stateMutability": "view",
      "type": "function"
    },
    {
      "constant": false,
      "inputs": [
        {
          "name": "_name",
          "type": "string"
        }
      ],
      "name": "deleteBadge",
      "outputs": [
        {
          "name": "success",
          "type": "bool"
        }
      ],
      "payable": false,
      "stateMutability": "nonpayable",
      "type": "function"
    },
    {
      "constant": false,
      "inputs": [
        {
          "name": "_issuer",
          "type": "address"
        }
      ],
      "name": "removeAuthorizedAccount",
      "outputs": [],
      "payable": false,
      "stateMutability": "nonpayable",
      "type": "function"
    },
    {
      "constant": true,
      "inputs": [],
      "name": "admin",
      "outputs": [
        {
          "name": "",
          "type": "address"
        }
      ],
      "payable": false,
      "stateMutability": "view",
      "type": "function"
    },
    {
      "constant": true,
      "inputs": [
        {
          "name": "",
          "type": "address"
        }
      ],
      "name": "authorizedAccountsMap",
      "outputs": [
        {
          "name": "issuer",
          "type": "address"
        },
        {
          "name": "index",
          "type": "uint256"
        },
        {
          "name": "isAuthorized",
          "type": "bool"
        }
      ],
      "payable": false,
      "stateMutability": "view",
      "type": "function"
    },
    {
      "inputs": [
        {
          "name": "_adminWalletAddr",
          "type": "address"
        }
      ],
      "payable": false,
      "stateMutability": "nonpayable",
      "type": "constructor"
    },
    {
      "anonymous": false,
      "inputs": [
        {
          "indexed": false,
          "name": "_name",
          "type": "string"
        },
        {
          "indexed": true,
          "name": "_issuer",
          "type": "address"
        }
      ],
      "name": "BadgeCreated",
      "type": "event"
    },
    {
      "anonymous": false,
      "inputs": [
        {
          "indexed": false,
          "name": "_name",
          "type": "string"
        },
        {
          "indexed": false,
          "name": "count",
          "type": "uint256"
        }
      ],
      "name": "BadgeDeleted",
      "type": "event"
    },
    {
      "anonymous": false,
      "inputs": [
        {
          "indexed": false,
          "name": "_actor",
          "type": "address"
        },
        {
          "indexed": false,
          "name": "authorized",
          "type": "bool"
        }
      ],
      "name": "AuthorizeAttempt",
      "type": "event"
    },
    {
      "anonymous": false,
      "inputs": [
        {
          "indexed": false,
          "name": "_newIssuer",
          "type": "address"
        }
      ],
      "name": "NewAccountAuthorized",
      "type": "event"
    },
    {
      "anonymous": false,
      "inputs": [
        {
          "indexed": false,
          "name": "_issuer",
          "type": "address"
        }
      ],
      "name": "AuthorizedAccountRemoved",
      "type": "event"
    }
  ],
  "bytecode": "0x6060604052341561000f57600080fd5b604051602080611d808339810160405280805190602001909190505080806000806101000a81548173ffffffffffffffffffffffffffffffffffffffff021916908373ffffffffffffffffffffffffffffffffffffffff1602179055505050611d038061007d6000396000f3006060604052600436106100ba576000357c0100000000000000000000000000000000000000000000000000000000900463ffffffff16806324ddd51a146100bf5780633557b6c3146100e85780633b57391a1461014b57806359c293f1146101845780635c9d3a94146101c357806372ee19a2146102e957806377002fcf1461035e5780637c59fda014610575578063b61092211461059e578063be47aa0914610613578063f851a4401461064c578063f9afc242146106a1575b600080fd5b34156100ca57600080fd5b6100d261072c565b6040518082815260200191505060405180910390f35b34156100f357600080fd5b610109600480803590602001909190505061073c565b604051808273ffffffffffffffffffffffffffffffffffffffff1673ffffffffffffffffffffffffffffffffffffffff16815260200191505060405180910390f35b341561015657600080fd5b610182600480803573ffffffffffffffffffffffffffffffffffffffff16906020019091905050610819565b005b341561018f57600080fd5b6101a56004808035906020019091905050610a9d565b60405180826000191660001916815260200191505060405180910390f35b34156101ce57600080fd5b6102e7600480803590602001908201803590602001908080601f0160208091040260200160405190810160405280939291908181526020018383808284378201915050505050509190803590602001908201803590602001908080601f0160208091040260200160405190810160405280939291908181526020018383808284378201915050505050509190803590602001908201803590602001908080601f0160208091040260200160405190810160405280939291908181526020018383808284378201915050505050509190803590602001908201803590602001908080601f01602080910402602001604051908101604052809392919081815260200183838082843782019150505050505091905050610ac4565b005b34156102f457600080fd5b610344600480803590602001908201803590602001908080601f01602080910402602001604051908101604052809392919081815260200183838082843782019150505050505091905050610f3d565b604051808215151515815260200191505060405180910390f35b341561036957600080fd5b610383600480803560001916906020019091905050611097565b604051808673ffffffffffffffffffffffffffffffffffffffff1673ffffffffffffffffffffffffffffffffffffffff16815260200180602001806020018060200180602001858103855289818151815260200191508051906020019080838360005b838110156104015780820151818401526020810190506103e6565b50505050905090810190601f16801561042e5780820380516001836020036101000a031916815260200191505b50858103845288818151815260200191508051906020019080838360005b8381101561046757808201518184015260208101905061044c565b50505050905090810190601f1680156104945780820380516001836020036101000a031916815260200191505b50858103835287818151815260200191508051906020019080838360005b838110156104cd5780820151818401526020810190506104b2565b50505050905090810190601f1680156104fa5780820380516001836020036101000a031916815260200191505b50858103825286818151815260200191508051906020019080838360005b83811015610533578082015181840152602081019050610518565b50505050905090810190601f1680156105605780820380516001836020036101000a031916815260200191505b50995050505050505050505060405180910390f35b341561058057600080fd5b61058861146b565b6040518082815260200191505060405180910390f35b34156105a957600080fd5b6105f9600480803590602001908201803590602001908080601f01602080910402602001604051908101604052809392919081815260200183838082843782019150505050505091905050611478565b604051808215151515815260200191505060405180910390f35b341561061e57600080fd5b61064a600480803573ffffffffffffffffffffffffffffffffffffffff169060200190919050506118ac565b005b341561065757600080fd5b61065f611a3f565b604051808273ffffffffffffffffffffffffffffffffffffffff1673ffffffffffffffffffffffffffffffffffffffff16815260200191505060405180910390f35b34156106ac57600080fd5b6106d8600480803573ffffffffffffffffffffffffffffffffffffffff16906020019091905050611a64565b604051808473ffffffffffffffffffffffffffffffffffffffff1673ffffffffffffffffffffffffffffffffffffffff16815260200183815260200182151515158152602001935050505060405180910390f35b6000600360020180549050905090565b60006001600060028481548110151561075157fe5b906000526020600020900160009054906101000a900473ffffffffffffffffffffffffffffffffffffffff1673ffffffffffffffffffffffffffffffffffffffff1673ffffffffffffffffffffffffffffffffffffffff16815260200190815260200160002060020160009054906101000a900460ff161561080f576002828154811015156107dc57fe5b906000526020600020900160009054906101000a900473ffffffffffffffffffffffffffffffffffffffff169050610814565b600090505b919050565b3360008060009054906101000a900473ffffffffffffffffffffffffffffffffffffffff1673ffffffffffffffffffffffffffffffffffffffff168273ffffffffffffffffffffffffffffffffffffffff161490507f7fca019a0a52664785803f352d793a992f66c4affa261b3daf127976e7ad67998282604051808373ffffffffffffffffffffffffffffffffffffffff1673ffffffffffffffffffffffffffffffffffffffff168152602001821515151581526020019250505060405180910390a18015156108e957600080fd5b6060604051908101604052808473ffffffffffffffffffffffffffffffffffffffff1681526020016001600280548060010182816109279190611abb565b9160005260206000209001600088909190916101000a81548173ffffffffffffffffffffffffffffffffffffffff021916908373ffffffffffffffffffffffffffffffffffffffff16021790555003815260200160011515815250600160008573ffffffffffffffffffffffffffffffffffffffff1673ffffffffffffffffffffffffffffffffffffffff16815260200190815260200160002060008201518160000160006101000a81548173ffffffffffffffffffffffffffffffffffffffff021916908373ffffffffffffffffffffffffffffffffffffffff1602179055506020820151816001015560408201518160020160006101000a81548160ff0219169083151502179055509050507f7fd215c956537f33ef9064c457003d82df8562a7b03e1f896c0b39c7abc8355883604051808273ffffffffffffffffffffffffffffffffffffffff1673ffffffffffffffffffffffffffffffffffffffff16815260200191505060405180910390a1505050565b6000600360020182815481101515610ab157fe5b9060005260206000209001549050919050565b600080610acf611ae7565b3360008060009054906101000a900473ffffffffffffffffffffffffffffffffffffffff1673ffffffffffffffffffffffffffffffffffffffff168273ffffffffffffffffffffffffffffffffffffffff161480610b795750600160008373ffffffffffffffffffffffffffffffffffffffff1673ffffffffffffffffffffffffffffffffffffffff16815260200190815260200160002060020160009054906101000a900460ff165b90507f7fca019a0a52664785803f352d793a992f66c4affa261b3daf127976e7ad67998282604051808373ffffffffffffffffffffffffffffffffffffffff1673ffffffffffffffffffffffffffffffffffffffff168152602001821515151581526020019250505060405180910390a1801515610bf657600080fd5b87610c0081610f3d565b1515610c0b57600080fd5b73__BadgeLibrary__________________________63c1eabde98a6000604051602001526040518263ffffffff167c01000000000000000000000000000000000000000000000000000000000281526004018080602001828103825283818151815260200191508051906020019080838360005b83811015610c9a578082015181840152602081019050610c7f565b50505050905090810190601f168015610cc75780820380516001836020036101000a031916815260200191505b509250505060206040518083038186803b1515610ce357600080fd5b6102c65a03f41515610cf457600080fd5b505050604051805190509550600160036002018054806001018281610d199190611b45565b916000526020600020900160008990919091509060001916905503945060a0604051908101604052803073ffffffffffffffffffffffffffffffffffffffff1681526020018b81526020018a81526020018981526020018881525093508360036000016000886000191660001916815260200190815260200160002060008201518160000160006101000a81548173ffffffffffffffffffffffffffffffffffffffff021916908373ffffffffffffffffffffffffffffffffffffffff1602179055506020820151816001019080519060200190610df8929190611b71565b506040820151816002019080519060200190610e15929190611b71565b506060820151816003019080519060200190610e32929190611b71565b506080820151816004019080519060200190610e4f929190611b71565b509050508460036001016000886000191660001916815260200190815260200160002081905550836000015173ffffffffffffffffffffffffffffffffffffffff167fde74f67f0ccaf379531f5b3884d0afb87e86192a992d99e7222390f8870a0b5385604001516040518080602001828103825283818151815260200191508051906020019080838360005b83811015610ef7578082015181840152602081019050610edc565b50505050905090810190601f168015610f245780820380516001836020036101000a031916815260200191505b509250505060405180910390a250505050505050505050565b60008073__BadgeLibrary__________________________63c1eabde9846000604051602001526040518263ffffffff167c01000000000000000000000000000000000000000000000000000000000281526004018080602001828103825283818151815260200191508051906020019080838360005b83811015610fcf578082015181840152602081019050610fb4565b50505050905090810190601f168015610ffc5780820380516001836020036101000a031916815260200191505b509250505060206040518083038186803b151561101857600080fd5b6102c65a03f4151561102957600080fd5b5050506040518051905090506000600360020180549050148061108f5750806000191660036002016003600101600084600019166000191681526020019081526020016000205481548110151561107c57fe5b9060005260206000209001546000191614155b915050919050565b60006110a1611bf1565b6110a9611bf1565b6110b1611bf1565b6110b9611bf1565b6110c1611ae7565b86600060036002018054905011801561111c5750806000191660036002016003600101600084600019166000191681526020019081526020016000205481548110151561110a57fe5b90600052602060002090015460001916145b151561112757600080fd5b60036000016000896000191660001916815260200190815260200160002060a060405190810160405290816000820160009054906101000a900473ffffffffffffffffffffffffffffffffffffffff1673ffffffffffffffffffffffffffffffffffffffff1673ffffffffffffffffffffffffffffffffffffffff168152602001600182018054600181600116156101000203166002900480601f0160208091040260200160405190810160405280929190818152602001828054600181600116156101000203166002900480156112405780601f1061121557610100808354040283529160200191611240565b820191906000526020600020905b81548152906001019060200180831161122357829003601f168201915b50505050508152602001600282018054600181600116156101000203166002900480601f0160208091040260200160405190810160405280929190818152602001828054600181600116156101000203166002900480156112e25780601f106112b7576101008083540402835291602001916112e2565b820191906000526020600020905b8154815290600101906020018083116112c557829003601f168201915b50505050508152602001600382018054600181600116156101000203166002900480601f0160208091040260200160405190810160405280929190818152602001828054600181600116156101000203166002900480156113845780601f1061135957610100808354040283529160200191611384565b820191906000526020600020905b81548152906001019060200180831161136757829003601f168201915b50505050508152602001600482018054600181600116156101000203166002900480601f0160208091040260200160405190810160405280929190818152602001828054600181600116156101000203166002900480156114265780601f106113fb57610100808354040283529160200191611426565b820191906000526020600020905b81548152906001019060200180831161140957829003601f168201915b50505050508152505091508160000151826020015183604001518460600151856080015183935082925081915080905096509650965096509650505091939590929450565b6000600280549050905090565b6000806000803360008060009054906101000a900473ffffffffffffffffffffffffffffffffffffffff1673ffffffffffffffffffffffffffffffffffffffff168273ffffffffffffffffffffffffffffffffffffffff1614806115285750600160008373ffffffffffffffffffffffffffffffffffffffff1673ffffffffffffffffffffffffffffffffffffffff16815260200190815260200160002060020160009054906101000a900460ff165b90507f7fca019a0a52664785803f352d793a992f66c4affa261b3daf127976e7ad67998282604051808373ffffffffffffffffffffffffffffffffffffffff1673ffffffffffffffffffffffffffffffffffffffff168152602001821515151581526020019250505060405180910390a18015156115a557600080fd5b73__BadgeLibrary__________________________63c1eabde9886000604051602001526040518263ffffffff167c01000000000000000000000000000000000000000000000000000000000281526004018080602001828103825283818151815260200191508051906020019080838360005b83811015611634578082015181840152602081019050611619565b50505050905090810190601f1680156116615780820380516001836020036101000a031916815260200191505b509250505060206040518083038186803b151561167d57600080fd5b6102c65a03f4151561168e57600080fd5b50505060405180519050945060036001016000866000191660001916815260200190815260200160002054935060036002016001600360020180549050038154811015156116d857fe5b906000526020600020900154925083600360010160008560001916600019168152602001908152602001600020819055508260036002018581548110151561171c57fe5b9060005260206000209001816000191690555060036002018054809190600190036117479190611c05565b50600360000160008660001916600019168152602001908152602001600020600080820160006101000a81549073ffffffffffffffffffffffffffffffffffffffff021916905560018201600061179e9190611c31565b6002820160006117ae9190611c31565b6003820160006117be9190611c31565b6004820160006117ce9190611c31565b5050600360010160008660001916600019168152602001908152602001600020600090557f25011d6c52f8dd436cbad877a1e1bfa99b3fc7b3df1c4f7b68d6f6403e943a51876003600201805490506040518080602001838152602001828103825284818151815260200191508051906020019080838360005b83811015611863578082015181840152602081019050611848565b50505050905090810190601f1680156118905780820380516001836020036101000a031916815260200191505b50935050505060405180910390a1600195505050505050919050565b3360008060009054906101000a900473ffffffffffffffffffffffffffffffffffffffff1673ffffffffffffffffffffffffffffffffffffffff168273ffffffffffffffffffffffffffffffffffffffff161490507f7fca019a0a52664785803f352d793a992f66c4affa261b3daf127976e7ad67998282604051808373ffffffffffffffffffffffffffffffffffffffff1673ffffffffffffffffffffffffffffffffffffffff168152602001821515151581526020019250505060405180910390a180151561197c57600080fd5b6000600160008573ffffffffffffffffffffffffffffffffffffffff1673ffffffffffffffffffffffffffffffffffffffff16815260200190815260200160002060020160006101000a81548160ff0219169083151502179055507f56a53756e1db2ff35a90edee9bd205b4b2bb8633ee3d6a53a5e85d5b46f0e9dc83604051808273ffffffffffffffffffffffffffffffffffffffff1673ffffffffffffffffffffffffffffffffffffffff16815260200191505060405180910390a1505050565b6000809054906101000a900473ffffffffffffffffffffffffffffffffffffffff1681565b60016020528060005260406000206000915090508060000160009054906101000a900473ffffffffffffffffffffffffffffffffffffffff16908060010154908060020160009054906101000a900460ff16905083565b815481835581811511611ae257818360005260206000209182019101611ae19190611c79565b5b505050565b60a060405190810160405280600073ffffffffffffffffffffffffffffffffffffffff168152602001611b18611c9e565b8152602001611b25611c9e565b8152602001611b32611c9e565b8152602001611b3f611c9e565b81525090565b815481835581811511611b6c57818360005260206000209182019101611b6b9190611cb2565b5b505050565b828054600181600116156101000203166002900490600052602060002090601f016020900481019282601f10611bb257805160ff1916838001178555611be0565b82800160010185558215611be0579182015b82811115611bdf578251825591602001919060010190611bc4565b5b509050611bed9190611c79565b5090565b602060405190810160405280600081525090565b815481835581811511611c2c57818360005260206000209182019101611c2b9190611cb2565b5b505050565b50805460018160011615610100020316600290046000825580601f10611c575750611c76565b601f016020900490600052602060002090810190611c759190611c79565b5b50565b611c9b91905b80821115611c97576000816000905550600101611c7f565b5090565b90565b602060405190810160405280600081525090565b611cd491905b80821115611cd0576000816000905550600101611cb8565b5090565b905600a165627a7a723058208303134cd8b59c526a1d70eff1a00e23338d1710eecb4c33cc5e0ba1631f7ffa0029",
  "source": "pragma solidity ^0.4.17;\n\nimport \"BadgeLibrary/contracts/BadgeLibrary.sol\";\n\nimport \"./AuthorizedIssuer.sol\";\n\ncontract BadgeManager is AuthorizedIssuer {\n\n    /// @notice mapping of badgename hash to badge\n    /// @notice array of badge hash names\n    struct Vault {\n        mapping (bytes32=>BadgeLibrary.Badge) badges;\n        mapping (bytes32=>uint) indexMap;\n        bytes32[] badgeHashNames;\n    }\n\n    /// @notice storage for earnable badges\n    Vault badgeVault;\n\n    function BadgeManager(address _adminWalletAddr) public AuthorizedIssuer(_adminWalletAddr) {}\n\n    /// @notice makes sure badge is unique\n    modifier uniqueBadge(string _name) {\n        require(isUnique(_name));\n        _;\n    }\n\n    function isUnique(string _name) public constant returns(bool unique) {\n        bytes32 badgeNameHash = BadgeLibrary.getBadgeNameHash(_name);\n        return (badgeVault.badgeHashNames.length == 0 || badgeVault.badgeHashNames[badgeVault.indexMap[badgeNameHash]] != badgeNameHash);\n    }\n\n    /// @notice checks if a badge exists by name\n    modifier badgeExists(string _name) {\n        bytes32 badgeNameHash = BadgeLibrary.getBadgeNameHash(_name);\n        require(badgeVault.badgeHashNames.length > 0 && badgeVault.badgeHashNames[badgeVault.indexMap[badgeNameHash]] == badgeNameHash);\n        _;\n    }\n\n    /// @notice checks if a badge exists by name\n    modifier badgeNameHashExists(bytes32 _badgeNameHash) {\n        require(badgeVault.badgeHashNames.length > 0 && badgeVault.badgeHashNames[badgeVault.indexMap[_badgeNameHash]] == _badgeNameHash);\n        _;\n    }\n\n    event BadgeCreated(\n        string _name,\n        address indexed _issuer\n    );\n    /// @notice create a new badge store it in the badging map\n    /// @param _description Description of the badge\n    /// @param _name name of the badge\n    /// @param _image badge image\n    /// @param _version badge version\n    function createBadge(\n        string _description,\n        string _name,\n        string _image,\n        string _version)\n        authorized(msg.sender) uniqueBadge(_name) public\n        {\n        bytes32 badgeNameHash = BadgeLibrary.getBadgeNameHash(_name);\n        uint index = badgeVault.badgeHashNames.push(badgeNameHash)-1;\n        BadgeLibrary.Badge memory badge = BadgeLibrary.Badge(\n            address(this),\n            _description,\n            _name,\n            _image,\n            _version\n        );\n        badgeVault.badges[badgeNameHash] = badge;\n        badgeVault.indexMap[badgeNameHash] = index;\n        BadgeCreated(badge.name, badge.issuer);\n    }\n\n    event BadgeDeleted(string _name, uint count);\n    /// @notice delete a created badge\n    function deleteBadge(string _name)\n    authorized(msg.sender)\n    public returns(bool success)\n    {\n        bytes32 badgeNameHash = BadgeLibrary.getBadgeNameHash(_name);\n        uint rowToDelete = badgeVault.indexMap[badgeNameHash];\n        bytes32 rowToMove = badgeVault.badgeHashNames[badgeVault.badgeHashNames.length-1];\n        badgeVault.indexMap[rowToMove] = rowToDelete;\n        badgeVault.badgeHashNames[rowToDelete] = rowToMove;\n        badgeVault.badgeHashNames.length--;\n        delete badgeVault.badges[badgeNameHash];\n        delete badgeVault.indexMap[badgeNameHash];\n\n        BadgeDeleted(_name, badgeVault.badgeHashNames.length);\n        return true;\n    }\n\n    // @notice get the number of badges (used by frontend as iterator index to retrieve each badge)     authorized(_sig, _v, _r, _s)\n    function getNumberOfBadges()\n    constant public returns(uint count)\n    {\n        return badgeVault.badgeHashNames.length;\n    }\n\n    /// @notice get a badge by it's index (should be used by frontend in a loop to get all the badges)\n    /// @param _badgeNameHash name of the badge to get inside the badge map\n    function getBadge(bytes32 _badgeNameHash) badgeNameHashExists(_badgeNameHash) constant public returns(\n        address issuer,\n        string description,\n        string bName,\n        string image,\n        string version\n    ) {\n        BadgeLibrary.Badge memory badge = badgeVault.badges[_badgeNameHash];\n        return (\n            badge.issuer,\n            badge.description,\n            badge.name,\n            badge.image,\n            badge.version\n        );\n    }\n\n    /// @notice helper function for UI to retrieve all names then retrieve the badges\n    /// @param _index index of the name you want\n    function getNameByIndex(uint _index) constant public returns(bytes32 _name) {\n        return badgeVault.badgeHashNames[_index];\n    }\n\n}\n",
  "sourcePath": "/home/kc1116/Desktop/badgeforce_development/badgeforce/contracts/BadgeManager.sol",
  "compiler": {
    "name": "solc",
    "version": "0.4.18+commit.9cf6e910.Emscripten.clang"
  },
  "schemaVersion": "1.0.1",
  "updatedAt": "2018-01-12T07:35:13.889Z"
}