{
  "contractName": "BadgeManager",
  "abi": [
    {
      "constant": true,
      "inputs": [
        {
          "name": "_name",
          "type": "string"
        },
        {
          "name": "_issuer",
          "type": "address"
        }
      ],
      "name": "getBadgeLinkHash",
      "outputs": [
        {
          "name": "hash",
          "type": "bytes32"
        }
      ],
      "payable": false,
      "stateMutability": "pure",
      "type": "function"
    },
    {
      "constant": true,
      "inputs": [
        {
          "name": "issuer",
          "type": "address"
        },
        {
          "name": "description",
          "type": "string"
        },
        {
          "name": "name",
          "type": "string"
        },
        {
          "name": "image",
          "type": "string"
        },
        {
          "name": "version",
          "type": "string"
        },
        {
          "name": "recipient",
          "type": "address"
        }
      ],
      "name": "getIntegrityHash",
      "outputs": [
        {
          "name": "_hash",
          "type": "bytes32"
        }
      ],
      "payable": false,
      "stateMutability": "pure",
      "type": "function"
    },
    {
      "constant": true,
      "inputs": [],
      "name": "getNumberOfBadges",
      "outputs": [
        {
          "name": "count",
          "type": "uint256"
        }
      ],
      "payable": false,
      "stateMutability": "view",
      "type": "function"
    },
    {
      "constant": true,
      "inputs": [
        {
          "name": "_index",
          "type": "uint256"
        }
      ],
      "name": "getAuthorizedAccount",
      "outputs": [
        {
          "name": "_issuer",
          "type": "address"
        }
      ],
      "payable": false,
      "stateMutability": "view",
      "type": "function"
    },
    {
      "constant": false,
      "inputs": [
        {
          "name": "_newIssuer",
          "type": "address"
        }
      ],
      "name": "authorzeAccount",
      "outputs": [],
      "payable": false,
      "stateMutability": "nonpayable",
      "type": "function"
    },
    {
      "constant": true,
      "inputs": [
        {
          "name": "_index",
          "type": "uint256"
        }
      ],
      "name": "getNameByIndex",
      "outputs": [
        {
          "name": "_name",
          "type": "bytes32"
        }
      ],
      "payable": false,
      "stateMutability": "view",
      "type": "function"
    },
    {
      "constant": false,
      "inputs": [
        {
          "name": "_description",
          "type": "string"
        },
        {
          "name": "_name",
          "type": "string"
        },
        {
          "name": "_image",
          "type": "string"
        },
        {
          "name": "_version",
          "type": "string"
        }
      ],
      "name": "createBadge",
      "outputs": [],
      "payable": false,
      "stateMutability": "nonpayable",
      "type": "function"
    },
    {
      "constant": true,
      "inputs": [
        {
          "name": "_name",
          "type": "string"
        }
      ],
      "name": "isUnique",
      "outputs": [
        {
          "name": "unique",
          "type": "bool"
        }
      ],
      "payable": false,
      "stateMutability": "view",
      "type": "function"
    },
    {
      "constant": true,
      "inputs": [
        {
          "name": "_badgeNameHash",
          "type": "bytes32"
        }
      ],
      "name": "getBadge",
      "outputs": [
        {
          "name": "issuer",
          "type": "address"
        },
        {
          "name": "description",
          "type": "string"
        },
        {
          "name": "bName",
          "type": "string"
        },
        {
          "name": "image",
          "type": "string"
        },
        {
          "name": "version",
          "type": "string"
        }
      ],
      "payable": false,
      "stateMutability": "view",
      "type": "function"
    },
    {
      "constant": true,
      "inputs": [],
      "name": "getNumberOfAuthorizedAccounts",
      "outputs": [
        {
          "name": "_numOfAccounts",
          "type": "uint256"
        }
      ],
      "payable": false,
      "stateMutability": "view",
      "type": "function"
    },
    {
      "constant": false,
      "inputs": [
        {
          "name": "_name",
          "type": "string"
        }
      ],
      "name": "deleteBadge",
      "outputs": [
        {
          "name": "success",
          "type": "bool"
        }
      ],
      "payable": false,
      "stateMutability": "nonpayable",
      "type": "function"
    },
    {
      "constant": false,
      "inputs": [
        {
          "name": "_issuer",
          "type": "address"
        }
      ],
      "name": "removeAuthorizedAccount",
      "outputs": [],
      "payable": false,
      "stateMutability": "nonpayable",
      "type": "function"
    },
    {
      "constant": true,
      "inputs": [
        {
          "name": "_badgename",
          "type": "string"
        }
      ],
      "name": "getBadgeNameHash",
      "outputs": [
        {
          "name": "_hash",
          "type": "bytes32"
        }
      ],
      "payable": false,
      "stateMutability": "pure",
      "type": "function"
    },
    {
      "constant": true,
      "inputs": [],
      "name": "admin",
      "outputs": [
        {
          "name": "",
          "type": "address"
        }
      ],
      "payable": false,
      "stateMutability": "view",
      "type": "function"
    },
    {
      "constant": true,
      "inputs": [
        {
          "name": "",
          "type": "address"
        }
      ],
      "name": "authorizedAccountsMap",
      "outputs": [
        {
          "name": "issuer",
          "type": "address"
        },
        {
          "name": "index",
          "type": "uint256"
        },
        {
          "name": "isAuthorized",
          "type": "bool"
        }
      ],
      "payable": false,
      "stateMutability": "view",
      "type": "function"
    },
    {
      "inputs": [
        {
          "name": "_adminWalletAddr",
          "type": "address"
        }
      ],
      "payable": false,
      "stateMutability": "nonpayable",
      "type": "constructor"
    },
    {
      "anonymous": false,
      "inputs": [
        {
          "indexed": false,
          "name": "_name",
          "type": "string"
        },
        {
          "indexed": true,
          "name": "_issuer",
          "type": "address"
        }
      ],
      "name": "BadgeCreated",
      "type": "event"
    },
    {
      "anonymous": false,
      "inputs": [
        {
          "indexed": false,
          "name": "_name",
          "type": "string"
        },
        {
          "indexed": false,
          "name": "count",
          "type": "uint256"
        }
      ],
      "name": "BadgeDeleted",
      "type": "event"
    },
    {
      "anonymous": false,
      "inputs": [
        {
          "indexed": false,
          "name": "_actor",
          "type": "address"
        },
        {
          "indexed": false,
          "name": "authorized",
          "type": "bool"
        }
      ],
      "name": "AuthorizeAttempt",
      "type": "event"
    },
    {
      "anonymous": false,
      "inputs": [
        {
          "indexed": false,
          "name": "_newIssuer",
          "type": "address"
        }
      ],
      "name": "NewAccountAuthorized",
      "type": "event"
    },
    {
      "anonymous": false,
      "inputs": [
        {
          "indexed": false,
          "name": "_issuer",
          "type": "address"
        }
      ],
      "name": "AuthorizedAccountRemoved",
      "type": "event"
    }
  ],
  "bytecode": "0x6060604052341561000f57600080fd5b6040516020806120868339810160405280805190602001909190505080806000806101000a81548173ffffffffffffffffffffffffffffffffffffffff021916908373ffffffffffffffffffffffffffffffffffffffff16021790555050506120098061007d6000396000f3006060604052600436106100db576000357c0100000000000000000000000000000000000000000000000000000000900463ffffffff168063164f0a4e146100e05780631ddb6af61461017857806324ddd51a146102f85780633557b6c3146103215780633b57391a1461038457806359c293f1146103bd5780635c9d3a94146103fc57806372ee19a21461052257806377002fcf146105975780637c59fda0146107ae578063b6109221146107d7578063be47aa091461084c578063c1eabde914610885578063f851a440146108fe578063f9afc24214610953575b600080fd5b34156100eb57600080fd5b61015a600480803590602001908201803590602001908080601f0160208091040260200160405190810160405280939291908181526020018383808284378201915050505050509190803573ffffffffffffffffffffffffffffffffffffffff169060200190919050506109de565b60405180826000191660001916815260200191505060405180910390f35b341561018357600080fd5b6102da600480803573ffffffffffffffffffffffffffffffffffffffff1690602001909190803590602001908201803590602001908080601f0160208091040260200160405190810160405280939291908181526020018383808284378201915050505050509190803590602001908201803590602001908080601f0160208091040260200160405190810160405280939291908181526020018383808284378201915050505050509190803590602001908201803590602001908080601f0160208091040260200160405190810160405280939291908181526020018383808284378201915050505050509190803590602001908201803590602001908080601f0160208091040260200160405190810160405280939291908181526020018383808284378201915050505050509190803573ffffffffffffffffffffffffffffffffffffffff16906020019091905050610a8e565b60405180826000191660001916815260200191505060405180910390f35b341561030357600080fd5b61030b610c84565b6040518082815260200191505060405180910390f35b341561032c57600080fd5b6103426004808035906020019091905050610c94565b604051808273ffffffffffffffffffffffffffffffffffffffff1673ffffffffffffffffffffffffffffffffffffffff16815260200191505060405180910390f35b341561038f57600080fd5b6103bb600480803573ffffffffffffffffffffffffffffffffffffffff16906020019091905050610d71565b005b34156103c857600080fd5b6103de6004808035906020019091905050610ff5565b60405180826000191660001916815260200191505060405180910390f35b341561040757600080fd5b610520600480803590602001908201803590602001908080601f0160208091040260200160405190810160405280939291908181526020018383808284378201915050505050509190803590602001908201803590602001908080601f0160208091040260200160405190810160405280939291908181526020018383808284378201915050505050509190803590602001908201803590602001908080601f0160208091040260200160405190810160405280939291908181526020018383808284378201915050505050509190803590602001908201803590602001908080601f0160208091040260200160405190810160405280939291908181526020018383808284378201915050505050509190505061101c565b005b341561052d57600080fd5b61057d600480803590602001908201803590602001908080601f016020809104026020016040519081016040528093929190818152602001838380828437820191505050505050919050506113ab565b604051808215151515815260200191505060405180910390f35b34156105a257600080fd5b6105bc60048080356000191690602001909190505061141b565b604051808673ffffffffffffffffffffffffffffffffffffffff1673ffffffffffffffffffffffffffffffffffffffff16815260200180602001806020018060200180602001858103855289818151815260200191508051906020019080838360005b8381101561063a57808201518184015260208101905061061f565b50505050905090810190601f1680156106675780820380516001836020036101000a031916815260200191505b50858103845288818151815260200191508051906020019080838360005b838110156106a0578082015181840152602081019050610685565b50505050905090810190601f1680156106cd5780820380516001836020036101000a031916815260200191505b50858103835287818151815260200191508051906020019080838360005b838110156107065780820151818401526020810190506106eb565b50505050905090810190601f1680156107335780820380516001836020036101000a031916815260200191505b50858103825286818151815260200191508051906020019080838360005b8381101561076c578082015181840152602081019050610751565b50505050905090810190601f1680156107995780820380516001836020036101000a031916815260200191505b50995050505050505050505060405180910390f35b34156107b957600080fd5b6107c16117ef565b6040518082815260200191505060405180910390f35b34156107e257600080fd5b610832600480803590602001908201803590602001908080601f016020809104026020016040519081016040528093929190818152602001838380828437820191505050505050919050506117fc565b604051808215151515815260200191505060405180910390f35b341561085757600080fd5b610883600480803573ffffffffffffffffffffffffffffffffffffffff16906020019091905050611b46565b005b341561089057600080fd5b6108e0600480803590602001908201803590602001908080601f01602080910402602001604051908101604052809392919081815260200183838082843782019150505050505091905050611cd9565b60405180826000191660001916815260200191505060405180910390f35b341561090957600080fd5b610911611d45565b604051808273ffffffffffffffffffffffffffffffffffffffff1673ffffffffffffffffffffffffffffffffffffffff16815260200191505060405180910390f35b341561095e57600080fd5b61098a600480803573ffffffffffffffffffffffffffffffffffffffff16906020019091905050611d6a565b604051808473ffffffffffffffffffffffffffffffffffffffff1673ffffffffffffffffffffffffffffffffffffffff16815260200183815260200182151515158152602001935050505060405180910390f35b600082826040518083805190602001908083835b602083101515610a1757805182526020820191506020810190506020830392506109f2565b6001836020036101000a0380198251168184511680821785525050505050509050018273ffffffffffffffffffffffffffffffffffffffff1673ffffffffffffffffffffffffffffffffffffffff166c01000000000000000000000000028152601401925050506040518091039020905092915050565b6000868686868686604051808773ffffffffffffffffffffffffffffffffffffffff1673ffffffffffffffffffffffffffffffffffffffff166c0100000000000000000000000002815260140186805190602001908083835b602083101515610b0c5780518252602082019150602081019050602083039250610ae7565b6001836020036101000a03801982511681845116808217855250505050505090500185805190602001908083835b602083101515610b5f5780518252602082019150602081019050602083039250610b3a565b6001836020036101000a03801982511681845116808217855250505050505090500184805190602001908083835b602083101515610bb25780518252602082019150602081019050602083039250610b8d565b6001836020036101000a03801982511681845116808217855250505050505090500183805190602001908083835b602083101515610c055780518252602082019150602081019050602083039250610be0565b6001836020036101000a0380198251168184511680821785525050505050509050018273ffffffffffffffffffffffffffffffffffffffff1673ffffffffffffffffffffffffffffffffffffffff166c010000000000000000000000000281526014019650505050505050604051809103902090509695505050505050565b6000600360020180549050905090565b600060016000600284815481101515610ca957fe5b906000526020600020900160009054906101000a900473ffffffffffffffffffffffffffffffffffffffff1673ffffffffffffffffffffffffffffffffffffffff1673ffffffffffffffffffffffffffffffffffffffff16815260200190815260200160002060020160009054906101000a900460ff1615610d6757600282815481101515610d3457fe5b906000526020600020900160009054906101000a900473ffffffffffffffffffffffffffffffffffffffff169050610d6c565b600090505b919050565b3360008060009054906101000a900473ffffffffffffffffffffffffffffffffffffffff1673ffffffffffffffffffffffffffffffffffffffff168273ffffffffffffffffffffffffffffffffffffffff161490507f7fca019a0a52664785803f352d793a992f66c4affa261b3daf127976e7ad67998282604051808373ffffffffffffffffffffffffffffffffffffffff1673ffffffffffffffffffffffffffffffffffffffff168152602001821515151581526020019250505060405180910390a1801515610e4157600080fd5b6060604051908101604052808473ffffffffffffffffffffffffffffffffffffffff168152602001600160028054806001018281610e7f9190611dc1565b9160005260206000209001600088909190916101000a81548173ffffffffffffffffffffffffffffffffffffffff021916908373ffffffffffffffffffffffffffffffffffffffff16021790555003815260200160011515815250600160008573ffffffffffffffffffffffffffffffffffffffff1673ffffffffffffffffffffffffffffffffffffffff16815260200190815260200160002060008201518160000160006101000a81548173ffffffffffffffffffffffffffffffffffffffff021916908373ffffffffffffffffffffffffffffffffffffffff1602179055506020820151816001015560408201518160020160006101000a81548160ff0219169083151502179055509050507f7fd215c956537f33ef9064c457003d82df8562a7b03e1f896c0b39c7abc8355883604051808273ffffffffffffffffffffffffffffffffffffffff1673ffffffffffffffffffffffffffffffffffffffff16815260200191505060405180910390a1505050565b600060036002018281548110151561100957fe5b9060005260206000209001549050919050565b600080611027611ded565b3360008060009054906101000a900473ffffffffffffffffffffffffffffffffffffffff1673ffffffffffffffffffffffffffffffffffffffff168273ffffffffffffffffffffffffffffffffffffffff1614806110d15750600160008373ffffffffffffffffffffffffffffffffffffffff1673ffffffffffffffffffffffffffffffffffffffff16815260200190815260200160002060020160009054906101000a900460ff165b90507f7fca019a0a52664785803f352d793a992f66c4affa261b3daf127976e7ad67998282604051808373ffffffffffffffffffffffffffffffffffffffff1673ffffffffffffffffffffffffffffffffffffffff168152602001821515151581526020019250505060405180910390a180151561114e57600080fd5b87611158816113ab565b151561116357600080fd5b61116c89611cd9565b95506001600360020180548060010182816111879190611e4b565b916000526020600020900160008990919091509060001916905503945060a0604051908101604052803073ffffffffffffffffffffffffffffffffffffffff1681526020018b81526020018a81526020018981526020018881525093508360036000016000886000191660001916815260200190815260200160002060008201518160000160006101000a81548173ffffffffffffffffffffffffffffffffffffffff021916908373ffffffffffffffffffffffffffffffffffffffff1602179055506020820151816001019080519060200190611266929190611e77565b506040820151816002019080519060200190611283929190611e77565b5060608201518160030190805190602001906112a0929190611e77565b5060808201518160040190805190602001906112bd929190611e77565b509050508460036001016000886000191660001916815260200190815260200160002081905550836000015173ffffffffffffffffffffffffffffffffffffffff167fde74f67f0ccaf379531f5b3884d0afb87e86192a992d99e7222390f8870a0b5385604001516040518080602001828103825283818151815260200191508051906020019080838360005b8381101561136557808201518184015260208101905061134a565b50505050905090810190601f1680156113925780820380516001836020036101000a031916815260200191505b509250505060405180910390a250505050505050505050565b6000806113b783611cd9565b9050600060036002018054905014806114135750806000191660036002016003600101600084600019166000191681526020019081526020016000205481548110151561140057fe5b9060005260206000209001546000191614155b915050919050565b6000611425611ef7565b61142d611ef7565b611435611ef7565b61143d611ef7565b611445611ded565b8660006003600201805490501180156114a05750806000191660036002016003600101600084600019166000191681526020019081526020016000205481548110151561148e57fe5b90600052602060002090015460001916145b15156114ab57600080fd5b60036000016000896000191660001916815260200190815260200160002060a060405190810160405290816000820160009054906101000a900473ffffffffffffffffffffffffffffffffffffffff1673ffffffffffffffffffffffffffffffffffffffff1673ffffffffffffffffffffffffffffffffffffffff168152602001600182018054600181600116156101000203166002900480601f0160208091040260200160405190810160405280929190818152602001828054600181600116156101000203166002900480156115c45780601f10611599576101008083540402835291602001916115c4565b820191906000526020600020905b8154815290600101906020018083116115a757829003601f168201915b50505050508152602001600282018054600181600116156101000203166002900480601f0160208091040260200160405190810160405280929190818152602001828054600181600116156101000203166002900480156116665780601f1061163b57610100808354040283529160200191611666565b820191906000526020600020905b81548152906001019060200180831161164957829003601f168201915b50505050508152602001600382018054600181600116156101000203166002900480601f0160208091040260200160405190810160405280929190818152602001828054600181600116156101000203166002900480156117085780601f106116dd57610100808354040283529160200191611708565b820191906000526020600020905b8154815290600101906020018083116116eb57829003601f168201915b50505050508152602001600482018054600181600116156101000203166002900480601f0160208091040260200160405190810160405280929190818152602001828054600181600116156101000203166002900480156117aa5780601f1061177f576101008083540402835291602001916117aa565b820191906000526020600020905b81548152906001019060200180831161178d57829003601f168201915b50505050508152505091508160000151826020015183604001518460600151856080015183935082925081915080905096509650965096509650505091939590929450565b6000600280549050905090565b6000806000803360008060009054906101000a900473ffffffffffffffffffffffffffffffffffffffff1673ffffffffffffffffffffffffffffffffffffffff168273ffffffffffffffffffffffffffffffffffffffff1614806118ac5750600160008373ffffffffffffffffffffffffffffffffffffffff1673ffffffffffffffffffffffffffffffffffffffff16815260200190815260200160002060020160009054906101000a900460ff165b90507f7fca019a0a52664785803f352d793a992f66c4affa261b3daf127976e7ad67998282604051808373ffffffffffffffffffffffffffffffffffffffff1673ffffffffffffffffffffffffffffffffffffffff168152602001821515151581526020019250505060405180910390a180151561192957600080fd5b61193287611cd9565b9450600360010160008660001916600019168152602001908152602001600020549350600360020160016003600201805490500381548110151561197257fe5b90600052602060002090015492508360036001016000856000191660001916815260200190815260200160002081905550826003600201858154811015156119b657fe5b9060005260206000209001816000191690555060036002018054809190600190036119e19190611f0b565b50600360000160008660001916600019168152602001908152602001600020600080820160006101000a81549073ffffffffffffffffffffffffffffffffffffffff0219169055600182016000611a389190611f37565b600282016000611a489190611f37565b600382016000611a589190611f37565b600482016000611a689190611f37565b5050600360010160008660001916600019168152602001908152602001600020600090557f25011d6c52f8dd436cbad877a1e1bfa99b3fc7b3df1c4f7b68d6f6403e943a51876003600201805490506040518080602001838152602001828103825284818151815260200191508051906020019080838360005b83811015611afd578082015181840152602081019050611ae2565b50505050905090810190601f168015611b2a5780820380516001836020036101000a031916815260200191505b50935050505060405180910390a1600195505050505050919050565b3360008060009054906101000a900473ffffffffffffffffffffffffffffffffffffffff1673ffffffffffffffffffffffffffffffffffffffff168273ffffffffffffffffffffffffffffffffffffffff161490507f7fca019a0a52664785803f352d793a992f66c4affa261b3daf127976e7ad67998282604051808373ffffffffffffffffffffffffffffffffffffffff1673ffffffffffffffffffffffffffffffffffffffff168152602001821515151581526020019250505060405180910390a1801515611c1657600080fd5b6000600160008573ffffffffffffffffffffffffffffffffffffffff1673ffffffffffffffffffffffffffffffffffffffff16815260200190815260200160002060020160006101000a81548160ff0219169083151502179055507f56a53756e1db2ff35a90edee9bd205b4b2bb8633ee3d6a53a5e85d5b46f0e9dc83604051808273ffffffffffffffffffffffffffffffffffffffff1673ffffffffffffffffffffffffffffffffffffffff16815260200191505060405180910390a1505050565b6000816040518082805190602001908083835b602083101515611d115780518252602082019150602081019050602083039250611cec565b6001836020036101000a03801982511681845116808217855250505050505090500191505060405180910390209050919050565b6000809054906101000a900473ffffffffffffffffffffffffffffffffffffffff1681565b60016020528060005260406000206000915090508060000160009054906101000a900473ffffffffffffffffffffffffffffffffffffffff16908060010154908060020160009054906101000a900460ff16905083565b815481835581811511611de857818360005260206000209182019101611de79190611f7f565b5b505050565b60a060405190810160405280600073ffffffffffffffffffffffffffffffffffffffff168152602001611e1e611fa4565b8152602001611e2b611fa4565b8152602001611e38611fa4565b8152602001611e45611fa4565b81525090565b815481835581811511611e7257818360005260206000209182019101611e719190611fb8565b5b505050565b828054600181600116156101000203166002900490600052602060002090601f016020900481019282601f10611eb857805160ff1916838001178555611ee6565b82800160010185558215611ee6579182015b82811115611ee5578251825591602001919060010190611eca565b5b509050611ef39190611f7f565b5090565b602060405190810160405280600081525090565b815481835581811511611f3257818360005260206000209182019101611f319190611fb8565b5b505050565b50805460018160011615610100020316600290046000825580601f10611f5d5750611f7c565b601f016020900490600052602060002090810190611f7b9190611f7f565b5b50565b611fa191905b80821115611f9d576000816000905550600101611f85565b5090565b90565b602060405190810160405280600081525090565b611fda91905b80821115611fd6576000816000905550600101611fbe565b5090565b905600a165627a7a7230582098d3dc5536929cc0790d66b25ca7159b7620e1effdc73b175d53706957253da70029",
  "source": "pragma solidity ^0.4.17;\n\nimport \"./AuthorizedIssuer.sol\";\n\ncontract BadgeManager is AuthorizedIssuer {\n    /// @notice represents simple details about a earnable badge\n    struct Badge {\n        address issuer;\n        string description;\n        string name;\n        string image;\n        string version;\n    }\n\n    /// @notice represents details of an issued badge\n    struct Credential {\n        Badge badge;\n        uint expires;\n        address recipient;\n        bytes32 txnKey;\n        bool active;\n    }\n\n    /// @notice mapping of badgename hash to badge\n    /// @notice array of badge hash names\n    struct Vault {\n        mapping (bytes32=> Badge) badges;\n        mapping (bytes32=>uint) indexMap;\n        bytes32[] badgeHashNames;\n    }\n\n    /// @notice storage for earnable badges\n    Vault badgeVault;\n\n    function BadgeManager(address _adminWalletAddr) public AuthorizedIssuer(_adminWalletAddr) {}\n\n    /// @notice makes sure badge is unique\n    modifier uniqueBadge(string _name) {\n        require(isUnique(_name));\n        _;\n    }\n\n    function isUnique(string _name) public constant returns(bool unique) {\n        bytes32 badgeNameHash = getBadgeNameHash(_name);\n        return (badgeVault.badgeHashNames.length == 0 || badgeVault.badgeHashNames[badgeVault.indexMap[badgeNameHash]] != badgeNameHash);\n    }\n\n    /// @notice checks if a badge exists by name\n    modifier badgeExists(string _name) {\n        bytes32 badgeNameHash = getBadgeNameHash(_name);\n        require(badgeVault.badgeHashNames.length > 0 && badgeVault.badgeHashNames[badgeVault.indexMap[badgeNameHash]] == badgeNameHash);\n        _;\n    }\n\n    /// @notice checks if a badge exists by name\n    modifier badgeNameHashExists(bytes32 _badgeNameHash) {\n        require(badgeVault.badgeHashNames.length > 0 && badgeVault.badgeHashNames[badgeVault.indexMap[_badgeNameHash]] == _badgeNameHash);\n        _;\n    }\n\n    event BadgeCreated(\n        string _name,\n        address indexed _issuer\n    );\n    /// @notice create a new badge store it in the badging map\n    /// @param _description Description of the badge\n    /// @param _name name of the badge\n    /// @param _image badge image\n    /// @param _version badge version\n    function createBadge(\n        string _description,\n        string _name,\n        string _image,\n        string _version)\n        authorized(msg.sender) uniqueBadge(_name) public\n        {\n        bytes32 badgeNameHash = getBadgeNameHash(_name);\n        uint index = badgeVault.badgeHashNames.push(badgeNameHash)-1;\n        Badge memory badge = Badge(\n            address(this),\n            _description,\n            _name,\n            _image,\n            _version\n        );\n        badgeVault.badges[badgeNameHash] = badge;\n        badgeVault.indexMap[badgeNameHash] = index;\n        BadgeCreated(badge.name, badge.issuer);\n    }\n\n    event BadgeDeleted(string _name, uint count);\n    /// @notice delete a created badge\n    function deleteBadge(string _name)\n    authorized(msg.sender)\n    public returns(bool success)\n    {\n        bytes32 badgeNameHash = getBadgeNameHash(_name);\n        uint rowToDelete = badgeVault.indexMap[badgeNameHash];\n        bytes32 rowToMove = badgeVault.badgeHashNames[badgeVault.badgeHashNames.length-1];\n        badgeVault.indexMap[rowToMove] = rowToDelete;\n        badgeVault.badgeHashNames[rowToDelete] = rowToMove;\n        badgeVault.badgeHashNames.length--;\n        delete badgeVault.badges[badgeNameHash];\n        delete badgeVault.indexMap[badgeNameHash];\n\n        BadgeDeleted(_name, badgeVault.badgeHashNames.length);\n        return true;\n    }\n\n    // @notice get the number of badges (used by frontend as iterator index to retrieve each badge)     authorized(_sig, _v, _r, _s)\n    function getNumberOfBadges()\n    constant public returns(uint count)\n    {\n        return badgeVault.badgeHashNames.length;\n    }\n\n    /// @notice get a badge by it's index (should be used by frontend in a loop to get all the badges)\n    /// @param _badgeNameHash name of the badge to get inside the badge map\n    function getBadge(bytes32 _badgeNameHash) badgeNameHashExists(_badgeNameHash) constant public returns(\n        address issuer,\n        string description,\n        string bName,\n        string image,\n        string version\n    ) {\n        Badge memory badge = badgeVault.badges[_badgeNameHash];\n        return (\n            badge.issuer,\n            badge.description,\n            badge.name,\n            badge.image,\n            badge.version\n        );\n    }\n\n    /// @notice helper function for UI to retrieve all names then retrieve the badges\n    /// @param _index index of the name you want\n    function getNameByIndex(uint _index) constant public returns(bytes32 _name) {\n        return badgeVault.badgeHashNames[_index];\n    }\n\n    /// @notice compute hash of badgename\n    function getBadgeNameHash(string _badgename) pure public returns (bytes32 _hash) {\n        return keccak256(_badgename);\n    }\n\n    /// @notice compute hash for badge linking\n    function getBadgeLinkHash(string _name, address _issuer) pure public returns (bytes32 hash) {\n        return keccak256(_name, _issuer);\n    }\n\n    /// @notice compute integrity hash of credential data\n    function getIntegrityHash(\n        address issuer,\n        string description,\n        string name,\n        string image,\n        string version,\n        address recipient\n    ) pure public returns(bytes32 _hash)\n    {\n        return keccak256(\n                issuer,\n                description,\n                name,\n                image,\n                version,\n                recipient\n        );\n    }\n}\n",
  "sourcePath": "/home/kc1116/Desktop/badgeforce_development/badgeforce/contracts/BadgeManager.sol",
  "compiler": {
    "name": "solc",
    "version": "0.4.18+commit.9cf6e910.Emscripten.clang"
  },
  "schemaVersion": "1.0.1",
  "updatedAt": "2018-01-14T10:53:22.991Z"
}