{
  "contractName": "BadgeLibrary",
  "abi": [
    {
      "constant": true,
      "inputs": [
        {
          "name": "_hash",
          "type": "bytes32"
        },
        {
          "name": "_sig",
          "type": "bytes"
        }
      ],
      "name": "extractAddress",
      "outputs": [
        {
          "name": "_issuer",
          "type": "address"
        }
      ],
      "payable": false,
      "type": "function",
      "stateMutability": "view"
    },
    {
      "constant": true,
      "inputs": [
        {
          "name": "_issuer",
          "type": "address"
        },
        {
          "name": "_description",
          "type": "string"
        },
        {
          "name": "_name",
          "type": "string"
        },
        {
          "name": "_image",
          "type": "string"
        },
        {
          "name": "_version",
          "type": "string"
        },
        {
          "name": "_recipient",
          "type": "address"
        }
      ],
      "name": "getIntegrityHash",
      "outputs": [
        {
          "name": "_hash",
          "type": "bytes32"
        }
      ],
      "payable": false,
      "type": "function",
      "stateMutability": "view"
    },
    {
      "constant": true,
      "inputs": [
        {
          "name": "_badgename",
          "type": "string"
        }
      ],
      "name": "getBadgeNameHash",
      "outputs": [
        {
          "name": "_hash",
          "type": "bytes32"
        }
      ],
      "payable": false,
      "type": "function",
      "stateMutability": "view"
    },
    {
      "constant": true,
      "inputs": [
        {
          "name": "_issuer",
          "type": "address"
        },
        {
          "name": "_msgData",
          "type": "bytes"
        },
        {
          "name": "_nonce",
          "type": "uint256"
        }
      ],
      "name": "credentialTxKey",
      "outputs": [
        {
          "name": "key",
          "type": "bytes32"
        }
      ],
      "payable": false,
      "type": "function",
      "stateMutability": "view"
    }
  ],
  "bytecode": "0x6060604052341561000f57600080fd5b6107c78061001e6000396000f300606060405260043610610062576000357c0100000000000000000000000000000000000000000000000000000000900463ffffffff16806314a20251146100675780631ddb6af614610106578063c1eabde91461027b578063cc2b2ca4146102e9575b600080fd5b6100c460048080356000191690602001909190803590602001908201803590602001908080601f0160208091040260200160405190810160405280939291908181526020018383808284378201915050505050509190505061037f565b604051808273ffffffffffffffffffffffffffffffffffffffff1673ffffffffffffffffffffffffffffffffffffffff16815260200191505060405180910390f35b61025d600480803573ffffffffffffffffffffffffffffffffffffffff1690602001909190803590602001908201803590602001908080601f0160208091040260200160405190810160405280939291908181526020018383808284378201915050505050509190803590602001908201803590602001908080601f0160208091040260200160405190810160405280939291908181526020018383808284378201915050505050509190803590602001908201803590602001908080601f0160208091040260200160405190810160405280939291908181526020018383808284378201915050505050509190803590602001908201803590602001908080601f0160208091040260200160405190810160405280939291908181526020018383808284378201915050505050509190803573ffffffffffffffffffffffffffffffffffffffff16906020019091905050610480565b60405180826000191660001916815260200191505060405180910390f35b6102cb600480803590602001908201803590602001908080601f01602080910402602001604051908101604052809392919081815260200183838082843782019150505050505091905050610676565b60405180826000191660001916815260200191505060405180910390f35b610361600480803573ffffffffffffffffffffffffffffffffffffffff1690602001909190803590602001908201803590602001908080601f016020809104026020016040519081016040528093929190818152602001838380828437820191505050505050919080359060200190919050506106e2565b60405180826000191660001916815260200191505060405180910390f35b600080600080604185511415156103995760009350610477565b6020850151925060408501519150606085015160001a9050601b8160ff1610156103c457601b810190505b601b8160ff16141580156103dc5750601c8160ff1614155b156103ea5760009350610477565b600186828585604051600081526020016040526000604051602001526040518085600019166000191681526020018460ff1660ff16815260200183600019166000191681526020018260001916600019168152602001945050505050602060405160208103908084039060008661646e5a03f1151561046857600080fd5b50506020604051035193508393505b50505092915050565b6000868686868686604051808773ffffffffffffffffffffffffffffffffffffffff1673ffffffffffffffffffffffffffffffffffffffff166c0100000000000000000000000002815260140186805190602001908083835b6020831015156104fe57805182526020820191506020810190506020830392506104d9565b6001836020036101000a03801982511681845116808217855250505050505090500185805190602001908083835b602083101515610551578051825260208201915060208101905060208303925061052c565b6001836020036101000a03801982511681845116808217855250505050505090500184805190602001908083835b6020831015156105a4578051825260208201915060208101905060208303925061057f565b6001836020036101000a03801982511681845116808217855250505050505090500183805190602001908083835b6020831015156105f757805182526020820191506020810190506020830392506105d2565b6001836020036101000a0380198251168184511680821785525050505050509050018273ffffffffffffffffffffffffffffffffffffffff1673ffffffffffffffffffffffffffffffffffffffff166c010000000000000000000000000281526014019650505050505050604051809103902090509695505050505050565b6000816040518082805190602001908083835b6020831015156106ae5780518252602082019150602081019050602083039250610689565b6001836020036101000a03801982511681845116808217855250505050505090500191505060405180910390209050919050565b6000838383604051808473ffffffffffffffffffffffffffffffffffffffff1673ffffffffffffffffffffffffffffffffffffffff166c0100000000000000000000000002815260140183805190602001908083835b60208310151561075d5780518252602082019150602081019050602083039250610738565b6001836020036101000a03801982511681845116808217855250505050505090500182815260200193505050506040518091039020905093925050505600a165627a7a72305820024deccf0df82e64314adacc2c0b5c6afa080510ef58e6c5f45ddbea2261e1230029",
  "source": "pragma solidity ^0.4.15;\n\n\nlibrary BadgeLibrary {\n\n    /// @notice represents simple details about a earnable badge\n    struct BFBadge {\n        address issuer;\n        string description;\n        string name;\n        string image;\n        string version; \n        string json;\n        uint index;\n    }    \n\n    /// @notice represents details of an issued badge \n    struct BFCredential {\n        address issuer;\n        string description;\n        string name;\n        string image;\n        string version; \n        string json;\n        uint expires;\n        address recipient;\n        bytes32 txKey;\n    }\n\n    function credentialTxKey(address _issuer, bytes _msgData, uint _nonce) constant public returns(bytes32 key) {\n        return sha3(_issuer, _msgData, _nonce);\n    }\n\n    function getBadgeNameHash(string _badgename) constant public returns (bytes32 _hash) {\n        return sha3(_badgename);\n    }\n\n    function getIntegrityHash(\n        address _issuer, \n        string _description, \n        string _name, \n        string _image, \n        string _version, \n        address _recipient\n    ) constant public returns(bytes32 _hash) \n    {\n        return bytes32(\n            sha3(\n                _issuer, \n                _description, \n                _name, \n                _image, \n                _version, \n                _recipient\n        ));\n    }\n\n    function extractAddress(bytes32 _hash, bytes _sig) constant returns(address _issuer) {\n        bytes32 r;\n        bytes32 s;\n        uint8 v;\n\n        if (_sig.length != 65)\n          return 0;\n\n        // The signature format is a compact form of:\n        //   {bytes32 r}{bytes32 s}{uint8 v}\n        // Compact means, uint8 is not padded to 32 bytes.\n        assembly {\n            r := mload(add(_sig, 32))\n            s := mload(add(_sig, 64))\n\n            // Here we are loading the last 32 bytes. We exploit the fact that\n            // 'mload' will pad with zeroes if we overread.\n            // There is no 'mload8' to do this, but that would be nicer.\n            v := byte(0, mload(add(_sig, 96)))\n\n            // Alternative solution:\n            // 'byte' is not working due to the Solidity parser, so lets\n            // use the second best option, 'and'\n            // v := and(mload(add(sig, 65)), 255)\n        }\n\n        // albeit non-transactional signatures are not specified by the YP, one would expect it\n        // to match the YP range of [27, 28]\n        //\n        // geth uses [0, 1] and some clients have followed. This might change, see:\n        //  https://github.com/ethereum/go-ethereum/issues/2053\n        if (v < 27)\n          v += 27;\n\n        if (v != 27 && v != 28)\n            return 0;\n\n        _issuer = ecrecover(_hash, v, r, s);\n        return _issuer;\n    }\n}",
  "sourcePath": "BadgeLibrary/contracts/BadgeLibrary.sol",
  "compiler": {
    "name": "solc",
    "version": "0.4.18+commit.9cf6e910.Emscripten.clang"
  },
  "schemaVersion": "1.0.1",
  "updatedAt": "2017-11-25T12:06:18.583Z"
}