{
  "contractName": "BadgeManager",
  "abi": [
    {
      "constant": true,
      "inputs": [],
      "name": "getNumberOfBadges",
      "outputs": [
        {
          "name": "count",
          "type": "uint256"
        }
      ],
      "payable": false,
      "stateMutability": "view",
      "type": "function"
    },
    {
      "constant": true,
      "inputs": [
        {
          "name": "_name",
          "type": "string"
        }
      ],
      "name": "getBadge",
      "outputs": [
        {
          "name": "issuer",
          "type": "address"
        },
        {
          "name": "description",
          "type": "string"
        },
        {
          "name": "bName",
          "type": "string"
        },
        {
          "name": "image",
          "type": "string"
        },
        {
          "name": "version",
          "type": "string"
        }
      ],
      "payable": false,
      "stateMutability": "view",
      "type": "function"
    },
    {
      "constant": true,
      "inputs": [
        {
          "name": "_index",
          "type": "uint256"
        }
      ],
      "name": "getAuthorizedAccount",
      "outputs": [
        {
          "name": "_issuer",
          "type": "address"
        }
      ],
      "payable": false,
      "stateMutability": "view",
      "type": "function"
    },
    {
      "constant": false,
      "inputs": [
        {
          "name": "_newIssuer",
          "type": "address"
        }
      ],
      "name": "authorzeAccount",
      "outputs": [],
      "payable": false,
      "stateMutability": "nonpayable",
      "type": "function"
    },
    {
      "constant": true,
      "inputs": [
        {
          "name": "_index",
          "type": "uint256"
        }
      ],
      "name": "getNameByIndex",
      "outputs": [
        {
          "name": "_name",
          "type": "bytes32"
        }
      ],
      "payable": false,
      "stateMutability": "view",
      "type": "function"
    },
    {
      "constant": false,
      "inputs": [
        {
          "name": "_description",
          "type": "string"
        },
        {
          "name": "_name",
          "type": "string"
        },
        {
          "name": "_image",
          "type": "string"
        },
        {
          "name": "_version",
          "type": "string"
        }
      ],
      "name": "createBadge",
      "outputs": [],
      "payable": false,
      "stateMutability": "nonpayable",
      "type": "function"
    },
    {
      "constant": true,
      "inputs": [
        {
          "name": "_name",
          "type": "string"
        }
      ],
      "name": "isUnique",
      "outputs": [
        {
          "name": "unique",
          "type": "bool"
        }
      ],
      "payable": false,
      "stateMutability": "view",
      "type": "function"
    },
    {
      "constant": true,
      "inputs": [],
      "name": "getNumberOfAuthorizedAccounts",
      "outputs": [
        {
          "name": "_numOfAccounts",
          "type": "uint256"
        }
      ],
      "payable": false,
      "stateMutability": "view",
      "type": "function"
    },
    {
      "constant": false,
      "inputs": [
        {
          "name": "_name",
          "type": "string"
        }
      ],
      "name": "deleteBadge",
      "outputs": [
        {
          "name": "success",
          "type": "bool"
        }
      ],
      "payable": false,
      "stateMutability": "nonpayable",
      "type": "function"
    },
    {
      "constant": false,
      "inputs": [
        {
          "name": "_issuer",
          "type": "address"
        }
      ],
      "name": "removeAuthorizedAccount",
      "outputs": [],
      "payable": false,
      "stateMutability": "nonpayable",
      "type": "function"
    },
    {
      "constant": true,
      "inputs": [],
      "name": "admin",
      "outputs": [
        {
          "name": "",
          "type": "address"
        }
      ],
      "payable": false,
      "stateMutability": "view",
      "type": "function"
    },
    {
      "constant": true,
      "inputs": [
        {
          "name": "",
          "type": "address"
        }
      ],
      "name": "authorizedAccountsMap",
      "outputs": [
        {
          "name": "issuer",
          "type": "address"
        },
        {
          "name": "index",
          "type": "uint256"
        },
        {
          "name": "isAuthorized",
          "type": "bool"
        }
      ],
      "payable": false,
      "stateMutability": "view",
      "type": "function"
    },
    {
      "inputs": [
        {
          "name": "_adminWalletAddr",
          "type": "address"
        }
      ],
      "payable": false,
      "stateMutability": "nonpayable",
      "type": "constructor"
    },
    {
      "anonymous": false,
      "inputs": [
        {
          "indexed": false,
          "name": "_name",
          "type": "string"
        },
        {
          "indexed": true,
          "name": "_issuer",
          "type": "address"
        }
      ],
      "name": "BadgeCreated",
      "type": "event"
    },
    {
      "anonymous": false,
      "inputs": [
        {
          "indexed": false,
          "name": "_name",
          "type": "string"
        },
        {
          "indexed": false,
          "name": "count",
          "type": "uint256"
        }
      ],
      "name": "BadgeDeleted",
      "type": "event"
    },
    {
      "anonymous": false,
      "inputs": [
        {
          "indexed": false,
          "name": "_actor",
          "type": "address"
        },
        {
          "indexed": false,
          "name": "authorized",
          "type": "bool"
        }
      ],
      "name": "AuthorizeAttempt",
      "type": "event"
    },
    {
      "anonymous": false,
      "inputs": [
        {
          "indexed": false,
          "name": "_newIssuer",
          "type": "address"
        }
      ],
      "name": "NewAccountAuthorized",
      "type": "event"
    },
    {
      "anonymous": false,
      "inputs": [
        {
          "indexed": false,
          "name": "_issuer",
          "type": "address"
        }
      ],
      "name": "AuthorizedAccountRemoved",
      "type": "event"
    }
  ],
  "bytecode": "0x6060604052341561000f57600080fd5b604051602080611fa68339810160405280805190602001909190505080806000806101000a81548173ffffffffffffffffffffffffffffffffffffffff021916908373ffffffffffffffffffffffffffffffffffffffff1602179055505050611f298061007d6000396000f3006060604052600436106100ba576000357c0100000000000000000000000000000000000000000000000000000000900463ffffffff16806324ddd51a146100bf5780632d902fe7146100e85780633557b6c3146103355780633b57391a1461039857806359c293f1146103d15780635c9d3a941461041057806372ee19a2146105365780637c59fda0146105ab578063b6109221146105d4578063be47aa0914610649578063f851a44014610682578063f9afc242146106d7575b600080fd5b34156100ca57600080fd5b6100d2610762565b6040518082815260200191505060405180910390f35b34156100f357600080fd5b610143600480803590602001908201803590602001908080601f01602080910402602001604051908101604052809392919081815260200183838082843782019150505050505091905050610772565b604051808673ffffffffffffffffffffffffffffffffffffffff1673ffffffffffffffffffffffffffffffffffffffff16815260200180602001806020018060200180602001858103855289818151815260200191508051906020019080838360005b838110156101c15780820151818401526020810190506101a6565b50505050905090810190601f1680156101ee5780820380516001836020036101000a031916815260200191505b50858103845288818151815260200191508051906020019080838360005b8381101561022757808201518184015260208101905061020c565b50505050905090810190601f1680156102545780820380516001836020036101000a031916815260200191505b50858103835287818151815260200191508051906020019080838360005b8381101561028d578082015181840152602081019050610272565b50505050905090810190601f1680156102ba5780820380516001836020036101000a031916815260200191505b50858103825286818151815260200191508051906020019080838360005b838110156102f35780820151818401526020810190506102d8565b50505050905090810190601f1680156103205780820380516001836020036101000a031916815260200191505b50995050505050505050505060405180910390f35b341561034057600080fd5b6103566004808035906020019091905050610d36565b604051808273ffffffffffffffffffffffffffffffffffffffff1673ffffffffffffffffffffffffffffffffffffffff16815260200191505060405180910390f35b34156103a357600080fd5b6103cf600480803573ffffffffffffffffffffffffffffffffffffffff16906020019091905050610e13565b005b34156103dc57600080fd5b6103f26004808035906020019091905050611097565b60405180826000191660001916815260200191505060405180910390f35b341561041b57600080fd5b610534600480803590602001908201803590602001908080601f0160208091040260200160405190810160405280939291908181526020018383808284378201915050505050509190803590602001908201803590602001908080601f0160208091040260200160405190810160405280939291908181526020018383808284378201915050505050509190803590602001908201803590602001908080601f0160208091040260200160405190810160405280939291908181526020018383808284378201915050505050509190803590602001908201803590602001908080601f016020809104026020016040519081016040528093929190818152602001838380828437820191505050505050919050506110be565b005b341561054157600080fd5b610591600480803590602001908201803590602001908080601f01602080910402602001604051908101604052809392919081815260200183838082843782019150505050505091905050611537565b604051808215151515815260200191505060405180910390f35b34156105b657600080fd5b6105be611691565b6040518082815260200191505060405180910390f35b34156105df57600080fd5b61062f600480803590602001908201803590602001908080601f0160208091040260200160405190810160405280939291908181526020018383808284378201915050505050509190505061169e565b604051808215151515815260200191505060405180910390f35b341561065457600080fd5b610680600480803573ffffffffffffffffffffffffffffffffffffffff16906020019091905050611ad2565b005b341561068d57600080fd5b610695611c65565b604051808273ffffffffffffffffffffffffffffffffffffffff1673ffffffffffffffffffffffffffffffffffffffff16815260200191505060405180910390f35b34156106e257600080fd5b61070e600480803573ffffffffffffffffffffffffffffffffffffffff16906020019091905050611c8a565b604051808473ffffffffffffffffffffffffffffffffffffffff1673ffffffffffffffffffffffffffffffffffffffff16815260200183815260200182151515158152602001935050505060405180910390f35b6000600360020180549050905090565b600061077c611ce1565b610784611ce1565b61078c611ce1565b610794611ce1565b600061079e611cf5565b87600073__BadgeLibrary__________________________63c1eabde9836000604051602001526040518263ffffffff167c01000000000000000000000000000000000000000000000000000000000281526004018080602001828103825283818151815260200191508051906020019080838360005b83811015610830578082015181840152602081019050610815565b50505050905090810190601f16801561085d5780820380516001836020036101000a031916815260200191505b509250505060206040518083038186803b151561087957600080fd5b6102c65a03f4151561088a57600080fd5b50505060405180519050905060006003600201805490501180156108f0575080600019166003600201600360010160008460001916600019168152602001908152602001600020548154811015156108de57fe5b90600052602060002090015460001916145b15156108fb57600080fd5b73__BadgeLibrary__________________________63c1eabde98b6000604051602001526040518263ffffffff167c01000000000000000000000000000000000000000000000000000000000281526004018080602001828103825283818151815260200191508051906020019080838360005b8381101561098a57808201518184015260208101905061096f565b50505050905090810190601f1680156109b75780820380516001836020036101000a031916815260200191505b509250505060206040518083038186803b15156109d357600080fd5b6102c65a03f415156109e457600080fd5b50505060405180519050935060036000016000856000191660001916815260200190815260200160002060a060405190810160405290816000820160009054906101000a900473ffffffffffffffffffffffffffffffffffffffff1673ffffffffffffffffffffffffffffffffffffffff1673ffffffffffffffffffffffffffffffffffffffff168152602001600182018054600181600116156101000203166002900480601f016020809104026020016040519081016040528092919081815260200182805460018160011615610100020316600290048015610b095780601f10610ade57610100808354040283529160200191610b09565b820191906000526020600020905b815481529060010190602001808311610aec57829003601f168201915b50505050508152602001600282018054600181600116156101000203166002900480601f016020809104026020016040519081016040528092919081815260200182805460018160011615610100020316600290048015610bab5780601f10610b8057610100808354040283529160200191610bab565b820191906000526020600020905b815481529060010190602001808311610b8e57829003601f168201915b50505050508152602001600382018054600181600116156101000203166002900480601f016020809104026020016040519081016040528092919081815260200182805460018160011615610100020316600290048015610c4d5780601f10610c2257610100808354040283529160200191610c4d565b820191906000526020600020905b815481529060010190602001808311610c3057829003601f168201915b50505050508152602001600482018054600181600116156101000203166002900480601f016020809104026020016040519081016040528092919081815260200182805460018160011615610100020316600290048015610cef5780601f10610cc457610100808354040283529160200191610cef565b820191906000526020600020905b815481529060010190602001808311610cd257829003601f168201915b505050505081525050925082600001518360200151846040015185606001518660800151839350829250819150809050985098509850985098505050505091939590929450565b600060016000600284815481101515610d4b57fe5b906000526020600020900160009054906101000a900473ffffffffffffffffffffffffffffffffffffffff1673ffffffffffffffffffffffffffffffffffffffff1673ffffffffffffffffffffffffffffffffffffffff16815260200190815260200160002060020160009054906101000a900460ff1615610e0957600282815481101515610dd657fe5b906000526020600020900160009054906101000a900473ffffffffffffffffffffffffffffffffffffffff169050610e0e565b600090505b919050565b3360008060009054906101000a900473ffffffffffffffffffffffffffffffffffffffff1673ffffffffffffffffffffffffffffffffffffffff168273ffffffffffffffffffffffffffffffffffffffff161490507f7fca019a0a52664785803f352d793a992f66c4affa261b3daf127976e7ad67998282604051808373ffffffffffffffffffffffffffffffffffffffff1673ffffffffffffffffffffffffffffffffffffffff168152602001821515151581526020019250505060405180910390a1801515610ee357600080fd5b6060604051908101604052808473ffffffffffffffffffffffffffffffffffffffff168152602001600160028054806001018281610f219190611d53565b9160005260206000209001600088909190916101000a81548173ffffffffffffffffffffffffffffffffffffffff021916908373ffffffffffffffffffffffffffffffffffffffff16021790555003815260200160011515815250600160008573ffffffffffffffffffffffffffffffffffffffff1673ffffffffffffffffffffffffffffffffffffffff16815260200190815260200160002060008201518160000160006101000a81548173ffffffffffffffffffffffffffffffffffffffff021916908373ffffffffffffffffffffffffffffffffffffffff1602179055506020820151816001015560408201518160020160006101000a81548160ff0219169083151502179055509050507f7fd215c956537f33ef9064c457003d82df8562a7b03e1f896c0b39c7abc8355883604051808273ffffffffffffffffffffffffffffffffffffffff1673ffffffffffffffffffffffffffffffffffffffff16815260200191505060405180910390a1505050565b60006003600201828154811015156110ab57fe5b9060005260206000209001549050919050565b6000806110c9611cf5565b3360008060009054906101000a900473ffffffffffffffffffffffffffffffffffffffff1673ffffffffffffffffffffffffffffffffffffffff168273ffffffffffffffffffffffffffffffffffffffff1614806111735750600160008373ffffffffffffffffffffffffffffffffffffffff1673ffffffffffffffffffffffffffffffffffffffff16815260200190815260200160002060020160009054906101000a900460ff165b90507f7fca019a0a52664785803f352d793a992f66c4affa261b3daf127976e7ad67998282604051808373ffffffffffffffffffffffffffffffffffffffff1673ffffffffffffffffffffffffffffffffffffffff168152602001821515151581526020019250505060405180910390a18015156111f057600080fd5b876111fa81611537565b151561120557600080fd5b73__BadgeLibrary__________________________63c1eabde98a6000604051602001526040518263ffffffff167c01000000000000000000000000000000000000000000000000000000000281526004018080602001828103825283818151815260200191508051906020019080838360005b83811015611294578082015181840152602081019050611279565b50505050905090810190601f1680156112c15780820380516001836020036101000a031916815260200191505b509250505060206040518083038186803b15156112dd57600080fd5b6102c65a03f415156112ee57600080fd5b5050506040518051905095506001600360020180548060010182816113139190611d7f565b916000526020600020900160008990919091509060001916905503945060a0604051908101604052803073ffffffffffffffffffffffffffffffffffffffff1681526020018b81526020018a81526020018981526020018881525093508360036000016000886000191660001916815260200190815260200160002060008201518160000160006101000a81548173ffffffffffffffffffffffffffffffffffffffff021916908373ffffffffffffffffffffffffffffffffffffffff16021790555060208201518160010190805190602001906113f2929190611dab565b50604082015181600201908051906020019061140f929190611dab565b50606082015181600301908051906020019061142c929190611dab565b506080820151816004019080519060200190611449929190611dab565b509050508460036001016000886000191660001916815260200190815260200160002081905550836000015173ffffffffffffffffffffffffffffffffffffffff167fde74f67f0ccaf379531f5b3884d0afb87e86192a992d99e7222390f8870a0b5385604001516040518080602001828103825283818151815260200191508051906020019080838360005b838110156114f15780820151818401526020810190506114d6565b50505050905090810190601f16801561151e5780820380516001836020036101000a031916815260200191505b509250505060405180910390a250505050505050505050565b60008073__BadgeLibrary__________________________63c1eabde9846000604051602001526040518263ffffffff167c01000000000000000000000000000000000000000000000000000000000281526004018080602001828103825283818151815260200191508051906020019080838360005b838110156115c95780820151818401526020810190506115ae565b50505050905090810190601f1680156115f65780820380516001836020036101000a031916815260200191505b509250505060206040518083038186803b151561161257600080fd5b6102c65a03f4151561162357600080fd5b505050604051805190509050600060036002018054905014806116895750806000191660036002016003600101600084600019166000191681526020019081526020016000205481548110151561167657fe5b9060005260206000209001546000191614155b915050919050565b6000600280549050905090565b6000806000803360008060009054906101000a900473ffffffffffffffffffffffffffffffffffffffff1673ffffffffffffffffffffffffffffffffffffffff168273ffffffffffffffffffffffffffffffffffffffff16148061174e5750600160008373ffffffffffffffffffffffffffffffffffffffff1673ffffffffffffffffffffffffffffffffffffffff16815260200190815260200160002060020160009054906101000a900460ff165b90507f7fca019a0a52664785803f352d793a992f66c4affa261b3daf127976e7ad67998282604051808373ffffffffffffffffffffffffffffffffffffffff1673ffffffffffffffffffffffffffffffffffffffff168152602001821515151581526020019250505060405180910390a18015156117cb57600080fd5b73__BadgeLibrary__________________________63c1eabde9886000604051602001526040518263ffffffff167c01000000000000000000000000000000000000000000000000000000000281526004018080602001828103825283818151815260200191508051906020019080838360005b8381101561185a57808201518184015260208101905061183f565b50505050905090810190601f1680156118875780820380516001836020036101000a031916815260200191505b509250505060206040518083038186803b15156118a357600080fd5b6102c65a03f415156118b457600080fd5b50505060405180519050945060036001016000866000191660001916815260200190815260200160002054935060036002016001600360020180549050038154811015156118fe57fe5b906000526020600020900154925083600360010160008560001916600019168152602001908152602001600020819055508260036002018581548110151561194257fe5b90600052602060002090018160001916905550600360020180548091906001900361196d9190611e2b565b50600360000160008660001916600019168152602001908152602001600020600080820160006101000a81549073ffffffffffffffffffffffffffffffffffffffff02191690556001820160006119c49190611e57565b6002820160006119d49190611e57565b6003820160006119e49190611e57565b6004820160006119f49190611e57565b5050600360010160008660001916600019168152602001908152602001600020600090557f25011d6c52f8dd436cbad877a1e1bfa99b3fc7b3df1c4f7b68d6f6403e943a51876003600201805490506040518080602001838152602001828103825284818151815260200191508051906020019080838360005b83811015611a89578082015181840152602081019050611a6e565b50505050905090810190601f168015611ab65780820380516001836020036101000a031916815260200191505b50935050505060405180910390a1600195505050505050919050565b3360008060009054906101000a900473ffffffffffffffffffffffffffffffffffffffff1673ffffffffffffffffffffffffffffffffffffffff168273ffffffffffffffffffffffffffffffffffffffff161490507f7fca019a0a52664785803f352d793a992f66c4affa261b3daf127976e7ad67998282604051808373ffffffffffffffffffffffffffffffffffffffff1673ffffffffffffffffffffffffffffffffffffffff168152602001821515151581526020019250505060405180910390a1801515611ba257600080fd5b6000600160008573ffffffffffffffffffffffffffffffffffffffff1673ffffffffffffffffffffffffffffffffffffffff16815260200190815260200160002060020160006101000a81548160ff0219169083151502179055507f56a53756e1db2ff35a90edee9bd205b4b2bb8633ee3d6a53a5e85d5b46f0e9dc83604051808273ffffffffffffffffffffffffffffffffffffffff1673ffffffffffffffffffffffffffffffffffffffff16815260200191505060405180910390a1505050565b6000809054906101000a900473ffffffffffffffffffffffffffffffffffffffff1681565b60016020528060005260406000206000915090508060000160009054906101000a900473ffffffffffffffffffffffffffffffffffffffff16908060010154908060020160009054906101000a900460ff16905083565b602060405190810160405280600081525090565b60a060405190810160405280600073ffffffffffffffffffffffffffffffffffffffff168152602001611d26611e9f565b8152602001611d33611e9f565b8152602001611d40611e9f565b8152602001611d4d611e9f565b81525090565b815481835581811511611d7a57818360005260206000209182019101611d799190611eb3565b5b505050565b815481835581811511611da657818360005260206000209182019101611da59190611ed8565b5b505050565b828054600181600116156101000203166002900490600052602060002090601f016020900481019282601f10611dec57805160ff1916838001178555611e1a565b82800160010185558215611e1a579182015b82811115611e19578251825591602001919060010190611dfe565b5b509050611e279190611eb3565b5090565b815481835581811511611e5257818360005260206000209182019101611e519190611ed8565b5b505050565b50805460018160011615610100020316600290046000825580601f10611e7d5750611e9c565b601f016020900490600052602060002090810190611e9b9190611eb3565b5b50565b602060405190810160405280600081525090565b611ed591905b80821115611ed1576000816000905550600101611eb9565b5090565b90565b611efa91905b80821115611ef6576000816000905550600101611ede565b5090565b905600a165627a7a72305820de79c3067ad78dc61cda6e5012dd366f77ba23d813503fc3b27656cdce3798d30029",
  "source": "pragma solidity ^0.4.17;\n\nimport \"BadgeLibrary/contracts/BadgeLibrary.sol\";\n\nimport \"./AuthorizedIssuer.sol\";\n\ncontract BadgeManager is AuthorizedIssuer {\n    \n    /// @notice mapping of badgename hash to badge\n    /// @notice array of badge hash names\n    struct Vault {\n        mapping (bytes32=>BadgeLibrary.Badge) badges;\n        mapping (bytes32=>uint) indexMap;\n        bytes32[] badgeHashNames;\n    }\n\n    /// @notice storage for earnable badges \n    Vault badgeVault;\n\n    function BadgeManager(address _adminWalletAddr) public AuthorizedIssuer(_adminWalletAddr) {}\n\n    /// @notice makes sure badge is unique\n    modifier uniqueBadge(string _name) {\n        require(isUnique(_name));\n        _;\n    }\n\n    function isUnique(string _name) public constant returns(bool unique) {\n        bytes32 badgeNameHash = BadgeLibrary.getBadgeNameHash(_name);\n        return (badgeVault.badgeHashNames.length == 0 || badgeVault.badgeHashNames[badgeVault.indexMap[badgeNameHash]] != badgeNameHash);\n    }\n\n    /// @notice checks if a badge exists by name\n    modifier badgeExists(string _name) {\n        bytes32 badgeNameHash = BadgeLibrary.getBadgeNameHash(_name);\n        require(badgeVault.badgeHashNames.length > 0 && badgeVault.badgeHashNames[badgeVault.indexMap[badgeNameHash]] == badgeNameHash);\n        _;\n    }\n\n    event BadgeCreated(\n        string _name,\n        address indexed _issuer\n    ); \n    /// @notice create a new badge store it in the badging map \n    /// @param _description Description of the badge \n    /// @param _name name of the badge\n    /// @param _image badge image\n    /// @param _version badge version\n    function createBadge(\n        string _description, \n        string _name,\n        string _image,\n        string _version)     \n        authorized(msg.sender) uniqueBadge(_name) public\n        {   \n        bytes32 badgeNameHash = BadgeLibrary.getBadgeNameHash(_name);\n        uint index = badgeVault.badgeHashNames.push(badgeNameHash)-1;\n        BadgeLibrary.Badge memory badge = BadgeLibrary.Badge(\n            address(this), \n            _description, \n            _name,\n            _image, \n            _version\n        );\n        badgeVault.badges[badgeNameHash] = badge;\n        badgeVault.indexMap[badgeNameHash] = index;\n        BadgeCreated(badge.name, badge.issuer);\n    }\n\n    event BadgeDeleted(string _name, uint count);\n    /// @notice delete a created badge \n    function deleteBadge(string _name) \n    authorized(msg.sender)\n    public returns(bool success) \n    {\n        bytes32 badgeNameHash = BadgeLibrary.getBadgeNameHash(_name);\n        uint rowToDelete = badgeVault.indexMap[badgeNameHash];\n        bytes32 rowToMove = badgeVault.badgeHashNames[badgeVault.badgeHashNames.length-1];\n        badgeVault.indexMap[rowToMove] = rowToDelete; \n        badgeVault.badgeHashNames[rowToDelete] = rowToMove; \n        badgeVault.badgeHashNames.length--;\n        delete badgeVault.badges[badgeNameHash];\n        delete badgeVault.indexMap[badgeNameHash];\n\n        BadgeDeleted(_name, badgeVault.badgeHashNames.length);\n        return true;\n    }\n \n    // @notice get the number of badges (used by frontend as iterator index to retrieve each badge)     authorized(_sig, _v, _r, _s) \n    function getNumberOfBadges()\n    constant public returns(uint count)\n    {   \n        return badgeVault.badgeHashNames.length;\n    }\n\n    /// @notice get a badge by it's index (should be used by frontend in a loop to get all the badges)\n    /// @param _name name of the badge to get inside the badge map\n    function getBadge(string _name) constant badgeExists(_name) public returns(\n        address issuer, \n        string description, \n        string bName, \n        string image, \n        string version\n    ) {\n        bytes32 badgeNameHash = BadgeLibrary.getBadgeNameHash(_name);\n        BadgeLibrary.Badge memory badge = badgeVault.badges[badgeNameHash];\n        return (\n            badge.issuer, \n            badge.description,\n            badge.name, \n            badge.image,\n            badge.version\n        );\n    } \n\n    /// @notice helper function for UI to retrieve all names then retrieve the badges\n    /// @param _index index of the name you want\n    function getNameByIndex(uint _index) constant public returns(bytes32 _name) {\n        return badgeVault.badgeHashNames[_index];\n    }\n\n}",
  "sourcePath": "/Users/khalil.claybon/Desktop/migrate-to-new-cpu/some_work/badgeforce_dev/badgeforce/contracts/BadgeManager.sol",
  "compiler": {
    "name": "solc",
    "version": "0.4.18+commit.9cf6e910.Emscripten.clang"
  },
  "schemaVersion": "1.0.1",
  "updatedAt": "2018-01-05T21:29:04.946Z"
}