{
  "contractName": "Holder",
  "abi": [
    {
      "constant": true,
      "inputs": [],
      "name": "getNumberOfCredentials",
      "outputs": [
        {
          "name": "count",
          "type": "uint256"
        }
      ],
      "payable": false,
      "stateMutability": "view",
      "type": "function"
    },
    {
      "constant": false,
      "inputs": [
        {
          "name": "_issuer",
          "type": "address"
        },
        {
          "name": "_description",
          "type": "string"
        },
        {
          "name": "_name",
          "type": "string"
        },
        {
          "name": "_image",
          "type": "string"
        },
        {
          "name": "_version",
          "type": "string"
        },
        {
          "name": "_expires",
          "type": "uint256"
        },
        {
          "name": "_recipient",
          "type": "address"
        },
        {
          "name": "_txnKey",
          "type": "bytes32"
        }
      ],
      "name": "storeCredential",
      "outputs": [],
      "payable": false,
      "stateMutability": "nonpayable",
      "type": "function"
    },
    {
      "constant": true,
      "inputs": [
        {
          "name": "_txnKey",
          "type": "bytes32"
        }
      ],
      "name": "recomputePOIHash",
      "outputs": [
        {
          "name": "poiHash",
          "type": "bytes32"
        }
      ],
      "payable": false,
      "stateMutability": "view",
      "type": "function"
    },
    {
      "constant": true,
      "inputs": [
        {
          "name": "",
          "type": "address"
        }
      ],
      "name": "trustedIssuers",
      "outputs": [
        {
          "name": "",
          "type": "bool"
        }
      ],
      "payable": false,
      "stateMutability": "view",
      "type": "function"
    },
    {
      "constant": true,
      "inputs": [
        {
          "name": "_index",
          "type": "uint256"
        }
      ],
      "name": "getTxnKey",
      "outputs": [
        {
          "name": "name",
          "type": "bytes32"
        }
      ],
      "payable": false,
      "stateMutability": "view",
      "type": "function"
    },
    {
      "constant": false,
      "inputs": [
        {
          "name": "_issuer",
          "type": "address"
        }
      ],
      "name": "removeTrustedIssuer",
      "outputs": [],
      "payable": false,
      "stateMutability": "nonpayable",
      "type": "function"
    },
    {
      "constant": false,
      "inputs": [
        {
          "name": "_txnKey",
          "type": "bytes32"
        }
      ],
      "name": "deleteCredential",
      "outputs": [
        {
          "name": "success",
          "type": "bool"
        }
      ],
      "payable": false,
      "stateMutability": "nonpayable",
      "type": "function"
    },
    {
      "constant": false,
      "inputs": [
        {
          "name": "_issuer",
          "type": "address"
        }
      ],
      "name": "addTrustedIssuer",
      "outputs": [],
      "payable": false,
      "stateMutability": "nonpayable",
      "type": "function"
    },
    {
      "constant": true,
      "inputs": [
        {
          "name": "_txnKey",
          "type": "bytes32"
        }
      ],
      "name": "getCredential",
      "outputs": [
        {
          "name": "_issuer",
          "type": "address"
        },
        {
          "name": "_description",
          "type": "string"
        },
        {
          "name": "_name",
          "type": "string"
        },
        {
          "name": "_image",
          "type": "string"
        },
        {
          "name": "_version",
          "type": "string"
        },
        {
          "name": "_expires",
          "type": "uint256"
        },
        {
          "name": "_recipient",
          "type": "address"
        },
        {
          "name": "txnKey",
          "type": "bytes32"
        }
      ],
      "payable": false,
      "stateMutability": "view",
      "type": "function"
    },
    {
      "constant": true,
      "inputs": [],
      "name": "holder",
      "outputs": [
        {
          "name": "",
          "type": "address"
        }
      ],
      "payable": false,
      "stateMutability": "view",
      "type": "function"
    },
    {
      "inputs": [
        {
          "name": "_holder",
          "type": "address"
        }
      ],
      "payable": false,
      "stateMutability": "nonpayable",
      "type": "constructor"
    },
    {
      "anonymous": false,
      "inputs": [
        {
          "indexed": false,
          "name": "_actor",
          "type": "address"
        },
        {
          "indexed": false,
          "name": "authorized",
          "type": "bool"
        }
      ],
      "name": "AuthorizeAttempt",
      "type": "event"
    },
    {
      "anonymous": false,
      "inputs": [
        {
          "indexed": false,
          "name": "_caller",
          "type": "address"
        }
      ],
      "name": "LogStoreAttempt",
      "type": "event"
    },
    {
      "anonymous": false,
      "inputs": [
        {
          "indexed": false,
          "name": "_issuer",
          "type": "address"
        },
        {
          "indexed": false,
          "name": "_txnKey",
          "type": "bytes32"
        }
      ],
      "name": "LogNewCredential",
      "type": "event"
    },
    {
      "anonymous": false,
      "inputs": [
        {
          "indexed": false,
          "name": "_txnKey",
          "type": "bytes32"
        },
        {
          "indexed": false,
          "name": "count",
          "type": "uint256"
        }
      ],
      "name": "CredentialDeleted",
      "type": "event"
    }
  ],
  "bytecode": "0x6060604052341561000f57600080fd5b604051602080611dbf83398101604052808051906020019091905050806000806101000a81548173ffffffffffffffffffffffffffffffffffffffff021916908373ffffffffffffffffffffffffffffffffffffffff16021790555050611d448061007b6000396000f3006060604052600436106100a4576000357c0100000000000000000000000000000000000000000000000000000000900463ffffffff168063064c4d6c146100a95780634e3943e7146100d25780636bcdaa331461024c57806392c54daf1461028f578063b193772a146102e0578063b93d28eb1461031f578063bfd9008b14610358578063c4566bdd14610397578063d1be4883146103d0578063e534155d14610630575b600080fd5b34156100b457600080fd5b6100bc610685565b6040518082815260200191505060405180910390f35b34156100dd57600080fd5b61024a600480803573ffffffffffffffffffffffffffffffffffffffff1690602001909190803590602001908201803590602001908080601f0160208091040260200160405190810160405280939291908181526020018383808284378201915050505050509190803590602001908201803590602001908080601f0160208091040260200160405190810160405280939291908181526020018383808284378201915050505050509190803590602001908201803590602001908080601f0160208091040260200160405190810160405280939291908181526020018383808284378201915050505050509190803590602001908201803590602001908080601f0160208091040260200160405190810160405280939291908181526020018383808284378201915050505050509190803590602001909190803573ffffffffffffffffffffffffffffffffffffffff1690602001909190803560001916906020019091905050610695565b005b341561025757600080fd5b6102716004808035600019169060200190919050506109e4565b60405180826000191660001916815260200191505060405180910390f35b341561029a57600080fd5b6102c6600480803573ffffffffffffffffffffffffffffffffffffffff16906020019091905050611055565b604051808215151515815260200191505060405180910390f35b34156102eb57600080fd5b6103016004808035906020019091905050611075565b60405180826000191660001916815260200191505060405180910390f35b341561032a57600080fd5b610356600480803573ffffffffffffffffffffffffffffffffffffffff1690602001909190505061109c565b005b341561036357600080fd5b61037d6004808035600019169060200190919050506111c9565b604051808215151515815260200191505060405180910390f35b34156103a257600080fd5b6103ce600480803573ffffffffffffffffffffffffffffffffffffffff16906020019091905050611552565b005b34156103db57600080fd5b6103f560048080356000191690602001909190505061167f565b604051808973ffffffffffffffffffffffffffffffffffffffff1673ffffffffffffffffffffffffffffffffffffffff168152602001806020018060200180602001806020018881526020018773ffffffffffffffffffffffffffffffffffffffff1673ffffffffffffffffffffffffffffffffffffffff168152602001866000191660001916815260200185810385528c818151815260200191508051906020019080838360005b838110156104b957808201518184015260208101905061049e565b50505050905090810190601f1680156104e65780820380516001836020036101000a031916815260200191505b5085810384528b818151815260200191508051906020019080838360005b8381101561051f578082015181840152602081019050610504565b50505050905090810190601f16801561054c5780820380516001836020036101000a031916815260200191505b5085810383528a818151815260200191508051906020019080838360005b8381101561058557808201518184015260208101905061056a565b50505050905090810190601f1680156105b25780820380516001836020036101000a031916815260200191505b50858103825289818151815260200191508051906020019080838360005b838110156105eb5780820151818401526020810190506105d0565b50505050905090810190601f1680156106185780820380516001836020036101000a031916815260200191505b509c5050505050505050505050505060405180910390f35b341561063b57600080fd5b610643611aba565b604051808273ffffffffffffffffffffffffffffffffffffffff1673ffffffffffffffffffffffffffffffffffffffff16815260200191505060405180910390f35b6000600160020180549050905090565b337f2bf8ea5a40db67784aa965ddf3e37384c79dbaf6178e1c7b8e3be19f22f84b9c81604051808273ffffffffffffffffffffffffffffffffffffffff1673ffffffffffffffffffffffffffffffffffffffff16815260200191505060405180910390a1600460008273ffffffffffffffffffffffffffffffffffffffff1673ffffffffffffffffffffffffffffffffffffffff16815260200190815260200160002060009054906101000a900460ff16151561075157600080fd5b60806040519081016040528060a0604051908101604052808c73ffffffffffffffffffffffffffffffffffffffff1681526020018b81526020018a81526020018981526020018881525081526020018581526020018473ffffffffffffffffffffffffffffffffffffffff168152602001836000191681525060016000016000846000191660001916815260200190815260200160002060008201518160000160008201518160000160006101000a81548173ffffffffffffffffffffffffffffffffffffffff021916908373ffffffffffffffffffffffffffffffffffffffff1602179055506020820151816001019080519060200190610854929190611adf565b506040820151816002019080519060200190610871929190611adf565b50606082015181600301908051906020019061088e929190611adf565b5060808201518160040190805190602001906108ab929190611adf565b5050506020820151816005015560408201518160060160006101000a81548173ffffffffffffffffffffffffffffffffffffffff021916908373ffffffffffffffffffffffffffffffffffffffff16021790555060608201518160070190600019169055905050600180600201805480600101828161092a9190611b5f565b9160005260206000209001600085909190915090600019169055036001800160008460001916600019168152602001908152602001600020819055507ffd261e99689a1e051fb978b6220c7cf7f806eac1fe92d51c09254cb876d257d68983604051808373ffffffffffffffffffffffffffffffffffffffff1673ffffffffffffffffffffffffffffffffffffffff16815260200182600019166000191681526020019250505060405180910390a1505050505050505050565b60006109ee611b8b565b600160000160008460001916600019168152602001908152602001600020608060405190810160405290816000820160a060405190810160405290816000820160009054906101000a900473ffffffffffffffffffffffffffffffffffffffff1673ffffffffffffffffffffffffffffffffffffffff1673ffffffffffffffffffffffffffffffffffffffff168152602001600182018054600181600116156101000203166002900480601f016020809104026020016040519081016040528092919081815260200182805460018160011615610100020316600290048015610b185780601f10610aed57610100808354040283529160200191610b18565b820191906000526020600020905b815481529060010190602001808311610afb57829003601f168201915b50505050508152602001600282018054600181600116156101000203166002900480601f016020809104026020016040519081016040528092919081815260200182805460018160011615610100020316600290048015610bba5780601f10610b8f57610100808354040283529160200191610bba565b820191906000526020600020905b815481529060010190602001808311610b9d57829003601f168201915b50505050508152602001600382018054600181600116156101000203166002900480601f016020809104026020016040519081016040528092919081815260200182805460018160011615610100020316600290048015610c5c5780601f10610c3157610100808354040283529160200191610c5c565b820191906000526020600020905b815481529060010190602001808311610c3f57829003601f168201915b50505050508152602001600482018054600181600116156101000203166002900480601f016020809104026020016040519081016040528092919081815260200182805460018160011615610100020316600290048015610cfe5780601f10610cd357610100808354040283529160200191610cfe565b820191906000526020600020905b815481529060010190602001808311610ce157829003601f168201915b5050505050815250508152602001600582015481526020016006820160009054906101000a900473ffffffffffffffffffffffffffffffffffffffff1673ffffffffffffffffffffffffffffffffffffffff1673ffffffffffffffffffffffffffffffffffffffff1681526020016007820154600019166000191681525050905073__BadgeLibrary__________________________631ddb6af682600001516000015183600001516020015184600001516040015185600001516060015186600001516080015187604001516000604051602001526040518763ffffffff167c0100000000000000000000000000000000000000000000000000000000028152600401808773ffffffffffffffffffffffffffffffffffffffff1673ffffffffffffffffffffffffffffffffffffffff168152602001806020018060200180602001806020018673ffffffffffffffffffffffffffffffffffffffff1673ffffffffffffffffffffffffffffffffffffffff16815260200185810385528a818151815260200191508051906020019080838360005b83811015610eaf578082015181840152602081019050610e94565b50505050905090810190601f168015610edc5780820380516001836020036101000a031916815260200191505b50858103845289818151815260200191508051906020019080838360005b83811015610f15578082015181840152602081019050610efa565b50505050905090810190601f168015610f425780820380516001836020036101000a031916815260200191505b50858103835288818151815260200191508051906020019080838360005b83811015610f7b578082015181840152602081019050610f60565b50505050905090810190601f168015610fa85780820380516001836020036101000a031916815260200191505b50858103825287818151815260200191508051906020019080838360005b83811015610fe1578082015181840152602081019050610fc6565b50505050905090810190601f16801561100e5780820380516001836020036101000a031916815260200191505b509a505050505050505050505060206040518083038186803b151561103257600080fd5b6102c65a03f4151561104357600080fd5b50505060405180519050915050919050565b60046020528060005260406000206000915054906101000a900460ff1681565b600060016002018281548110151561108957fe5b9060005260206000209001549050919050565b3360008060009054906101000a900473ffffffffffffffffffffffffffffffffffffffff1673ffffffffffffffffffffffffffffffffffffffff168273ffffffffffffffffffffffffffffffffffffffff161490507f7fca019a0a52664785803f352d793a992f66c4affa261b3daf127976e7ad67998282604051808373ffffffffffffffffffffffffffffffffffffffff1673ffffffffffffffffffffffffffffffffffffffff168152602001821515151581526020019250505060405180910390a180151561116c57600080fd5b6000600460008573ffffffffffffffffffffffffffffffffffffffff1673ffffffffffffffffffffffffffffffffffffffff16815260200190815260200160002060006101000a81548160ff021916908315150217905550505050565b60008060003360008060009054906101000a900473ffffffffffffffffffffffffffffffffffffffff1673ffffffffffffffffffffffffffffffffffffffff168273ffffffffffffffffffffffffffffffffffffffff161490507f7fca019a0a52664785803f352d793a992f66c4affa261b3daf127976e7ad67998282604051808373ffffffffffffffffffffffffffffffffffffffff1673ffffffffffffffffffffffffffffffffffffffff168152602001821515151581526020019250505060405180910390a180151561129e57600080fd5b6001600001600087600019166000191681526020019081526020016000206000808201600080820160006101000a81549073ffffffffffffffffffffffffffffffffffffffff02191690556001820160006112f99190611bd4565b6002820160006113099190611bd4565b6003820160006113199190611bd4565b6004820160006113299190611bd4565b505060058201600090556006820160006101000a81549073ffffffffffffffffffffffffffffffffffffffff0219169055600782016000905550506001800160008760001916600019168152602001908152602001600020549350600160020160018060020180549050038154811015156113a057fe5b906000526020600020900154925083600180016000856000191660001916815260200190815260200160002081905550826001600201858154811015156113e357fe5b90600052602060002090018160001916905550600160020180548091906001900361140e9190611c1c565b506001800160008760001916600019168152602001908152602001600020600090556001600001600087600019166000191681526020019081526020016000206000808201600080820160006101000a81549073ffffffffffffffffffffffffffffffffffffffff021916905560018201600061148b9190611bd4565b60028201600061149b9190611bd4565b6003820160006114ab9190611bd4565b6004820160006114bb9190611bd4565b505060058201600090556006820160006101000a81549073ffffffffffffffffffffffffffffffffffffffff0219169055600782016000905550507f53c822192afd4ec78307b42da85bc3b1afa0e4536e82c2bcfb6bb8e18a6c6553866001600201805490506040518083600019166000191681526020018281526020019250505060405180910390a16001945050505050919050565b3360008060009054906101000a900473ffffffffffffffffffffffffffffffffffffffff1673ffffffffffffffffffffffffffffffffffffffff168273ffffffffffffffffffffffffffffffffffffffff161490507f7fca019a0a52664785803f352d793a992f66c4affa261b3daf127976e7ad67998282604051808373ffffffffffffffffffffffffffffffffffffffff1673ffffffffffffffffffffffffffffffffffffffff168152602001821515151581526020019250505060405180910390a180151561162257600080fd5b6001600460008573ffffffffffffffffffffffffffffffffffffffff1673ffffffffffffffffffffffffffffffffffffffff16815260200190815260200160002060006101000a81548160ff021916908315150217905550505050565b6000611689611c48565b611691611c48565b611699611c48565b6116a1611c48565b60008060006116ae611b8b565b60006001600201805490501115156116c557600080fd5b600160000160008b60001916600019168152602001908152602001600020608060405190810160405290816000820160a060405190810160405290816000820160009054906101000a900473ffffffffffffffffffffffffffffffffffffffff1673ffffffffffffffffffffffffffffffffffffffff1673ffffffffffffffffffffffffffffffffffffffff168152602001600182018054600181600116156101000203166002900480601f0160208091040260200160405190810160405280929190818152602001828054600181600116156101000203166002900480156117ef5780601f106117c4576101008083540402835291602001916117ef565b820191906000526020600020905b8154815290600101906020018083116117d257829003601f168201915b50505050508152602001600282018054600181600116156101000203166002900480601f0160208091040260200160405190810160405280929190818152602001828054600181600116156101000203166002900480156118915780601f1061186657610100808354040283529160200191611891565b820191906000526020600020905b81548152906001019060200180831161187457829003601f168201915b50505050508152602001600382018054600181600116156101000203166002900480601f0160208091040260200160405190810160405280929190818152602001828054600181600116156101000203166002900480156119335780601f1061190857610100808354040283529160200191611933565b820191906000526020600020905b81548152906001019060200180831161191657829003601f168201915b50505050508152602001600482018054600181600116156101000203166002900480601f0160208091040260200160405190810160405280929190818152602001828054600181600116156101000203166002900480156119d55780601f106119aa576101008083540402835291602001916119d5565b820191906000526020600020905b8154815290600101906020018083116119b857829003601f168201915b5050505050815250508152602001600582015481526020016006820160009054906101000a900473ffffffffffffffffffffffffffffffffffffffff1673ffffffffffffffffffffffffffffffffffffffff1673ffffffffffffffffffffffffffffffffffffffff168152602001600782015460001916600019168152505090508060000151600001518160000151602001518260000151604001518360000151606001518460000151608001518560200151866040015187606001518696508595508494508393509850985098509850985098509850985050919395975091939597565b6000809054906101000a900473ffffffffffffffffffffffffffffffffffffffff1681565b828054600181600116156101000203166002900490600052602060002090601f016020900481019282601f10611b2057805160ff1916838001178555611b4e565b82800160010185558215611b4e579182015b82811115611b4d578251825591602001919060010190611b32565b5b509050611b5b9190611c5c565b5090565b815481835581811511611b8657818360005260206000209182019101611b859190611c81565b5b505050565b61010060405190810160405280611ba0611ca6565b815260200160008152602001600073ffffffffffffffffffffffffffffffffffffffff168152602001600080191681525090565b50805460018160011615610100020316600290046000825580601f10611bfa5750611c19565b601f016020900490600052602060002090810190611c189190611c5c565b5b50565b815481835581811511611c4357818360005260206000209182019101611c429190611c81565b5b505050565b602060405190810160405280600081525090565b611c7e91905b80821115611c7a576000816000905550600101611c62565b5090565b90565b611ca391905b80821115611c9f576000816000905550600101611c87565b5090565b90565b60a060405190810160405280600073ffffffffffffffffffffffffffffffffffffffff168152602001611cd7611d04565b8152602001611ce4611d04565b8152602001611cf1611d04565b8152602001611cfe611d04565b81525090565b6020604051908101604052806000815250905600a165627a7a723058200df7b362c1505ab350ca7dacf9ae5e45b7f91dee7beb24790a4b8eb0d8a1ce360029",
  "source": "pragma solidity ^0.4.17;\n\nimport \"BadgeLibrary/contracts/BadgeLibrary.sol\";\n\ncontract Holder {\n    \n    /// @notice address where holder holds there badgeforce tokens\n    address public holder;\n\n    /// @notice mapping of name hash to credential\n    /// @notice array of hash names\n    struct CredentialVault {\n        mapping (bytes32=>BadgeLibrary.Credential) credentials;\n        mapping (bytes32=>uint) indexMap;\n        bytes32[] keys;\n    }\n\n    /// @notice valut holding credentials\n    CredentialVault credentialVault;\n\n    /// @notice mapping of trusted issuers \n    mapping (address=>bool) public trustedIssuers;\n\n    function Holder(address _holder) {\n        holder = _holder;\n    }\n\n    event AuthorizeAttempt(address _actor, bool authorized);\n    /// @notice make sure caller is the issuer that owns this contract because badgeforce tokens will be used \n    modifier authorized(address _holder) {\n        bool isAuthorized = (_holder == holder);\n        AuthorizeAttempt(_holder, isAuthorized);\n        require(isAuthorized);\n        _;\n    }\n\n    event LogStoreAttempt(address _caller);\n    /// @notice make sure issuer is trusted to store credentials on this contract\n    modifier trusted(address _issuer) {\n        LogStoreAttempt(_issuer);\n        require(trustedIssuers[_issuer]);\n        _;\n    }\n\n    /// @notice add a new trusted issuer \n    function addTrustedIssuer(address _issuer) public authorized(msg.sender) {\n        trustedIssuers[_issuer] = true;\n    }\n\n    /// @notice add a new trusted issuer \n    function removeTrustedIssuer(address _issuer) public authorized(msg.sender) {\n        trustedIssuers[_issuer] = false;\n    }\n\n    event LogNewCredential(address _issuer, bytes32 _txnKey);\n    /// @notice store a new credential on this contract \n    function storeCredential(\n        address _issuer,\n        string _description,\n        string _name,\n        string _image,\n        string _version,\n        uint _expires,\n        address _recipient,\n        bytes32 _txnKey\n    ) public trusted(msg.sender)\n    {\n        credentialVault.credentials[_txnKey] = BadgeLibrary.Credential(\n                BadgeLibrary.Badge(_issuer, _description, _name, _image, _version),\n                _expires,\n                _recipient,\n                _txnKey\n        );\n        credentialVault.indexMap[_txnKey] = credentialVault.keys.push(_txnKey)-1;\n        LogNewCredential(_issuer, _txnKey);\n    }\n\n    event CredentialDeleted(bytes32 _txnKey, uint count);\n    /// @notice delete a credential \n    function deleteCredential(bytes32 _txnKey) \n    authorized(msg.sender)\n    public returns(bool success) \n    {\n        delete credentialVault.credentials[_txnKey];\n        uint rowToDelete = credentialVault.indexMap[_txnKey]; \n        bytes32 rowToMove = credentialVault.keys[credentialVault.keys.length-1];\n        credentialVault.indexMap[rowToMove] = rowToDelete; \n        credentialVault.keys[rowToDelete] = rowToMove; \n        credentialVault.keys.length--;\n        delete credentialVault.indexMap[_txnKey];\n        delete credentialVault.credentials[_txnKey];\n        CredentialDeleted(_txnKey, credentialVault.keys.length);\n        return true;\n    }\n\n    /// @notice get a holders credential \n    /// @param _name index of credential to return \n    function getCredential(bytes32 _txnKey) constant public  returns (\n        address _issuer,\n        string _description,\n        string _name,\n        string _image,\n        string _version,\n        uint _expires,\n        address _recipient,\n        bytes32 txnKey\n    ) {\n        require(credentialVault.keys.length > 0);\n        BadgeLibrary.Credential memory cred = credentialVault.credentials[_txnKey];\n        return (\n            cred.badge.issuer,\n            cred.badge.description,\n            cred.badge.name,\n            cred.badge.image,\n            cred.badge.version,\n            cred.expires,\n            cred.recipient,\n            cred.txnKey\n        );\n    }\n\n    /// @notice helper function for UI to retrieve all names then retrieve the credentials\n    /// @param _index index of the name you want\n    function getTxnKey(uint _index) constant public returns(bytes32 name) {\n        return credentialVault.keys[_index];\n    }\n\n    /// @notice get number of credentials \n    function getNumberOfCredentials() constant public returns(uint count) {\n        return credentialVault.keys.length;\n    }\n\n    function recomputePOIHash(bytes32 _txnKey) constant public returns(bytes32 poiHash) {\n        BadgeLibrary.Credential memory credential = credentialVault.credentials[_txnKey];\n        return BadgeLibrary.getIntegrityHash(\n            credential.badge.issuer, \n            credential.badge.description, \n            credential.badge.name, \n            credential.badge.image, \n            credential.badge.version, \n            credential.recipient\n        );\n    }\n}",
  "sourcePath": "/Users/khalil.claybon/Desktop/migrate-to-new-cpu/some_work/badgeforce_dev/badgeforce/contracts/Holder.sol",
  "compiler": {
    "name": "solc",
    "version": "0.4.18+commit.9cf6e910.Emscripten.clang"
  },
  "schemaVersion": "1.0.1",
  "updatedAt": "2018-01-02T09:04:20.805Z"
}