{
  "contractName": "Holder",
  "abi": [
    {
      "constant": true,
      "inputs": [],
      "name": "getNumberOfCredentials",
      "outputs": [
        {
          "name": "count",
          "type": "uint256"
        }
      ],
      "payable": false,
      "stateMutability": "view",
      "type": "function"
    },
    {
      "constant": true,
      "inputs": [
        {
          "name": "_txtKey",
          "type": "bytes32"
        }
      ],
      "name": "verifyCredential",
      "outputs": [
        {
          "name": "b",
          "type": "bytes32"
        }
      ],
      "payable": false,
      "stateMutability": "view",
      "type": "function"
    },
    {
      "constant": false,
      "inputs": [
        {
          "name": "_issuer",
          "type": "address"
        },
        {
          "name": "_description",
          "type": "string"
        },
        {
          "name": "_name",
          "type": "string"
        },
        {
          "name": "_image",
          "type": "string"
        },
        {
          "name": "_version",
          "type": "string"
        },
        {
          "name": "_expires",
          "type": "uint256"
        },
        {
          "name": "_recipient",
          "type": "address"
        },
        {
          "name": "_txKey",
          "type": "bytes32"
        }
      ],
      "name": "storeCredential",
      "outputs": [],
      "payable": false,
      "stateMutability": "nonpayable",
      "type": "function"
    },
    {
      "constant": true,
      "inputs": [
        {
          "name": "",
          "type": "address"
        }
      ],
      "name": "trustedIssuers",
      "outputs": [
        {
          "name": "",
          "type": "bool"
        }
      ],
      "payable": false,
      "stateMutability": "view",
      "type": "function"
    },
    {
      "constant": false,
      "inputs": [
        {
          "name": "_issuer",
          "type": "address"
        }
      ],
      "name": "removeTrustedIssuer",
      "outputs": [],
      "payable": false,
      "stateMutability": "nonpayable",
      "type": "function"
    },
    {
      "constant": false,
      "inputs": [
        {
          "name": "_txKey",
          "type": "bytes32"
        }
      ],
      "name": "deleteCredential",
      "outputs": [
        {
          "name": "success",
          "type": "bool"
        }
      ],
      "payable": false,
      "stateMutability": "nonpayable",
      "type": "function"
    },
    {
      "constant": false,
      "inputs": [
        {
          "name": "_issuer",
          "type": "address"
        }
      ],
      "name": "addTrustedIssuer",
      "outputs": [],
      "payable": false,
      "stateMutability": "nonpayable",
      "type": "function"
    },
    {
      "constant": true,
      "inputs": [
        {
          "name": "_txtKey",
          "type": "bytes32"
        }
      ],
      "name": "getCredential",
      "outputs": [
        {
          "name": "_issuer",
          "type": "address"
        },
        {
          "name": "_description",
          "type": "string"
        },
        {
          "name": "_name",
          "type": "string"
        },
        {
          "name": "_image",
          "type": "string"
        },
        {
          "name": "_version",
          "type": "string"
        },
        {
          "name": "_expires",
          "type": "uint256"
        },
        {
          "name": "_recipient",
          "type": "address"
        },
        {
          "name": "_txKey",
          "type": "bytes32"
        }
      ],
      "payable": false,
      "stateMutability": "view",
      "type": "function"
    },
    {
      "constant": true,
      "inputs": [
        {
          "name": "_index",
          "type": "uint256"
        }
      ],
      "name": "getTxtKey",
      "outputs": [
        {
          "name": "name",
          "type": "bytes32"
        }
      ],
      "payable": false,
      "stateMutability": "view",
      "type": "function"
    },
    {
      "constant": true,
      "inputs": [],
      "name": "holder",
      "outputs": [
        {
          "name": "",
          "type": "address"
        }
      ],
      "payable": false,
      "stateMutability": "view",
      "type": "function"
    },
    {
      "inputs": [
        {
          "name": "_holder",
          "type": "address"
        },
        {
          "name": "_verifier",
          "type": "address"
        }
      ],
      "payable": false,
      "stateMutability": "nonpayable",
      "type": "constructor"
    },
    {
      "anonymous": false,
      "inputs": [
        {
          "indexed": false,
          "name": "_actor",
          "type": "address"
        },
        {
          "indexed": false,
          "name": "authorized",
          "type": "bool"
        }
      ],
      "name": "AuthorizeAttempt",
      "type": "event"
    },
    {
      "anonymous": false,
      "inputs": [
        {
          "indexed": false,
          "name": "_caller",
          "type": "address"
        }
      ],
      "name": "LogStoreAttempt",
      "type": "event"
    },
    {
      "anonymous": false,
      "inputs": [
        {
          "indexed": false,
          "name": "_issuer",
          "type": "address"
        },
        {
          "indexed": false,
          "name": "_txKey",
          "type": "bytes32"
        }
      ],
      "name": "LogNewCredential",
      "type": "event"
    },
    {
      "anonymous": false,
      "inputs": [
        {
          "indexed": false,
          "name": "_txKey",
          "type": "bytes32"
        },
        {
          "indexed": false,
          "name": "count",
          "type": "uint256"
        }
      ],
      "name": "CredentialDeleted",
      "type": "event"
    }
  ],
  "bytecode": "0x6060604052341561000f57600080fd5b604051604080611e8f83398101604052808051906020019091908051906020019091905050816000806101000a81548173ffffffffffffffffffffffffffffffffffffffff021916908373ffffffffffffffffffffffffffffffffffffffff16021790555080600160006101000a81548173ffffffffffffffffffffffffffffffffffffffff021916908373ffffffffffffffffffffffffffffffffffffffff1602179055505050611dc9806100c66000396000f3006060604052600436106100a4576000357c0100000000000000000000000000000000000000000000000000000000900463ffffffff168063064c4d6c146100a95780634dbf87cc146100d25780634e3943e71461011557806392c54daf1461028f578063b93d28eb146102e0578063bfd9008b14610319578063c4566bdd14610358578063d1be488314610391578063dbc66652146105f1578063e534155d14610630575b600080fd5b34156100b457600080fd5b6100bc610685565b6040518082815260200191505060405180910390f35b34156100dd57600080fd5b6100f7600480803560001916906020019091905050610694565b60405180826000191660001916815260200191505060405180910390f35b341561012057600080fd5b61028d600480803573ffffffffffffffffffffffffffffffffffffffff1690602001909190803590602001908201803590602001908080601f0160208091040260200160405190810160405280939291908181526020018383808284378201915050505050509190803590602001908201803590602001908080601f0160208091040260200160405190810160405280939291908181526020018383808284378201915050505050509190803590602001908201803590602001908080601f0160208091040260200160405190810160405280939291908181526020018383808284378201915050505050509190803590602001908201803590602001908080601f0160208091040260200160405190810160405280939291908181526020018383808284378201915050505050509190803590602001909190803573ffffffffffffffffffffffffffffffffffffffff1690602001909190803560001916906020019091905050610d17565b005b341561029a57600080fd5b6102c6600480803573ffffffffffffffffffffffffffffffffffffffff1690602001909190505061107f565b604051808215151515815260200191505060405180910390f35b34156102eb57600080fd5b610317600480803573ffffffffffffffffffffffffffffffffffffffff1690602001909190505061109f565b005b341561032457600080fd5b61033e6004808035600019169060200190919050506111cc565b604051808215151515815260200191505060405180910390f35b341561036357600080fd5b61038f600480803573ffffffffffffffffffffffffffffffffffffffff16906020019091905050611554565b005b341561039c57600080fd5b6103b6600480803560001916906020019091905050611681565b604051808973ffffffffffffffffffffffffffffffffffffffff1673ffffffffffffffffffffffffffffffffffffffff168152602001806020018060200180602001806020018881526020018773ffffffffffffffffffffffffffffffffffffffff1673ffffffffffffffffffffffffffffffffffffffff168152602001866000191660001916815260200185810385528c818151815260200191508051906020019080838360005b8381101561047a57808201518184015260208101905061045f565b50505050905090810190601f1680156104a75780820380516001836020036101000a031916815260200191505b5085810384528b818151815260200191508051906020019080838360005b838110156104e05780820151818401526020810190506104c5565b50505050905090810190601f16801561050d5780820380516001836020036101000a031916815260200191505b5085810383528a818151815260200191508051906020019080838360005b8381101561054657808201518184015260208101905061052b565b50505050905090810190601f1680156105735780820380516001836020036101000a031916815260200191505b50858103825289818151815260200191508051906020019080838360005b838110156105ac578082015181840152602081019050610591565b50505050905090810190601f1680156105d95780820380516001836020036101000a031916815260200191505b509c5050505050505050505050505060405180910390f35b34156105fc57600080fd5b6106126004808035906020019091905050611abb565b60405180826000191660001916815260200191505060405180910390f35b341561063b57600080fd5b610643611ae1565b604051808273ffffffffffffffffffffffffffffffffffffffff1673ffffffffffffffffffffffffffffffffffffffff16815260200191505060405180910390f35b60006002800180549050905090565b600061069e611b06565b6000600260000160008560001916600019168152602001908152602001600020608060405190810160405290816000820160a060405190810160405290816000820160009054906101000a900473ffffffffffffffffffffffffffffffffffffffff1673ffffffffffffffffffffffffffffffffffffffff1673ffffffffffffffffffffffffffffffffffffffff168152602001600182018054600181600116156101000203166002900480601f0160208091040260200160405190810160405280929190818152602001828054600181600116156101000203166002900480156107ca5780601f1061079f576101008083540402835291602001916107ca565b820191906000526020600020905b8154815290600101906020018083116107ad57829003601f168201915b50505050508152602001600282018054600181600116156101000203166002900480601f01602080910402602001604051908101604052809291908181526020018280546001816001161561010002031660029004801561086c5780601f106108415761010080835404028352916020019161086c565b820191906000526020600020905b81548152906001019060200180831161084f57829003601f168201915b50505050508152602001600382018054600181600116156101000203166002900480601f01602080910402602001604051908101604052809291908181526020018280546001816001161561010002031660029004801561090e5780601f106108e35761010080835404028352916020019161090e565b820191906000526020600020905b8154815290600101906020018083116108f157829003601f168201915b50505050508152602001600482018054600181600116156101000203166002900480601f0160208091040260200160405190810160405280929190818152602001828054600181600116156101000203166002900480156109b05780601f10610985576101008083540402835291602001916109b0565b820191906000526020600020905b81548152906001019060200180831161099357829003601f168201915b5050505050815250508152602001600582015481526020016006820160009054906101000a900473ffffffffffffffffffffffffffffffffffffffff1673ffffffffffffffffffffffffffffffffffffffff1673ffffffffffffffffffffffffffffffffffffffff1681526020016007820154600019166000191681525050915073__VerifierLibrary_______________________638d803783836000015160000151846000015160200151856000015160400151866000015160600151876000015160800151886020015189604001516000604051602001526040518863ffffffff167c0100000000000000000000000000000000000000000000000000000000028152600401808873ffffffffffffffffffffffffffffffffffffffff1673ffffffffffffffffffffffffffffffffffffffff168152602001806020018060200180602001806020018781526020018673ffffffffffffffffffffffffffffffffffffffff1673ffffffffffffffffffffffffffffffffffffffff16815260200185810385528b818151815260200191508051906020019080838360005b83811015610b6c578082015181840152602081019050610b51565b50505050905090810190601f168015610b995780820380516001836020036101000a031916815260200191505b5085810384528a818151815260200191508051906020019080838360005b83811015610bd2578082015181840152602081019050610bb7565b50505050905090810190601f168015610bff5780820380516001836020036101000a031916815260200191505b50858103835289818151815260200191508051906020019080838360005b83811015610c38578082015181840152602081019050610c1d565b50505050905090810190601f168015610c655780820380516001836020036101000a031916815260200191505b50858103825288818151815260200191508051906020019080838360005b83811015610c9e578082015181840152602081019050610c83565b50505050905090810190601f168015610ccb5780820380516001836020036101000a031916815260200191505b509b50505050505050505050505060206040518083038186803b1515610cf057600080fd5b6102c65a03f41515610d0157600080fd5b5050506040518051905090508092505050919050565b610d1f611b4f565b610d27611b06565b337f2bf8ea5a40db67784aa965ddf3e37384c79dbaf6178e1c7b8e3be19f22f84b9c81604051808273ffffffffffffffffffffffffffffffffffffffff1673ffffffffffffffffffffffffffffffffffffffff16815260200191505060405180910390a1600560008273ffffffffffffffffffffffffffffffffffffffff1673ffffffffffffffffffffffffffffffffffffffff16815260200190815260200160002060009054906101000a900460ff161515610de357600080fd5b60a0604051908101604052808c73ffffffffffffffffffffffffffffffffffffffff1681526020018b81526020018a81526020018981526020018881525092506080604051908101604052808481526020018781526020018673ffffffffffffffffffffffffffffffffffffffff168152602001856000191681525091508160026000016000866000191660001916815260200190815260200160002060008201518160000160008201518160000160006101000a81548173ffffffffffffffffffffffffffffffffffffffff021916908373ffffffffffffffffffffffffffffffffffffffff1602179055506020820151816001019080519060200190610eec929190611bad565b506040820151816002019080519060200190610f09929190611bad565b506060820151816003019080519060200190610f26929190611bad565b506080820151816004019080519060200190610f43929190611bad565b5050506020820151816005015560408201518160060160006101000a81548173ffffffffffffffffffffffffffffffffffffffff021916908373ffffffffffffffffffffffffffffffffffffffff160217905550606082015181600701906000191690559050506001600280018054806001018281610fc29190611c2d565b916000526020600020900160008790919091509060001916905503600260010160008660001916600019168152602001908152602001600020819055507ffd261e99689a1e051fb978b6220c7cf7f806eac1fe92d51c09254cb876d257d68b85604051808373ffffffffffffffffffffffffffffffffffffffff1673ffffffffffffffffffffffffffffffffffffffff16815260200182600019166000191681526020019250505060405180910390a15050505050505050505050565b60056020528060005260406000206000915054906101000a900460ff1681565b3360008060009054906101000a900473ffffffffffffffffffffffffffffffffffffffff1673ffffffffffffffffffffffffffffffffffffffff168273ffffffffffffffffffffffffffffffffffffffff161490507f7fca019a0a52664785803f352d793a992f66c4affa261b3daf127976e7ad67998282604051808373ffffffffffffffffffffffffffffffffffffffff1673ffffffffffffffffffffffffffffffffffffffff168152602001821515151581526020019250505060405180910390a180151561116f57600080fd5b6000600560008573ffffffffffffffffffffffffffffffffffffffff1673ffffffffffffffffffffffffffffffffffffffff16815260200190815260200160002060006101000a81548160ff021916908315150217905550505050565b60008060003360008060009054906101000a900473ffffffffffffffffffffffffffffffffffffffff1673ffffffffffffffffffffffffffffffffffffffff168273ffffffffffffffffffffffffffffffffffffffff161490507f7fca019a0a52664785803f352d793a992f66c4affa261b3daf127976e7ad67998282604051808373ffffffffffffffffffffffffffffffffffffffff1673ffffffffffffffffffffffffffffffffffffffff168152602001821515151581526020019250505060405180910390a18015156112a157600080fd5b6002600001600087600019166000191681526020019081526020016000206000808201600080820160006101000a81549073ffffffffffffffffffffffffffffffffffffffff02191690556001820160006112fc9190611c59565b60028201600061130c9190611c59565b60038201600061131c9190611c59565b60048201600061132c9190611c59565b505060058201600090556006820160006101000a81549073ffffffffffffffffffffffffffffffffffffffff0219169055600782016000905550506002600101600087600019166000191681526020019081526020016000205493506002800160016002800180549050038154811015156113a357fe5b906000526020600020900154925083600260010160008560001916600019168152602001908152602001600020819055508260028001858154811015156113e657fe5b90600052602060002090018160001916905550600280018054809190600190036114109190611ca1565b50600260010160008760001916600019168152602001908152602001600020600090556002600001600087600019166000191681526020019081526020016000206000808201600080820160006101000a81549073ffffffffffffffffffffffffffffffffffffffff021916905560018201600061148e9190611c59565b60028201600061149e9190611c59565b6003820160006114ae9190611c59565b6004820160006114be9190611c59565b505060058201600090556006820160006101000a81549073ffffffffffffffffffffffffffffffffffffffff0219169055600782016000905550507f53c822192afd4ec78307b42da85bc3b1afa0e4536e82c2bcfb6bb8e18a6c65538660028001805490506040518083600019166000191681526020018281526020019250505060405180910390a16001945050505050919050565b3360008060009054906101000a900473ffffffffffffffffffffffffffffffffffffffff1673ffffffffffffffffffffffffffffffffffffffff168273ffffffffffffffffffffffffffffffffffffffff161490507f7fca019a0a52664785803f352d793a992f66c4affa261b3daf127976e7ad67998282604051808373ffffffffffffffffffffffffffffffffffffffff1673ffffffffffffffffffffffffffffffffffffffff168152602001821515151581526020019250505060405180910390a180151561162457600080fd5b6001600560008573ffffffffffffffffffffffffffffffffffffffff1673ffffffffffffffffffffffffffffffffffffffff16815260200190815260200160002060006101000a81548160ff021916908315150217905550505050565b600061168b611ccd565b611693611ccd565b61169b611ccd565b6116a3611ccd565b60008060006116b0611b06565b600060028001805490501115156116c657600080fd5b600260000160008b60001916600019168152602001908152602001600020608060405190810160405290816000820160a060405190810160405290816000820160009054906101000a900473ffffffffffffffffffffffffffffffffffffffff1673ffffffffffffffffffffffffffffffffffffffff1673ffffffffffffffffffffffffffffffffffffffff168152602001600182018054600181600116156101000203166002900480601f0160208091040260200160405190810160405280929190818152602001828054600181600116156101000203166002900480156117f05780601f106117c5576101008083540402835291602001916117f0565b820191906000526020600020905b8154815290600101906020018083116117d357829003601f168201915b50505050508152602001600282018054600181600116156101000203166002900480601f0160208091040260200160405190810160405280929190818152602001828054600181600116156101000203166002900480156118925780601f1061186757610100808354040283529160200191611892565b820191906000526020600020905b81548152906001019060200180831161187557829003601f168201915b50505050508152602001600382018054600181600116156101000203166002900480601f0160208091040260200160405190810160405280929190818152602001828054600181600116156101000203166002900480156119345780601f1061190957610100808354040283529160200191611934565b820191906000526020600020905b81548152906001019060200180831161191757829003601f168201915b50505050508152602001600482018054600181600116156101000203166002900480601f0160208091040260200160405190810160405280929190818152602001828054600181600116156101000203166002900480156119d65780601f106119ab576101008083540402835291602001916119d6565b820191906000526020600020905b8154815290600101906020018083116119b957829003601f168201915b5050505050815250508152602001600582015481526020016006820160009054906101000a900473ffffffffffffffffffffffffffffffffffffffff1673ffffffffffffffffffffffffffffffffffffffff1673ffffffffffffffffffffffffffffffffffffffff168152602001600782015460001916600019168152505090508060000151600001518160000151602001518260000151604001518360000151606001518460000151608001518560200151866040015187606001518696508595508494508393509850985098509850985098509850985050919395975091939597565b60006002800182815481101515611ace57fe5b9060005260206000209001549050919050565b6000809054906101000a900473ffffffffffffffffffffffffffffffffffffffff1681565b61010060405190810160405280611b1b611ce1565b815260200160008152602001600073ffffffffffffffffffffffffffffffffffffffff168152602001600080191681525090565b60a060405190810160405280600073ffffffffffffffffffffffffffffffffffffffff168152602001611b80611d3f565b8152602001611b8d611d3f565b8152602001611b9a611d3f565b8152602001611ba7611d3f565b81525090565b828054600181600116156101000203166002900490600052602060002090601f016020900481019282601f10611bee57805160ff1916838001178555611c1c565b82800160010185558215611c1c579182015b82811115611c1b578251825591602001919060010190611c00565b5b509050611c299190611d53565b5090565b815481835581811511611c5457818360005260206000209182019101611c539190611d78565b5b505050565b50805460018160011615610100020316600290046000825580601f10611c7f5750611c9e565b601f016020900490600052602060002090810190611c9d9190611d53565b5b50565b815481835581811511611cc857818360005260206000209182019101611cc79190611d78565b5b505050565b602060405190810160405280600081525090565b60a060405190810160405280600073ffffffffffffffffffffffffffffffffffffffff168152602001611d12611d3f565b8152602001611d1f611d3f565b8152602001611d2c611d3f565b8152602001611d39611d3f565b81525090565b602060405190810160405280600081525090565b611d7591905b80821115611d71576000816000905550600101611d59565b5090565b90565b611d9a91905b80821115611d96576000816000905550600101611d7e565b5090565b905600a165627a7a72305820e17a07a4894a18efc314a434dbe8ac14469a11ccb752c56aca4e0961011c1b9b0029",
  "source": "pragma solidity ^0.4.15;\n\nimport \"BadgeLibrary/contracts/BadgeLibrary.sol\";\nimport \"BadgeLibrary/contracts/VerifierInterface.sol\";\nimport \"BadgeLibrary/contracts/VerifierLibrary.sol\";\n\ncontract Holder {\n    \n    /// @notice address where holder holds there badgeforce tokens\n    address public holder;\n\n    VerifierInterface verifier;\n\n    /// @notice mapping of name hash to credential\n    /// @notice array of hash names\n    struct CredentialVault {\n        mapping (bytes32=>BadgeLibrary.Credential) credentials;\n        mapping (bytes32=>uint) indexMap;\n        bytes32[] keys;\n    }\n\n    /// @notice valut holding credentials\n    CredentialVault credentialVault;\n\n    /// @notice mapping of trusted issuers \n    mapping (address=>bool) public trustedIssuers;\n\n    function Holder(address _holder, address _verifier) {\n        holder = _holder;\n        verifier = VerifierInterface(_verifier);\n    }\n\n    event AuthorizeAttempt(address _actor, bool authorized);\n    /// @notice make sure caller is the issuer that owns this contract because badgeforce tokens will be used \n    modifier authorized(address _holder) {\n        bool isAuthorized = (_holder == holder);\n        AuthorizeAttempt(_holder, isAuthorized);\n        require(isAuthorized);\n        _;\n    }\n\n    event LogStoreAttempt(address _caller);\n    /// @notice make sure issuer is trusted to store credentials on this contract\n    modifier trusted(address _issuer) {\n        LogStoreAttempt(_issuer);\n        require(trustedIssuers[_issuer]);\n        _;\n    }\n\n    /// @notice add a new trusted issuer \n    function addTrustedIssuer(address _issuer) public authorized(msg.sender) {\n        trustedIssuers[_issuer] = true;\n    }\n\n    /// @notice add a new trusted issuer \n    function removeTrustedIssuer(address _issuer) public authorized(msg.sender) {\n        trustedIssuers[_issuer] = false;\n    }\n\n    event LogNewCredential(address _issuer, bytes32 _txKey);\n    /// @notice store a new credential on this contract \n    function storeCredential(\n        address _issuer,\n        string _description,\n        string _name,\n        string _image,\n        string _version,\n        uint _expires,\n        address _recipient,\n        bytes32 _txKey\n    ) public trusted(msg.sender)\n    {\n        BadgeLibrary.Badge memory badgeData = BadgeLibrary.Badge(\n            _issuer,\n            _description,\n            _name,\n            _image,\n            _version\n        );\n        BadgeLibrary.Credential memory credential = BadgeLibrary.Credential(\n                badgeData,\n                _expires,\n                _recipient,\n                _txKey\n        );\n        credentialVault.credentials[_txKey] = credential;\n        credentialVault.indexMap[_txKey] = credentialVault.keys.push(_txKey)-1;\n        LogNewCredential(_issuer, _txKey);\n    }\n\n    event CredentialDeleted(bytes32 _txKey, uint count);\n    /// @notice delete a credential \n    function deleteCredential(bytes32 _txKey) \n    authorized(msg.sender)\n    public returns(bool success) \n    {\n        delete credentialVault.credentials[_txKey];\n        uint rowToDelete = credentialVault.indexMap[_txKey]; \n        bytes32 rowToMove = credentialVault.keys[credentialVault.keys.length-1];\n        credentialVault.indexMap[rowToMove] = rowToDelete; \n        credentialVault.keys[rowToDelete] = rowToMove; \n        credentialVault.keys.length--;\n        delete credentialVault.indexMap[_txKey];\n        delete credentialVault.credentials[_txKey];\n        CredentialDeleted(_txKey, credentialVault.keys.length);\n        return true;\n    }\n\n    /// @notice get a holders credential \n    /// @param _name index of credential to return \n    function getCredential(bytes32 _txtKey) constant public  returns (\n        address _issuer,\n        string _description,\n        string _name,\n        string _image,\n        string _version,\n        uint _expires,\n        address _recipient,\n        bytes32 _txKey\n    ) {\n        require(credentialVault.keys.length > 0);\n        BadgeLibrary.Credential memory cred = credentialVault.credentials[_txtKey];\n        return (\n            cred.badge.issuer,\n            cred.badge.description,\n            cred.badge.name,\n            cred.badge.image,\n            cred.badge.version,\n            cred.expires,\n            cred.recipient,\n            cred.txKey\n        );\n    }\n\n    /// @notice helper function for UI to retrieve all names then retrieve the credentials\n    /// @param _index index of the name you want\n    function getTxtKey(uint _index) constant public returns(bytes32 name) {\n        return credentialVault.keys[_index];\n    }\n\n    /// @notice get number of credentials \n    function getNumberOfCredentials() constant public returns(uint count) {\n        return credentialVault.keys.length;\n    }\n\n    function verifyCredential(bytes32 _txtKey) constant public returns(bytes32 b) {\n        //bytes32 _txtKey, bytes32 _integrityHash, address _recipient, address _issuer\n        BadgeLibrary.Credential memory credential = credentialVault.credentials[_txtKey];\n        bytes32 integrityHash = VerifierLibrary.getIntegrityHash(\n            credential.badge.issuer, \n            credential.badge.description, \n            credential.badge.name, \n            credential.badge.image, \n            credential.badge.version, \n            credential.expires,\n            credential.recipient \n        );\n        return integrityHash;\n        // return verifier.verifyCredential(credential.txKey, integrityHash, credential.recipient, credential.badge.issuer);\n    }\n}",
  "sourcePath": "/Users/khalil.claybon/Desktop/some_work/badgeforce_dev/badgeforce/contracts/Holder.sol",
  "compiler": {
    "name": "solc",
    "version": "0.4.18+commit.9cf6e910.Emscripten.clang"
  },
  "schemaVersion": "1.0.1",
  "updatedAt": "2017-12-24T18:06:51.118Z"
}