{
  "contractName": "Holder",
  "abi": [
    {
      "constant": true,
      "inputs": [],
      "name": "getNumberOfCredentials",
      "outputs": [
        {
          "name": "count",
          "type": "uint256"
        }
      ],
      "payable": false,
      "stateMutability": "view",
      "type": "function"
    },
    {
      "constant": false,
      "inputs": [
        {
          "name": "_txnKey",
          "type": "bytes32"
        }
      ],
      "name": "acceptCredential",
      "outputs": [],
      "payable": false,
      "stateMutability": "nonpayable",
      "type": "function"
    },
    {
      "constant": false,
      "inputs": [
        {
          "name": "_issuer",
          "type": "address"
        },
        {
          "name": "_description",
          "type": "string"
        },
        {
          "name": "_name",
          "type": "string"
        },
        {
          "name": "_image",
          "type": "string"
        },
        {
          "name": "_version",
          "type": "string"
        },
        {
          "name": "_expires",
          "type": "uint256"
        },
        {
          "name": "_recipient",
          "type": "address"
        },
        {
          "name": "_txnKey",
          "type": "bytes32"
        }
      ],
      "name": "storeCredential",
      "outputs": [],
      "payable": false,
      "stateMutability": "nonpayable",
      "type": "function"
    },
    {
      "constant": true,
      "inputs": [],
      "name": "getNumberOfPendingCredentials",
      "outputs": [
        {
          "name": "count",
          "type": "uint256"
        }
      ],
      "payable": false,
      "stateMutability": "view",
      "type": "function"
    },
    {
      "constant": true,
      "inputs": [
        {
          "name": "_txnKey",
          "type": "bytes32"
        }
      ],
      "name": "recomputePOIHash",
      "outputs": [
        {
          "name": "poiHash",
          "type": "bytes32"
        }
      ],
      "payable": false,
      "stateMutability": "view",
      "type": "function"
    },
    {
      "constant": true,
      "inputs": [
        {
          "name": "",
          "type": "address"
        }
      ],
      "name": "trustedIssuers",
      "outputs": [
        {
          "name": "",
          "type": "bool"
        }
      ],
      "payable": false,
      "stateMutability": "view",
      "type": "function"
    },
    {
      "constant": false,
      "inputs": [
        {
          "name": "_txnKey",
          "type": "bytes32"
        }
      ],
      "name": "rejectCredential",
      "outputs": [],
      "payable": false,
      "stateMutability": "nonpayable",
      "type": "function"
    },
    {
      "constant": true,
      "inputs": [
        {
          "name": "_index",
          "type": "uint256"
        }
      ],
      "name": "getTxnKey",
      "outputs": [
        {
          "name": "name",
          "type": "bytes32"
        }
      ],
      "payable": false,
      "stateMutability": "view",
      "type": "function"
    },
    {
      "constant": false,
      "inputs": [
        {
          "name": "_issuer",
          "type": "address"
        }
      ],
      "name": "removeTrustedIssuer",
      "outputs": [],
      "payable": false,
      "stateMutability": "nonpayable",
      "type": "function"
    },
    {
      "constant": false,
      "inputs": [
        {
          "name": "_txnKey",
          "type": "bytes32"
        }
      ],
      "name": "deleteCredential",
      "outputs": [
        {
          "name": "success",
          "type": "bool"
        }
      ],
      "payable": false,
      "stateMutability": "nonpayable",
      "type": "function"
    },
    {
      "constant": false,
      "inputs": [
        {
          "name": "_issuer",
          "type": "address"
        }
      ],
      "name": "addTrustedIssuer",
      "outputs": [],
      "payable": false,
      "stateMutability": "nonpayable",
      "type": "function"
    },
    {
      "constant": true,
      "inputs": [
        {
          "name": "_txnKey",
          "type": "bytes32"
        }
      ],
      "name": "getCredential",
      "outputs": [
        {
          "name": "_issuer",
          "type": "address"
        },
        {
          "name": "_description",
          "type": "string"
        },
        {
          "name": "_name",
          "type": "string"
        },
        {
          "name": "_image",
          "type": "string"
        },
        {
          "name": "_version",
          "type": "string"
        },
        {
          "name": "_expires",
          "type": "uint256"
        },
        {
          "name": "_recipient",
          "type": "address"
        },
        {
          "name": "txnKey",
          "type": "bytes32"
        },
        {
          "name": "_active",
          "type": "bool"
        }
      ],
      "payable": false,
      "stateMutability": "view",
      "type": "function"
    },
    {
      "constant": false,
      "inputs": [
        {
          "name": "_txnKey",
          "type": "bytes32"
        }
      ],
      "name": "_deleteCredential",
      "outputs": [
        {
          "name": "success",
          "type": "bool"
        }
      ],
      "payable": false,
      "stateMutability": "nonpayable",
      "type": "function"
    },
    {
      "constant": true,
      "inputs": [],
      "name": "holder",
      "outputs": [
        {
          "name": "",
          "type": "address"
        }
      ],
      "payable": false,
      "stateMutability": "view",
      "type": "function"
    },
    {
      "inputs": [
        {
          "name": "_holder",
          "type": "address"
        }
      ],
      "payable": false,
      "stateMutability": "nonpayable",
      "type": "constructor"
    },
    {
      "anonymous": false,
      "inputs": [
        {
          "indexed": false,
          "name": "_actor",
          "type": "address"
        },
        {
          "indexed": false,
          "name": "authorized",
          "type": "bool"
        }
      ],
      "name": "AuthorizeAttempt",
      "type": "event"
    },
    {
      "anonymous": false,
      "inputs": [
        {
          "indexed": false,
          "name": "_caller",
          "type": "address"
        }
      ],
      "name": "LogStoreAttempt",
      "type": "event"
    },
    {
      "anonymous": false,
      "inputs": [
        {
          "indexed": false,
          "name": "_name",
          "type": "string"
        },
        {
          "indexed": false,
          "name": "_issuer",
          "type": "address"
        }
      ],
      "name": "NewPendingCredential",
      "type": "event"
    },
    {
      "anonymous": false,
      "inputs": [
        {
          "indexed": false,
          "name": "_txnKey",
          "type": "bytes32"
        }
      ],
      "name": "NewCredentialAccepted",
      "type": "event"
    },
    {
      "anonymous": false,
      "inputs": [
        {
          "indexed": false,
          "name": "_txnKey",
          "type": "bytes32"
        }
      ],
      "name": "CredentialRejected",
      "type": "event"
    },
    {
      "anonymous": false,
      "inputs": [
        {
          "indexed": false,
          "name": "_txnKey",
          "type": "bytes32"
        },
        {
          "indexed": false,
          "name": "count",
          "type": "uint256"
        }
      ],
      "name": "CredentialDeleted",
      "type": "event"
    }
  ],
  "bytecode": "0x6060604052341561000f57600080fd5b6040516020806122e783398101604052808051906020019091905050806000806101000a81548173ffffffffffffffffffffffffffffffffffffffff021916908373ffffffffffffffffffffffffffffffffffffffff1602179055505061226c8061007b6000396000f3006060604052600436106100d0576000357c0100000000000000000000000000000000000000000000000000000000900463ffffffff168063064c4d6c146100d557806317a43191146100fe5780634e3943e714610125578063567f77931461029f5780636bcdaa33146102c857806392c54daf1461030b578063a8d97e5c1461035c578063b193772a14610383578063b93d28eb146103c2578063bfd9008b146103fb578063c4566bdd1461043a578063d1be488314610473578063e2b27eb0146106de578063e534155d1461071d575b600080fd5b34156100e057600080fd5b6100e8610772565b6040518082815260200191505060405180910390f35b341561010957600080fd5b610123600480803560001916906020019091905050610782565b005b341561013057600080fd5b61029d600480803573ffffffffffffffffffffffffffffffffffffffff1690602001909190803590602001908201803590602001908080601f0160208091040260200160405190810160405280939291908181526020018383808284378201915050505050509190803590602001908201803590602001908080601f0160208091040260200160405190810160405280939291908181526020018383808284378201915050505050509190803590602001908201803590602001908080601f0160208091040260200160405190810160405280939291908181526020018383808284378201915050505050509190803590602001908201803590602001908080601f0160208091040260200160405190810160405280939291908181526020018383808284378201915050505050509190803590602001909190803573ffffffffffffffffffffffffffffffffffffffff1690602001909190803560001916906020019091905050610920565b005b34156102aa57600080fd5b6102b2610d0a565b6040518082815260200191505060405180910390f35b34156102d357600080fd5b6102ed600480803560001916906020019091905050610d17565b60405180826000191660001916815260200191505060405180910390f35b341561031657600080fd5b610342600480803573ffffffffffffffffffffffffffffffffffffffff169060200190919050506113a3565b604051808215151515815260200191505060405180910390f35b341561036757600080fd5b6103816004808035600019169060200190919050506113c3565b005b341561038e57600080fd5b6103a46004808035906020019091905050611532565b60405180826000191660001916815260200191505060405180910390f35b34156103cd57600080fd5b6103f9600480803573ffffffffffffffffffffffffffffffffffffffff16906020019091905050611559565b005b341561040657600080fd5b610420600480803560001916906020019091905050611686565b604051808215151515815260200191505060405180910390f35b341561044557600080fd5b610471600480803573ffffffffffffffffffffffffffffffffffffffff169060200190919050506117bc565b005b341561047e57600080fd5b6104986004808035600019169060200190919050506118e9565b604051808a73ffffffffffffffffffffffffffffffffffffffff1673ffffffffffffffffffffffffffffffffffffffff168152602001806020018060200180602001806020018981526020018873ffffffffffffffffffffffffffffffffffffffff1673ffffffffffffffffffffffffffffffffffffffff16815260200187600019166000191681526020018615151515815260200185810385528d818151815260200191508051906020019080838360005b8381101561056657808201518184015260208101905061054b565b50505050905090810190601f1680156105935780820380516001836020036101000a031916815260200191505b5085810384528c818151815260200191508051906020019080838360005b838110156105cc5780820151818401526020810190506105b1565b50505050905090810190601f1680156105f95780820380516001836020036101000a031916815260200191505b5085810383528b818151815260200191508051906020019080838360005b83811015610632578082015181840152602081019050610617565b50505050905090810190601f16801561065f5780820380516001836020036101000a031916815260200191505b5085810382528a818151815260200191508051906020019080838360005b8381101561069857808201518184015260208101905061067d565b50505050905090810190601f1680156106c55780820380516001836020036101000a031916815260200191505b509d505050505050505050505050505060405180910390f35b34156106e957600080fd5b610703600480803560001916906020019091905050611d49565b604051808215151515815260200191505060405180910390f35b341561072857600080fd5b610730611fd9565b604051808273ffffffffffffffffffffffffffffffffffffffff1673ffffffffffffffffffffffffffffffffffffffff16815260200191505060405180910390f35b6000600160030180549050905090565b3360008060009054906101000a900473ffffffffffffffffffffffffffffffffffffffff1673ffffffffffffffffffffffffffffffffffffffff168273ffffffffffffffffffffffffffffffffffffffff161490507f7fca019a0a52664785803f352d793a992f66c4affa261b3daf127976e7ad67998282604051808373ffffffffffffffffffffffffffffffffffffffff1673ffffffffffffffffffffffffffffffffffffffff168152602001821515151581526020019250505060405180910390a180151561085257600080fd5b60016000016000846000191660001916815260200190815260200160002060080160009054906101000a900460ff1615151561088d57600080fd5b6001806000016000856000191660001916815260200190815260200160002060080160006101000a81548160ff021916908315150217905550600160020160008154809291906001900391905055507f978dbd4a5c69398988d130f73b479d634067339a3258c23bf271f12999b1c1138360405180826000191660001916815260200191505060405180910390a1505050565b337f2bf8ea5a40db67784aa965ddf3e37384c79dbaf6178e1c7b8e3be19f22f84b9c81604051808273ffffffffffffffffffffffffffffffffffffffff1673ffffffffffffffffffffffffffffffffffffffff16815260200191505060405180910390a1600560008273ffffffffffffffffffffffffffffffffffffffff1673ffffffffffffffffffffffffffffffffffffffff16815260200190815260200160002060009054906101000a900460ff1615156109dc57600080fd5b60a06040519081016040528060a0604051908101604052808c73ffffffffffffffffffffffffffffffffffffffff1681526020018b81526020018a81526020018981526020018881525081526020018581526020018473ffffffffffffffffffffffffffffffffffffffff168152602001836000191681526020016000151581525060016000016000846000191660001916815260200190815260200160002060008201518160000160008201518160000160006101000a81548173ffffffffffffffffffffffffffffffffffffffff021916908373ffffffffffffffffffffffffffffffffffffffff1602179055506020820151816001019080519060200190610ae8929190611ffe565b506040820151816002019080519060200190610b05929190611ffe565b506060820151816003019080519060200190610b22929190611ffe565b506080820151816004019080519060200190610b3f929190611ffe565b5050506020820151816005015560408201518160060160006101000a81548173ffffffffffffffffffffffffffffffffffffffff021916908373ffffffffffffffffffffffffffffffffffffffff1602179055506060820151816007019060001916905560808201518160080160006101000a81548160ff0219169083151502179055509050506001806003018054806001018281610bde919061207e565b9160005260206000209001600085909190915090600019169055036001800160008460001916600019168152602001908152602001600020819055506001600201600081548092919060010191905055507fed60274040809c2e0c3199910a8fc3317c525cf63a383939cd93936d01192a0a878a60405180806020018373ffffffffffffffffffffffffffffffffffffffff1673ffffffffffffffffffffffffffffffffffffffff168152602001828103825284818151815260200191508051906020019080838360005b83811015610cc4578082015181840152602081019050610ca9565b50505050905090810190601f168015610cf15780820380516001836020036101000a031916815260200191505b50935050505060405180910390a1505050505050505050565b6000600160020154905090565b6000610d216120aa565b60016000016000846000191660001916815260200190815260200160002060a060405190810160405290816000820160a060405190810160405290816000820160009054906101000a900473ffffffffffffffffffffffffffffffffffffffff1673ffffffffffffffffffffffffffffffffffffffff1673ffffffffffffffffffffffffffffffffffffffff168152602001600182018054600181600116156101000203166002900480601f016020809104026020016040519081016040528092919081815260200182805460018160011615610100020316600290048015610e4b5780601f10610e2057610100808354040283529160200191610e4b565b820191906000526020600020905b815481529060010190602001808311610e2e57829003601f168201915b50505050508152602001600282018054600181600116156101000203166002900480601f016020809104026020016040519081016040528092919081815260200182805460018160011615610100020316600290048015610eed5780601f10610ec257610100808354040283529160200191610eed565b820191906000526020600020905b815481529060010190602001808311610ed057829003601f168201915b50505050508152602001600382018054600181600116156101000203166002900480601f016020809104026020016040519081016040528092919081815260200182805460018160011615610100020316600290048015610f8f5780601f10610f6457610100808354040283529160200191610f8f565b820191906000526020600020905b815481529060010190602001808311610f7257829003601f168201915b50505050508152602001600482018054600181600116156101000203166002900480601f0160208091040260200160405190810160405280929190818152602001828054600181600116156101000203166002900480156110315780601f1061100657610100808354040283529160200191611031565b820191906000526020600020905b81548152906001019060200180831161101457829003601f168201915b5050505050815250508152602001600582015481526020016006820160009054906101000a900473ffffffffffffffffffffffffffffffffffffffff1673ffffffffffffffffffffffffffffffffffffffff1673ffffffffffffffffffffffffffffffffffffffff1681526020016007820154600019166000191681526020016008820160009054906101000a900460ff161515151581525050905073__BadgeLibrary__________________________631ddb6af682600001516000015183600001516020015184600001516040015185600001516060015186600001516080015187604001516000604051602001526040518763ffffffff167c0100000000000000000000000000000000000000000000000000000000028152600401808773ffffffffffffffffffffffffffffffffffffffff1673ffffffffffffffffffffffffffffffffffffffff168152602001806020018060200180602001806020018673ffffffffffffffffffffffffffffffffffffffff1673ffffffffffffffffffffffffffffffffffffffff16815260200185810385528a818151815260200191508051906020019080838360005b838110156111fd5780820151818401526020810190506111e2565b50505050905090810190601f16801561122a5780820380516001836020036101000a031916815260200191505b50858103845289818151815260200191508051906020019080838360005b83811015611263578082015181840152602081019050611248565b50505050905090810190601f1680156112905780820380516001836020036101000a031916815260200191505b50858103835288818151815260200191508051906020019080838360005b838110156112c95780820151818401526020810190506112ae565b50505050905090810190601f1680156112f65780820380516001836020036101000a031916815260200191505b50858103825287818151815260200191508051906020019080838360005b8381101561132f578082015181840152602081019050611314565b50505050905090810190601f16801561135c5780820380516001836020036101000a031916815260200191505b509a505050505050505050505060206040518083038186803b151561138057600080fd5b6102c65a03f4151561139157600080fd5b50505060405180519050915050919050565b60056020528060005260406000206000915054906101000a900460ff1681565b3360008060009054906101000a900473ffffffffffffffffffffffffffffffffffffffff1673ffffffffffffffffffffffffffffffffffffffff168273ffffffffffffffffffffffffffffffffffffffff161490507f7fca019a0a52664785803f352d793a992f66c4affa261b3daf127976e7ad67998282604051808373ffffffffffffffffffffffffffffffffffffffff1673ffffffffffffffffffffffffffffffffffffffff168152602001821515151581526020019250505060405180910390a180151561149357600080fd5b60016000016000846000191660001916815260200190815260200160002060080160009054906101000a900460ff161515156114ce57600080fd5b6114d783611d49565b50600160020160008154809291906001900391905055507f3d6d2e20f8295ac74aaf9f1baed466127668c2875ea803edb9fdef728c58116f8360405180826000191660001916815260200191505060405180910390a1505050565b600060016003018281548110151561154657fe5b9060005260206000209001549050919050565b3360008060009054906101000a900473ffffffffffffffffffffffffffffffffffffffff1673ffffffffffffffffffffffffffffffffffffffff168273ffffffffffffffffffffffffffffffffffffffff161490507f7fca019a0a52664785803f352d793a992f66c4affa261b3daf127976e7ad67998282604051808373ffffffffffffffffffffffffffffffffffffffff1673ffffffffffffffffffffffffffffffffffffffff168152602001821515151581526020019250505060405180910390a180151561162957600080fd5b6000600560008573ffffffffffffffffffffffffffffffffffffffff1673ffffffffffffffffffffffffffffffffffffffff16815260200190815260200160002060006101000a81548160ff021916908315150217905550505050565b60003360008060009054906101000a900473ffffffffffffffffffffffffffffffffffffffff1673ffffffffffffffffffffffffffffffffffffffff168273ffffffffffffffffffffffffffffffffffffffff161490507f7fca019a0a52664785803f352d793a992f66c4affa261b3daf127976e7ad67998282604051808373ffffffffffffffffffffffffffffffffffffffff1673ffffffffffffffffffffffffffffffffffffffff168152602001821515151581526020019250505060405180910390a180151561175857600080fd5b61176184611d49565b92507f53c822192afd4ec78307b42da85bc3b1afa0e4536e82c2bcfb6bb8e18a6c6553846001600301805490506040518083600019166000191681526020018281526020019250505060405180910390a18292505050919050565b3360008060009054906101000a900473ffffffffffffffffffffffffffffffffffffffff1673ffffffffffffffffffffffffffffffffffffffff168273ffffffffffffffffffffffffffffffffffffffff161490507f7fca019a0a52664785803f352d793a992f66c4affa261b3daf127976e7ad67998282604051808373ffffffffffffffffffffffffffffffffffffffff1673ffffffffffffffffffffffffffffffffffffffff168152602001821515151581526020019250505060405180910390a180151561188c57600080fd5b6001600560008573ffffffffffffffffffffffffffffffffffffffff1673ffffffffffffffffffffffffffffffffffffffff16815260200190815260200160002060006101000a81548160ff021916908315150217905550505050565b60006118f36120fc565b6118fb6120fc565b6119036120fc565b61190b6120fc565b6000806000806119196120aa565b600060016003018054905011151561193057600080fd5b600160000160008c6000191660001916815260200190815260200160002060a060405190810160405290816000820160a060405190810160405290816000820160009054906101000a900473ffffffffffffffffffffffffffffffffffffffff1673ffffffffffffffffffffffffffffffffffffffff1673ffffffffffffffffffffffffffffffffffffffff168152602001600182018054600181600116156101000203166002900480601f016020809104026020016040519081016040528092919081815260200182805460018160011615610100020316600290048015611a5a5780601f10611a2f57610100808354040283529160200191611a5a565b820191906000526020600020905b815481529060010190602001808311611a3d57829003601f168201915b50505050508152602001600282018054600181600116156101000203166002900480601f016020809104026020016040519081016040528092919081815260200182805460018160011615610100020316600290048015611afc5780601f10611ad157610100808354040283529160200191611afc565b820191906000526020600020905b815481529060010190602001808311611adf57829003601f168201915b50505050508152602001600382018054600181600116156101000203166002900480601f016020809104026020016040519081016040528092919081815260200182805460018160011615610100020316600290048015611b9e5780601f10611b7357610100808354040283529160200191611b9e565b820191906000526020600020905b815481529060010190602001808311611b8157829003601f168201915b50505050508152602001600482018054600181600116156101000203166002900480601f016020809104026020016040519081016040528092919081815260200182805460018160011615610100020316600290048015611c405780601f10611c1557610100808354040283529160200191611c40565b820191906000526020600020905b815481529060010190602001808311611c2357829003601f168201915b5050505050815250508152602001600582015481526020016006820160009054906101000a900473ffffffffffffffffffffffffffffffffffffffff1673ffffffffffffffffffffffffffffffffffffffff1673ffffffffffffffffffffffffffffffffffffffff1681526020016007820154600019166000191681526020016008820160009054906101000a900460ff16151515158152505090508060000151600001518160000151602001518260000151604001518360000151606001518460000151608001518560200151866040015187606001518860800151879750869650859550849450995099509950995099509950995099509950509193959799909294969850565b60008060006001600001600085600019166000191681526020019081526020016000206000808201600080820160006101000a81549073ffffffffffffffffffffffffffffffffffffffff0219169055600182016000611da99190612110565b600282016000611db99190612110565b600382016000611dc99190612110565b600482016000611dd99190612110565b505060058201600090556006820160006101000a81549073ffffffffffffffffffffffffffffffffffffffff021916905560078201600090556008820160006101000a81549060ff02191690555050600180016000856000191660001916815260200190815260200160002054915060016003016001806003018054905003815481101515611e6457fe5b90600052602060002090015490508160018001600083600019166000191681526020019081526020016000208190555080600160030183815481101515611ea757fe5b906000526020600020900181600019169055506001600301805480919060019003611ed29190612158565b506001800160008560001916600019168152602001908152602001600020600090556001600001600085600019166000191681526020019081526020016000206000808201600080820160006101000a81549073ffffffffffffffffffffffffffffffffffffffff0219169055600182016000611f4f9190612110565b600282016000611f5f9190612110565b600382016000611f6f9190612110565b600482016000611f7f9190612110565b505060058201600090556006820160006101000a81549073ffffffffffffffffffffffffffffffffffffffff021916905560078201600090556008820160006101000a81549060ff02191690555050600192505050919050565b6000809054906101000a900473ffffffffffffffffffffffffffffffffffffffff1681565b828054600181600116156101000203166002900490600052602060002090601f016020900481019282601f1061203f57805160ff191683800117855561206d565b8280016001018555821561206d579182015b8281111561206c578251825591602001919060010190612051565b5b50905061207a9190612184565b5090565b8154818355818115116120a5578183600052602060002091820191016120a491906121a9565b5b505050565b610120604051908101604052806120bf6121ce565b815260200160008152602001600073ffffffffffffffffffffffffffffffffffffffff168152602001600080191681526020016000151581525090565b602060405190810160405280600081525090565b50805460018160011615610100020316600290046000825580601f106121365750612155565b601f0160209004906000526020600020908101906121549190612184565b5b50565b81548183558181151161217f5781836000526020600020918201910161217e91906121a9565b5b505050565b6121a691905b808211156121a257600081600090555060010161218a565b5090565b90565b6121cb91905b808211156121c75760008160009055506001016121af565b5090565b90565b60a060405190810160405280600073ffffffffffffffffffffffffffffffffffffffff1681526020016121ff61222c565b815260200161220c61222c565b815260200161221961222c565b815260200161222661222c565b81525090565b6020604051908101604052806000815250905600a165627a7a7230582031c9c1b196d69b76cc8b04755ef5bff4b80e9c32ebf1c42fe562a79943b129ec0029",
  "source": "pragma solidity ^0.4.17;\n\nimport \"BadgeLibrary/contracts/BadgeLibrary.sol\";\n\ncontract Holder {\n    \n    /// @notice address where holder holds there badgeforce tokens\n    address public holder;\n\n    /// @notice mapping of name hash to credential\n    /// @notice array of hash names\n    struct CredentialVault {\n        mapping (bytes32=>BadgeLibrary.Credential) credentials;\n        mapping (bytes32=>uint) indexMap;\n        uint numOfPendingCreds;\n        bytes32[] keys;\n    }\n\n    /// @notice vault holding credentials\n    CredentialVault credentialVault;\n\n    /// @notice mapping of trusted issuers \n    mapping (address=>bool) public trustedIssuers;\n\n    function Holder(address _holder) {\n        holder = _holder;\n    }\n\n    event AuthorizeAttempt(address _actor, bool authorized);\n    /// @notice make sure caller is the issuer that owns this contract because badgeforce tokens will be used \n    modifier authorized(address _holder) {\n        bool isAuthorized = (_holder == holder);\n        AuthorizeAttempt(_holder, isAuthorized);\n        require(isAuthorized);\n        _;\n    }\n\n    event LogStoreAttempt(address _caller);\n    /// @notice make sure issuer is trusted to store credentials on this contract\n    modifier trusted(address _issuer) {\n        LogStoreAttempt(_issuer);\n        require(trustedIssuers[_issuer]);\n        _;\n    }\n\n    /// @notice add a new trusted issuer \n    function addTrustedIssuer(address _issuer) public authorized(msg.sender) {\n        trustedIssuers[_issuer] = true;\n    }\n\n    /// @notice add a new trusted issuer \n    function removeTrustedIssuer(address _issuer) public authorized(msg.sender) {\n        trustedIssuers[_issuer] = false;\n    }\n\n    event NewPendingCredential(string _name, address _issuer);\n    /**\n     *  @dev put a new credential inside the pending queue\n     */\n    function storeCredential(\n        address _issuer,\n        string _description,\n        string _name,\n        string _image,\n        string _version,\n        uint _expires,\n        address _recipient,\n        bytes32 _txnKey\n    ) public trusted(msg.sender)\n    {\n        credentialVault.credentials[_txnKey] = BadgeLibrary.Credential(\n                BadgeLibrary.Badge(_issuer, _description, _name, _image, _version),\n                _expires,\n                _recipient,\n                _txnKey,\n                false\n        );\n        credentialVault.indexMap[_txnKey] = credentialVault.keys.push(_txnKey)-1;\n        credentialVault.numOfPendingCreds++;\n        NewPendingCredential(_name, _issuer);\n    }\n\n    event NewCredentialAccepted(bytes32 _txnKey);\n    function acceptCredential(bytes32 _txnKey) authorized(msg.sender) public {\n        require(!credentialVault.credentials[_txnKey].active);\n        credentialVault.credentials[_txnKey].active = true;\n        credentialVault.numOfPendingCreds--;\n        NewCredentialAccepted(_txnKey);\n    }\n\n    event CredentialRejected(bytes32 _txnKey);\n    function rejectCredential(bytes32 _txnKey) authorized(msg.sender) public {\n        require(!credentialVault.credentials[_txnKey].active);\n        _deleteCredential(_txnKey);\n        credentialVault.numOfPendingCreds--;\n        CredentialRejected(_txnKey);\n    }\n\n    event CredentialDeleted(bytes32 _txnKey, uint count);\n    /// @notice delete a credential \n    function deleteCredential(bytes32 _txnKey) authorized(msg.sender) public returns(bool success) {\n        success = _deleteCredential(_txnKey);\n        CredentialDeleted(_txnKey, credentialVault.keys.length);\n        return success;\n    }\n\n    function _deleteCredential(bytes32 _txnKey) public returns(bool success) {\n        delete credentialVault.credentials[_txnKey];\n        uint rowToDelete = credentialVault.indexMap[_txnKey]; \n        bytes32 rowToMove = credentialVault.keys[credentialVault.keys.length-1];\n        credentialVault.indexMap[rowToMove] = rowToDelete; \n        credentialVault.keys[rowToDelete] = rowToMove; \n        credentialVault.keys.length--;\n        delete credentialVault.indexMap[_txnKey];\n        delete credentialVault.credentials[_txnKey];\n        return true;\n    }\n\n    /// @notice get a holders credential \n    /// @param _name index of credential to return \n    function getCredential(bytes32 _txnKey) constant public  returns (\n        address _issuer,\n        string _description,\n        string _name,\n        string _image,\n        string _version,\n        uint _expires,\n        address _recipient,\n        bytes32 txnKey,\n        bool _active\n    ) {\n        require(credentialVault.keys.length > 0);\n        BadgeLibrary.Credential memory cred = credentialVault.credentials[_txnKey];\n        return (\n            cred.badge.issuer,\n            cred.badge.description,\n            cred.badge.name,\n            cred.badge.image,\n            cred.badge.version,\n            cred.expires,\n            cred.recipient,\n            cred.txnKey,\n            cred.active\n        );\n    }\n\n    /// @notice helper function for UI to retrieve all names then retrieve the credentials\n    /// @param _index index of the name you want\n    function getTxnKey(uint _index) constant public returns(bytes32 name) {\n        return credentialVault.keys[_index];\n    }\n\n    /// @dev get number of credentials \n    function getNumberOfCredentials() constant public returns(uint count) {\n        return credentialVault.keys.length;\n    }\n\n    /// @dev get number of pending credentials \n    function getNumberOfPendingCredentials() constant public returns(uint count) {\n        return credentialVault.numOfPendingCreds;\n    }\n\n    function recomputePOIHash(bytes32 _txnKey) constant public returns(bytes32 poiHash) {\n        BadgeLibrary.Credential memory credential = credentialVault.credentials[_txnKey];\n        return BadgeLibrary.getIntegrityHash(\n            credential.badge.issuer, \n            credential.badge.description, \n            credential.badge.name, \n            credential.badge.image, \n            credential.badge.version, \n            credential.recipient\n        );\n    }\n}",
  "sourcePath": "/Users/khalil.claybon/Desktop/migrate-to-new-cpu/some_work/badgeforce_dev/badgeforce/contracts/Holder.sol",
  "compiler": {
    "name": "solc",
    "version": "0.4.18+commit.9cf6e910.Emscripten.clang"
  },
  "schemaVersion": "1.0.1",
  "updatedAt": "2018-01-05T08:36:01.445Z"
}