{
  "contractName": "Holder",
  "abi": [
    {
      "constant": true,
      "inputs": [],
      "name": "getNumberOfCredentials",
      "outputs": [
        {
          "name": "count",
          "type": "uint256"
        }
      ],
      "payable": false,
      "stateMutability": "view",
      "type": "function"
    },
    {
      "constant": false,
      "inputs": [
        {
          "name": "_txnKey",
          "type": "bytes32"
        }
      ],
      "name": "acceptCredential",
      "outputs": [],
      "payable": false,
      "stateMutability": "nonpayable",
      "type": "function"
    },
    {
      "constant": true,
      "inputs": [
        {
          "name": "issuer",
          "type": "address"
        },
        {
          "name": "description",
          "type": "string"
        },
        {
          "name": "name",
          "type": "string"
        },
        {
          "name": "image",
          "type": "string"
        },
        {
          "name": "version",
          "type": "string"
        },
        {
          "name": "recipient",
          "type": "address"
        }
      ],
      "name": "getIntegrityHash",
      "outputs": [
        {
          "name": "_hash",
          "type": "bytes32"
        }
      ],
      "payable": false,
      "stateMutability": "pure",
      "type": "function"
    },
    {
      "constant": false,
      "inputs": [
        {
          "name": "_issuer",
          "type": "address"
        },
        {
          "name": "_description",
          "type": "string"
        },
        {
          "name": "_name",
          "type": "string"
        },
        {
          "name": "_image",
          "type": "string"
        },
        {
          "name": "_version",
          "type": "string"
        },
        {
          "name": "_expires",
          "type": "uint256"
        },
        {
          "name": "_recipient",
          "type": "address"
        },
        {
          "name": "_txnKey",
          "type": "bytes32"
        }
      ],
      "name": "storeCredential",
      "outputs": [],
      "payable": false,
      "stateMutability": "nonpayable",
      "type": "function"
    },
    {
      "constant": true,
      "inputs": [],
      "name": "getNumberOfPendingCredentials",
      "outputs": [
        {
          "name": "count",
          "type": "uint256"
        }
      ],
      "payable": false,
      "stateMutability": "view",
      "type": "function"
    },
    {
      "constant": true,
      "inputs": [
        {
          "name": "_txnKey",
          "type": "bytes32"
        }
      ],
      "name": "recomputePOIHash",
      "outputs": [
        {
          "name": "poiHash",
          "type": "bytes32"
        }
      ],
      "payable": false,
      "stateMutability": "view",
      "type": "function"
    },
    {
      "constant": true,
      "inputs": [
        {
          "name": "",
          "type": "address"
        }
      ],
      "name": "trustedIssuers",
      "outputs": [
        {
          "name": "",
          "type": "bool"
        }
      ],
      "payable": false,
      "stateMutability": "view",
      "type": "function"
    },
    {
      "constant": false,
      "inputs": [
        {
          "name": "_txnKey",
          "type": "bytes32"
        }
      ],
      "name": "rejectCredential",
      "outputs": [],
      "payable": false,
      "stateMutability": "nonpayable",
      "type": "function"
    },
    {
      "constant": true,
      "inputs": [
        {
          "name": "_index",
          "type": "uint256"
        }
      ],
      "name": "getTxnKey",
      "outputs": [
        {
          "name": "txnKey",
          "type": "bytes32"
        }
      ],
      "payable": false,
      "stateMutability": "view",
      "type": "function"
    },
    {
      "constant": false,
      "inputs": [
        {
          "name": "_issuer",
          "type": "address"
        }
      ],
      "name": "removeTrustedIssuer",
      "outputs": [],
      "payable": false,
      "stateMutability": "nonpayable",
      "type": "function"
    },
    {
      "constant": false,
      "inputs": [
        {
          "name": "_txnKey",
          "type": "bytes32"
        }
      ],
      "name": "deleteCredential",
      "outputs": [
        {
          "name": "success",
          "type": "bool"
        }
      ],
      "payable": false,
      "stateMutability": "nonpayable",
      "type": "function"
    },
    {
      "constant": false,
      "inputs": [
        {
          "name": "_issuer",
          "type": "address"
        }
      ],
      "name": "addTrustedIssuer",
      "outputs": [],
      "payable": false,
      "stateMutability": "nonpayable",
      "type": "function"
    },
    {
      "constant": true,
      "inputs": [
        {
          "name": "_txnKey",
          "type": "bytes32"
        }
      ],
      "name": "getCredential",
      "outputs": [
        {
          "name": "_issuer",
          "type": "address"
        },
        {
          "name": "_description",
          "type": "string"
        },
        {
          "name": "_name",
          "type": "string"
        },
        {
          "name": "_image",
          "type": "string"
        },
        {
          "name": "_version",
          "type": "string"
        },
        {
          "name": "_expires",
          "type": "uint256"
        },
        {
          "name": "_recipient",
          "type": "address"
        },
        {
          "name": "txnKey",
          "type": "bytes32"
        },
        {
          "name": "_active",
          "type": "bool"
        }
      ],
      "payable": false,
      "stateMutability": "view",
      "type": "function"
    },
    {
      "constant": false,
      "inputs": [
        {
          "name": "_txnKey",
          "type": "bytes32"
        }
      ],
      "name": "_deleteCredential",
      "outputs": [
        {
          "name": "success",
          "type": "bool"
        }
      ],
      "payable": false,
      "stateMutability": "nonpayable",
      "type": "function"
    },
    {
      "constant": true,
      "inputs": [],
      "name": "holder",
      "outputs": [
        {
          "name": "",
          "type": "address"
        }
      ],
      "payable": false,
      "stateMutability": "view",
      "type": "function"
    },
    {
      "inputs": [
        {
          "name": "_holder",
          "type": "address"
        }
      ],
      "payable": false,
      "stateMutability": "nonpayable",
      "type": "constructor"
    },
    {
      "anonymous": false,
      "inputs": [
        {
          "indexed": false,
          "name": "_actor",
          "type": "address"
        },
        {
          "indexed": false,
          "name": "authorized",
          "type": "bool"
        }
      ],
      "name": "AuthorizeAttempt",
      "type": "event"
    },
    {
      "anonymous": false,
      "inputs": [
        {
          "indexed": false,
          "name": "_caller",
          "type": "address"
        }
      ],
      "name": "LogStoreAttempt",
      "type": "event"
    },
    {
      "anonymous": false,
      "inputs": [
        {
          "indexed": false,
          "name": "_name",
          "type": "string"
        },
        {
          "indexed": false,
          "name": "_issuer",
          "type": "address"
        }
      ],
      "name": "NewPendingCredential",
      "type": "event"
    },
    {
      "anonymous": false,
      "inputs": [
        {
          "indexed": false,
          "name": "_txnKey",
          "type": "bytes32"
        }
      ],
      "name": "NewCredentialAccepted",
      "type": "event"
    },
    {
      "anonymous": false,
      "inputs": [
        {
          "indexed": false,
          "name": "_txnKey",
          "type": "bytes32"
        }
      ],
      "name": "CredentialRejected",
      "type": "event"
    },
    {
      "anonymous": false,
      "inputs": [
        {
          "indexed": false,
          "name": "_txnKey",
          "type": "bytes32"
        },
        {
          "indexed": false,
          "name": "count",
          "type": "uint256"
        }
      ],
      "name": "CredentialDeleted",
      "type": "event"
    }
  ],
  "bytecode": "0x6060604052341561000f57600080fd5b6040516020806123d483398101604052808051906020019091905050806000806101000a81548173ffffffffffffffffffffffffffffffffffffffff021916908373ffffffffffffffffffffffffffffffffffffffff160217905550506123598061007b6000396000f3006060604052600436106100db576000357c0100000000000000000000000000000000000000000000000000000000900463ffffffff168063064c4d6c146100e057806317a43191146101095780631ddb6af6146101305780634e3943e7146102b0578063567f77931461042a5780636bcdaa331461045357806392c54daf14610496578063a8d97e5c146104e7578063b193772a1461050e578063b93d28eb1461054d578063bfd9008b14610586578063c4566bdd146105c5578063d1be4883146105fe578063e2b27eb014610869578063e534155d146108a8575b600080fd5b34156100eb57600080fd5b6100f36108fd565b6040518082815260200191505060405180910390f35b341561011457600080fd5b61012e60048080356000191690602001909190505061090d565b005b341561013b57600080fd5b610292600480803573ffffffffffffffffffffffffffffffffffffffff1690602001909190803590602001908201803590602001908080601f0160208091040260200160405190810160405280939291908181526020018383808284378201915050505050509190803590602001908201803590602001908080601f0160208091040260200160405190810160405280939291908181526020018383808284378201915050505050509190803590602001908201803590602001908080601f0160208091040260200160405190810160405280939291908181526020018383808284378201915050505050509190803590602001908201803590602001908080601f0160208091040260200160405190810160405280939291908181526020018383808284378201915050505050509190803573ffffffffffffffffffffffffffffffffffffffff16906020019091905050610aab565b60405180826000191660001916815260200191505060405180910390f35b34156102bb57600080fd5b610428600480803573ffffffffffffffffffffffffffffffffffffffff1690602001909190803590602001908201803590602001908080601f0160208091040260200160405190810160405280939291908181526020018383808284378201915050505050509190803590602001908201803590602001908080601f0160208091040260200160405190810160405280939291908181526020018383808284378201915050505050509190803590602001908201803590602001908080601f0160208091040260200160405190810160405280939291908181526020018383808284378201915050505050509190803590602001908201803590602001908080601f0160208091040260200160405190810160405280939291908181526020018383808284378201915050505050509190803590602001909190803573ffffffffffffffffffffffffffffffffffffffff1690602001909190803560001916906020019091905050610ca1565b005b341561043557600080fd5b61043d61108b565b6040518082815260200191505060405180910390f35b341561045e57600080fd5b610478600480803560001916906020019091905050611098565b60405180826000191660001916815260200191505060405180910390f35b34156104a157600080fd5b6104cd600480803573ffffffffffffffffffffffffffffffffffffffff16906020019091905050611490565b604051808215151515815260200191505060405180910390f35b34156104f257600080fd5b61050c6004808035600019169060200190919050506114b0565b005b341561051957600080fd5b61052f600480803590602001909190505061161f565b60405180826000191660001916815260200191505060405180910390f35b341561055857600080fd5b610584600480803573ffffffffffffffffffffffffffffffffffffffff16906020019091905050611646565b005b341561059157600080fd5b6105ab600480803560001916906020019091905050611773565b604051808215151515815260200191505060405180910390f35b34156105d057600080fd5b6105fc600480803573ffffffffffffffffffffffffffffffffffffffff169060200190919050506118a9565b005b341561060957600080fd5b6106236004808035600019169060200190919050506119d6565b604051808a73ffffffffffffffffffffffffffffffffffffffff1673ffffffffffffffffffffffffffffffffffffffff168152602001806020018060200180602001806020018981526020018873ffffffffffffffffffffffffffffffffffffffff1673ffffffffffffffffffffffffffffffffffffffff16815260200187600019166000191681526020018615151515815260200185810385528d818151815260200191508051906020019080838360005b838110156106f15780820151818401526020810190506106d6565b50505050905090810190601f16801561071e5780820380516001836020036101000a031916815260200191505b5085810384528c818151815260200191508051906020019080838360005b8381101561075757808201518184015260208101905061073c565b50505050905090810190601f1680156107845780820380516001836020036101000a031916815260200191505b5085810383528b818151815260200191508051906020019080838360005b838110156107bd5780820151818401526020810190506107a2565b50505050905090810190601f1680156107ea5780820380516001836020036101000a031916815260200191505b5085810382528a818151815260200191508051906020019080838360005b83811015610823578082015181840152602081019050610808565b50505050905090810190601f1680156108505780820380516001836020036101000a031916815260200191505b509d505050505050505050505050505060405180910390f35b341561087457600080fd5b61088e600480803560001916906020019091905050611e36565b604051808215151515815260200191505060405180910390f35b34156108b357600080fd5b6108bb6120c6565b604051808273ffffffffffffffffffffffffffffffffffffffff1673ffffffffffffffffffffffffffffffffffffffff16815260200191505060405180910390f35b6000600160030180549050905090565b3360008060009054906101000a900473ffffffffffffffffffffffffffffffffffffffff1673ffffffffffffffffffffffffffffffffffffffff168273ffffffffffffffffffffffffffffffffffffffff161490507f7fca019a0a52664785803f352d793a992f66c4affa261b3daf127976e7ad67998282604051808373ffffffffffffffffffffffffffffffffffffffff1673ffffffffffffffffffffffffffffffffffffffff168152602001821515151581526020019250505060405180910390a18015156109dd57600080fd5b60016000016000846000191660001916815260200190815260200160002060080160009054906101000a900460ff16151515610a1857600080fd5b6001806000016000856000191660001916815260200190815260200160002060080160006101000a81548160ff021916908315150217905550600160020160008154809291906001900391905055507f978dbd4a5c69398988d130f73b479d634067339a3258c23bf271f12999b1c1138360405180826000191660001916815260200191505060405180910390a1505050565b6000868686868686604051808773ffffffffffffffffffffffffffffffffffffffff1673ffffffffffffffffffffffffffffffffffffffff166c0100000000000000000000000002815260140186805190602001908083835b602083101515610b295780518252602082019150602081019050602083039250610b04565b6001836020036101000a03801982511681845116808217855250505050505090500185805190602001908083835b602083101515610b7c5780518252602082019150602081019050602083039250610b57565b6001836020036101000a03801982511681845116808217855250505050505090500184805190602001908083835b602083101515610bcf5780518252602082019150602081019050602083039250610baa565b6001836020036101000a03801982511681845116808217855250505050505090500183805190602001908083835b602083101515610c225780518252602082019150602081019050602083039250610bfd565b6001836020036101000a0380198251168184511680821785525050505050509050018273ffffffffffffffffffffffffffffffffffffffff1673ffffffffffffffffffffffffffffffffffffffff166c010000000000000000000000000281526014019650505050505050604051809103902090509695505050505050565b337f2bf8ea5a40db67784aa965ddf3e37384c79dbaf6178e1c7b8e3be19f22f84b9c81604051808273ffffffffffffffffffffffffffffffffffffffff1673ffffffffffffffffffffffffffffffffffffffff16815260200191505060405180910390a1600560008273ffffffffffffffffffffffffffffffffffffffff1673ffffffffffffffffffffffffffffffffffffffff16815260200190815260200160002060009054906101000a900460ff161515610d5d57600080fd5b60a06040519081016040528060a0604051908101604052808c73ffffffffffffffffffffffffffffffffffffffff1681526020018b81526020018a81526020018981526020018881525081526020018581526020018473ffffffffffffffffffffffffffffffffffffffff168152602001836000191681526020016000151581525060016000016000846000191660001916815260200190815260200160002060008201518160000160008201518160000160006101000a81548173ffffffffffffffffffffffffffffffffffffffff021916908373ffffffffffffffffffffffffffffffffffffffff1602179055506020820151816001019080519060200190610e699291906120eb565b506040820151816002019080519060200190610e869291906120eb565b506060820151816003019080519060200190610ea39291906120eb565b506080820151816004019080519060200190610ec09291906120eb565b5050506020820151816005015560408201518160060160006101000a81548173ffffffffffffffffffffffffffffffffffffffff021916908373ffffffffffffffffffffffffffffffffffffffff1602179055506060820151816007019060001916905560808201518160080160006101000a81548160ff0219169083151502179055509050506001806003018054806001018281610f5f919061216b565b9160005260206000209001600085909190915090600019169055036001800160008460001916600019168152602001908152602001600020819055506001600201600081548092919060010191905055507fed60274040809c2e0c3199910a8fc3317c525cf63a383939cd93936d01192a0a878a60405180806020018373ffffffffffffffffffffffffffffffffffffffff1673ffffffffffffffffffffffffffffffffffffffff168152602001828103825284818151815260200191508051906020019080838360005b8381101561104557808201518184015260208101905061102a565b50505050905090810190601f1680156110725780820380516001836020036101000a031916815260200191505b50935050505060405180910390a1505050505050505050565b6000600160020154905090565b60006110a2612197565b60016000016000846000191660001916815260200190815260200160002060a060405190810160405290816000820160a060405190810160405290816000820160009054906101000a900473ffffffffffffffffffffffffffffffffffffffff1673ffffffffffffffffffffffffffffffffffffffff1673ffffffffffffffffffffffffffffffffffffffff168152602001600182018054600181600116156101000203166002900480601f0160208091040260200160405190810160405280929190818152602001828054600181600116156101000203166002900480156111cc5780601f106111a1576101008083540402835291602001916111cc565b820191906000526020600020905b8154815290600101906020018083116111af57829003601f168201915b50505050508152602001600282018054600181600116156101000203166002900480601f01602080910402602001604051908101604052809291908181526020018280546001816001161561010002031660029004801561126e5780601f106112435761010080835404028352916020019161126e565b820191906000526020600020905b81548152906001019060200180831161125157829003601f168201915b50505050508152602001600382018054600181600116156101000203166002900480601f0160208091040260200160405190810160405280929190818152602001828054600181600116156101000203166002900480156113105780601f106112e557610100808354040283529160200191611310565b820191906000526020600020905b8154815290600101906020018083116112f357829003601f168201915b50505050508152602001600482018054600181600116156101000203166002900480601f0160208091040260200160405190810160405280929190818152602001828054600181600116156101000203166002900480156113b25780601f10611387576101008083540402835291602001916113b2565b820191906000526020600020905b81548152906001019060200180831161139557829003601f168201915b5050505050815250508152602001600582015481526020016006820160009054906101000a900473ffffffffffffffffffffffffffffffffffffffff1673ffffffffffffffffffffffffffffffffffffffff1673ffffffffffffffffffffffffffffffffffffffff1681526020016007820154600019166000191681526020016008820160009054906101000a900460ff16151515158152505090506114888160000151600001518260000151602001518360000151604001518460000151606001518560000151608001518660400151610aab565b915050919050565b60056020528060005260406000206000915054906101000a900460ff1681565b3360008060009054906101000a900473ffffffffffffffffffffffffffffffffffffffff1673ffffffffffffffffffffffffffffffffffffffff168273ffffffffffffffffffffffffffffffffffffffff161490507f7fca019a0a52664785803f352d793a992f66c4affa261b3daf127976e7ad67998282604051808373ffffffffffffffffffffffffffffffffffffffff1673ffffffffffffffffffffffffffffffffffffffff168152602001821515151581526020019250505060405180910390a180151561158057600080fd5b60016000016000846000191660001916815260200190815260200160002060080160009054906101000a900460ff161515156115bb57600080fd5b6115c483611e36565b50600160020160008154809291906001900391905055507f3d6d2e20f8295ac74aaf9f1baed466127668c2875ea803edb9fdef728c58116f8360405180826000191660001916815260200191505060405180910390a1505050565b600060016003018281548110151561163357fe5b9060005260206000209001549050919050565b3360008060009054906101000a900473ffffffffffffffffffffffffffffffffffffffff1673ffffffffffffffffffffffffffffffffffffffff168273ffffffffffffffffffffffffffffffffffffffff161490507f7fca019a0a52664785803f352d793a992f66c4affa261b3daf127976e7ad67998282604051808373ffffffffffffffffffffffffffffffffffffffff1673ffffffffffffffffffffffffffffffffffffffff168152602001821515151581526020019250505060405180910390a180151561171657600080fd5b6000600560008573ffffffffffffffffffffffffffffffffffffffff1673ffffffffffffffffffffffffffffffffffffffff16815260200190815260200160002060006101000a81548160ff021916908315150217905550505050565b60003360008060009054906101000a900473ffffffffffffffffffffffffffffffffffffffff1673ffffffffffffffffffffffffffffffffffffffff168273ffffffffffffffffffffffffffffffffffffffff161490507f7fca019a0a52664785803f352d793a992f66c4affa261b3daf127976e7ad67998282604051808373ffffffffffffffffffffffffffffffffffffffff1673ffffffffffffffffffffffffffffffffffffffff168152602001821515151581526020019250505060405180910390a180151561184557600080fd5b61184e84611e36565b92507f53c822192afd4ec78307b42da85bc3b1afa0e4536e82c2bcfb6bb8e18a6c6553846001600301805490506040518083600019166000191681526020018281526020019250505060405180910390a18292505050919050565b3360008060009054906101000a900473ffffffffffffffffffffffffffffffffffffffff1673ffffffffffffffffffffffffffffffffffffffff168273ffffffffffffffffffffffffffffffffffffffff161490507f7fca019a0a52664785803f352d793a992f66c4affa261b3daf127976e7ad67998282604051808373ffffffffffffffffffffffffffffffffffffffff1673ffffffffffffffffffffffffffffffffffffffff168152602001821515151581526020019250505060405180910390a180151561197957600080fd5b6001600560008573ffffffffffffffffffffffffffffffffffffffff1673ffffffffffffffffffffffffffffffffffffffff16815260200190815260200160002060006101000a81548160ff021916908315150217905550505050565b60006119e06121e9565b6119e86121e9565b6119f06121e9565b6119f86121e9565b600080600080611a06612197565b6000600160030180549050111515611a1d57600080fd5b600160000160008c6000191660001916815260200190815260200160002060a060405190810160405290816000820160a060405190810160405290816000820160009054906101000a900473ffffffffffffffffffffffffffffffffffffffff1673ffffffffffffffffffffffffffffffffffffffff1673ffffffffffffffffffffffffffffffffffffffff168152602001600182018054600181600116156101000203166002900480601f016020809104026020016040519081016040528092919081815260200182805460018160011615610100020316600290048015611b475780601f10611b1c57610100808354040283529160200191611b47565b820191906000526020600020905b815481529060010190602001808311611b2a57829003601f168201915b50505050508152602001600282018054600181600116156101000203166002900480601f016020809104026020016040519081016040528092919081815260200182805460018160011615610100020316600290048015611be95780601f10611bbe57610100808354040283529160200191611be9565b820191906000526020600020905b815481529060010190602001808311611bcc57829003601f168201915b50505050508152602001600382018054600181600116156101000203166002900480601f016020809104026020016040519081016040528092919081815260200182805460018160011615610100020316600290048015611c8b5780601f10611c6057610100808354040283529160200191611c8b565b820191906000526020600020905b815481529060010190602001808311611c6e57829003601f168201915b50505050508152602001600482018054600181600116156101000203166002900480601f016020809104026020016040519081016040528092919081815260200182805460018160011615610100020316600290048015611d2d5780601f10611d0257610100808354040283529160200191611d2d565b820191906000526020600020905b815481529060010190602001808311611d1057829003601f168201915b5050505050815250508152602001600582015481526020016006820160009054906101000a900473ffffffffffffffffffffffffffffffffffffffff1673ffffffffffffffffffffffffffffffffffffffff1673ffffffffffffffffffffffffffffffffffffffff1681526020016007820154600019166000191681526020016008820160009054906101000a900460ff16151515158152505090508060000151600001518160000151602001518260000151604001518360000151606001518460000151608001518560200151866040015187606001518860800151879750869650859550849450995099509950995099509950995099509950509193959799909294969850565b60008060006001600001600085600019166000191681526020019081526020016000206000808201600080820160006101000a81549073ffffffffffffffffffffffffffffffffffffffff0219169055600182016000611e9691906121fd565b600282016000611ea691906121fd565b600382016000611eb691906121fd565b600482016000611ec691906121fd565b505060058201600090556006820160006101000a81549073ffffffffffffffffffffffffffffffffffffffff021916905560078201600090556008820160006101000a81549060ff02191690555050600180016000856000191660001916815260200190815260200160002054915060016003016001806003018054905003815481101515611f5157fe5b90600052602060002090015490508160018001600083600019166000191681526020019081526020016000208190555080600160030183815481101515611f9457fe5b906000526020600020900181600019169055506001600301805480919060019003611fbf9190612245565b506001800160008560001916600019168152602001908152602001600020600090556001600001600085600019166000191681526020019081526020016000206000808201600080820160006101000a81549073ffffffffffffffffffffffffffffffffffffffff021916905560018201600061203c91906121fd565b60028201600061204c91906121fd565b60038201600061205c91906121fd565b60048201600061206c91906121fd565b505060058201600090556006820160006101000a81549073ffffffffffffffffffffffffffffffffffffffff021916905560078201600090556008820160006101000a81549060ff02191690555050600192505050919050565b6000809054906101000a900473ffffffffffffffffffffffffffffffffffffffff1681565b828054600181600116156101000203166002900490600052602060002090601f016020900481019282601f1061212c57805160ff191683800117855561215a565b8280016001018555821561215a579182015b8281111561215957825182559160200191906001019061213e565b5b5090506121679190612271565b5090565b815481835581811511612192578183600052602060002091820191016121919190612296565b5b505050565b610120604051908101604052806121ac6122bb565b815260200160008152602001600073ffffffffffffffffffffffffffffffffffffffff168152602001600080191681526020016000151581525090565b602060405190810160405280600081525090565b50805460018160011615610100020316600290046000825580601f106122235750612242565b601f0160209004906000526020600020908101906122419190612271565b5b50565b81548183558181151161226c5781836000526020600020918201910161226b9190612296565b5b505050565b61229391905b8082111561228f576000816000905550600101612277565b5090565b90565b6122b891905b808211156122b457600081600090555060010161229c565b5090565b90565b60a060405190810160405280600073ffffffffffffffffffffffffffffffffffffffff1681526020016122ec612319565b81526020016122f9612319565b8152602001612306612319565b8152602001612313612319565b81525090565b6020604051908101604052806000815250905600a165627a7a7230582040dff90256b7e313661c8168db41c895ced7375736f6ede852c134a2881c6a020029",
  "source": "pragma solidity ^0.4.17;\n\nimport \"BadgeLibrary/contracts/BadgeLibrary.sol\";\n\nimport \"./BFUtils.sol\";\n\ncontract Holder is BFUtils {\n\n    /// @notice address where holder holds there badgeforce tokens\n    address public holder;\n\n    /// @notice mapping of name hash to credential\n    /// @notice array of hash names\n    struct CredentialVault {\n        mapping (bytes32=>BadgeLibrary.Credential) credentials;\n        mapping (bytes32=>uint) indexMap;\n        uint numOfPendingCreds;\n        bytes32[] keys;\n    }\n\n    /// @notice vault holding credentials\n    CredentialVault credentialVault;\n\n    /// @notice mapping of trusted issuers\n    mapping (address=>bool) public trustedIssuers;\n\n    function Holder(address _holder) public {\n        holder = _holder;\n    }\n\n    event AuthorizeAttempt(address _actor, bool authorized);\n    /// @notice make sure caller is the issuer that owns this contract because badgeforce tokens will be used\n    modifier authorized(address _holder) {\n        bool isAuthorized = (_holder == holder);\n        AuthorizeAttempt(_holder, isAuthorized);\n        require(isAuthorized);\n        _;\n    }\n\n    event LogStoreAttempt(address _caller);\n    /// @notice make sure issuer is trusted to store credentials on this contract\n    modifier trusted(address _issuer) {\n        LogStoreAttempt(_issuer);\n        require(trustedIssuers[_issuer]);\n        _;\n    }\n\n    /// @notice add a new trusted issuer\n    function addTrustedIssuer(address _issuer) public authorized(msg.sender) {\n        trustedIssuers[_issuer] = true;\n    }\n\n    /// @notice add a new trusted issuer\n    function removeTrustedIssuer(address _issuer) public authorized(msg.sender) {\n        trustedIssuers[_issuer] = false;\n    }\n\n    event NewPendingCredential(string _name, address _issuer);\n    /**\n     *  @dev put a new credential inside the pending queue\n     */\n    function storeCredential(\n        address _issuer,\n        string _description,\n        string _name,\n        string _image,\n        string _version,\n        uint _expires,\n        address _recipient,\n        bytes32 _txnKey\n    ) public trusted(msg.sender)\n    {\n        credentialVault.credentials[_txnKey] = BadgeLibrary.Credential(\n                BadgeLibrary.Badge(_issuer, _description, _name, _image, _version),\n                _expires,\n                _recipient,\n                _txnKey,\n                false\n        );\n        credentialVault.indexMap[_txnKey] = credentialVault.keys.push(_txnKey)-1;\n        credentialVault.numOfPendingCreds++;\n        NewPendingCredential(_name, _issuer);\n    }\n\n    event NewCredentialAccepted(bytes32 _txnKey);\n    function acceptCredential(bytes32 _txnKey) authorized(msg.sender) public {\n        require(!credentialVault.credentials[_txnKey].active);\n        credentialVault.credentials[_txnKey].active = true;\n        credentialVault.numOfPendingCreds--;\n        NewCredentialAccepted(_txnKey);\n    }\n\n    event CredentialRejected(bytes32 _txnKey);\n    function rejectCredential(bytes32 _txnKey) authorized(msg.sender) public {\n        require(!credentialVault.credentials[_txnKey].active);\n        _deleteCredential(_txnKey);\n        credentialVault.numOfPendingCreds--;\n        CredentialRejected(_txnKey);\n    }\n\n    event CredentialDeleted(bytes32 _txnKey, uint count);\n    /// @notice delete a credential\n    function deleteCredential(bytes32 _txnKey) authorized(msg.sender) public returns(bool success) {\n        success = _deleteCredential(_txnKey);\n        CredentialDeleted(_txnKey, credentialVault.keys.length);\n        return success;\n    }\n\n    function _deleteCredential(bytes32 _txnKey) public returns(bool success) {\n        delete credentialVault.credentials[_txnKey];\n        uint rowToDelete = credentialVault.indexMap[_txnKey];\n        bytes32 rowToMove = credentialVault.keys[credentialVault.keys.length-1];\n        credentialVault.indexMap[rowToMove] = rowToDelete;\n        credentialVault.keys[rowToDelete] = rowToMove;\n        credentialVault.keys.length--;\n        delete credentialVault.indexMap[_txnKey];\n        delete credentialVault.credentials[_txnKey];\n        return true;\n    }\n\n    /// @notice get a holders credential\n    /// @param _name index of credential to return\n    function getCredential(bytes32 _txnKey) constant public  returns (\n        address _issuer,\n        string _description,\n        string _name,\n        string _image,\n        string _version,\n        uint _expires,\n        address _recipient,\n        bytes32 txnKey,\n        bool _active\n    ) {\n        require(credentialVault.keys.length > 0);\n        BadgeLibrary.Credential memory cred = credentialVault.credentials[_txnKey];\n        return (\n            cred.badge.issuer,\n            cred.badge.description,\n            cred.badge.name,\n            cred.badge.image,\n            cred.badge.version,\n            cred.expires,\n            cred.recipient,\n            cred.txnKey,\n            cred.active\n        );\n    }\n\n    /// @notice helper function for UI to retrieve all names then retrieve the credentials\n    /// @param _index index of the name you want\n    function getTxnKey(uint _index) constant public returns(bytes32 txnKey) {\n        return credentialVault.keys[_index];\n    }\n\n    /// @dev get number of credentials\n    function getNumberOfCredentials() constant public returns(uint count) {\n        return credentialVault.keys.length;\n    }\n\n    /// @dev get number of pending credentials\n    function getNumberOfPendingCredentials() constant public returns(uint count) {\n        return credentialVault.numOfPendingCreds;\n    }\n\n    function recomputePOIHash(bytes32 _txnKey) constant public returns(bytes32 poiHash) {\n        BadgeLibrary.Credential memory credential = credentialVault.credentials[_txnKey];\n        return getIntegrityHash(\n            credential.badge.issuer,\n            credential.badge.description,\n            credential.badge.name,\n            credential.badge.image,\n            credential.badge.version,\n            credential.recipient\n        );\n    }\n}\n",
  "sourcePath": "/home/kc1116/Desktop/badgeforce_development/badgeforce/contracts/Holder.sol",
  "compiler": {
    "name": "solc",
    "version": "0.4.18+commit.9cf6e910.Emscripten.clang"
  },
  "schemaVersion": "1.0.1",
  "updatedAt": "2018-01-14T11:06:54.638Z"
}