{
  "contractName": "Holder",
  "abi": [
    {
      "constant": true,
      "inputs": [],
      "name": "getNumberOfCredentials",
      "outputs": [
        {
          "name": "count",
          "type": "uint256"
        }
      ],
      "payable": false,
      "type": "function",
      "stateMutability": "view"
    },
    {
      "constant": true,
      "inputs": [
        {
          "name": "_hash",
          "type": "bytes32"
        },
        {
          "name": "_sig",
          "type": "bytes"
        }
      ],
      "name": "extractAddress",
      "outputs": [
        {
          "name": "_issuer",
          "type": "address"
        }
      ],
      "payable": false,
      "type": "function",
      "stateMutability": "view"
    },
    {
      "constant": true,
      "inputs": [
        {
          "name": "_index",
          "type": "uint256"
        },
        {
          "name": "_sig",
          "type": "bytes"
        },
        {
          "name": "_hash",
          "type": "bytes32"
        }
      ],
      "name": "getCredential",
      "outputs": [
        {
          "name": "_issuer",
          "type": "address"
        },
        {
          "name": "_description",
          "type": "string"
        },
        {
          "name": "_name",
          "type": "string"
        },
        {
          "name": "_image",
          "type": "string"
        },
        {
          "name": "_version",
          "type": "string"
        },
        {
          "name": "_json",
          "type": "string"
        },
        {
          "name": "_expires",
          "type": "uint256"
        },
        {
          "name": "_recipient",
          "type": "address"
        },
        {
          "name": "_txKey",
          "type": "bytes32"
        }
      ],
      "payable": false,
      "type": "function",
      "stateMutability": "view"
    },
    {
      "constant": true,
      "inputs": [
        {
          "name": "",
          "type": "address"
        },
        {
          "name": "_sig",
          "type": "bytes"
        },
        {
          "name": "_hash",
          "type": "bytes32"
        }
      ],
      "name": "trustedIssuers",
      "outputs": [
        {
          "name": "",
          "type": "bool"
        }
      ],
      "payable": false,
      "type": "function",
      "stateMutability": "view"
    },
    {
      "constant": false,
      "inputs": [
        {
          "name": "_issuer",
          "type": "address"
        }
      ],
      "name": "removeTrustedIssuer",
      "outputs": [
        {
          "name": "_issuer",
          "type": "address"
        },
        {
          "name": "_description",
          "type": "string"
        },
        {
          "name": "_name",
          "type": "string"
        },
        {
          "name": "_image",
          "type": "string"
        },
        {
          "name": "_version",
          "type": "string"
        },
        {
          "name": "_json",
          "type": "string"
        },
        {
          "name": "_expires",
          "type": "uint256"
        },
        {
          "name": "_recipient",
          "type": "address"
        },
        {
          "name": "_txKey",
          "type": "bytes32"
        }
      ],
      "payable": false,
      "type": "function",
      "stateMutability": "nonpayable"
    },
    {
      "constant": false,
      "inputs": [
        {
          "name": "_issuer",
          "type": "address"
        },
        {
          "name": "_description",
          "type": "string"
        },
        {
          "name": "_name",
          "type": "string"
        },
        {
          "name": "_image",
          "type": "string"
        },
        {
          "name": "_version",
          "type": "string"
        },
        {
          "name": "_json",
          "type": "string"
        },
        {
          "name": "_expires",
          "type": "uint256"
        },
        {
          "name": "_recipient",
          "type": "address"
        },
        {
          "name": "_txKey",
          "type": "bytes32"
        }
      ],
      "name": "addTrustedIssuer",
      "outputs": [],
      "payable": false,
      "type": "function",
      "stateMutability": "nonpayable"
    },
    {
      "constant": false,
      "inputs": [
        {
          "name": "_issuer",
          "type": "address"
        },
        {
          "name": "_description",
          "type": "string"
        },
        {
          "name": "_name",
          "type": "string"
        },
        {
          "name": "_image",
          "type": "string"
        },
        {
          "name": "_version",
          "type": "string"
        },
        {
          "name": "_json",
          "type": "string"
        },
        {
          "name": "_expires",
          "type": "uint256"
        },
        {
          "name": "_recipient",
          "type": "address"
        },
        {
          "name": "_txKey",
          "type": "bytes32"
        }
      ],
      "name": "storeCredential",
      "outputs": [
        {
          "name": "",
          "type": "address"
        }
      ],
      "payable": false,
      "type": "function",
      "stateMutability": "nonpayable"
    },
    {
      "constant": true,
      "inputs": [
        {
          "name": "credentialIndex",
          "type": "uint256"
        }
      ],
      "name": "holder",
      "outputs": [
        {
          "name": "",
          "type": "address"
        },
        {
          "name": "message",
          "type": "string"
        }
      ],
      "payable": false,
      "type": "function",
      "stateMutability": "view"
    },
    {
      "inputs": [
        {
          "name": "credentialIndex",
          "type": "uint256"
        }
      ],
      "payable": false,
      "type": "function",
      "constant": true,
      "name": "verifyCredential",
      "outputs": [
        {
          "name": "verified",
          "type": "bool"
        },
        {
          "name": "message",
          "type": "string"
        }
      ],
      "stateMutability": "view"
    },
    {
      "anonymous": false,
      "inputs": [
        {
          "indexed": false,
          "name": "_holder",
          "type": "address"
        },
        {
          "indexed": false,
          "name": "authorized",
          "type": "bool"
        }
      ],
      "name": "AuthorizeAttempt",
      "type": "constructor",
      "payable": false,
      "stateMutability": "nonpayable"
    },
    {
      "anonymous": false,
      "inputs": [
        {
          "indexed": false,
          "name": "_actor",
          "type": "address"
        },
        {
          "indexed": false,
          "name": "authorized",
          "type": "bool"
        }
      ],
      "name": "AuthorizeAttempt",
      "type": "event"
    },
    {
      "anonymous": false,
      "inputs": [
        {
          "indexed": false,
          "name": "_caller",
          "type": "address"
        },
        {
          "indexed": false,
          "name": "name",
          "type": "string"
        }
      ],
      "name": "LogStoreAttempt",
      "type": "event"
    },
    {
      "anonymous": false,
      "inputs": [
        {
          "indexed": false,
          "name": "_issuer",
          "type": "address"
        },
        {
          "indexed": false,
          "name": "name",
          "type": "string"
        }
      ],
      "name": "LogNewCredential",
      "type": "event"
    }
  ],
  "bytecode": "0x6060604052341561000f57600080fd5b6040516020806120d783398101604052808051906020019091905050806000806101000a81548173ffffffffffffffffffffffffffffffffffffffff021916908373ffffffffffffffffffffffffffffffffffffffff1602179055505061205c8061007b6000396000f300606060405260043610610099576000357c0100000000000000000000000000000000000000000000000000000000900463ffffffff168063064c4d6c1461009e57806314a20251146100c75780638dd18d2d1461017157806392c54daf14610439578063b93d28eb1461048a578063c4566bdd146104c3578063d3414575146104fc578063e534155d146106b9578063f2a91b1c1461070e575b600080fd5b34156100a957600080fd5b6100b16107b5565b6040518082815260200191505060405180910390f35b34156100d257600080fd5b61012f60048080356000191690602001909190803590602001908201803590602001908080601f016020809104026020016040519081016040528093929190818152602001838380828437820191505050505050919050506107c2565b604051808273ffffffffffffffffffffffffffffffffffffffff1673ffffffffffffffffffffffffffffffffffffffff16815260200191505060405180910390f35b341561017c57600080fd5b61019260048080359060200190919050506108c3565b604051808a73ffffffffffffffffffffffffffffffffffffffff1673ffffffffffffffffffffffffffffffffffffffff16815260200180602001806020018060200180602001806020018981526020018873ffffffffffffffffffffffffffffffffffffffff1673ffffffffffffffffffffffffffffffffffffffff168152602001876000191660001916815260200186810386528e818151815260200191508051906020019080838360005b8381101561025a57808201518184015260208101905061023f565b50505050905090810190601f1680156102875780820380516001836020036101000a031916815260200191505b5086810385528d818151815260200191508051906020019080838360005b838110156102c05780820151818401526020810190506102a5565b50505050905090810190601f1680156102ed5780820380516001836020036101000a031916815260200191505b5086810384528c818151815260200191508051906020019080838360005b8381101561032657808201518184015260208101905061030b565b50505050905090810190601f1680156103535780820380516001836020036101000a031916815260200191505b5086810383528b818151815260200191508051906020019080838360005b8381101561038c578082015181840152602081019050610371565b50505050905090810190601f1680156103b95780820380516001836020036101000a031916815260200191505b5086810382528a818151815260200191508051906020019080838360005b838110156103f25780820151818401526020810190506103d7565b50505050905090810190601f16801561041f5780820380516001836020036101000a031916815260200191505b509e50505050505050505050505050505060405180910390f35b341561044457600080fd5b610470600480803573ffffffffffffffffffffffffffffffffffffffff16906020019091905050610d96565b604051808215151515815260200191505060405180910390f35b341561049557600080fd5b6104c1600480803573ffffffffffffffffffffffffffffffffffffffff16906020019091905050610db6565b005b34156104ce57600080fd5b6104fa600480803573ffffffffffffffffffffffffffffffffffffffff16906020019091905050610ee3565b005b341561050757600080fd5b6106b7600480803573ffffffffffffffffffffffffffffffffffffffff1690602001909190803590602001908201803590602001908080601f0160208091040260200160405190810160405280939291908181526020018383808284378201915050505050509190803590602001908201803590602001908080601f0160208091040260200160405190810160405280939291908181526020018383808284378201915050505050509190803590602001908201803590602001908080601f0160208091040260200160405190810160405280939291908181526020018383808284378201915050505050509190803590602001908201803590602001908080601f0160208091040260200160405190810160405280939291908181526020018383808284378201915050505050509190803590602001908201803590602001908080601f0160208091040260200160405190810160405280939291908181526020018383808284378201915050505050509190803590602001909190803573ffffffffffffffffffffffffffffffffffffffff1690602001909190803560001916906020019091905050611010565b005b34156106c457600080fd5b6106cc61137f565b604051808273ffffffffffffffffffffffffffffffffffffffff1673ffffffffffffffffffffffffffffffffffffffff16815260200191505060405180910390f35b341561071957600080fd5b61072f60048080359060200190919050506113a4565b604051808315151515815260200180602001828103825283818151815260200191508051906020019080838360005b8381101561077957808201518184015260208101905061075e565b50505050905090810190601f1680156107a65780820380516001836020036101000a031916815260200191505b50935050505060405180910390f35b6000600180549050905090565b600080600080604185511415156107dc57600093506108ba565b6020850151925060408501519150606085015160001a9050601b8160ff16101561080757601b810190505b601b8160ff161415801561081f5750601c8160ff1614155b1561082d57600093506108ba565b600186828585604051600081526020016040526000604051602001526040518085600019166000191681526020018460ff1660ff16815260200183600019166000191681526020018260001916600019168152602001945050505050602060405160208103908084039060008661646e5a03f115156108ab57600080fd5b50506020604051035193508393505b50505092915050565b60006108cd611d82565b6108d5611d82565b6108dd611d82565b6108e5611d82565b6108ed611d82565b60008060006108fa611d96565b6000600180549050118015610910575060008b10155b151561091b57600080fd5b60018b81548110151561092a57fe5b906000526020600020906009020161012060405190810160405290816000820160009054906101000a900473ffffffffffffffffffffffffffffffffffffffff1673ffffffffffffffffffffffffffffffffffffffff1673ffffffffffffffffffffffffffffffffffffffff168152602001600182018054600181600116156101000203166002900480601f016020809104026020016040519081016040528092919081815260200182805460018160011615610100020316600290048015610a345780601f10610a0957610100808354040283529160200191610a34565b820191906000526020600020905b815481529060010190602001808311610a1757829003601f168201915b50505050508152602001600282018054600181600116156101000203166002900480601f016020809104026020016040519081016040528092919081815260200182805460018160011615610100020316600290048015610ad65780601f10610aab57610100808354040283529160200191610ad6565b820191906000526020600020905b815481529060010190602001808311610ab957829003601f168201915b50505050508152602001600382018054600181600116156101000203166002900480601f016020809104026020016040519081016040528092919081815260200182805460018160011615610100020316600290048015610b785780601f10610b4d57610100808354040283529160200191610b78565b820191906000526020600020905b815481529060010190602001808311610b5b57829003601f168201915b50505050508152602001600482018054600181600116156101000203166002900480601f016020809104026020016040519081016040528092919081815260200182805460018160011615610100020316600290048015610c1a5780601f10610bef57610100808354040283529160200191610c1a565b820191906000526020600020905b815481529060010190602001808311610bfd57829003601f168201915b50505050508152602001600582018054600181600116156101000203166002900480601f016020809104026020016040519081016040528092919081815260200182805460018160011615610100020316600290048015610cbc5780601f10610c9157610100808354040283529160200191610cbc565b820191906000526020600020905b815481529060010190602001808311610c9f57829003601f168201915b50505050508152602001600682015481526020016007820160009054906101000a900473ffffffffffffffffffffffffffffffffffffffff1673ffffffffffffffffffffffffffffffffffffffff1673ffffffffffffffffffffffffffffffffffffffff16815260200160088201546000191660001916815250509050806000015181602001518260400151836060015184608001518560a001518660c001518760e00151886101000151879750869650859550849450839350995099509950995099509950995099509950509193959799909294969850565b60026020528060005260406000206000915054906101000a900460ff1681565b3360008060009054906101000a900473ffffffffffffffffffffffffffffffffffffffff1673ffffffffffffffffffffffffffffffffffffffff168273ffffffffffffffffffffffffffffffffffffffff161490507f7fca019a0a52664785803f352d793a992f66c4affa261b3daf127976e7ad67998282604051808373ffffffffffffffffffffffffffffffffffffffff1673ffffffffffffffffffffffffffffffffffffffff168152602001821515151581526020019250505060405180910390a1801515610e8657600080fd5b6000600260008573ffffffffffffffffffffffffffffffffffffffff1673ffffffffffffffffffffffffffffffffffffffff16815260200190815260200160002060006101000a81548160ff021916908315150217905550505050565b3360008060009054906101000a900473ffffffffffffffffffffffffffffffffffffffff1673ffffffffffffffffffffffffffffffffffffffff168273ffffffffffffffffffffffffffffffffffffffff161490507f7fca019a0a52664785803f352d793a992f66c4affa261b3daf127976e7ad67998282604051808373ffffffffffffffffffffffffffffffffffffffff1673ffffffffffffffffffffffffffffffffffffffff168152602001821515151581526020019250505060405180910390a1801515610fb357600080fd5b6001600260008573ffffffffffffffffffffffffffffffffffffffff1673ffffffffffffffffffffffffffffffffffffffff16815260200190815260200160002060006101000a81548160ff021916908315150217905550505050565b337f2bf8ea5a40db67784aa965ddf3e37384c79dbaf6178e1c7b8e3be19f22f84b9c81604051808273ffffffffffffffffffffffffffffffffffffffff1673ffffffffffffffffffffffffffffffffffffffff16815260200191505060405180910390a1600260008273ffffffffffffffffffffffffffffffffffffffff1673ffffffffffffffffffffffffffffffffffffffff16815260200190815260200160002060009054906101000a900460ff1615156110cc57600080fd5b600180548060010182816110e09190611e30565b91600052602060002090600902016000610120604051908101604052808e73ffffffffffffffffffffffffffffffffffffffff1681526020018d81526020018c81526020018b81526020018a81526020018981526020018881526020018773ffffffffffffffffffffffffffffffffffffffff1681526020018660001916815250909190915060008201518160000160006101000a81548173ffffffffffffffffffffffffffffffffffffffff021916908373ffffffffffffffffffffffffffffffffffffffff16021790555060208201518160010190805190602001906111c9929190611e62565b5060408201518160020190805190602001906111e6929190611e62565b506060820151816003019080519060200190611203929190611e62565b506080820151816004019080519060200190611220929190611e62565b5060a082015181600501908051906020019061123d929190611e62565b5060c0820151816006015560e08201518160070160006101000a81548173ffffffffffffffffffffffffffffffffffffffff021916908373ffffffffffffffffffffffffffffffffffffffff16021790555061010082015181600801906000191690555050507fa23a4fd21913bfd48f69ff95304e8197b3669fafcd04261ae71e74acfc1ea1538a89604051808373ffffffffffffffffffffffffffffffffffffffff1673ffffffffffffffffffffffffffffffffffffffff16815260200180602001828103825283818151815260200191508051906020019080838360005b8381101561133857808201518184015260208101905061131d565b50505050905090810190601f1680156113655780820380516001836020036101000a031916815260200191505b50935050505060405180910390a150505050505050505050565b6000809054906101000a900473ffffffffffffffffffffffffffffffffffffffff1681565b60006113ae611d82565b6113b6611d96565b60008060008060006001898154811015156113cd57fe5b906000526020600020906009020161012060405190810160405290816000820160009054906101000a900473ffffffffffffffffffffffffffffffffffffffff1673ffffffffffffffffffffffffffffffffffffffff1673ffffffffffffffffffffffffffffffffffffffff168152602001600182018054600181600116156101000203166002900480601f0160208091040260200160405190810160405280929190818152602001828054600181600116156101000203166002900480156114d75780601f106114ac576101008083540402835291602001916114d7565b820191906000526020600020905b8154815290600101906020018083116114ba57829003601f168201915b50505050508152602001600282018054600181600116156101000203166002900480601f0160208091040260200160405190810160405280929190818152602001828054600181600116156101000203166002900480156115795780601f1061154e57610100808354040283529160200191611579565b820191906000526020600020905b81548152906001019060200180831161155c57829003601f168201915b50505050508152602001600382018054600181600116156101000203166002900480601f01602080910402602001604051908101604052809291908181526020018280546001816001161561010002031660029004801561161b5780601f106115f05761010080835404028352916020019161161b565b820191906000526020600020905b8154815290600101906020018083116115fe57829003601f168201915b50505050508152602001600482018054600181600116156101000203166002900480601f0160208091040260200160405190810160405280929190818152602001828054600181600116156101000203166002900480156116bd5780601f10611692576101008083540402835291602001916116bd565b820191906000526020600020905b8154815290600101906020018083116116a057829003601f168201915b50505050508152602001600582018054600181600116156101000203166002900480601f01602080910402602001604051908101604052809291908181526020018280546001816001161561010002031660029004801561175f5780601f106117345761010080835404028352916020019161175f565b820191906000526020600020905b81548152906001019060200180831161174257829003601f168201915b50505050508152602001600682015481526020016007820160009054906101000a900473ffffffffffffffffffffffffffffffffffffffff1673ffffffffffffffffffffffffffffffffffffffff1673ffffffffffffffffffffffffffffffffffffffff1681526020016008820154600019166000191681525050955073__BadgeLibrary__________________________631ddb6af68760000151886020015189604001518a606001518b608001518c60e001516000604051602001526040518763ffffffff167c0100000000000000000000000000000000000000000000000000000000028152600401808773ffffffffffffffffffffffffffffffffffffffff1673ffffffffffffffffffffffffffffffffffffffff168152602001806020018060200180602001806020018673ffffffffffffffffffffffffffffffffffffffff1673ffffffffffffffffffffffffffffffffffffffff16815260200185810385528a818151815260200191508051906020019080838360005b838110156118f85780820151818401526020810190506118dd565b50505050905090810190601f1680156119255780820380516001836020036101000a031916815260200191505b50858103845289818151815260200191508051906020019080838360005b8381101561195e578082015181840152602081019050611943565b50505050905090810190601f16801561198b5780820380516001836020036101000a031916815260200191505b50858103835288818151815260200191508051906020019080838360005b838110156119c45780820151818401526020810190506119a9565b50505050905090810190601f1680156119f15780820380516001836020036101000a031916815260200191505b50858103825287818151815260200191508051906020019080838360005b83811015611a2a578082015181840152602081019050611a0f565b50505050905090810190601f168015611a575780820380516001836020036101000a031916815260200191505b509a505050505050505050505060206040518083038186803b1515611a7b57600080fd5b6102c65a03f41515611a8c57600080fd5b505050604051805190509450856000015193508373ffffffffffffffffffffffffffffffffffffffff16637a432e8c876101000151878960e001516000604051606001526040518463ffffffff167c010000000000000000000000000000000000000000000000000000000002815260040180846000191660001916815260200183600019166000191681526020018273ffffffffffffffffffffffffffffffffffffffff1673ffffffffffffffffffffffffffffffffffffffff1681526020019350505050606060405180830381600087803b1515611b6b57600080fd5b6102c65a03f11515611b7c57600080fd5b505050604051805190602001805190602001805190509250925092508215611c09576000606060405190810160405280602681526020017f496e76616c69642063726564656e7469616c3a2063726564656e7469616c207281526020017f65766f6b6564000000000000000000000000000000000000000000000000000081525080905097509750611d77565b801515611ca05780608060405190810160405280604581526020017f496e76616c696420726563697069656e743a20726563697069656e7420646f6581526020017f73206e6f74206d61746368206f726967696e616c207472616e73616374696f6e81526020017f206461746100000000000000000000000000000000000000000000000000000081525080905097509750611d77565b811515611d375781608060405190810160405280605381526020017f496e76616c6964206461746120696e746567726974793a206461746120696e2081526020017f63726564656e7469616c20646f6573206e6f74206d61746368206f726967696e81526020017f616c207472616e73616374696f6e20646174610000000000000000000000000081525080905097509750611d77565b60016040805190810160405280601381526020017f43726564656e7469616c2069732076616c696400000000000000000000000000815250809050975097505b505050505050915091565b602060405190810160405280600081525090565b61012060405190810160405280600073ffffffffffffffffffffffffffffffffffffffff168152602001611dc8611ee2565b8152602001611dd5611ee2565b8152602001611de2611ee2565b8152602001611def611ee2565b8152602001611dfc611ee2565b815260200160008152602001600073ffffffffffffffffffffffffffffffffffffffff168152602001600080191681525090565b815481835581811511611e5d57600902816009028360005260206000209182019101611e5c9190611ef6565b5b505050565b828054600181600116156101000203166002900490600052602060002090601f016020900481019282601f10611ea357805160ff1916838001178555611ed1565b82800160010185558215611ed1579182015b82811115611ed0578251825591602001919060010190611eb5565b5b509050611ede9190611fc3565b5090565b602060405190810160405280600081525090565b611fc091905b80821115611fbc57600080820160006101000a81549073ffffffffffffffffffffffffffffffffffffffff0219169055600182016000611f3c9190611fe8565b600282016000611f4c9190611fe8565b600382016000611f5c9190611fe8565b600482016000611f6c9190611fe8565b600582016000611f7c9190611fe8565b60068201600090556007820160006101000a81549073ffffffffffffffffffffffffffffffffffffffff0219169055600882016000905550600901611efc565b5090565b90565b611fe591905b80821115611fe1576000816000905550600101611fc9565b5090565b90565b50805460018160011615610100020316600290046000825580601f1061200e575061202d565b601f01602090049060005260206000209081019061202c9190611fc3565b5b505600a165627a7a72305820c439f3d6d5d8a8b76333e832467f1d45f606999f172632f808e4a8711c6608e50029",
  "source": "pragma solidity ^0.4.15;\n\nimport \"BadgeLibrary/contracts/BadgeLibrary.sol\";\nimport \"./Issuer.sol\";\n\n\ncontract Holder {\n    \n    /// @notice address where holder holds there badgeforce tokens\n    address public holder;\n\n    /// @notice array of holders credentials \n    BadgeLibrary.BFCredential[] credentials;\n\n    /// @notice mapping of trusted issuers \n    mapping (address=>bool) public trustedIssuers;\n\n    string constant INVALID_TRANSACTION = \"Invalid transaction: the transaction does not exist\";\n    string constant INVALID_INTEGRITYHASH = \"Invalid data integrity: data in credential does not match original transaction data\";\n    string constant INVALID_RECIPIENT = \"Invalid recipient: recipient does not match original transaction data\";\n    string constant INVALID_TXTKEY = \"Invalid transaction key: transaction keys don't match\";\n    string constant REVOKED = \"Invalid credential: credential revoked\";\n    string constant VALID_CREDENTIAL = \"Credential is valid\";\n\n    function Holder(address _holder) {\n        holder = _holder;\n    }\n\n    event AuthorizeAttempt(address _actor, bool authorized);\n    /// @notice make sure caller is the issuer that owns this contract because badgeforce tokens will be used \n    modifier authorized(address _holder) {\n        bool isAuthorized = (_holder == holder);\n        AuthorizeAttempt(_holder, isAuthorized);\n        require(isAuthorized);\n        _;\n    }\n\n    event LogStoreAttempt(address _caller);\n    /// @notice make sure issuer is trusted to store credentials on this contract\n    modifier trusted(address _issuer) {\n        LogStoreAttempt(_issuer);\n        require(trustedIssuers[_issuer]);\n        _;\n    }\n\n    /// @notice add a new trusted issuer \n    function addTrustedIssuer(address _issuer) public authorized(msg.sender) {\n        trustedIssuers[_issuer] = true;\n    }\n\n    /// @notice add a new trusted issuer \n    function removeTrustedIssuer(address _issuer) public authorized(msg.sender) {\n        trustedIssuers[_issuer] = false;\n    }\n\n    event LogNewCredential(address _issuer, string name);\n    /// @notice store a new credential on this contract \n    function storeCredential(\n        address _issuer,\n        string _description,\n        string _name,\n        string _image,\n        string _version,\n        string _json,\n        uint _expires,\n        address _recipient,\n        bytes32 _txKey\n    ) public trusted(msg.sender)\n    {\n        credentials.push(\n            BadgeLibrary.BFCredential(\n                _issuer,\n                _description,\n                _name,\n                _image,\n                _version,\n                _json,\n                _expires,\n                _recipient,\n                _txKey\n        ));\n        LogNewCredential(_issuer, _name);\n    }\n\n    function verifyCredential(uint credentialIndex) constant public returns(bool verified, string message) {\n        BadgeLibrary.BFCredential memory credential = credentials[credentialIndex];\n        bytes32 integrityHash = BadgeLibrary.getIntegrityHash(\n            credential.issuer, \n            credential.description, \n            credential.name, \n            credential.image, \n            credential.version, \n            credential.recipient\n        );\n        Issuer issuer = Issuer(credential.issuer);\n        var (_revoked, _integrityHashCheck, _recipientCheck) = issuer._checkTransaction(\n            credential.txKey, \n            integrityHash, \n            credential.recipient\n        );\n        if (_revoked) {\n            return(false, REVOKED);\n        } else if (!_recipientCheck) {\n            return(_recipientCheck, INVALID_RECIPIENT);\n        } else if (!_integrityHashCheck) {\n            return(_integrityHashCheck, INVALID_INTEGRITYHASH);\n        } else {\n            return(true, VALID_CREDENTIAL);\n        }\n    }\n\n    /// @notice get a holders credential \n    /// @param _index index of credential to return \n    function getCredential(uint _index) constant public  returns (\n        address _issuer,\n        string _description,\n        string _name,\n        string _image,\n        string _version,\n        string _json,\n        uint _expires,\n        address _recipient,\n        bytes32 _txKey\n    ) {\n        require(credentials.length > 0 && _index >= 0);\n        BadgeLibrary.BFCredential memory cred = credentials[_index];\n        return (\n            cred.issuer,\n            cred.description,\n            cred.name,\n            cred.image,\n            cred.version,\n            cred.json,\n            cred.expires,\n            cred.recipient,\n            cred.txKey\n        );\n    }\n\n    /// @notice get number of credentials \n    function getNumberOfCredentials() constant public returns(uint count) {\n        return credentials.length;\n    }\n\n    function extractAddress(bytes32 _hash, bytes _sig) constant returns(address _issuer) {\n        bytes32 r;\n        bytes32 s;\n        uint8 v;\n\n        if (_sig.length != 65)\n          return 0;\n\n        // The signature format is a compact form of:\n        //   {bytes32 r}{bytes32 s}{uint8 v}\n        // Compact means, uint8 is not padded to 32 bytes.\n        assembly {\n            r := mload(add(_sig, 32))\n            s := mload(add(_sig, 64))\n\n            // Here we are loading the last 32 bytes. We exploit the fact that\n            // 'mload' will pad with zeroes if we overread.\n            // There is no 'mload8' to do this, but that would be nicer.\n            v := byte(0, mload(add(_sig, 96)))\n\n            // Alternative solution:\n            // 'byte' is not working due to the Solidity parser, so lets\n            // use the second best option, 'and'\n            // v := and(mload(add(sig, 65)), 255)\n        }\n\n        // albeit non-transactional signatures are not specified by the YP, one would expect it\n        // to match the YP range of [27, 28]\n        //\n        // geth uses [0, 1] and some clients have followed. This might change, see:\n        //  https://github.com/ethereum/go-ethereum/issues/2053\n        if (v < 27)\n          v += 27;\n\n        if (v != 27 && v != 28)\n            return 0;\n\n        _issuer = ecrecover(_hash, v, r, s);\n        return _issuer;\n    }\n}",
  "sourcePath": "/Users/khalil.claybon/Desktop/some_work/badgeforce_dev/badgeforce/contracts/Holder.sol",
  "compiler": {
    "name": "solc",
    "version": "0.4.18+commit.9cf6e910.Emscripten.clang"
  },
  "schemaVersion": "1.0.1",
  "updatedAt": "2017-11-25T12:06:18.556Z"
}