{
  "contractName": "Issuer",
  "abi": [
    {
      "constant": false,
      "inputs": [
        {
          "name": "_txnKey",
          "type": "bytes32"
        },
        {
          "name": "_recipient",
          "type": "address"
        },
        {
          "name": "_badgeName",
          "type": "string"
        }
      ],
      "name": "setNewTxn",
      "outputs": [],
      "payable": false,
      "stateMutability": "nonpayable",
      "type": "function"
    },
    {
      "constant": true,
      "inputs": [],
      "name": "name",
      "outputs": [
        {
          "name": "",
          "type": "string"
        }
      ],
      "payable": false,
      "stateMutability": "view",
      "type": "function"
    },
    {
      "constant": true,
      "inputs": [],
      "name": "issuerContract",
      "outputs": [
        {
          "name": "",
          "type": "address"
        }
      ],
      "payable": false,
      "stateMutability": "view",
      "type": "function"
    },
    {
      "constant": true,
      "inputs": [
        {
          "name": "",
          "type": "bytes32"
        }
      ],
      "name": "credentialTxnMap",
      "outputs": [
        {
          "name": "key",
          "type": "bytes32"
        },
        {
          "name": "integrityHash",
          "type": "bytes32"
        },
        {
          "name": "recipient",
          "type": "address"
        },
        {
          "name": "revoked",
          "type": "bool"
        }
      ],
      "payable": false,
      "stateMutability": "view",
      "type": "function"
    },
    {
      "constant": true,
      "inputs": [
        {
          "name": "_txnKey",
          "type": "bytes32"
        }
      ],
      "name": "getTxn",
      "outputs": [
        {
          "name": "txnKey",
          "type": "bytes32"
        },
        {
          "name": "integrityHash",
          "type": "bytes32"
        },
        {
          "name": "recipient",
          "type": "address"
        },
        {
          "name": "revoked",
          "type": "bool"
        }
      ],
      "payable": false,
      "stateMutability": "view",
      "type": "function"
    },
    {
      "constant": true,
      "inputs": [],
      "name": "getNumberOfBadges",
      "outputs": [
        {
          "name": "count",
          "type": "uint256"
        }
      ],
      "payable": false,
      "stateMutability": "view",
      "type": "function"
    },
    {
      "constant": true,
      "inputs": [
        {
          "name": "_name",
          "type": "string"
        }
      ],
      "name": "getBadge",
      "outputs": [
        {
          "name": "issuer",
          "type": "address"
        },
        {
          "name": "description",
          "type": "string"
        },
        {
          "name": "bName",
          "type": "string"
        },
        {
          "name": "image",
          "type": "string"
        },
        {
          "name": "version",
          "type": "string"
        }
      ],
      "payable": false,
      "stateMutability": "view",
      "type": "function"
    },
    {
      "constant": true,
      "inputs": [
        {
          "name": "_index",
          "type": "uint256"
        }
      ],
      "name": "getAuthorizedAccount",
      "outputs": [
        {
          "name": "_issuer",
          "type": "address"
        }
      ],
      "payable": false,
      "stateMutability": "view",
      "type": "function"
    },
    {
      "constant": false,
      "inputs": [
        {
          "name": "_badgeName",
          "type": "string"
        },
        {
          "name": "_recipient",
          "type": "address"
        },
        {
          "name": "_expires",
          "type": "uint256"
        }
      ],
      "name": "issue",
      "outputs": [],
      "payable": false,
      "stateMutability": "nonpayable",
      "type": "function"
    },
    {
      "constant": false,
      "inputs": [
        {
          "name": "_newIssuer",
          "type": "address"
        }
      ],
      "name": "authorzeAccount",
      "outputs": [],
      "payable": false,
      "stateMutability": "nonpayable",
      "type": "function"
    },
    {
      "constant": true,
      "inputs": [
        {
          "name": "_txnKey",
          "type": "bytes32"
        }
      ],
      "name": "isRevoked",
      "outputs": [
        {
          "name": "c",
          "type": "bool"
        }
      ],
      "payable": false,
      "stateMutability": "view",
      "type": "function"
    },
    {
      "constant": true,
      "inputs": [],
      "name": "url",
      "outputs": [
        {
          "name": "",
          "type": "string"
        }
      ],
      "payable": false,
      "stateMutability": "view",
      "type": "function"
    },
    {
      "constant": true,
      "inputs": [
        {
          "name": "_txnKey",
          "type": "bytes32"
        },
        {
          "name": "_recipient",
          "type": "address"
        }
      ],
      "name": "verifyCredentialTxn",
      "outputs": [
        {
          "name": "_revoked",
          "type": "bool"
        },
        {
          "name": "_integrityHashCheck",
          "type": "bool"
        },
        {
          "name": "_recipientCheck",
          "type": "bool"
        }
      ],
      "payable": false,
      "stateMutability": "view",
      "type": "function"
    },
    {
      "constant": true,
      "inputs": [
        {
          "name": "_index",
          "type": "uint256"
        }
      ],
      "name": "getNameByIndex",
      "outputs": [
        {
          "name": "_name",
          "type": "bytes32"
        }
      ],
      "payable": false,
      "stateMutability": "view",
      "type": "function"
    },
    {
      "constant": true,
      "inputs": [],
      "name": "getInfo",
      "outputs": [
        {
          "name": "_issuer",
          "type": "address"
        },
        {
          "name": "_contract",
          "type": "address"
        },
        {
          "name": "_name",
          "type": "string"
        },
        {
          "name": "_url",
          "type": "string"
        }
      ],
      "payable": false,
      "stateMutability": "view",
      "type": "function"
    },
    {
      "constant": false,
      "inputs": [
        {
          "name": "_description",
          "type": "string"
        },
        {
          "name": "_name",
          "type": "string"
        },
        {
          "name": "_image",
          "type": "string"
        },
        {
          "name": "_version",
          "type": "string"
        }
      ],
      "name": "createBadge",
      "outputs": [],
      "payable": false,
      "stateMutability": "nonpayable",
      "type": "function"
    },
    {
      "constant": true,
      "inputs": [
        {
          "name": "_name",
          "type": "string"
        }
      ],
      "name": "isUnique",
      "outputs": [
        {
          "name": "unique",
          "type": "bool"
        }
      ],
      "payable": false,
      "stateMutability": "view",
      "type": "function"
    },
    {
      "constant": true,
      "inputs": [],
      "name": "getNumberOfAuthorizedAccounts",
      "outputs": [
        {
          "name": "_numOfAccounts",
          "type": "uint256"
        }
      ],
      "payable": false,
      "stateMutability": "view",
      "type": "function"
    },
    {
      "constant": false,
      "inputs": [
        {
          "name": "_txnKey",
          "type": "bytes32"
        }
      ],
      "name": "unRevoke",
      "outputs": [],
      "payable": false,
      "stateMutability": "nonpayable",
      "type": "function"
    },
    {
      "constant": true,
      "inputs": [],
      "name": "nonce",
      "outputs": [
        {
          "name": "",
          "type": "uint256"
        }
      ],
      "payable": false,
      "stateMutability": "view",
      "type": "function"
    },
    {
      "constant": false,
      "inputs": [
        {
          "name": "_name",
          "type": "string"
        }
      ],
      "name": "deleteBadge",
      "outputs": [
        {
          "name": "success",
          "type": "bool"
        }
      ],
      "payable": false,
      "stateMutability": "nonpayable",
      "type": "function"
    },
    {
      "constant": false,
      "inputs": [
        {
          "name": "_txnKey",
          "type": "bytes32"
        }
      ],
      "name": "revoke",
      "outputs": [],
      "payable": false,
      "stateMutability": "nonpayable",
      "type": "function"
    },
    {
      "constant": false,
      "inputs": [
        {
          "name": "_issuer",
          "type": "address"
        }
      ],
      "name": "removeAuthorizedAccount",
      "outputs": [],
      "payable": false,
      "stateMutability": "nonpayable",
      "type": "function"
    },
    {
      "constant": true,
      "inputs": [
        {
          "name": "_txnKey",
          "type": "bytes32"
        },
        {
          "name": "_recipient",
          "type": "address"
        }
      ],
      "name": "verifyCredential",
      "outputs": [
        {
          "name": "isVerified",
          "type": "bool"
        },
        {
          "name": "errMsg",
          "type": "string"
        }
      ],
      "payable": false,
      "stateMutability": "view",
      "type": "function"
    },
    {
      "constant": true,
      "inputs": [
        {
          "name": "_issuer",
          "type": "address"
        },
        {
          "name": "_msgData",
          "type": "bytes"
        }
      ],
      "name": "getCredentialTxnKey",
      "outputs": [
        {
          "name": "key",
          "type": "bytes32"
        }
      ],
      "payable": false,
      "stateMutability": "view",
      "type": "function"
    },
    {
      "constant": true,
      "inputs": [],
      "name": "admin",
      "outputs": [
        {
          "name": "",
          "type": "address"
        }
      ],
      "payable": false,
      "stateMutability": "view",
      "type": "function"
    },
    {
      "constant": true,
      "inputs": [
        {
          "name": "",
          "type": "address"
        }
      ],
      "name": "authorizedAccountsMap",
      "outputs": [
        {
          "name": "issuer",
          "type": "address"
        },
        {
          "name": "index",
          "type": "uint256"
        },
        {
          "name": "isAuthorized",
          "type": "bool"
        }
      ],
      "payable": false,
      "stateMutability": "view",
      "type": "function"
    },
    {
      "inputs": [
        {
          "name": "_adminWalletAddr",
          "type": "address"
        },
        {
          "name": "_name",
          "type": "string"
        },
        {
          "name": "_url",
          "type": "string"
        },
        {
          "name": "_token",
          "type": "address"
        }
      ],
      "payable": false,
      "stateMutability": "nonpayable",
      "type": "constructor"
    },
    {
      "anonymous": false,
      "inputs": [
        {
          "indexed": false,
          "name": "_badgeName",
          "type": "string"
        },
        {
          "indexed": true,
          "name": "_recipient",
          "type": "address"
        }
      ],
      "name": "CredentialIssued",
      "type": "event"
    },
    {
      "anonymous": false,
      "inputs": [
        {
          "indexed": false,
          "name": "_txnKey",
          "type": "bytes32"
        }
      ],
      "name": "CredentialRevoked",
      "type": "event"
    },
    {
      "anonymous": false,
      "inputs": [
        {
          "indexed": false,
          "name": "_txnKey",
          "type": "bytes32"
        }
      ],
      "name": "CredentialUnRevoked",
      "type": "event"
    },
    {
      "anonymous": false,
      "inputs": [
        {
          "indexed": false,
          "name": "_name",
          "type": "string"
        },
        {
          "indexed": true,
          "name": "_issuer",
          "type": "address"
        }
      ],
      "name": "BadgeCreated",
      "type": "event"
    },
    {
      "anonymous": false,
      "inputs": [
        {
          "indexed": false,
          "name": "_name",
          "type": "string"
        },
        {
          "indexed": false,
          "name": "count",
          "type": "uint256"
        }
      ],
      "name": "BadgeDeleted",
      "type": "event"
    },
    {
      "anonymous": false,
      "inputs": [
        {
          "indexed": false,
          "name": "_actor",
          "type": "address"
        },
        {
          "indexed": false,
          "name": "authorized",
          "type": "bool"
        }
      ],
      "name": "AuthorizeAttempt",
      "type": "event"
    },
    {
      "anonymous": false,
      "inputs": [
        {
          "indexed": false,
          "name": "_newIssuer",
          "type": "address"
        }
      ],
      "name": "NewAccountAuthorized",
      "type": "event"
    },
    {
      "anonymous": false,
      "inputs": [
        {
          "indexed": false,
          "name": "_issuer",
          "type": "address"
        }
      ],
      "name": "AuthorizedAccountRemoved",
      "type": "event"
    }
  ],
  "bytecode": "0x606060405234156200001057600080fd5b6040516200486d3803806200486d8339810160405280805190602001909190805182019190602001805182019190602001805190602001909190505083808080806000806101000a81548173ffffffffffffffffffffffffffffffffffffffff021916908373ffffffffffffffffffffffffffffffffffffffff16021790555050506000600781905550505082600a9080519060200190620000b49291906200015a565b5081600b9080519060200190620000cd9291906200015a565b5030600960006101000a81548173ffffffffffffffffffffffffffffffffffffffff021916908373ffffffffffffffffffffffffffffffffffffffff16021790555080600860006101000a81548173ffffffffffffffffffffffffffffffffffffffff021916908373ffffffffffffffffffffffffffffffffffffffff1602179055505050505062000209565b828054600181600116156101000203166002900490600052602060002090601f016020900481019282601f106200019d57805160ff1916838001178555620001ce565b82800160010185558215620001ce579182015b82811115620001cd578251825591602001919060010190620001b0565b5b509050620001dd9190620001e1565b5090565b6200020691905b8082111562000202576000816000905550600101620001e8565b5090565b90565b61465480620002196000396000f30060606040526004361061015f576000357c0100000000000000000000000000000000000000000000000000000000900463ffffffff168063029a28581461016457806306fdde03146101ed5780630c43ae9c1461027b5780630decfdea146102d05780631041eb961461036057806324ddd51a146103f05780632d902fe7146104195780633557b6c314610666578063368a1709146106c95780633b57391a1461074e5780634294857f146107875780635600f04f146107c65780635629aec91461085457806359c293f1146108c85780635a9b0b89146109075780635c9d3a9414610a6757806372ee19a214610b8d5780637c59fda014610c02578063a5aef15b14610c2b578063affed0e014610c52578063b610922114610c7b578063b75c7dc614610cf0578063be47aa0914610d17578063d8c0941b14610d50578063eb92948114610e1a578063f851a44014610eb2578063f9afc24214610f07575b600080fd5b341561016f57600080fd5b6101eb60048080356000191690602001909190803573ffffffffffffffffffffffffffffffffffffffff1690602001909190803590602001908201803590602001908080601f01602080910402602001604051908101604052809392919081815260200183838082843782019150505050505091905050610f92565b005b34156101f857600080fd5b610200611880565b6040518080602001828103825283818151815260200191508051906020019080838360005b83811015610240578082015181840152602081019050610225565b50505050905090810190601f16801561026d5780820380516001836020036101000a031916815260200191505b509250505060405180910390f35b341561028657600080fd5b61028e61191e565b604051808273ffffffffffffffffffffffffffffffffffffffff1673ffffffffffffffffffffffffffffffffffffffff16815260200191505060405180910390f35b34156102db57600080fd5b6102f5600480803560001916906020019091905050611944565b60405180856000191660001916815260200184600019166000191681526020018373ffffffffffffffffffffffffffffffffffffffff1673ffffffffffffffffffffffffffffffffffffffff1681526020018215151515815260200194505050505060405180910390f35b341561036b57600080fd5b6103856004808035600019169060200190919050506119a1565b60405180856000191660001916815260200184600019166000191681526020018373ffffffffffffffffffffffffffffffffffffffff1673ffffffffffffffffffffffffffffffffffffffff1681526020018215151515815260200194505050505060405180910390f35b34156103fb57600080fd5b610403611a5f565b6040518082815260200191505060405180910390f35b341561042457600080fd5b610474600480803590602001908201803590602001908080601f01602080910402602001604051908101604052809392919081815260200183838082843782019150505050505091905050611a6f565b604051808673ffffffffffffffffffffffffffffffffffffffff1673ffffffffffffffffffffffffffffffffffffffff16815260200180602001806020018060200180602001858103855289818151815260200191508051906020019080838360005b838110156104f25780820151818401526020810190506104d7565b50505050905090810190601f16801561051f5780820380516001836020036101000a031916815260200191505b50858103845288818151815260200191508051906020019080838360005b8381101561055857808201518184015260208101905061053d565b50505050905090810190601f1680156105855780820380516001836020036101000a031916815260200191505b50858103835287818151815260200191508051906020019080838360005b838110156105be5780820151818401526020810190506105a3565b50505050905090810190601f1680156105eb5780820380516001836020036101000a031916815260200191505b50858103825286818151815260200191508051906020019080838360005b83811015610624578082015181840152602081019050610609565b50505050905090810190601f1680156106515780820380516001836020036101000a031916815260200191505b50995050505050505050505060405180910390f35b341561067157600080fd5b6106876004808035906020019091905050612033565b604051808273ffffffffffffffffffffffffffffffffffffffff1673ffffffffffffffffffffffffffffffffffffffff16815260200191505060405180910390f35b34156106d457600080fd5b61074c600480803590602001908201803590602001908080601f0160208091040260200160405190810160405280939291908181526020018383808284378201915050505050509190803573ffffffffffffffffffffffffffffffffffffffff16906020019091908035906020019091905050612110565b005b341561075957600080fd5b610785600480803573ffffffffffffffffffffffffffffffffffffffff1690602001909190505061238c565b005b341561079257600080fd5b6107ac600480803560001916906020019091905050612610565b604051808215151515815260200191505060405180910390f35b34156107d157600080fd5b6107d9612645565b6040518080602001828103825283818151815260200191508051906020019080838360005b838110156108195780820151818401526020810190506107fe565b50505050905090810190601f1680156108465780820380516001836020036101000a031916815260200191505b509250505060405180910390f35b341561085f57600080fd5b61089860048080356000191690602001909190803573ffffffffffffffffffffffffffffffffffffffff169060200190919050506126e3565b60405180841515151581526020018315151515815260200182151515158152602001935050505060405180910390f35b34156108d357600080fd5b6108e9600480803590602001909190505061284a565b60405180826000191660001916815260200191505060405180910390f35b341561091257600080fd5b61091a612871565b604051808573ffffffffffffffffffffffffffffffffffffffff1673ffffffffffffffffffffffffffffffffffffffff1681526020018473ffffffffffffffffffffffffffffffffffffffff1673ffffffffffffffffffffffffffffffffffffffff1681526020018060200180602001838103835285818151815260200191508051906020019080838360005b838110156109c25780820151818401526020810190506109a7565b50505050905090810190601f1680156109ef5780820380516001836020036101000a031916815260200191505b50838103825284818151815260200191508051906020019080838360005b83811015610a28578082015181840152602081019050610a0d565b50505050905090810190601f168015610a555780820380516001836020036101000a031916815260200191505b50965050505050505060405180910390f35b3415610a7257600080fd5b610b8b600480803590602001908201803590602001908080601f0160208091040260200160405190810160405280939291908181526020018383808284378201915050505050509190803590602001908201803590602001908080601f0160208091040260200160405190810160405280939291908181526020018383808284378201915050505050509190803590602001908201803590602001908080601f0160208091040260200160405190810160405280939291908181526020018383808284378201915050505050509190803590602001908201803590602001908080601f01602080910402602001604051908101604052809392919081815260200183838082843782019150505050505091905050612a13565b005b3415610b9857600080fd5b610be8600480803590602001908201803590602001908080601f01602080910402602001604051908101604052809392919081815260200183838082843782019150505050505091905050612e8c565b604051808215151515815260200191505060405180910390f35b3415610c0d57600080fd5b610c15612fe6565b6040518082815260200191505060405180910390f35b3415610c3657600080fd5b610c50600480803560001916906020019091905050612ff3565b005b3415610c5d57600080fd5b610c65613195565b6040518082815260200191505060405180910390f35b3415610c8657600080fd5b610cd6600480803590602001908201803590602001908080601f0160208091040260200160405190810160405280939291908181526020018383808284378201915050505050509190505061319b565b604051808215151515815260200191505060405180910390f35b3415610cfb57600080fd5b610d156004808035600019169060200190919050506135cf565b005b3415610d2257600080fd5b610d4e600480803573ffffffffffffffffffffffffffffffffffffffff16906020019091905050613771565b005b3415610d5b57600080fd5b610d9460048080356000191690602001909190803573ffffffffffffffffffffffffffffffffffffffff16906020019091905050613904565b604051808315151515815260200180602001828103825283818151815260200191508051906020019080838360005b83811015610dde578082015181840152602081019050610dc3565b50505050905090810190601f168015610e0b5780820380516001836020036101000a031916815260200191505b50935050505060405180910390f35b3415610e2557600080fd5b610e94600480803573ffffffffffffffffffffffffffffffffffffffff1690602001909190803590602001908201803590602001908080601f01602080910402602001604051908101604052809392919081815260200183838082843782019150505050505091905050613b0c565b60405180826000191660001916815260200191505060405180910390f35b3415610ebd57600080fd5b610ec5613bc6565b604051808273ffffffffffffffffffffffffffffffffffffffff1673ffffffffffffffffffffffffffffffffffffffff16815260200191505060405180910390f35b3415610f1257600080fd5b610f3e600480803573ffffffffffffffffffffffffffffffffffffffff16906020019091905050613beb565b604051808473ffffffffffffffffffffffffffffffffffffffff1673ffffffffffffffffffffffffffffffffffffffff16815260200183815260200182151515158152602001935050505060405180910390f35b6000610f9c61440c565b60003360008060009054906101000a900473ffffffffffffffffffffffffffffffffffffffff1673ffffffffffffffffffffffffffffffffffffffff168273ffffffffffffffffffffffffffffffffffffffff1614806110485750600160008373ffffffffffffffffffffffffffffffffffffffff1673ffffffffffffffffffffffffffffffffffffffff16815260200190815260200160002060020160009054906101000a900460ff165b90507f7fca019a0a52664785803f352d793a992f66c4affa261b3daf127976e7ad67998282604051808373ffffffffffffffffffffffffffffffffffffffff1673ffffffffffffffffffffffffffffffffffffffff168152602001821515151581526020019250505060405180910390a18015156110c557600080fd5b60076000815480929190600101919050555073__BadgeLibrary__________________________63c1eabde9876000604051602001526040518263ffffffff167c01000000000000000000000000000000000000000000000000000000000281526004018080602001828103825283818151815260200191508051906020019080838360005b8381101561116657808201518184015260208101905061114b565b50505050905090810190601f1680156111935780820380516001836020036101000a031916815260200191505b509250505060206040518083038186803b15156111af57600080fd5b6102c65a03f415156111c057600080fd5b50505060405180519050945060036000016000866000191660001916815260200190815260200160002060a060405190810160405290816000820160009054906101000a900473ffffffffffffffffffffffffffffffffffffffff1673ffffffffffffffffffffffffffffffffffffffff1673ffffffffffffffffffffffffffffffffffffffff168152602001600182018054600181600116156101000203166002900480601f0160208091040260200160405190810160405280929190818152602001828054600181600116156101000203166002900480156112e55780601f106112ba576101008083540402835291602001916112e5565b820191906000526020600020905b8154815290600101906020018083116112c857829003601f168201915b50505050508152602001600282018054600181600116156101000203166002900480601f0160208091040260200160405190810160405280929190818152602001828054600181600116156101000203166002900480156113875780601f1061135c57610100808354040283529160200191611387565b820191906000526020600020905b81548152906001019060200180831161136a57829003601f168201915b50505050508152602001600382018054600181600116156101000203166002900480601f0160208091040260200160405190810160405280929190818152602001828054600181600116156101000203166002900480156114295780601f106113fe57610100808354040283529160200191611429565b820191906000526020600020905b81548152906001019060200180831161140c57829003601f168201915b50505050508152602001600482018054600181600116156101000203166002900480601f0160208091040260200160405190810160405280929190818152602001828054600181600116156101000203166002900480156114cb5780601f106114a0576101008083540402835291602001916114cb565b820191906000526020600020905b8154815290600101906020018083116114ae57829003601f168201915b505050505081525050935073__BadgeLibrary__________________________631ddb6af6856000015186602001518760400151886060015189608001518d6000604051602001526040518763ffffffff167c0100000000000000000000000000000000000000000000000000000000028152600401808773ffffffffffffffffffffffffffffffffffffffff1673ffffffffffffffffffffffffffffffffffffffff168152602001806020018060200180602001806020018673ffffffffffffffffffffffffffffffffffffffff1673ffffffffffffffffffffffffffffffffffffffff16815260200185810385528a818151815260200191508051906020019080838360005b838110156115ee5780820151818401526020810190506115d3565b50505050905090810190601f16801561161b5780820380516001836020036101000a031916815260200191505b50858103845289818151815260200191508051906020019080838360005b83811015611654578082015181840152602081019050611639565b50505050905090810190601f1680156116815780820380516001836020036101000a031916815260200191505b50858103835288818151815260200191508051906020019080838360005b838110156116ba57808201518184015260208101905061169f565b50505050905090810190601f1680156116e75780820380516001836020036101000a031916815260200191505b50858103825287818151815260200191508051906020019080838360005b83811015611720578082015181840152602081019050611705565b50505050905090810190601f16801561174d5780820380516001836020036101000a031916815260200191505b509a505050505050505050505060206040518083038186803b151561177157600080fd5b6102c65a03f4151561178257600080fd5b50505060405180519050925060806040519081016040528089600019168152602001846000191681526020018873ffffffffffffffffffffffffffffffffffffffff16815260200160001515815250600660008a60001916600019168152602001908152602001600020600082015181600001906000191690556020820151816001019060001916905560408201518160020160006101000a81548173ffffffffffffffffffffffffffffffffffffffff021916908373ffffffffffffffffffffffffffffffffffffffff16021790555060608201518160020160146101000a81548160ff0219169083151502179055509050505050505050505050565b600a8054600181600116156101000203166002900480601f0160208091040260200160405190810160405280929190818152602001828054600181600116156101000203166002900480156119165780601f106118eb57610100808354040283529160200191611916565b820191906000526020600020905b8154815290600101906020018083116118f957829003601f168201915b505050505081565b600960009054906101000a900473ffffffffffffffffffffffffffffffffffffffff1681565b60066020528060005260406000206000915090508060000154908060010154908060020160009054906101000a900473ffffffffffffffffffffffffffffffffffffffff16908060020160149054906101000a900460ff16905084565b600080600080600660008660001916600019168152602001908152602001600020600001546006600087600019166000191681526020019081526020016000206001015460066000886000191660001916815260200190815260200160002060020160009054906101000a900473ffffffffffffffffffffffffffffffffffffffff1660066000896000191660001916815260200190815260200160002060020160149054906101000a900460ff1693509350935093509193509193565b6000600360020180549050905090565b6000611a7961446a565b611a8161446a565b611a8961446a565b611a9161446a565b6000611a9b61440c565b87600073__BadgeLibrary__________________________63c1eabde9836000604051602001526040518263ffffffff167c01000000000000000000000000000000000000000000000000000000000281526004018080602001828103825283818151815260200191508051906020019080838360005b83811015611b2d578082015181840152602081019050611b12565b50505050905090810190601f168015611b5a5780820380516001836020036101000a031916815260200191505b509250505060206040518083038186803b1515611b7657600080fd5b6102c65a03f41515611b8757600080fd5b5050506040518051905090506000600360020180549050118015611bed57508060001916600360020160036001016000846000191660001916815260200190815260200160002054815481101515611bdb57fe5b90600052602060002090015460001916145b1515611bf857600080fd5b73__BadgeLibrary__________________________63c1eabde98b6000604051602001526040518263ffffffff167c01000000000000000000000000000000000000000000000000000000000281526004018080602001828103825283818151815260200191508051906020019080838360005b83811015611c87578082015181840152602081019050611c6c565b50505050905090810190601f168015611cb45780820380516001836020036101000a031916815260200191505b509250505060206040518083038186803b1515611cd057600080fd5b6102c65a03f41515611ce157600080fd5b50505060405180519050935060036000016000856000191660001916815260200190815260200160002060a060405190810160405290816000820160009054906101000a900473ffffffffffffffffffffffffffffffffffffffff1673ffffffffffffffffffffffffffffffffffffffff1673ffffffffffffffffffffffffffffffffffffffff168152602001600182018054600181600116156101000203166002900480601f016020809104026020016040519081016040528092919081815260200182805460018160011615610100020316600290048015611e065780601f10611ddb57610100808354040283529160200191611e06565b820191906000526020600020905b815481529060010190602001808311611de957829003601f168201915b50505050508152602001600282018054600181600116156101000203166002900480601f016020809104026020016040519081016040528092919081815260200182805460018160011615610100020316600290048015611ea85780601f10611e7d57610100808354040283529160200191611ea8565b820191906000526020600020905b815481529060010190602001808311611e8b57829003601f168201915b50505050508152602001600382018054600181600116156101000203166002900480601f016020809104026020016040519081016040528092919081815260200182805460018160011615610100020316600290048015611f4a5780601f10611f1f57610100808354040283529160200191611f4a565b820191906000526020600020905b815481529060010190602001808311611f2d57829003601f168201915b50505050508152602001600482018054600181600116156101000203166002900480601f016020809104026020016040519081016040528092919081815260200182805460018160011615610100020316600290048015611fec5780601f10611fc157610100808354040283529160200191611fec565b820191906000526020600020905b815481529060010190602001808311611fcf57829003601f168201915b505050505081525050925082600001518360200151846040015185606001518660800151839350829250819150809050985098509850985098505050505091939590929450565b60006001600060028481548110151561204857fe5b906000526020600020900160009054906101000a900473ffffffffffffffffffffffffffffffffffffffff1673ffffffffffffffffffffffffffffffffffffffff1673ffffffffffffffffffffffffffffffffffffffff16815260200190815260200160002060020160009054906101000a900460ff1615612106576002828154811015156120d357fe5b906000526020600020900160009054906101000a900473ffffffffffffffffffffffffffffffffffffffff16905061210b565b600090505b919050565b6000803360008060009054906101000a900473ffffffffffffffffffffffffffffffffffffffff1673ffffffffffffffffffffffffffffffffffffffff168273ffffffffffffffffffffffffffffffffffffffff1614806121bd5750600160008373ffffffffffffffffffffffffffffffffffffffff1673ffffffffffffffffffffffffffffffffffffffff16815260200190815260200160002060020160009054906101000a900460ff165b90507f7fca019a0a52664785803f352d793a992f66c4affa261b3daf127976e7ad67998282604051808373ffffffffffffffffffffffffffffffffffffffff1673ffffffffffffffffffffffffffffffffffffffff168152602001821515151581526020019250505060405180910390a180151561223a57600080fd5b600860009054906101000a900473ffffffffffffffffffffffffffffffffffffffff1673ffffffffffffffffffffffffffffffffffffffff1663be440ff56000604051602001526040518163ffffffff167c0100000000000000000000000000000000000000000000000000000000028152600401602060405180830381600087803b15156122c857600080fd5b6102c65a03f115156122d957600080fd5b5050506040518051905015156122ee57600080fd5b6000851115156123005784935061230b565b62093a808502420193505b61236a600960009054906101000a900473ffffffffffffffffffffffffffffffffffffffff166000368080601f016020809104026020016040519081016040528093929190818152602001838380828437820191505050505050613b0c565b925061237887858886613c42565b612383838789610f92565b50505050505050565b3360008060009054906101000a900473ffffffffffffffffffffffffffffffffffffffff1673ffffffffffffffffffffffffffffffffffffffff168273ffffffffffffffffffffffffffffffffffffffff161490507f7fca019a0a52664785803f352d793a992f66c4affa261b3daf127976e7ad67998282604051808373ffffffffffffffffffffffffffffffffffffffff1673ffffffffffffffffffffffffffffffffffffffff168152602001821515151581526020019250505060405180910390a180151561245c57600080fd5b6060604051908101604052808473ffffffffffffffffffffffffffffffffffffffff16815260200160016002805480600101828161249a919061447e565b9160005260206000209001600088909190916101000a81548173ffffffffffffffffffffffffffffffffffffffff021916908373ffffffffffffffffffffffffffffffffffffffff16021790555003815260200160011515815250600160008573ffffffffffffffffffffffffffffffffffffffff1673ffffffffffffffffffffffffffffffffffffffff16815260200190815260200160002060008201518160000160006101000a81548173ffffffffffffffffffffffffffffffffffffffff021916908373ffffffffffffffffffffffffffffffffffffffff1602179055506020820151816001015560408201518160020160006101000a81548160ff0219169083151502179055509050507f7fd215c956537f33ef9064c457003d82df8562a7b03e1f896c0b39c7abc8355883604051808273ffffffffffffffffffffffffffffffffffffffff1673ffffffffffffffffffffffffffffffffffffffff16815260200191505060405180910390a1505050565b600060066000836000191660001916815260200190815260200160002060020160149054906101000a900460ff169050919050565b600b8054600181600116156101000203166002900480601f0160208091040260200160405190810160405280929190818152602001828054600181600116156101000203166002900480156126db5780601f106126b0576101008083540402835291602001916126db565b820191906000526020600020905b8154815290600101906020018083116126be57829003601f168201915b505050505081565b60008060008060008060008060006126fa8b6119a1565b9550955095509550600073ffffffffffffffffffffffffffffffffffffffff168473ffffffffffffffffffffffffffffffffffffffff16141561274757600160008098509850985061283d565b821561275c578260008098509850985061283d565b8991508173ffffffffffffffffffffffffffffffffffffffff16636bcdaa33876000604051602001526040518263ffffffff167c0100000000000000000000000000000000000000000000000000000000028152600401808260001916600019168152602001915050602060405180830381600087803b15156127de57600080fd5b6102c65a03f115156127ef57600080fd5b5050506040518051905090508285600019168260001916148573ffffffffffffffffffffffffffffffffffffffff168c73ffffffffffffffffffffffffffffffffffffffff16149850985098505b5050505050509250925092565b600060036002018281548110151561285e57fe5b9060005260206000209001549050919050565b60008061287c61446a565b61288461446a565b6000809054906101000a900473ffffffffffffffffffffffffffffffffffffffff16600960009054906101000a900473ffffffffffffffffffffffffffffffffffffffff16600a600b818054600181600116156101000203166002900480601f0160208091040260200160405190810160405280929190818152602001828054600181600116156101000203166002900480156129625780601f1061293757610100808354040283529160200191612962565b820191906000526020600020905b81548152906001019060200180831161294557829003601f168201915b50505050509150808054600181600116156101000203166002900480601f0160208091040260200160405190810160405280929190818152602001828054600181600116156101000203166002900480156129fe5780601f106129d3576101008083540402835291602001916129fe565b820191906000526020600020905b8154815290600101906020018083116129e157829003601f168201915b50505050509050935093509350935090919293565b600080612a1e61440c565b3360008060009054906101000a900473ffffffffffffffffffffffffffffffffffffffff1673ffffffffffffffffffffffffffffffffffffffff168273ffffffffffffffffffffffffffffffffffffffff161480612ac85750600160008373ffffffffffffffffffffffffffffffffffffffff1673ffffffffffffffffffffffffffffffffffffffff16815260200190815260200160002060020160009054906101000a900460ff165b90507f7fca019a0a52664785803f352d793a992f66c4affa261b3daf127976e7ad67998282604051808373ffffffffffffffffffffffffffffffffffffffff1673ffffffffffffffffffffffffffffffffffffffff168152602001821515151581526020019250505060405180910390a1801515612b4557600080fd5b87612b4f81612e8c565b1515612b5a57600080fd5b73__BadgeLibrary__________________________63c1eabde98a6000604051602001526040518263ffffffff167c01000000000000000000000000000000000000000000000000000000000281526004018080602001828103825283818151815260200191508051906020019080838360005b83811015612be9578082015181840152602081019050612bce565b50505050905090810190601f168015612c165780820380516001836020036101000a031916815260200191505b509250505060206040518083038186803b1515612c3257600080fd5b6102c65a03f41515612c4357600080fd5b505050604051805190509550600160036002018054806001018281612c6891906144aa565b916000526020600020900160008990919091509060001916905503945060a0604051908101604052803073ffffffffffffffffffffffffffffffffffffffff1681526020018b81526020018a81526020018981526020018881525093508360036000016000886000191660001916815260200190815260200160002060008201518160000160006101000a81548173ffffffffffffffffffffffffffffffffffffffff021916908373ffffffffffffffffffffffffffffffffffffffff1602179055506020820151816001019080519060200190612d479291906144d6565b506040820151816002019080519060200190612d649291906144d6565b506060820151816003019080519060200190612d819291906144d6565b506080820151816004019080519060200190612d9e9291906144d6565b509050508460036001016000886000191660001916815260200190815260200160002081905550836000015173ffffffffffffffffffffffffffffffffffffffff167fde74f67f0ccaf379531f5b3884d0afb87e86192a992d99e7222390f8870a0b5385604001516040518080602001828103825283818151815260200191508051906020019080838360005b83811015612e46578082015181840152602081019050612e2b565b50505050905090810190601f168015612e735780820380516001836020036101000a031916815260200191505b509250505060405180910390a250505050505050505050565b60008073__BadgeLibrary__________________________63c1eabde9846000604051602001526040518263ffffffff167c01000000000000000000000000000000000000000000000000000000000281526004018080602001828103825283818151815260200191508051906020019080838360005b83811015612f1e578082015181840152602081019050612f03565b50505050905090810190601f168015612f4b5780820380516001836020036101000a031916815260200191505b509250505060206040518083038186803b1515612f6757600080fd5b6102c65a03f41515612f7857600080fd5b50505060405180519050905060006003600201805490501480612fde57508060001916600360020160036001016000846000191660001916815260200190815260200160002054815481101515612fcb57fe5b9060005260206000209001546000191614155b915050919050565b6000600280549050905090565b3360008060009054906101000a900473ffffffffffffffffffffffffffffffffffffffff1673ffffffffffffffffffffffffffffffffffffffff168273ffffffffffffffffffffffffffffffffffffffff16148061309d5750600160008373ffffffffffffffffffffffffffffffffffffffff1673ffffffffffffffffffffffffffffffffffffffff16815260200190815260200160002060020160009054906101000a900460ff165b90507f7fca019a0a52664785803f352d793a992f66c4affa261b3daf127976e7ad67998282604051808373ffffffffffffffffffffffffffffffffffffffff1673ffffffffffffffffffffffffffffffffffffffff168152602001821515151581526020019250505060405180910390a180151561311a57600080fd5b600060066000856000191660001916815260200190815260200160002060020160146101000a81548160ff0219169083151502179055507fd1e55fd73bb60d490f023f5239b9c0ca41f4503cca514ab5c7c8649a188afdd38360405180826000191660001916815260200191505060405180910390a1505050565b60075481565b6000806000803360008060009054906101000a900473ffffffffffffffffffffffffffffffffffffffff1673ffffffffffffffffffffffffffffffffffffffff168273ffffffffffffffffffffffffffffffffffffffff16148061324b5750600160008373ffffffffffffffffffffffffffffffffffffffff1673ffffffffffffffffffffffffffffffffffffffff16815260200190815260200160002060020160009054906101000a900460ff165b90507f7fca019a0a52664785803f352d793a992f66c4affa261b3daf127976e7ad67998282604051808373ffffffffffffffffffffffffffffffffffffffff1673ffffffffffffffffffffffffffffffffffffffff168152602001821515151581526020019250505060405180910390a18015156132c857600080fd5b73__BadgeLibrary__________________________63c1eabde9886000604051602001526040518263ffffffff167c01000000000000000000000000000000000000000000000000000000000281526004018080602001828103825283818151815260200191508051906020019080838360005b8381101561335757808201518184015260208101905061333c565b50505050905090810190601f1680156133845780820380516001836020036101000a031916815260200191505b509250505060206040518083038186803b15156133a057600080fd5b6102c65a03f415156133b157600080fd5b50505060405180519050945060036001016000866000191660001916815260200190815260200160002054935060036002016001600360020180549050038154811015156133fb57fe5b906000526020600020900154925083600360010160008560001916600019168152602001908152602001600020819055508260036002018581548110151561343f57fe5b90600052602060002090018160001916905550600360020180548091906001900361346a9190614556565b50600360000160008660001916600019168152602001908152602001600020600080820160006101000a81549073ffffffffffffffffffffffffffffffffffffffff02191690556001820160006134c19190614582565b6002820160006134d19190614582565b6003820160006134e19190614582565b6004820160006134f19190614582565b5050600360010160008660001916600019168152602001908152602001600020600090557f25011d6c52f8dd436cbad877a1e1bfa99b3fc7b3df1c4f7b68d6f6403e943a51876003600201805490506040518080602001838152602001828103825284818151815260200191508051906020019080838360005b8381101561358657808201518184015260208101905061356b565b50505050905090810190601f1680156135b35780820380516001836020036101000a031916815260200191505b50935050505060405180910390a1600195505050505050919050565b3360008060009054906101000a900473ffffffffffffffffffffffffffffffffffffffff1673ffffffffffffffffffffffffffffffffffffffff168273ffffffffffffffffffffffffffffffffffffffff1614806136795750600160008373ffffffffffffffffffffffffffffffffffffffff1673ffffffffffffffffffffffffffffffffffffffff16815260200190815260200160002060020160009054906101000a900460ff165b90507f7fca019a0a52664785803f352d793a992f66c4affa261b3daf127976e7ad67998282604051808373ffffffffffffffffffffffffffffffffffffffff1673ffffffffffffffffffffffffffffffffffffffff168152602001821515151581526020019250505060405180910390a18015156136f657600080fd5b600160066000856000191660001916815260200190815260200160002060020160146101000a81548160ff0219169083151502179055507f3cc2375f3fc7711ba27361cde93880f578742f9f050acee766bed662d117ba728360405180826000191660001916815260200191505060405180910390a1505050565b3360008060009054906101000a900473ffffffffffffffffffffffffffffffffffffffff1673ffffffffffffffffffffffffffffffffffffffff168273ffffffffffffffffffffffffffffffffffffffff161490507f7fca019a0a52664785803f352d793a992f66c4affa261b3daf127976e7ad67998282604051808373ffffffffffffffffffffffffffffffffffffffff1673ffffffffffffffffffffffffffffffffffffffff168152602001821515151581526020019250505060405180910390a180151561384157600080fd5b6000600160008573ffffffffffffffffffffffffffffffffffffffff1673ffffffffffffffffffffffffffffffffffffffff16815260200190815260200160002060020160006101000a81548160ff0219169083151502179055507f56a53756e1db2ff35a90edee9bd205b4b2bb8633ee3d6a53a5e85d5b46f0e9dc83604051808273ffffffffffffffffffffffffffffffffffffffff1673ffffffffffffffffffffffffffffffffffffffff16815260200191505060405180910390a1505050565b600061390e61446a565b600080600061391d87876126e3565b9250925092508215613994576000606060405190810160405280602681526020017f496e76616c69642063726564656e7469616c3a2063726564656e7469616c207281526020017f65766f6b6564000000000000000000000000000000000000000000000000000081525080905094509450613b02565b801515613a2b5780608060405190810160405280604581526020017f496e76616c696420726563697069656e743a20726563697069656e7420646f6581526020017f73206e6f74206d61746368206f726967696e616c207472616e73616374696f6e81526020017f206461746100000000000000000000000000000000000000000000000000000081525080905094509450613b02565b811515613ac25781608060405190810160405280605381526020017f496e76616c6964206461746120696e746567726974793a206461746120696e2081526020017f63726564656e7469616c20646f6573206e6f74206d61746368206f726967696e81526020017f616c207472616e73616374696f6e20646174610000000000000000000000000081525080905094509450613b02565b60016040805190810160405280601381526020017f43726564656e7469616c2069732076616c696400000000000000000000000000815250809050945094505b5050509250929050565b60008282600754604051808473ffffffffffffffffffffffffffffffffffffffff1673ffffffffffffffffffffffffffffffffffffffff166c0100000000000000000000000002815260140183805190602001908083835b602083101515613b895780518252602082019150602081019050602083039250613b64565b6001836020036101000a03801982511681845116808217855250505050505090500182815260200193505050506040518091039020905092915050565b6000809054906101000a900473ffffffffffffffffffffffffffffffffffffffff1681565b60016020528060005260406000206000915090508060000160009054906101000a900473ffffffffffffffffffffffffffffffffffffffff16908060010154908060020160009054906101000a900460ff16905083565b613c4a61440c565b60006003600001600073__BadgeLibrary__________________________63c1eabde9896000604051602001526040518263ffffffff167c01000000000000000000000000000000000000000000000000000000000281526004018080602001828103825283818151815260200191508051906020019080838360005b83811015613ce2578082015181840152602081019050613cc7565b50505050905090810190601f168015613d0f5780820380516001836020036101000a031916815260200191505b509250505060206040518083038186803b1515613d2b57600080fd5b6102c65a03f41515613d3c57600080fd5b505050604051805190506000191660001916815260200190815260200160002060a060405190810160405290816000820160009054906101000a900473ffffffffffffffffffffffffffffffffffffffff1673ffffffffffffffffffffffffffffffffffffffff1673ffffffffffffffffffffffffffffffffffffffff168152602001600182018054600181600116156101000203166002900480601f016020809104026020016040519081016040528092919081815260200182805460018160011615610100020316600290048015613e575780601f10613e2c57610100808354040283529160200191613e57565b820191906000526020600020905b815481529060010190602001808311613e3a57829003601f168201915b50505050508152602001600282018054600181600116156101000203166002900480601f016020809104026020016040519081016040528092919081815260200182805460018160011615610100020316600290048015613ef95780601f10613ece57610100808354040283529160200191613ef9565b820191906000526020600020905b815481529060010190602001808311613edc57829003601f168201915b50505050508152602001600382018054600181600116156101000203166002900480601f016020809104026020016040519081016040528092919081815260200182805460018160011615610100020316600290048015613f9b5780601f10613f7057610100808354040283529160200191613f9b565b820191906000526020600020905b815481529060010190602001808311613f7e57829003601f168201915b50505050508152602001600482018054600181600116156101000203166002900480601f01602080910402602001604051908101604052809291908181526020018280546001816001161561010002031660029004801561403d5780601f106140125761010080835404028352916020019161403d565b820191906000526020600020905b81548152906001019060200180831161402057829003601f168201915b5050505050815250509150600073ffffffffffffffffffffffffffffffffffffffff16826000015173ffffffffffffffffffffffffffffffffffffffff161415151561408857600080fd5b8390508073ffffffffffffffffffffffffffffffffffffffff16634e3943e7836000015184602001518560400151866060015187608001518b8b8b6040518963ffffffff167c0100000000000000000000000000000000000000000000000000000000028152600401808973ffffffffffffffffffffffffffffffffffffffff1673ffffffffffffffffffffffffffffffffffffffff168152602001806020018060200180602001806020018881526020018773ffffffffffffffffffffffffffffffffffffffff1673ffffffffffffffffffffffffffffffffffffffff168152602001866000191660001916815260200185810385528c818151815260200191508051906020019080838360005b838110156141b2578082015181840152602081019050614197565b50505050905090810190601f1680156141df5780820380516001836020036101000a031916815260200191505b5085810384528b818151815260200191508051906020019080838360005b838110156142185780820151818401526020810190506141fd565b50505050905090810190601f1680156142455780820380516001836020036101000a031916815260200191505b5085810383528a818151815260200191508051906020019080838360005b8381101561427e578082015181840152602081019050614263565b50505050905090810190601f1680156142ab5780820380516001836020036101000a031916815260200191505b50858103825289818151815260200191508051906020019080838360005b838110156142e45780820151818401526020810190506142c9565b50505050905090810190601f1680156143115780820380516001836020036101000a031916815260200191505b509c50505050505050505050505050600060405180830381600087803b151561433957600080fd5b6102c65a03f1151561434a57600080fd5b5050508373ffffffffffffffffffffffffffffffffffffffff167fba451c931e2011b181517e87b4faa9ded9887fd9fdc41479f2e4ed86c0ce300183604001516040518080602001828103825283818151815260200191508051906020019080838360005b838110156143ca5780820151818401526020810190506143af565b50505050905090810190601f1680156143f75780820380516001836020036101000a031916815260200191505b509250505060405180910390a2505050505050565b60a060405190810160405280600073ffffffffffffffffffffffffffffffffffffffff16815260200161443d6145ca565b815260200161444a6145ca565b81526020016144576145ca565b81526020016144646145ca565b81525090565b602060405190810160405280600081525090565b8154818355818115116144a5578183600052602060002091820191016144a491906145de565b5b505050565b8154818355818115116144d1578183600052602060002091820191016144d09190614603565b5b505050565b828054600181600116156101000203166002900490600052602060002090601f016020900481019282601f1061451757805160ff1916838001178555614545565b82800160010185558215614545579182015b82811115614544578251825591602001919060010190614529565b5b50905061455291906145de565b5090565b81548183558181151161457d5781836000526020600020918201910161457c9190614603565b5b505050565b50805460018160011615610100020316600290046000825580601f106145a857506145c7565b601f0160209004906000526020600020908101906145c691906145de565b5b50565b602060405190810160405280600081525090565b61460091905b808211156145fc5760008160009055506001016145e4565b5090565b90565b61462591905b80821115614621576000816000905550600101614609565b5090565b905600a165627a7a72305820e768dcff362dc2b8400d371f0137d2cbfe39f51680c4698672140261120abe130029",
  "source": "pragma solidity ^0.4.17;\n\nimport \"BadgeLibrary/contracts/BadgeLibrary.sol\";\nimport \"BadgeForceToken/contracts/BadgeForceToken.sol\";\n\nimport \"./Holder.sol\";\nimport \"./Verifier.sol\";\n\ncontract Issuer is Verifier {\n    //access the badgeforce token contract\n    BadgeForceToken private BFT;\n\n    address constant NONE = 0x0000000000000000000000000000000000000000;\n    \n    /// @notice address of this contract \n    address public issuerContract; \n\n    string public name;\n    string public url;\n    \n    \n    function Issuer(address _adminWalletAddr, string _name, string _url, address _token) public Verifier(_adminWalletAddr) {\n        name = _name;\n        url = _url;\n        issuerContract = address(this);\n        BFT = BadgeForceToken(_token);\n    }\n\n    modifier payForIssue() {\n        require(BFT.burnForIssue());\n        _;\n    }\n\n    event CredentialIssued(\n        string _badgeName,\n        address indexed _recipient\n    );\n    /// @notice issue a new credential to a recipient contract\n    /// @param _badgeName name of the badge to issue \n    /// @param _recipient address of the holder contract\n    /// @param _expires expire date (number of weeks)\n    function issue(\n        string _badgeName, \n        address _recipient, \n        uint _expires) \n    public authorized(msg.sender) payForIssue()\n    {\n        uint expires;\n        if (_expires <= 0) {\n            expires = _expires;\n        } else {\n            expires = now + (_expires * 1 weeks);\n        }\n        bytes32 _txnKey = getCredentialTxnKey(issuerContract, msg.data);\n        _sendToRecipient(\n            _badgeName, \n            expires, \n            _recipient,\n            _txnKey\n        );\n       setNewTxn(_txnKey, _recipient, _badgeName);\n    }\n    \n    /// @notice internal method that gets instance of recipient contract and stores credential\n    function _sendToRecipient(\n        string _badgeName, \n        uint expires, \n        address _recipient, \n        bytes32 _txnKey\n    ) private\n    {   \n        BadgeLibrary.Badge memory badge = badgeVault.badges[BadgeLibrary.getBadgeNameHash(_badgeName)];\n        require(badge.issuer != NONE);\n        Holder holder = Holder(_recipient);\n        holder.storeCredential(\n            badge.issuer,\n            badge.description,\n            badge.name,\n            badge.image,\n            badge.version,\n            expires,\n            _recipient, \n            _txnKey\n        );\n        CredentialIssued(\n            badge.name,\n            _recipient\n        );\n    }\n    \n    /// @notice get issuer info\n    function getInfo() public constant returns(address _issuer, address _contract, string _name, string _url) {\n        return(admin, issuerContract, name, url);\n    }\n\n}",
  "sourcePath": "/Users/khalil.claybon/Desktop/migrate-to-new-cpu/some_work/badgeforce_dev/badgeforce/contracts/Issuer.sol",
  "compiler": {
    "name": "solc",
    "version": "0.4.18+commit.9cf6e910.Emscripten.clang"
  },
  "schemaVersion": "1.0.1",
  "updatedAt": "2018-01-05T21:29:04.948Z"
}