{
  "contractName": "Issuer",
  "abi": [
    {
      "constant": false,
      "inputs": [
        {
          "name": "_txnKey",
          "type": "bytes32"
        },
        {
          "name": "_recipient",
          "type": "address"
        },
        {
          "name": "_badgeName",
          "type": "string"
        }
      ],
      "name": "setNewTxn",
      "outputs": [],
      "payable": false,
      "stateMutability": "nonpayable",
      "type": "function"
    },
    {
      "constant": true,
      "inputs": [],
      "name": "name",
      "outputs": [
        {
          "name": "",
          "type": "string"
        }
      ],
      "payable": false,
      "stateMutability": "view",
      "type": "function"
    },
    {
      "constant": true,
      "inputs": [],
      "name": "issuerContract",
      "outputs": [
        {
          "name": "",
          "type": "address"
        }
      ],
      "payable": false,
      "stateMutability": "view",
      "type": "function"
    },
    {
      "constant": true,
      "inputs": [
        {
          "name": "",
          "type": "bytes32"
        }
      ],
      "name": "credentialTxnMap",
      "outputs": [
        {
          "name": "key",
          "type": "bytes32"
        },
        {
          "name": "integrityHash",
          "type": "bytes32"
        },
        {
          "name": "recipient",
          "type": "address"
        },
        {
          "name": "revoked",
          "type": "bool"
        }
      ],
      "payable": false,
      "stateMutability": "view",
      "type": "function"
    },
    {
      "constant": true,
      "inputs": [
        {
          "name": "_txnKey",
          "type": "bytes32"
        }
      ],
      "name": "getTxn",
      "outputs": [
        {
          "name": "txnKey",
          "type": "bytes32"
        },
        {
          "name": "integrityHash",
          "type": "bytes32"
        },
        {
          "name": "recipient",
          "type": "address"
        },
        {
          "name": "revoked",
          "type": "bool"
        }
      ],
      "payable": false,
      "stateMutability": "view",
      "type": "function"
    },
    {
      "constant": true,
      "inputs": [],
      "name": "getNumberOfBadges",
      "outputs": [
        {
          "name": "count",
          "type": "uint256"
        }
      ],
      "payable": false,
      "stateMutability": "view",
      "type": "function"
    },
    {
      "constant": true,
      "inputs": [
        {
          "name": "_index",
          "type": "uint256"
        }
      ],
      "name": "getAuthorizedAccount",
      "outputs": [
        {
          "name": "_issuer",
          "type": "address"
        }
      ],
      "payable": false,
      "stateMutability": "view",
      "type": "function"
    },
    {
      "constant": false,
      "inputs": [
        {
          "name": "_badgeName",
          "type": "string"
        },
        {
          "name": "_recipient",
          "type": "address"
        },
        {
          "name": "_expires",
          "type": "uint256"
        }
      ],
      "name": "issue",
      "outputs": [],
      "payable": false,
      "stateMutability": "nonpayable",
      "type": "function"
    },
    {
      "constant": false,
      "inputs": [
        {
          "name": "_newIssuer",
          "type": "address"
        }
      ],
      "name": "authorzeAccount",
      "outputs": [],
      "payable": false,
      "stateMutability": "nonpayable",
      "type": "function"
    },
    {
      "constant": true,
      "inputs": [
        {
          "name": "_txnKey",
          "type": "bytes32"
        }
      ],
      "name": "isRevoked",
      "outputs": [
        {
          "name": "c",
          "type": "bool"
        }
      ],
      "payable": false,
      "stateMutability": "view",
      "type": "function"
    },
    {
      "constant": true,
      "inputs": [],
      "name": "url",
      "outputs": [
        {
          "name": "",
          "type": "string"
        }
      ],
      "payable": false,
      "stateMutability": "view",
      "type": "function"
    },
    {
      "constant": true,
      "inputs": [
        {
          "name": "_txnKey",
          "type": "bytes32"
        },
        {
          "name": "_recipient",
          "type": "address"
        }
      ],
      "name": "verifyCredentialTxn",
      "outputs": [
        {
          "name": "_revoked",
          "type": "bool"
        },
        {
          "name": "_integrityHashCheck",
          "type": "bool"
        },
        {
          "name": "_recipientCheck",
          "type": "bool"
        }
      ],
      "payable": false,
      "stateMutability": "view",
      "type": "function"
    },
    {
      "constant": true,
      "inputs": [
        {
          "name": "_index",
          "type": "uint256"
        }
      ],
      "name": "getNameByIndex",
      "outputs": [
        {
          "name": "_name",
          "type": "bytes32"
        }
      ],
      "payable": false,
      "stateMutability": "view",
      "type": "function"
    },
    {
      "constant": true,
      "inputs": [],
      "name": "getInfo",
      "outputs": [
        {
          "name": "_issuer",
          "type": "address"
        },
        {
          "name": "_contract",
          "type": "address"
        },
        {
          "name": "_name",
          "type": "string"
        },
        {
          "name": "_url",
          "type": "string"
        }
      ],
      "payable": false,
      "stateMutability": "view",
      "type": "function"
    },
    {
      "constant": false,
      "inputs": [
        {
          "name": "_description",
          "type": "string"
        },
        {
          "name": "_name",
          "type": "string"
        },
        {
          "name": "_image",
          "type": "string"
        },
        {
          "name": "_version",
          "type": "string"
        }
      ],
      "name": "createBadge",
      "outputs": [],
      "payable": false,
      "stateMutability": "nonpayable",
      "type": "function"
    },
    {
      "constant": true,
      "inputs": [
        {
          "name": "_name",
          "type": "string"
        }
      ],
      "name": "isUnique",
      "outputs": [
        {
          "name": "unique",
          "type": "bool"
        }
      ],
      "payable": false,
      "stateMutability": "view",
      "type": "function"
    },
    {
      "constant": true,
      "inputs": [
        {
          "name": "_badgeNameHash",
          "type": "bytes32"
        }
      ],
      "name": "getBadge",
      "outputs": [
        {
          "name": "issuer",
          "type": "address"
        },
        {
          "name": "description",
          "type": "string"
        },
        {
          "name": "bName",
          "type": "string"
        },
        {
          "name": "image",
          "type": "string"
        },
        {
          "name": "version",
          "type": "string"
        }
      ],
      "payable": false,
      "stateMutability": "view",
      "type": "function"
    },
    {
      "constant": true,
      "inputs": [],
      "name": "getNumberOfAuthorizedAccounts",
      "outputs": [
        {
          "name": "_numOfAccounts",
          "type": "uint256"
        }
      ],
      "payable": false,
      "stateMutability": "view",
      "type": "function"
    },
    {
      "constant": false,
      "inputs": [
        {
          "name": "_txnKey",
          "type": "bytes32"
        }
      ],
      "name": "unRevoke",
      "outputs": [],
      "payable": false,
      "stateMutability": "nonpayable",
      "type": "function"
    },
    {
      "constant": true,
      "inputs": [],
      "name": "nonce",
      "outputs": [
        {
          "name": "",
          "type": "uint256"
        }
      ],
      "payable": false,
      "stateMutability": "view",
      "type": "function"
    },
    {
      "constant": false,
      "inputs": [
        {
          "name": "_name",
          "type": "string"
        }
      ],
      "name": "deleteBadge",
      "outputs": [
        {
          "name": "success",
          "type": "bool"
        }
      ],
      "payable": false,
      "stateMutability": "nonpayable",
      "type": "function"
    },
    {
      "constant": false,
      "inputs": [
        {
          "name": "_txnKey",
          "type": "bytes32"
        }
      ],
      "name": "revoke",
      "outputs": [],
      "payable": false,
      "stateMutability": "nonpayable",
      "type": "function"
    },
    {
      "constant": false,
      "inputs": [
        {
          "name": "_issuer",
          "type": "address"
        }
      ],
      "name": "removeAuthorizedAccount",
      "outputs": [],
      "payable": false,
      "stateMutability": "nonpayable",
      "type": "function"
    },
    {
      "constant": true,
      "inputs": [
        {
          "name": "_txnKey",
          "type": "bytes32"
        },
        {
          "name": "_recipient",
          "type": "address"
        }
      ],
      "name": "verifyCredential",
      "outputs": [
        {
          "name": "isVerified",
          "type": "bool"
        },
        {
          "name": "errMsg",
          "type": "string"
        }
      ],
      "payable": false,
      "stateMutability": "view",
      "type": "function"
    },
    {
      "constant": true,
      "inputs": [
        {
          "name": "_issuer",
          "type": "address"
        },
        {
          "name": "_msgData",
          "type": "bytes"
        }
      ],
      "name": "getCredentialTxnKey",
      "outputs": [
        {
          "name": "key",
          "type": "bytes32"
        }
      ],
      "payable": false,
      "stateMutability": "view",
      "type": "function"
    },
    {
      "constant": true,
      "inputs": [],
      "name": "admin",
      "outputs": [
        {
          "name": "",
          "type": "address"
        }
      ],
      "payable": false,
      "stateMutability": "view",
      "type": "function"
    },
    {
      "constant": true,
      "inputs": [
        {
          "name": "",
          "type": "address"
        }
      ],
      "name": "authorizedAccountsMap",
      "outputs": [
        {
          "name": "issuer",
          "type": "address"
        },
        {
          "name": "index",
          "type": "uint256"
        },
        {
          "name": "isAuthorized",
          "type": "bool"
        }
      ],
      "payable": false,
      "stateMutability": "view",
      "type": "function"
    },
    {
      "inputs": [
        {
          "name": "_adminWalletAddr",
          "type": "address"
        },
        {
          "name": "_name",
          "type": "string"
        },
        {
          "name": "_url",
          "type": "string"
        },
        {
          "name": "_token",
          "type": "address"
        }
      ],
      "payable": false,
      "stateMutability": "nonpayable",
      "type": "constructor"
    },
    {
      "anonymous": false,
      "inputs": [
        {
          "indexed": false,
          "name": "_badgeName",
          "type": "string"
        },
        {
          "indexed": true,
          "name": "_recipient",
          "type": "address"
        }
      ],
      "name": "CredentialIssued",
      "type": "event"
    },
    {
      "anonymous": false,
      "inputs": [
        {
          "indexed": false,
          "name": "_txnKey",
          "type": "bytes32"
        }
      ],
      "name": "CredentialRevoked",
      "type": "event"
    },
    {
      "anonymous": false,
      "inputs": [
        {
          "indexed": false,
          "name": "_txnKey",
          "type": "bytes32"
        }
      ],
      "name": "CredentialUnRevoked",
      "type": "event"
    },
    {
      "anonymous": false,
      "inputs": [
        {
          "indexed": false,
          "name": "_name",
          "type": "string"
        },
        {
          "indexed": true,
          "name": "_issuer",
          "type": "address"
        }
      ],
      "name": "BadgeCreated",
      "type": "event"
    },
    {
      "anonymous": false,
      "inputs": [
        {
          "indexed": false,
          "name": "_name",
          "type": "string"
        },
        {
          "indexed": false,
          "name": "count",
          "type": "uint256"
        }
      ],
      "name": "BadgeDeleted",
      "type": "event"
    },
    {
      "anonymous": false,
      "inputs": [
        {
          "indexed": false,
          "name": "_actor",
          "type": "address"
        },
        {
          "indexed": false,
          "name": "authorized",
          "type": "bool"
        }
      ],
      "name": "AuthorizeAttempt",
      "type": "event"
    },
    {
      "anonymous": false,
      "inputs": [
        {
          "indexed": false,
          "name": "_newIssuer",
          "type": "address"
        }
      ],
      "name": "NewAccountAuthorized",
      "type": "event"
    },
    {
      "anonymous": false,
      "inputs": [
        {
          "indexed": false,
          "name": "_issuer",
          "type": "address"
        }
      ],
      "name": "AuthorizedAccountRemoved",
      "type": "event"
    }
  ],
  "bytecode": "0x606060405234156200001057600080fd5b60405162004647380380620046478339810160405280805190602001909190805182019190602001805182019190602001805190602001909190505083808080806000806101000a81548173ffffffffffffffffffffffffffffffffffffffff021916908373ffffffffffffffffffffffffffffffffffffffff16021790555050506000600781905550505082600a9080519060200190620000b49291906200015a565b5081600b9080519060200190620000cd9291906200015a565b5030600960006101000a81548173ffffffffffffffffffffffffffffffffffffffff021916908373ffffffffffffffffffffffffffffffffffffffff16021790555080600860006101000a81548173ffffffffffffffffffffffffffffffffffffffff021916908373ffffffffffffffffffffffffffffffffffffffff1602179055505050505062000209565b828054600181600116156101000203166002900490600052602060002090601f016020900481019282601f106200019d57805160ff1916838001178555620001ce565b82800160010185558215620001ce579182015b82811115620001cd578251825591602001919060010190620001b0565b5b509050620001dd9190620001e1565b5090565b6200020691905b8082111562000202576000816000905550600101620001e8565b5090565b90565b61442e80620002196000396000f30060606040526004361061015f576000357c0100000000000000000000000000000000000000000000000000000000900463ffffffff168063029a28581461016457806306fdde03146101ed5780630c43ae9c1461027b5780630decfdea146102d05780631041eb961461036057806324ddd51a146103f05780633557b6c314610419578063368a17091461047c5780633b57391a146105015780634294857f1461053a5780635600f04f146105795780635629aec91461060757806359c293f11461067b5780635a9b0b89146106ba5780635c9d3a941461081a57806372ee19a21461094057806377002fcf146109b55780637c59fda014610bcc578063a5aef15b14610bf5578063affed0e014610c1c578063b610922114610c45578063b75c7dc614610cba578063be47aa0914610ce1578063d8c0941b14610d1a578063eb92948114610de4578063f851a44014610e7c578063f9afc24214610ed1575b600080fd5b341561016f57600080fd5b6101eb60048080356000191690602001909190803573ffffffffffffffffffffffffffffffffffffffff1690602001909190803590602001908201803590602001908080601f01602080910402602001604051908101604052809392919081815260200183838082843782019150505050505091905050610f5c565b005b34156101f857600080fd5b61020061184a565b6040518080602001828103825283818151815260200191508051906020019080838360005b83811015610240578082015181840152602081019050610225565b50505050905090810190601f16801561026d5780820380516001836020036101000a031916815260200191505b509250505060405180910390f35b341561028657600080fd5b61028e6118e8565b604051808273ffffffffffffffffffffffffffffffffffffffff1673ffffffffffffffffffffffffffffffffffffffff16815260200191505060405180910390f35b34156102db57600080fd5b6102f560048080356000191690602001909190505061190e565b60405180856000191660001916815260200184600019166000191681526020018373ffffffffffffffffffffffffffffffffffffffff1673ffffffffffffffffffffffffffffffffffffffff1681526020018215151515815260200194505050505060405180910390f35b341561036b57600080fd5b61038560048080356000191690602001909190505061196b565b60405180856000191660001916815260200184600019166000191681526020018373ffffffffffffffffffffffffffffffffffffffff1673ffffffffffffffffffffffffffffffffffffffff1681526020018215151515815260200194505050505060405180910390f35b34156103fb57600080fd5b610403611a29565b6040518082815260200191505060405180910390f35b341561042457600080fd5b61043a6004808035906020019091905050611a39565b604051808273ffffffffffffffffffffffffffffffffffffffff1673ffffffffffffffffffffffffffffffffffffffff16815260200191505060405180910390f35b341561048757600080fd5b6104ff600480803590602001908201803590602001908080601f0160208091040260200160405190810160405280939291908181526020018383808284378201915050505050509190803573ffffffffffffffffffffffffffffffffffffffff16906020019091908035906020019091905050611b16565b005b341561050c57600080fd5b610538600480803573ffffffffffffffffffffffffffffffffffffffff16906020019091905050611d92565b005b341561054557600080fd5b61055f600480803560001916906020019091905050612016565b604051808215151515815260200191505060405180910390f35b341561058457600080fd5b61058c61204b565b6040518080602001828103825283818151815260200191508051906020019080838360005b838110156105cc5780820151818401526020810190506105b1565b50505050905090810190601f1680156105f95780820380516001836020036101000a031916815260200191505b509250505060405180910390f35b341561061257600080fd5b61064b60048080356000191690602001909190803573ffffffffffffffffffffffffffffffffffffffff169060200190919050506120e9565b60405180841515151581526020018315151515815260200182151515158152602001935050505060405180910390f35b341561068657600080fd5b61069c6004808035906020019091905050612250565b60405180826000191660001916815260200191505060405180910390f35b34156106c557600080fd5b6106cd612277565b604051808573ffffffffffffffffffffffffffffffffffffffff1673ffffffffffffffffffffffffffffffffffffffff1681526020018473ffffffffffffffffffffffffffffffffffffffff1673ffffffffffffffffffffffffffffffffffffffff1681526020018060200180602001838103835285818151815260200191508051906020019080838360005b8381101561077557808201518184015260208101905061075a565b50505050905090810190601f1680156107a25780820380516001836020036101000a031916815260200191505b50838103825284818151815260200191508051906020019080838360005b838110156107db5780820151818401526020810190506107c0565b50505050905090810190601f1680156108085780820380516001836020036101000a031916815260200191505b50965050505050505060405180910390f35b341561082557600080fd5b61093e600480803590602001908201803590602001908080601f0160208091040260200160405190810160405280939291908181526020018383808284378201915050505050509190803590602001908201803590602001908080601f0160208091040260200160405190810160405280939291908181526020018383808284378201915050505050509190803590602001908201803590602001908080601f0160208091040260200160405190810160405280939291908181526020018383808284378201915050505050509190803590602001908201803590602001908080601f01602080910402602001604051908101604052809392919081815260200183838082843782019150505050505091905050612419565b005b341561094b57600080fd5b61099b600480803590602001908201803590602001908080601f01602080910402602001604051908101604052809392919081815260200183838082843782019150505050505091905050612892565b604051808215151515815260200191505060405180910390f35b34156109c057600080fd5b6109da6004808035600019169060200190919050506129ec565b604051808673ffffffffffffffffffffffffffffffffffffffff1673ffffffffffffffffffffffffffffffffffffffff16815260200180602001806020018060200180602001858103855289818151815260200191508051906020019080838360005b83811015610a58578082015181840152602081019050610a3d565b50505050905090810190601f168015610a855780820380516001836020036101000a031916815260200191505b50858103845288818151815260200191508051906020019080838360005b83811015610abe578082015181840152602081019050610aa3565b50505050905090810190601f168015610aeb5780820380516001836020036101000a031916815260200191505b50858103835287818151815260200191508051906020019080838360005b83811015610b24578082015181840152602081019050610b09565b50505050905090810190601f168015610b515780820380516001836020036101000a031916815260200191505b50858103825286818151815260200191508051906020019080838360005b83811015610b8a578082015181840152602081019050610b6f565b50505050905090810190601f168015610bb75780820380516001836020036101000a031916815260200191505b50995050505050505050505060405180910390f35b3415610bd757600080fd5b610bdf612dc0565b6040518082815260200191505060405180910390f35b3415610c0057600080fd5b610c1a600480803560001916906020019091905050612dcd565b005b3415610c2757600080fd5b610c2f612f6f565b6040518082815260200191505060405180910390f35b3415610c5057600080fd5b610ca0600480803590602001908201803590602001908080601f01602080910402602001604051908101604052809392919081815260200183838082843782019150505050505091905050612f75565b604051808215151515815260200191505060405180910390f35b3415610cc557600080fd5b610cdf6004808035600019169060200190919050506133a9565b005b3415610cec57600080fd5b610d18600480803573ffffffffffffffffffffffffffffffffffffffff1690602001909190505061354b565b005b3415610d2557600080fd5b610d5e60048080356000191690602001909190803573ffffffffffffffffffffffffffffffffffffffff169060200190919050506136de565b604051808315151515815260200180602001828103825283818151815260200191508051906020019080838360005b83811015610da8578082015181840152602081019050610d8d565b50505050905090810190601f168015610dd55780820380516001836020036101000a031916815260200191505b50935050505060405180910390f35b3415610def57600080fd5b610e5e600480803573ffffffffffffffffffffffffffffffffffffffff1690602001909190803590602001908201803590602001908080601f016020809104026020016040519081016040528093929190818152602001838380828437820191505050505050919050506138e6565b60405180826000191660001916815260200191505060405180910390f35b3415610e8757600080fd5b610e8f6139a0565b604051808273ffffffffffffffffffffffffffffffffffffffff1673ffffffffffffffffffffffffffffffffffffffff16815260200191505060405180910390f35b3415610edc57600080fd5b610f08600480803573ffffffffffffffffffffffffffffffffffffffff169060200190919050506139c5565b604051808473ffffffffffffffffffffffffffffffffffffffff1673ffffffffffffffffffffffffffffffffffffffff16815260200183815260200182151515158152602001935050505060405180910390f35b6000610f666141e6565b60003360008060009054906101000a900473ffffffffffffffffffffffffffffffffffffffff1673ffffffffffffffffffffffffffffffffffffffff168273ffffffffffffffffffffffffffffffffffffffff1614806110125750600160008373ffffffffffffffffffffffffffffffffffffffff1673ffffffffffffffffffffffffffffffffffffffff16815260200190815260200160002060020160009054906101000a900460ff165b90507f7fca019a0a52664785803f352d793a992f66c4affa261b3daf127976e7ad67998282604051808373ffffffffffffffffffffffffffffffffffffffff1673ffffffffffffffffffffffffffffffffffffffff168152602001821515151581526020019250505060405180910390a180151561108f57600080fd5b60076000815480929190600101919050555073__BadgeLibrary__________________________63c1eabde9876000604051602001526040518263ffffffff167c01000000000000000000000000000000000000000000000000000000000281526004018080602001828103825283818151815260200191508051906020019080838360005b83811015611130578082015181840152602081019050611115565b50505050905090810190601f16801561115d5780820380516001836020036101000a031916815260200191505b509250505060206040518083038186803b151561117957600080fd5b6102c65a03f4151561118a57600080fd5b50505060405180519050945060036000016000866000191660001916815260200190815260200160002060a060405190810160405290816000820160009054906101000a900473ffffffffffffffffffffffffffffffffffffffff1673ffffffffffffffffffffffffffffffffffffffff1673ffffffffffffffffffffffffffffffffffffffff168152602001600182018054600181600116156101000203166002900480601f0160208091040260200160405190810160405280929190818152602001828054600181600116156101000203166002900480156112af5780601f10611284576101008083540402835291602001916112af565b820191906000526020600020905b81548152906001019060200180831161129257829003601f168201915b50505050508152602001600282018054600181600116156101000203166002900480601f0160208091040260200160405190810160405280929190818152602001828054600181600116156101000203166002900480156113515780601f1061132657610100808354040283529160200191611351565b820191906000526020600020905b81548152906001019060200180831161133457829003601f168201915b50505050508152602001600382018054600181600116156101000203166002900480601f0160208091040260200160405190810160405280929190818152602001828054600181600116156101000203166002900480156113f35780601f106113c8576101008083540402835291602001916113f3565b820191906000526020600020905b8154815290600101906020018083116113d657829003601f168201915b50505050508152602001600482018054600181600116156101000203166002900480601f0160208091040260200160405190810160405280929190818152602001828054600181600116156101000203166002900480156114955780601f1061146a57610100808354040283529160200191611495565b820191906000526020600020905b81548152906001019060200180831161147857829003601f168201915b505050505081525050935073__BadgeLibrary__________________________631ddb6af6856000015186602001518760400151886060015189608001518d6000604051602001526040518763ffffffff167c0100000000000000000000000000000000000000000000000000000000028152600401808773ffffffffffffffffffffffffffffffffffffffff1673ffffffffffffffffffffffffffffffffffffffff168152602001806020018060200180602001806020018673ffffffffffffffffffffffffffffffffffffffff1673ffffffffffffffffffffffffffffffffffffffff16815260200185810385528a818151815260200191508051906020019080838360005b838110156115b857808201518184015260208101905061159d565b50505050905090810190601f1680156115e55780820380516001836020036101000a031916815260200191505b50858103845289818151815260200191508051906020019080838360005b8381101561161e578082015181840152602081019050611603565b50505050905090810190601f16801561164b5780820380516001836020036101000a031916815260200191505b50858103835288818151815260200191508051906020019080838360005b83811015611684578082015181840152602081019050611669565b50505050905090810190601f1680156116b15780820380516001836020036101000a031916815260200191505b50858103825287818151815260200191508051906020019080838360005b838110156116ea5780820151818401526020810190506116cf565b50505050905090810190601f1680156117175780820380516001836020036101000a031916815260200191505b509a505050505050505050505060206040518083038186803b151561173b57600080fd5b6102c65a03f4151561174c57600080fd5b50505060405180519050925060806040519081016040528089600019168152602001846000191681526020018873ffffffffffffffffffffffffffffffffffffffff16815260200160001515815250600660008a60001916600019168152602001908152602001600020600082015181600001906000191690556020820151816001019060001916905560408201518160020160006101000a81548173ffffffffffffffffffffffffffffffffffffffff021916908373ffffffffffffffffffffffffffffffffffffffff16021790555060608201518160020160146101000a81548160ff0219169083151502179055509050505050505050505050565b600a8054600181600116156101000203166002900480601f0160208091040260200160405190810160405280929190818152602001828054600181600116156101000203166002900480156118e05780601f106118b5576101008083540402835291602001916118e0565b820191906000526020600020905b8154815290600101906020018083116118c357829003601f168201915b505050505081565b600960009054906101000a900473ffffffffffffffffffffffffffffffffffffffff1681565b60066020528060005260406000206000915090508060000154908060010154908060020160009054906101000a900473ffffffffffffffffffffffffffffffffffffffff16908060020160149054906101000a900460ff16905084565b600080600080600660008660001916600019168152602001908152602001600020600001546006600087600019166000191681526020019081526020016000206001015460066000886000191660001916815260200190815260200160002060020160009054906101000a900473ffffffffffffffffffffffffffffffffffffffff1660066000896000191660001916815260200190815260200160002060020160149054906101000a900460ff1693509350935093509193509193565b6000600360020180549050905090565b600060016000600284815481101515611a4e57fe5b906000526020600020900160009054906101000a900473ffffffffffffffffffffffffffffffffffffffff1673ffffffffffffffffffffffffffffffffffffffff1673ffffffffffffffffffffffffffffffffffffffff16815260200190815260200160002060020160009054906101000a900460ff1615611b0c57600282815481101515611ad957fe5b906000526020600020900160009054906101000a900473ffffffffffffffffffffffffffffffffffffffff169050611b11565b600090505b919050565b6000803360008060009054906101000a900473ffffffffffffffffffffffffffffffffffffffff1673ffffffffffffffffffffffffffffffffffffffff168273ffffffffffffffffffffffffffffffffffffffff161480611bc35750600160008373ffffffffffffffffffffffffffffffffffffffff1673ffffffffffffffffffffffffffffffffffffffff16815260200190815260200160002060020160009054906101000a900460ff165b90507f7fca019a0a52664785803f352d793a992f66c4affa261b3daf127976e7ad67998282604051808373ffffffffffffffffffffffffffffffffffffffff1673ffffffffffffffffffffffffffffffffffffffff168152602001821515151581526020019250505060405180910390a1801515611c4057600080fd5b600860009054906101000a900473ffffffffffffffffffffffffffffffffffffffff1673ffffffffffffffffffffffffffffffffffffffff1663be440ff56000604051602001526040518163ffffffff167c0100000000000000000000000000000000000000000000000000000000028152600401602060405180830381600087803b1515611cce57600080fd5b6102c65a03f11515611cdf57600080fd5b505050604051805190501515611cf457600080fd5b600085111515611d0657849350611d11565b62093a808502420193505b611d70600960009054906101000a900473ffffffffffffffffffffffffffffffffffffffff166000368080601f0160208091040260200160405190810160405280939291908181526020018383808284378201915050505050506138e6565b9250611d7e87858886613a1c565b611d89838789610f5c565b50505050505050565b3360008060009054906101000a900473ffffffffffffffffffffffffffffffffffffffff1673ffffffffffffffffffffffffffffffffffffffff168273ffffffffffffffffffffffffffffffffffffffff161490507f7fca019a0a52664785803f352d793a992f66c4affa261b3daf127976e7ad67998282604051808373ffffffffffffffffffffffffffffffffffffffff1673ffffffffffffffffffffffffffffffffffffffff168152602001821515151581526020019250505060405180910390a1801515611e6257600080fd5b6060604051908101604052808473ffffffffffffffffffffffffffffffffffffffff168152602001600160028054806001018281611ea09190614244565b9160005260206000209001600088909190916101000a81548173ffffffffffffffffffffffffffffffffffffffff021916908373ffffffffffffffffffffffffffffffffffffffff16021790555003815260200160011515815250600160008573ffffffffffffffffffffffffffffffffffffffff1673ffffffffffffffffffffffffffffffffffffffff16815260200190815260200160002060008201518160000160006101000a81548173ffffffffffffffffffffffffffffffffffffffff021916908373ffffffffffffffffffffffffffffffffffffffff1602179055506020820151816001015560408201518160020160006101000a81548160ff0219169083151502179055509050507f7fd215c956537f33ef9064c457003d82df8562a7b03e1f896c0b39c7abc8355883604051808273ffffffffffffffffffffffffffffffffffffffff1673ffffffffffffffffffffffffffffffffffffffff16815260200191505060405180910390a1505050565b600060066000836000191660001916815260200190815260200160002060020160149054906101000a900460ff169050919050565b600b8054600181600116156101000203166002900480601f0160208091040260200160405190810160405280929190818152602001828054600181600116156101000203166002900480156120e15780601f106120b6576101008083540402835291602001916120e1565b820191906000526020600020905b8154815290600101906020018083116120c457829003601f168201915b505050505081565b60008060008060008060008060006121008b61196b565b9550955095509550600073ffffffffffffffffffffffffffffffffffffffff168473ffffffffffffffffffffffffffffffffffffffff16141561214d576001600080985098509850612243565b82156121625782600080985098509850612243565b8991508173ffffffffffffffffffffffffffffffffffffffff16636bcdaa33876000604051602001526040518263ffffffff167c0100000000000000000000000000000000000000000000000000000000028152600401808260001916600019168152602001915050602060405180830381600087803b15156121e457600080fd5b6102c65a03f115156121f557600080fd5b5050506040518051905090508285600019168260001916148573ffffffffffffffffffffffffffffffffffffffff168c73ffffffffffffffffffffffffffffffffffffffff16149850985098505b5050505050509250925092565b600060036002018281548110151561226457fe5b9060005260206000209001549050919050565b600080612282614270565b61228a614270565b6000809054906101000a900473ffffffffffffffffffffffffffffffffffffffff16600960009054906101000a900473ffffffffffffffffffffffffffffffffffffffff16600a600b818054600181600116156101000203166002900480601f0160208091040260200160405190810160405280929190818152602001828054600181600116156101000203166002900480156123685780601f1061233d57610100808354040283529160200191612368565b820191906000526020600020905b81548152906001019060200180831161234b57829003601f168201915b50505050509150808054600181600116156101000203166002900480601f0160208091040260200160405190810160405280929190818152602001828054600181600116156101000203166002900480156124045780601f106123d957610100808354040283529160200191612404565b820191906000526020600020905b8154815290600101906020018083116123e757829003601f168201915b50505050509050935093509350935090919293565b6000806124246141e6565b3360008060009054906101000a900473ffffffffffffffffffffffffffffffffffffffff1673ffffffffffffffffffffffffffffffffffffffff168273ffffffffffffffffffffffffffffffffffffffff1614806124ce5750600160008373ffffffffffffffffffffffffffffffffffffffff1673ffffffffffffffffffffffffffffffffffffffff16815260200190815260200160002060020160009054906101000a900460ff165b90507f7fca019a0a52664785803f352d793a992f66c4affa261b3daf127976e7ad67998282604051808373ffffffffffffffffffffffffffffffffffffffff1673ffffffffffffffffffffffffffffffffffffffff168152602001821515151581526020019250505060405180910390a180151561254b57600080fd5b8761255581612892565b151561256057600080fd5b73__BadgeLibrary__________________________63c1eabde98a6000604051602001526040518263ffffffff167c01000000000000000000000000000000000000000000000000000000000281526004018080602001828103825283818151815260200191508051906020019080838360005b838110156125ef5780820151818401526020810190506125d4565b50505050905090810190601f16801561261c5780820380516001836020036101000a031916815260200191505b509250505060206040518083038186803b151561263857600080fd5b6102c65a03f4151561264957600080fd5b50505060405180519050955060016003600201805480600101828161266e9190614284565b916000526020600020900160008990919091509060001916905503945060a0604051908101604052803073ffffffffffffffffffffffffffffffffffffffff1681526020018b81526020018a81526020018981526020018881525093508360036000016000886000191660001916815260200190815260200160002060008201518160000160006101000a81548173ffffffffffffffffffffffffffffffffffffffff021916908373ffffffffffffffffffffffffffffffffffffffff160217905550602082015181600101908051906020019061274d9291906142b0565b50604082015181600201908051906020019061276a9291906142b0565b5060608201518160030190805190602001906127879291906142b0565b5060808201518160040190805190602001906127a49291906142b0565b509050508460036001016000886000191660001916815260200190815260200160002081905550836000015173ffffffffffffffffffffffffffffffffffffffff167fde74f67f0ccaf379531f5b3884d0afb87e86192a992d99e7222390f8870a0b5385604001516040518080602001828103825283818151815260200191508051906020019080838360005b8381101561284c578082015181840152602081019050612831565b50505050905090810190601f1680156128795780820380516001836020036101000a031916815260200191505b509250505060405180910390a250505050505050505050565b60008073__BadgeLibrary__________________________63c1eabde9846000604051602001526040518263ffffffff167c01000000000000000000000000000000000000000000000000000000000281526004018080602001828103825283818151815260200191508051906020019080838360005b83811015612924578082015181840152602081019050612909565b50505050905090810190601f1680156129515780820380516001836020036101000a031916815260200191505b509250505060206040518083038186803b151561296d57600080fd5b6102c65a03f4151561297e57600080fd5b505050604051805190509050600060036002018054905014806129e4575080600019166003600201600360010160008460001916600019168152602001908152602001600020548154811015156129d157fe5b9060005260206000209001546000191614155b915050919050565b60006129f6614270565b6129fe614270565b612a06614270565b612a0e614270565b612a166141e6565b866000600360020180549050118015612a7157508060001916600360020160036001016000846000191660001916815260200190815260200160002054815481101515612a5f57fe5b90600052602060002090015460001916145b1515612a7c57600080fd5b60036000016000896000191660001916815260200190815260200160002060a060405190810160405290816000820160009054906101000a900473ffffffffffffffffffffffffffffffffffffffff1673ffffffffffffffffffffffffffffffffffffffff1673ffffffffffffffffffffffffffffffffffffffff168152602001600182018054600181600116156101000203166002900480601f016020809104026020016040519081016040528092919081815260200182805460018160011615610100020316600290048015612b955780601f10612b6a57610100808354040283529160200191612b95565b820191906000526020600020905b815481529060010190602001808311612b7857829003601f168201915b50505050508152602001600282018054600181600116156101000203166002900480601f016020809104026020016040519081016040528092919081815260200182805460018160011615610100020316600290048015612c375780601f10612c0c57610100808354040283529160200191612c37565b820191906000526020600020905b815481529060010190602001808311612c1a57829003601f168201915b50505050508152602001600382018054600181600116156101000203166002900480601f016020809104026020016040519081016040528092919081815260200182805460018160011615610100020316600290048015612cd95780601f10612cae57610100808354040283529160200191612cd9565b820191906000526020600020905b815481529060010190602001808311612cbc57829003601f168201915b50505050508152602001600482018054600181600116156101000203166002900480601f016020809104026020016040519081016040528092919081815260200182805460018160011615610100020316600290048015612d7b5780601f10612d5057610100808354040283529160200191612d7b565b820191906000526020600020905b815481529060010190602001808311612d5e57829003601f168201915b50505050508152505091508160000151826020015183604001518460600151856080015183935082925081915080905096509650965096509650505091939590929450565b6000600280549050905090565b3360008060009054906101000a900473ffffffffffffffffffffffffffffffffffffffff1673ffffffffffffffffffffffffffffffffffffffff168273ffffffffffffffffffffffffffffffffffffffff161480612e775750600160008373ffffffffffffffffffffffffffffffffffffffff1673ffffffffffffffffffffffffffffffffffffffff16815260200190815260200160002060020160009054906101000a900460ff165b90507f7fca019a0a52664785803f352d793a992f66c4affa261b3daf127976e7ad67998282604051808373ffffffffffffffffffffffffffffffffffffffff1673ffffffffffffffffffffffffffffffffffffffff168152602001821515151581526020019250505060405180910390a1801515612ef457600080fd5b600060066000856000191660001916815260200190815260200160002060020160146101000a81548160ff0219169083151502179055507fd1e55fd73bb60d490f023f5239b9c0ca41f4503cca514ab5c7c8649a188afdd38360405180826000191660001916815260200191505060405180910390a1505050565b60075481565b6000806000803360008060009054906101000a900473ffffffffffffffffffffffffffffffffffffffff1673ffffffffffffffffffffffffffffffffffffffff168273ffffffffffffffffffffffffffffffffffffffff1614806130255750600160008373ffffffffffffffffffffffffffffffffffffffff1673ffffffffffffffffffffffffffffffffffffffff16815260200190815260200160002060020160009054906101000a900460ff165b90507f7fca019a0a52664785803f352d793a992f66c4affa261b3daf127976e7ad67998282604051808373ffffffffffffffffffffffffffffffffffffffff1673ffffffffffffffffffffffffffffffffffffffff168152602001821515151581526020019250505060405180910390a18015156130a257600080fd5b73__BadgeLibrary__________________________63c1eabde9886000604051602001526040518263ffffffff167c01000000000000000000000000000000000000000000000000000000000281526004018080602001828103825283818151815260200191508051906020019080838360005b83811015613131578082015181840152602081019050613116565b50505050905090810190601f16801561315e5780820380516001836020036101000a031916815260200191505b509250505060206040518083038186803b151561317a57600080fd5b6102c65a03f4151561318b57600080fd5b50505060405180519050945060036001016000866000191660001916815260200190815260200160002054935060036002016001600360020180549050038154811015156131d557fe5b906000526020600020900154925083600360010160008560001916600019168152602001908152602001600020819055508260036002018581548110151561321957fe5b9060005260206000209001816000191690555060036002018054809190600190036132449190614330565b50600360000160008660001916600019168152602001908152602001600020600080820160006101000a81549073ffffffffffffffffffffffffffffffffffffffff021916905560018201600061329b919061435c565b6002820160006132ab919061435c565b6003820160006132bb919061435c565b6004820160006132cb919061435c565b5050600360010160008660001916600019168152602001908152602001600020600090557f25011d6c52f8dd436cbad877a1e1bfa99b3fc7b3df1c4f7b68d6f6403e943a51876003600201805490506040518080602001838152602001828103825284818151815260200191508051906020019080838360005b83811015613360578082015181840152602081019050613345565b50505050905090810190601f16801561338d5780820380516001836020036101000a031916815260200191505b50935050505060405180910390a1600195505050505050919050565b3360008060009054906101000a900473ffffffffffffffffffffffffffffffffffffffff1673ffffffffffffffffffffffffffffffffffffffff168273ffffffffffffffffffffffffffffffffffffffff1614806134535750600160008373ffffffffffffffffffffffffffffffffffffffff1673ffffffffffffffffffffffffffffffffffffffff16815260200190815260200160002060020160009054906101000a900460ff165b90507f7fca019a0a52664785803f352d793a992f66c4affa261b3daf127976e7ad67998282604051808373ffffffffffffffffffffffffffffffffffffffff1673ffffffffffffffffffffffffffffffffffffffff168152602001821515151581526020019250505060405180910390a18015156134d057600080fd5b600160066000856000191660001916815260200190815260200160002060020160146101000a81548160ff0219169083151502179055507f3cc2375f3fc7711ba27361cde93880f578742f9f050acee766bed662d117ba728360405180826000191660001916815260200191505060405180910390a1505050565b3360008060009054906101000a900473ffffffffffffffffffffffffffffffffffffffff1673ffffffffffffffffffffffffffffffffffffffff168273ffffffffffffffffffffffffffffffffffffffff161490507f7fca019a0a52664785803f352d793a992f66c4affa261b3daf127976e7ad67998282604051808373ffffffffffffffffffffffffffffffffffffffff1673ffffffffffffffffffffffffffffffffffffffff168152602001821515151581526020019250505060405180910390a180151561361b57600080fd5b6000600160008573ffffffffffffffffffffffffffffffffffffffff1673ffffffffffffffffffffffffffffffffffffffff16815260200190815260200160002060020160006101000a81548160ff0219169083151502179055507f56a53756e1db2ff35a90edee9bd205b4b2bb8633ee3d6a53a5e85d5b46f0e9dc83604051808273ffffffffffffffffffffffffffffffffffffffff1673ffffffffffffffffffffffffffffffffffffffff16815260200191505060405180910390a1505050565b60006136e8614270565b60008060006136f787876120e9565b925092509250821561376e576000606060405190810160405280602681526020017f496e76616c69642063726564656e7469616c3a2063726564656e7469616c207281526020017f65766f6b65640000000000000000000000000000000000000000000000000000815250809050945094506138dc565b8015156138055780608060405190810160405280604581526020017f496e76616c696420726563697069656e743a20726563697069656e7420646f6581526020017f73206e6f74206d61746368206f726967696e616c207472616e73616374696f6e81526020017f2064617461000000000000000000000000000000000000000000000000000000815250809050945094506138dc565b81151561389c5781608060405190810160405280605381526020017f496e76616c6964206461746120696e746567726974793a206461746120696e2081526020017f63726564656e7469616c20646f6573206e6f74206d61746368206f726967696e81526020017f616c207472616e73616374696f6e206461746100000000000000000000000000815250809050945094506138dc565b60016040805190810160405280601381526020017f43726564656e7469616c2069732076616c696400000000000000000000000000815250809050945094505b5050509250929050565b60008282600754604051808473ffffffffffffffffffffffffffffffffffffffff1673ffffffffffffffffffffffffffffffffffffffff166c0100000000000000000000000002815260140183805190602001908083835b602083101515613963578051825260208201915060208101905060208303925061393e565b6001836020036101000a03801982511681845116808217855250505050505090500182815260200193505050506040518091039020905092915050565b6000809054906101000a900473ffffffffffffffffffffffffffffffffffffffff1681565b60016020528060005260406000206000915090508060000160009054906101000a900473ffffffffffffffffffffffffffffffffffffffff16908060010154908060020160009054906101000a900460ff16905083565b613a246141e6565b60006003600001600073__BadgeLibrary__________________________63c1eabde9896000604051602001526040518263ffffffff167c01000000000000000000000000000000000000000000000000000000000281526004018080602001828103825283818151815260200191508051906020019080838360005b83811015613abc578082015181840152602081019050613aa1565b50505050905090810190601f168015613ae95780820380516001836020036101000a031916815260200191505b509250505060206040518083038186803b1515613b0557600080fd5b6102c65a03f41515613b1657600080fd5b505050604051805190506000191660001916815260200190815260200160002060a060405190810160405290816000820160009054906101000a900473ffffffffffffffffffffffffffffffffffffffff1673ffffffffffffffffffffffffffffffffffffffff1673ffffffffffffffffffffffffffffffffffffffff168152602001600182018054600181600116156101000203166002900480601f016020809104026020016040519081016040528092919081815260200182805460018160011615610100020316600290048015613c315780601f10613c0657610100808354040283529160200191613c31565b820191906000526020600020905b815481529060010190602001808311613c1457829003601f168201915b50505050508152602001600282018054600181600116156101000203166002900480601f016020809104026020016040519081016040528092919081815260200182805460018160011615610100020316600290048015613cd35780601f10613ca857610100808354040283529160200191613cd3565b820191906000526020600020905b815481529060010190602001808311613cb657829003601f168201915b50505050508152602001600382018054600181600116156101000203166002900480601f016020809104026020016040519081016040528092919081815260200182805460018160011615610100020316600290048015613d755780601f10613d4a57610100808354040283529160200191613d75565b820191906000526020600020905b815481529060010190602001808311613d5857829003601f168201915b50505050508152602001600482018054600181600116156101000203166002900480601f016020809104026020016040519081016040528092919081815260200182805460018160011615610100020316600290048015613e175780601f10613dec57610100808354040283529160200191613e17565b820191906000526020600020905b815481529060010190602001808311613dfa57829003601f168201915b5050505050815250509150600073ffffffffffffffffffffffffffffffffffffffff16826000015173ffffffffffffffffffffffffffffffffffffffff1614151515613e6257600080fd5b8390508073ffffffffffffffffffffffffffffffffffffffff16634e3943e7836000015184602001518560400151866060015187608001518b8b8b6040518963ffffffff167c0100000000000000000000000000000000000000000000000000000000028152600401808973ffffffffffffffffffffffffffffffffffffffff1673ffffffffffffffffffffffffffffffffffffffff168152602001806020018060200180602001806020018881526020018773ffffffffffffffffffffffffffffffffffffffff1673ffffffffffffffffffffffffffffffffffffffff168152602001866000191660001916815260200185810385528c818151815260200191508051906020019080838360005b83811015613f8c578082015181840152602081019050613f71565b50505050905090810190601f168015613fb95780820380516001836020036101000a031916815260200191505b5085810384528b818151815260200191508051906020019080838360005b83811015613ff2578082015181840152602081019050613fd7565b50505050905090810190601f16801561401f5780820380516001836020036101000a031916815260200191505b5085810383528a818151815260200191508051906020019080838360005b8381101561405857808201518184015260208101905061403d565b50505050905090810190601f1680156140855780820380516001836020036101000a031916815260200191505b50858103825289818151815260200191508051906020019080838360005b838110156140be5780820151818401526020810190506140a3565b50505050905090810190601f1680156140eb5780820380516001836020036101000a031916815260200191505b509c50505050505050505050505050600060405180830381600087803b151561411357600080fd5b6102c65a03f1151561412457600080fd5b5050508373ffffffffffffffffffffffffffffffffffffffff167fba451c931e2011b181517e87b4faa9ded9887fd9fdc41479f2e4ed86c0ce300183604001516040518080602001828103825283818151815260200191508051906020019080838360005b838110156141a4578082015181840152602081019050614189565b50505050905090810190601f1680156141d15780820380516001836020036101000a031916815260200191505b509250505060405180910390a2505050505050565b60a060405190810160405280600073ffffffffffffffffffffffffffffffffffffffff1681526020016142176143a4565b81526020016142246143a4565b81526020016142316143a4565b815260200161423e6143a4565b81525090565b81548183558181151161426b5781836000526020600020918201910161426a91906143b8565b5b505050565b602060405190810160405280600081525090565b8154818355818115116142ab578183600052602060002091820191016142aa91906143dd565b5b505050565b828054600181600116156101000203166002900490600052602060002090601f016020900481019282601f106142f157805160ff191683800117855561431f565b8280016001018555821561431f579182015b8281111561431e578251825591602001919060010190614303565b5b50905061432c91906143b8565b5090565b8154818355818115116143575781836000526020600020918201910161435691906143dd565b5b505050565b50805460018160011615610100020316600290046000825580601f1061438257506143a1565b601f0160209004906000526020600020908101906143a091906143b8565b5b50565b602060405190810160405280600081525090565b6143da91905b808211156143d65760008160009055506001016143be565b5090565b90565b6143ff91905b808211156143fb5760008160009055506001016143e3565b5090565b905600a165627a7a72305820ec9398e859ecf218bf3262405c2fbd471a60c869a3e9fe9095602b3ac9117ebb0029",
  "source": "pragma solidity ^0.4.17;\n\nimport \"BadgeLibrary/contracts/BadgeLibrary.sol\";\nimport \"BadgeForceToken/contracts/BadgeForceToken.sol\";\n\nimport \"./Holder.sol\";\nimport \"./Verifier.sol\";\n\ncontract Issuer is Verifier {\n    //access the badgeforce token contract\n    BadgeForceToken private BFT;\n\n    address constant NONE = 0x0000000000000000000000000000000000000000;\n    \n    /// @notice address of this contract \n    address public issuerContract; \n\n    string public name;\n    string public url;\n    \n    \n    function Issuer(address _adminWalletAddr, string _name, string _url, address _token) public Verifier(_adminWalletAddr) {\n        name = _name;\n        url = _url;\n        issuerContract = address(this);\n        BFT = BadgeForceToken(_token);\n    }\n\n    modifier payForIssue() {\n        require(BFT.burnForIssue());\n        _;\n    }\n\n    event CredentialIssued(\n        string _badgeName,\n        address indexed _recipient\n    );\n    /// @notice issue a new credential to a recipient contract\n    /// @param _badgeName name of the badge to issue \n    /// @param _recipient address of the holder contract\n    /// @param _expires expire date (number of weeks)\n    function issue(\n        string _badgeName, \n        address _recipient, \n        uint _expires) \n    public authorized(msg.sender) payForIssue()\n    {\n        uint expires;\n        if (_expires <= 0) {\n            expires = _expires;\n        } else {\n            expires = now + (_expires * 1 weeks);\n        }\n        bytes32 _txnKey = getCredentialTxnKey(issuerContract, msg.data);\n        _sendToRecipient(\n            _badgeName, \n            expires, \n            _recipient,\n            _txnKey\n        );\n       setNewTxn(_txnKey, _recipient, _badgeName);\n    }\n    \n    /// @notice internal method that gets instance of recipient contract and stores credential\n    function _sendToRecipient(\n        string _badgeName, \n        uint expires, \n        address _recipient, \n        bytes32 _txnKey\n    ) private\n    {   \n        BadgeLibrary.Badge memory badge = badgeVault.badges[BadgeLibrary.getBadgeNameHash(_badgeName)];\n        require(badge.issuer != NONE);\n        Holder holder = Holder(_recipient);\n        holder.storeCredential(\n            badge.issuer,\n            badge.description,\n            badge.name,\n            badge.image,\n            badge.version,\n            expires,\n            _recipient, \n            _txnKey\n        );\n        CredentialIssued(\n            badge.name,\n            _recipient\n        );\n    }\n    \n    /// @notice get issuer info\n    function getInfo() public constant returns(address _issuer, address _contract, string _name, string _url) {\n        return(admin, issuerContract, name, url);\n    }\n\n}",
  "sourcePath": "/home/kc1116/Desktop/badgeforce_development/badgeforce/contracts/Issuer.sol",
  "compiler": {
    "name": "solc",
    "version": "0.4.18+commit.9cf6e910.Emscripten.clang"
  },
  "schemaVersion": "1.0.1",
  "updatedAt": "2018-01-12T07:35:13.892Z"
}