{
  "contractName": "Issuer",
  "abi": [
    {
      "constant": true,
      "inputs": [],
      "name": "name",
      "outputs": [
        {
          "name": "",
          "type": "string"
        }
      ],
      "payable": false,
      "stateMutability": "view",
      "type": "function"
    },
    {
      "constant": true,
      "inputs": [],
      "name": "issuerContract",
      "outputs": [
        {
          "name": "",
          "type": "address"
        }
      ],
      "payable": false,
      "stateMutability": "view",
      "type": "function"
    },
    {
      "constant": true,
      "inputs": [],
      "name": "getNumberOfBadges",
      "outputs": [
        {
          "name": "count",
          "type": "uint256"
        }
      ],
      "payable": false,
      "stateMutability": "view",
      "type": "function"
    },
    {
      "constant": true,
      "inputs": [
        {
          "name": "_name",
          "type": "string"
        }
      ],
      "name": "getBadge",
      "outputs": [
        {
          "name": "issuer",
          "type": "address"
        },
        {
          "name": "description",
          "type": "string"
        },
        {
          "name": "bName",
          "type": "string"
        },
        {
          "name": "image",
          "type": "string"
        },
        {
          "name": "version",
          "type": "string"
        }
      ],
      "payable": false,
      "stateMutability": "view",
      "type": "function"
    },
    {
      "constant": false,
      "inputs": [
        {
          "name": "_index",
          "type": "uint256"
        }
      ],
      "name": "getAuthorizedAccount",
      "outputs": [
        {
          "name": "_issuer",
          "type": "address"
        }
      ],
      "payable": false,
      "stateMutability": "nonpayable",
      "type": "function"
    },
    {
      "constant": false,
      "inputs": [
        {
          "name": "_badgeName",
          "type": "string"
        },
        {
          "name": "_recipient",
          "type": "address"
        },
        {
          "name": "_expires",
          "type": "uint256"
        }
      ],
      "name": "issue",
      "outputs": [],
      "payable": false,
      "stateMutability": "nonpayable",
      "type": "function"
    },
    {
      "constant": false,
      "inputs": [
        {
          "name": "_newIssuer",
          "type": "address"
        }
      ],
      "name": "authorzeAccount",
      "outputs": [],
      "payable": false,
      "stateMutability": "nonpayable",
      "type": "function"
    },
    {
      "constant": true,
      "inputs": [
        {
          "name": "_key",
          "type": "bytes32"
        }
      ],
      "name": "isRevoked",
      "outputs": [
        {
          "name": "c",
          "type": "bool"
        }
      ],
      "payable": false,
      "stateMutability": "view",
      "type": "function"
    },
    {
      "constant": true,
      "inputs": [
        {
          "name": "_txtKey",
          "type": "bytes32"
        }
      ],
      "name": "getTransaction",
      "outputs": [
        {
          "name": "txtKey",
          "type": "bytes32"
        },
        {
          "name": "integrityHash",
          "type": "bytes32"
        },
        {
          "name": "recipient",
          "type": "address"
        }
      ],
      "payable": false,
      "stateMutability": "view",
      "type": "function"
    },
    {
      "constant": true,
      "inputs": [],
      "name": "url",
      "outputs": [
        {
          "name": "",
          "type": "string"
        }
      ],
      "payable": false,
      "stateMutability": "view",
      "type": "function"
    },
    {
      "constant": true,
      "inputs": [
        {
          "name": "_index",
          "type": "uint256"
        }
      ],
      "name": "getNameByIndex",
      "outputs": [
        {
          "name": "_name",
          "type": "bytes32"
        }
      ],
      "payable": false,
      "stateMutability": "view",
      "type": "function"
    },
    {
      "constant": true,
      "inputs": [],
      "name": "getInfo",
      "outputs": [
        {
          "name": "_issuer",
          "type": "address"
        },
        {
          "name": "_contract",
          "type": "address"
        },
        {
          "name": "_name",
          "type": "string"
        },
        {
          "name": "_url",
          "type": "string"
        }
      ],
      "payable": false,
      "stateMutability": "view",
      "type": "function"
    },
    {
      "constant": false,
      "inputs": [
        {
          "name": "_description",
          "type": "string"
        },
        {
          "name": "_name",
          "type": "string"
        },
        {
          "name": "_image",
          "type": "string"
        },
        {
          "name": "_version",
          "type": "string"
        }
      ],
      "name": "createBadge",
      "outputs": [],
      "payable": false,
      "stateMutability": "nonpayable",
      "type": "function"
    },
    {
      "constant": true,
      "inputs": [
        {
          "name": "_name",
          "type": "string"
        }
      ],
      "name": "isUnique",
      "outputs": [
        {
          "name": "unique",
          "type": "bool"
        }
      ],
      "payable": false,
      "stateMutability": "view",
      "type": "function"
    },
    {
      "constant": false,
      "inputs": [],
      "name": "getNumberOfAuthorizedAccounts",
      "outputs": [
        {
          "name": "_numOfAccounts",
          "type": "uint256"
        }
      ],
      "payable": false,
      "stateMutability": "nonpayable",
      "type": "function"
    },
    {
      "constant": true,
      "inputs": [
        {
          "name": "",
          "type": "bytes32"
        }
      ],
      "name": "revokationMap",
      "outputs": [
        {
          "name": "",
          "type": "bool"
        }
      ],
      "payable": false,
      "stateMutability": "view",
      "type": "function"
    },
    {
      "constant": false,
      "inputs": [
        {
          "name": "_txKey",
          "type": "bytes32"
        }
      ],
      "name": "unRevoke",
      "outputs": [],
      "payable": false,
      "stateMutability": "nonpayable",
      "type": "function"
    },
    {
      "constant": false,
      "inputs": [
        {
          "name": "_name",
          "type": "string"
        }
      ],
      "name": "deleteBadge",
      "outputs": [
        {
          "name": "success",
          "type": "bool"
        }
      ],
      "payable": false,
      "stateMutability": "nonpayable",
      "type": "function"
    },
    {
      "constant": false,
      "inputs": [
        {
          "name": "_txKey",
          "type": "bytes32"
        }
      ],
      "name": "revoke",
      "outputs": [],
      "payable": false,
      "stateMutability": "nonpayable",
      "type": "function"
    },
    {
      "constant": false,
      "inputs": [
        {
          "name": "_issuer",
          "type": "address"
        }
      ],
      "name": "removeAuthorizedAccount",
      "outputs": [],
      "payable": false,
      "stateMutability": "nonpayable",
      "type": "function"
    },
    {
      "constant": true,
      "inputs": [
        {
          "name": "",
          "type": "bytes32"
        }
      ],
      "name": "credentialTxtMap",
      "outputs": [
        {
          "name": "key",
          "type": "bytes32"
        },
        {
          "name": "integrityHash",
          "type": "bytes32"
        },
        {
          "name": "recipient",
          "type": "address"
        }
      ],
      "payable": false,
      "stateMutability": "view",
      "type": "function"
    },
    {
      "constant": true,
      "inputs": [],
      "name": "admin",
      "outputs": [
        {
          "name": "",
          "type": "address"
        }
      ],
      "payable": false,
      "stateMutability": "view",
      "type": "function"
    },
    {
      "constant": true,
      "inputs": [
        {
          "name": "",
          "type": "address"
        }
      ],
      "name": "authorizedAccountsMap",
      "outputs": [
        {
          "name": "issuer",
          "type": "address"
        },
        {
          "name": "index",
          "type": "uint256"
        },
        {
          "name": "isAuthorized",
          "type": "bool"
        }
      ],
      "payable": false,
      "stateMutability": "view",
      "type": "function"
    },
    {
      "inputs": [
        {
          "name": "_issuer",
          "type": "address"
        },
        {
          "name": "_name",
          "type": "string"
        },
        {
          "name": "_url",
          "type": "string"
        },
        {
          "name": "_token",
          "type": "address"
        },
        {
          "name": "_verifier",
          "type": "address"
        }
      ],
      "payable": false,
      "stateMutability": "nonpayable",
      "type": "constructor"
    },
    {
      "anonymous": false,
      "inputs": [
        {
          "indexed": false,
          "name": "_actor",
          "type": "address"
        },
        {
          "indexed": false,
          "name": "authorized",
          "type": "bool"
        }
      ],
      "name": "AuthorizeAttempt",
      "type": "event"
    },
    {
      "anonymous": false,
      "inputs": [
        {
          "indexed": false,
          "name": "_name",
          "type": "string"
        },
        {
          "indexed": true,
          "name": "_issuer",
          "type": "address"
        }
      ],
      "name": "BadgeCreated",
      "type": "event"
    },
    {
      "anonymous": false,
      "inputs": [
        {
          "indexed": false,
          "name": "_badgeName",
          "type": "string"
        },
        {
          "indexed": true,
          "name": "_recipient",
          "type": "address"
        }
      ],
      "name": "CredentialIssued",
      "type": "event"
    },
    {
      "anonymous": false,
      "inputs": [
        {
          "indexed": false,
          "name": "_txKey",
          "type": "bytes32"
        }
      ],
      "name": "CredentialRevoked",
      "type": "event"
    },
    {
      "anonymous": false,
      "inputs": [
        {
          "indexed": false,
          "name": "_txKey",
          "type": "bytes32"
        }
      ],
      "name": "CredentialUnRevoked",
      "type": "event"
    },
    {
      "anonymous": false,
      "inputs": [
        {
          "indexed": false,
          "name": "_newIssuer",
          "type": "address"
        }
      ],
      "name": "NewAccountAuthorized",
      "type": "event"
    },
    {
      "anonymous": false,
      "inputs": [
        {
          "indexed": false,
          "name": "_issuer",
          "type": "address"
        }
      ],
      "name": "AuthorizedAccountRemoved",
      "type": "event"
    },
    {
      "anonymous": false,
      "inputs": [
        {
          "indexed": false,
          "name": "_name",
          "type": "string"
        },
        {
          "indexed": false,
          "name": "count",
          "type": "uint256"
        }
      ],
      "name": "BadgeDeleted",
      "type": "event"
    }
  ],
  "bytecode": "0x60606040526000600a5534156200001557600080fd5b6040516200410f3803806200410f8339810160405280805190602001909190805182019190602001805182019190602001805190602001909190805190602001909190505084600260006101000a81548173ffffffffffffffffffffffffffffffffffffffff021916908373ffffffffffffffffffffffffffffffffffffffff1602179055508360069080519060200190620000b3929190620001a2565b508260079080519060200190620000cc929190620001a2565b5030600560006101000a81548173ffffffffffffffffffffffffffffffffffffffff021916908373ffffffffffffffffffffffffffffffffffffffff1602179055506000600a81905550816000806101000a81548173ffffffffffffffffffffffffffffffffffffffff021916908373ffffffffffffffffffffffffffffffffffffffff16021790555080600160006101000a81548173ffffffffffffffffffffffffffffffffffffffff021916908373ffffffffffffffffffffffffffffffffffffffff160217905550505050505062000251565b828054600181600116156101000203166002900490600052602060002090601f016020900481019282601f10620001e557805160ff191683800117855562000216565b8280016001018555821562000216579182015b8281111562000215578251825591602001919060010190620001f8565b5b50905062000225919062000229565b5090565b6200024e91905b808211156200024a57600081600090555060010162000230565b5090565b90565b613eae80620002616000396000f300606060405260043610610133576000357c0100000000000000000000000000000000000000000000000000000000900463ffffffff16806306fdde03146101385780630c43ae9c146101c657806324ddd51a1461021b5780632d902fe7146102445780633557b6c314610491578063368a1709146104f45780633b57391a146105795780634294857f146105b25780634aae13ca146105f15780635600f04f1461067657806359c293f1146107045780635a9b0b89146107435780635c9d3a94146108a357806372ee19a2146109c95780637c59fda014610a3e5780637eb80b3314610a67578063a5aef15b14610aa6578063b610922114610acd578063b75c7dc614610b42578063be47aa0914610b69578063ea590dbc14610ba2578063f851a44014610c27578063f9afc24214610c7c575b600080fd5b341561014357600080fd5b61014b610d07565b6040518080602001828103825283818151815260200191508051906020019080838360005b8381101561018b578082015181840152602081019050610170565b50505050905090810190601f1680156101b85780820380516001836020036101000a031916815260200191505b509250505060405180910390f35b34156101d157600080fd5b6101d9610da5565b604051808273ffffffffffffffffffffffffffffffffffffffff1673ffffffffffffffffffffffffffffffffffffffff16815260200191505060405180910390f35b341561022657600080fd5b61022e610dcb565b6040518082815260200191505060405180910390f35b341561024f57600080fd5b61029f600480803590602001908201803590602001908080601f01602080910402602001604051908101604052809392919081815260200183838082843782019150505050505091905050610ddb565b604051808673ffffffffffffffffffffffffffffffffffffffff1673ffffffffffffffffffffffffffffffffffffffff16815260200180602001806020018060200180602001858103855289818151815260200191508051906020019080838360005b8381101561031d578082015181840152602081019050610302565b50505050905090810190601f16801561034a5780820380516001836020036101000a031916815260200191505b50858103845288818151815260200191508051906020019080838360005b83811015610383578082015181840152602081019050610368565b50505050905090810190601f1680156103b05780820380516001836020036101000a031916815260200191505b50858103835287818151815260200191508051906020019080838360005b838110156103e95780820151818401526020810190506103ce565b50505050905090810190601f1680156104165780820380516001836020036101000a031916815260200191505b50858103825286818151815260200191508051906020019080838360005b8381101561044f578082015181840152602081019050610434565b50505050905090810190601f16801561047c5780820380516001836020036101000a031916815260200191505b50995050505050505050505060405180910390f35b341561049c57600080fd5b6104b2600480803590602001909190505061139f565b604051808273ffffffffffffffffffffffffffffffffffffffff1673ffffffffffffffffffffffffffffffffffffffff16815260200191505060405180910390f35b34156104ff57600080fd5b610577600480803590602001908201803590602001908080601f0160208091040260200160405190810160405280939291908181526020018383808284378201915050505050509190803573ffffffffffffffffffffffffffffffffffffffff1690602001909190803590602001909190505061147c565b005b341561058457600080fd5b6105b0600480803573ffffffffffffffffffffffffffffffffffffffff169060200190919050506116f0565b005b34156105bd57600080fd5b6105d7600480803560001916906020019091905050611975565b604051808215151515815260200191505060405180910390f35b34156105fc57600080fd5b6106166004808035600019169060200190919050506119a7565b60405180846000191660001916815260200183600019166000191681526020018273ffffffffffffffffffffffffffffffffffffffff1673ffffffffffffffffffffffffffffffffffffffff168152602001935050505060405180910390f35b341561068157600080fd5b610689611a74565b6040518080602001828103825283818151815260200191508051906020019080838360005b838110156106c95780820151818401526020810190506106ae565b50505050905090810190601f1680156106f65780820380516001836020036101000a031916815260200191505b509250505060405180910390f35b341561070f57600080fd5b6107256004808035906020019091905050611b12565b60405180826000191660001916815260200191505060405180910390f35b341561074e57600080fd5b610756611b39565b604051808573ffffffffffffffffffffffffffffffffffffffff1673ffffffffffffffffffffffffffffffffffffffff1681526020018473ffffffffffffffffffffffffffffffffffffffff1673ffffffffffffffffffffffffffffffffffffffff1681526020018060200180602001838103835285818151815260200191508051906020019080838360005b838110156107fe5780820151818401526020810190506107e3565b50505050905090810190601f16801561082b5780820380516001836020036101000a031916815260200191505b50838103825284818151815260200191508051906020019080838360005b83811015610864578082015181840152602081019050610849565b50505050905090810190601f1680156108915780820380516001836020036101000a031916815260200191505b50965050505050505060405180910390f35b34156108ae57600080fd5b6109c7600480803590602001908201803590602001908080601f0160208091040260200160405190810160405280939291908181526020018383808284378201915050505050509190803590602001908201803590602001908080601f0160208091040260200160405190810160405280939291908181526020018383808284378201915050505050509190803590602001908201803590602001908080601f0160208091040260200160405190810160405280939291908181526020018383808284378201915050505050509190803590602001908201803590602001908080601f01602080910402602001604051908101604052809392919081815260200183838082843782019150505050505091905050611cdc565b005b34156109d457600080fd5b610a24600480803590602001908201803590602001908080601f01602080910402602001604051908101604052809392919081815260200183838082843782019150505050505091905050612156565b604051808215151515815260200191505060405180910390f35b3415610a4957600080fd5b610a516122b0565b6040518082815260200191505060405180910390f35b3415610a7257600080fd5b610a8c6004808035600019169060200190919050506122bd565b604051808215151515815260200191505060405180910390f35b3415610ab157600080fd5b610acb6004808035600019169060200190919050506122dd565b005b3415610ad857600080fd5b610b28600480803590602001908201803590602001908080601f0160208091040260200160405190810160405280939291908181526020018383808284378201915050505050509190505061247d565b604051808215151515815260200191505060405180910390f35b3415610b4d57600080fd5b610b676004808035600019169060200190919050506128b2565b005b3415610b7457600080fd5b610ba0600480803573ffffffffffffffffffffffffffffffffffffffff16906020019091905050612a52565b005b3415610bad57600080fd5b610bc7600480803560001916906020019091905050612be6565b60405180846000191660001916815260200183600019166000191681526020018273ffffffffffffffffffffffffffffffffffffffff1673ffffffffffffffffffffffffffffffffffffffff168152602001935050505060405180910390f35b3415610c3257600080fd5b610c3a612c30565b604051808273ffffffffffffffffffffffffffffffffffffffff1673ffffffffffffffffffffffffffffffffffffffff16815260200191505060405180910390f35b3415610c8757600080fd5b610cb3600480803573ffffffffffffffffffffffffffffffffffffffff16906020019091905050612c56565b604051808473ffffffffffffffffffffffffffffffffffffffff1673ffffffffffffffffffffffffffffffffffffffff16815260200183815260200182151515158152602001935050505060405180910390f35b60068054600181600116156101000203166002900480601f016020809104026020016040519081016040528092919081815260200182805460018160011615610100020316600290048015610d9d5780601f10610d7257610100808354040283529160200191610d9d565b820191906000526020600020905b815481529060010190602001808311610d8057829003601f168201915b505050505081565b600560009054906101000a900473ffffffffffffffffffffffffffffffffffffffff1681565b6000600b60020180549050905090565b6000610de5613c28565b610ded613c28565b610df5613c28565b610dfd613c28565b6000610e07613c3c565b87600073__BadgeLibrary__________________________63c1eabde9836000604051602001526040518263ffffffff167c01000000000000000000000000000000000000000000000000000000000281526004018080602001828103825283818151815260200191508051906020019080838360005b83811015610e99578082015181840152602081019050610e7e565b50505050905090810190601f168015610ec65780820380516001836020036101000a031916815260200191505b509250505060206040518083038186803b1515610ee257600080fd5b6102c65a03f41515610ef357600080fd5b5050506040518051905090506000600b60020180549050118015610f5957508060001916600b600201600b6001016000846000191660001916815260200190815260200160002054815481101515610f4757fe5b90600052602060002090015460001916145b1515610f6457600080fd5b73__BadgeLibrary__________________________63c1eabde98b6000604051602001526040518263ffffffff167c01000000000000000000000000000000000000000000000000000000000281526004018080602001828103825283818151815260200191508051906020019080838360005b83811015610ff3578082015181840152602081019050610fd8565b50505050905090810190601f1680156110205780820380516001836020036101000a031916815260200191505b509250505060206040518083038186803b151561103c57600080fd5b6102c65a03f4151561104d57600080fd5b505050604051805190509350600b6000016000856000191660001916815260200190815260200160002060a060405190810160405290816000820160009054906101000a900473ffffffffffffffffffffffffffffffffffffffff1673ffffffffffffffffffffffffffffffffffffffff1673ffffffffffffffffffffffffffffffffffffffff168152602001600182018054600181600116156101000203166002900480601f0160208091040260200160405190810160405280929190818152602001828054600181600116156101000203166002900480156111725780601f1061114757610100808354040283529160200191611172565b820191906000526020600020905b81548152906001019060200180831161115557829003601f168201915b50505050508152602001600282018054600181600116156101000203166002900480601f0160208091040260200160405190810160405280929190818152602001828054600181600116156101000203166002900480156112145780601f106111e957610100808354040283529160200191611214565b820191906000526020600020905b8154815290600101906020018083116111f757829003601f168201915b50505050508152602001600382018054600181600116156101000203166002900480601f0160208091040260200160405190810160405280929190818152602001828054600181600116156101000203166002900480156112b65780601f1061128b576101008083540402835291602001916112b6565b820191906000526020600020905b81548152906001019060200180831161129957829003601f168201915b50505050508152602001600482018054600181600116156101000203166002900480601f0160208091040260200160405190810160405280929190818152602001828054600181600116156101000203166002900480156113585780601f1061132d57610100808354040283529160200191611358565b820191906000526020600020905b81548152906001019060200180831161133b57829003601f168201915b505050505081525050925082600001518360200151846040015185606001518660800151839350829250819150809050985098509850985098505050505091939590929450565b6000600360006004848154811015156113b457fe5b906000526020600020900160009054906101000a900473ffffffffffffffffffffffffffffffffffffffff1673ffffffffffffffffffffffffffffffffffffffff1673ffffffffffffffffffffffffffffffffffffffff16815260200190815260200160002060020160009054906101000a900460ff16156114725760048281548110151561143f57fe5b906000526020600020900160009054906101000a900473ffffffffffffffffffffffffffffffffffffffff169050611477565b600090505b919050565b600080336000600260009054906101000a900473ffffffffffffffffffffffffffffffffffffffff1673ffffffffffffffffffffffffffffffffffffffff168273ffffffffffffffffffffffffffffffffffffffff16148061152a5750600360008373ffffffffffffffffffffffffffffffffffffffff1673ffffffffffffffffffffffffffffffffffffffff16815260200190815260200160002060020160009054906101000a900460ff165b90507f7fca019a0a52664785803f352d793a992f66c4affa261b3daf127976e7ad67998282604051808373ffffffffffffffffffffffffffffffffffffffff1673ffffffffffffffffffffffffffffffffffffffff168152602001821515151581526020019250505060405180910390a18015156115a757600080fd5b6000851115156115b9578493506115c4565b62093a808502420193505b73__VerifierLibrary_______________________63334abb0b600560009054906101000a900473ffffffffffffffffffffffffffffffffffffffff16600036600a546000604051602001526040518563ffffffff167c0100000000000000000000000000000000000000000000000000000000028152600401808573ffffffffffffffffffffffffffffffffffffffff1673ffffffffffffffffffffffffffffffffffffffff16815260200180602001838152602001828103825285858281815260200192508082843782019150509550505050505060206040518083038186803b15156116b257600080fd5b6102c65a03f415156116c357600080fd5b5050506040518051905092506116db87858886612cad565b6116e783878987613477565b50505050505050565b336000600260009054906101000a900473ffffffffffffffffffffffffffffffffffffffff1673ffffffffffffffffffffffffffffffffffffffff168273ffffffffffffffffffffffffffffffffffffffff161490507f7fca019a0a52664785803f352d793a992f66c4affa261b3daf127976e7ad67998282604051808373ffffffffffffffffffffffffffffffffffffffff1673ffffffffffffffffffffffffffffffffffffffff168152602001821515151581526020019250505060405180910390a18015156117c157600080fd5b6060604051908101604052808473ffffffffffffffffffffffffffffffffffffffff1681526020016001600480548060010182816117ff9190613c9a565b9160005260206000209001600088909190916101000a81548173ffffffffffffffffffffffffffffffffffffffff021916908373ffffffffffffffffffffffffffffffffffffffff16021790555003815260200160011515815250600360008573ffffffffffffffffffffffffffffffffffffffff1673ffffffffffffffffffffffffffffffffffffffff16815260200190815260200160002060008201518160000160006101000a81548173ffffffffffffffffffffffffffffffffffffffff021916908373ffffffffffffffffffffffffffffffffffffffff1602179055506020820151816001015560408201518160020160006101000a81548160ff0219169083151502179055509050507f7fd215c956537f33ef9064c457003d82df8562a7b03e1f896c0b39c7abc8355883604051808273ffffffffffffffffffffffffffffffffffffffff1673ffffffffffffffffffffffffffffffffffffffff16815260200191505060405180910390a1505050565b600060096000836000191660001916815260200190815260200160002060009054906101000a900460ff169050919050565b60008060006119b4613cc6565b600860008660001916600019168152602001908152602001600020606060405190810160405290816000820154600019166000191681526020016001820154600019166000191681526020016002820160009054906101000a900473ffffffffffffffffffffffffffffffffffffffff1673ffffffffffffffffffffffffffffffffffffffff1673ffffffffffffffffffffffffffffffffffffffff16815250509050806000015181602001518260400151935093509350509193909250565b60078054600181600116156101000203166002900480601f016020809104026020016040519081016040528092919081815260200182805460018160011615610100020316600290048015611b0a5780601f10611adf57610100808354040283529160200191611b0a565b820191906000526020600020905b815481529060010190602001808311611aed57829003601f168201915b505050505081565b6000600b60020182815481101515611b2657fe5b9060005260206000209001549050919050565b600080611b44613c28565b611b4c613c28565b600260009054906101000a900473ffffffffffffffffffffffffffffffffffffffff16600560009054906101000a900473ffffffffffffffffffffffffffffffffffffffff1660066007818054600181600116156101000203166002900480601f016020809104026020016040519081016040528092919081815260200182805460018160011615610100020316600290048015611c2b5780601f10611c0057610100808354040283529160200191611c2b565b820191906000526020600020905b815481529060010190602001808311611c0e57829003601f168201915b50505050509150808054600181600116156101000203166002900480601f016020809104026020016040519081016040528092919081815260200182805460018160011615610100020316600290048015611cc75780601f10611c9c57610100808354040283529160200191611cc7565b820191906000526020600020905b815481529060010190602001808311611caa57829003601f168201915b50505050509050935093509350935090919293565b600080611ce7613c3c565b336000600260009054906101000a900473ffffffffffffffffffffffffffffffffffffffff1673ffffffffffffffffffffffffffffffffffffffff168273ffffffffffffffffffffffffffffffffffffffff161480611d925750600360008373ffffffffffffffffffffffffffffffffffffffff1673ffffffffffffffffffffffffffffffffffffffff16815260200190815260200160002060020160009054906101000a900460ff165b90507f7fca019a0a52664785803f352d793a992f66c4affa261b3daf127976e7ad67998282604051808373ffffffffffffffffffffffffffffffffffffffff1673ffffffffffffffffffffffffffffffffffffffff168152602001821515151581526020019250505060405180910390a1801515611e0f57600080fd5b87611e1981612156565b1515611e2457600080fd5b73__BadgeLibrary__________________________63c1eabde98a6000604051602001526040518263ffffffff167c01000000000000000000000000000000000000000000000000000000000281526004018080602001828103825283818151815260200191508051906020019080838360005b83811015611eb3578082015181840152602081019050611e98565b50505050905090810190601f168015611ee05780820380516001836020036101000a031916815260200191505b509250505060206040518083038186803b1515611efc57600080fd5b6102c65a03f41515611f0d57600080fd5b5050506040518051905095506001600b6002018054806001018281611f329190613d04565b916000526020600020900160008990919091509060001916905503945060a0604051908101604052803073ffffffffffffffffffffffffffffffffffffffff1681526020018b81526020018a815260200189815260200188815250935083600b6000016000886000191660001916815260200190815260200160002060008201518160000160006101000a81548173ffffffffffffffffffffffffffffffffffffffff021916908373ffffffffffffffffffffffffffffffffffffffff1602179055506020820151816001019080519060200190612011929190613d30565b50604082015181600201908051906020019061202e929190613d30565b50606082015181600301908051906020019061204b929190613d30565b506080820151816004019080519060200190612068929190613d30565b5090505084600b6001016000886000191660001916815260200190815260200160002081905550836000015173ffffffffffffffffffffffffffffffffffffffff167fde74f67f0ccaf379531f5b3884d0afb87e86192a992d99e7222390f8870a0b5385604001516040518080602001828103825283818151815260200191508051906020019080838360005b838110156121105780820151818401526020810190506120f5565b50505050905090810190601f16801561213d5780820380516001836020036101000a031916815260200191505b509250505060405180910390a250505050505050505050565b60008073__BadgeLibrary__________________________63c1eabde9846000604051602001526040518263ffffffff167c01000000000000000000000000000000000000000000000000000000000281526004018080602001828103825283818151815260200191508051906020019080838360005b838110156121e85780820151818401526020810190506121cd565b50505050905090810190601f1680156122155780820380516001836020036101000a031916815260200191505b509250505060206040518083038186803b151561223157600080fd5b6102c65a03f4151561224257600080fd5b5050506040518051905090506000600b6002018054905014806122a857508060001916600b600201600b600101600084600019166000191681526020019081526020016000205481548110151561229557fe5b9060005260206000209001546000191614155b915050919050565b6000600480549050905090565b60096020528060005260406000206000915054906101000a900460ff1681565b336000600260009054906101000a900473ffffffffffffffffffffffffffffffffffffffff1673ffffffffffffffffffffffffffffffffffffffff168273ffffffffffffffffffffffffffffffffffffffff1614806123885750600360008373ffffffffffffffffffffffffffffffffffffffff1673ffffffffffffffffffffffffffffffffffffffff16815260200190815260200160002060020160009054906101000a900460ff165b90507f7fca019a0a52664785803f352d793a992f66c4affa261b3daf127976e7ad67998282604051808373ffffffffffffffffffffffffffffffffffffffff1673ffffffffffffffffffffffffffffffffffffffff168152602001821515151581526020019250505060405180910390a180151561240557600080fd5b600060096000856000191660001916815260200190815260200160002060006101000a81548160ff0219169083151502179055507fd1e55fd73bb60d490f023f5239b9c0ca41f4503cca514ab5c7c8649a188afdd38360405180826000191660001916815260200191505060405180910390a1505050565b600080600080336000600260009054906101000a900473ffffffffffffffffffffffffffffffffffffffff1673ffffffffffffffffffffffffffffffffffffffff168273ffffffffffffffffffffffffffffffffffffffff16148061252e5750600360008373ffffffffffffffffffffffffffffffffffffffff1673ffffffffffffffffffffffffffffffffffffffff16815260200190815260200160002060020160009054906101000a900460ff165b90507f7fca019a0a52664785803f352d793a992f66c4affa261b3daf127976e7ad67998282604051808373ffffffffffffffffffffffffffffffffffffffff1673ffffffffffffffffffffffffffffffffffffffff168152602001821515151581526020019250505060405180910390a18015156125ab57600080fd5b73__BadgeLibrary__________________________63c1eabde9886000604051602001526040518263ffffffff167c01000000000000000000000000000000000000000000000000000000000281526004018080602001828103825283818151815260200191508051906020019080838360005b8381101561263a57808201518184015260208101905061261f565b50505050905090810190601f1680156126675780820380516001836020036101000a031916815260200191505b509250505060206040518083038186803b151561268357600080fd5b6102c65a03f4151561269457600080fd5b505050604051805190509450600b60010160008660001916600019168152602001908152602001600020549350600b6002016001600b60020180549050038154811015156126de57fe5b906000526020600020900154925083600b600101600085600019166000191681526020019081526020016000208190555082600b6002018581548110151561272257fe5b90600052602060002090018160001916905550600b60020180548091906001900361274d9190613db0565b50600b60000160008660001916600019168152602001908152602001600020600080820160006101000a81549073ffffffffffffffffffffffffffffffffffffffff02191690556001820160006127a49190613ddc565b6002820160006127b49190613ddc565b6003820160006127c49190613ddc565b6004820160006127d49190613ddc565b5050600b60010160008660001916600019168152602001908152602001600020600090557f25011d6c52f8dd436cbad877a1e1bfa99b3fc7b3df1c4f7b68d6f6403e943a5187600b600201805490506040518080602001838152602001828103825284818151815260200191508051906020019080838360005b8381101561286957808201518184015260208101905061284e565b50505050905090810190601f1680156128965780820380516001836020036101000a031916815260200191505b50935050505060405180910390a1600195505050505050919050565b336000600260009054906101000a900473ffffffffffffffffffffffffffffffffffffffff1673ffffffffffffffffffffffffffffffffffffffff168273ffffffffffffffffffffffffffffffffffffffff16148061295d5750600360008373ffffffffffffffffffffffffffffffffffffffff1673ffffffffffffffffffffffffffffffffffffffff16815260200190815260200160002060020160009054906101000a900460ff165b90507f7fca019a0a52664785803f352d793a992f66c4affa261b3daf127976e7ad67998282604051808373ffffffffffffffffffffffffffffffffffffffff1673ffffffffffffffffffffffffffffffffffffffff168152602001821515151581526020019250505060405180910390a18015156129da57600080fd5b600160096000856000191660001916815260200190815260200160002060006101000a81548160ff0219169083151502179055507f3cc2375f3fc7711ba27361cde93880f578742f9f050acee766bed662d117ba728360405180826000191660001916815260200191505060405180910390a1505050565b336000600260009054906101000a900473ffffffffffffffffffffffffffffffffffffffff1673ffffffffffffffffffffffffffffffffffffffff168273ffffffffffffffffffffffffffffffffffffffff161490507f7fca019a0a52664785803f352d793a992f66c4affa261b3daf127976e7ad67998282604051808373ffffffffffffffffffffffffffffffffffffffff1673ffffffffffffffffffffffffffffffffffffffff168152602001821515151581526020019250505060405180910390a1801515612b2357600080fd5b6000600360008573ffffffffffffffffffffffffffffffffffffffff1673ffffffffffffffffffffffffffffffffffffffff16815260200190815260200160002060020160006101000a81548160ff0219169083151502179055507f56a53756e1db2ff35a90edee9bd205b4b2bb8633ee3d6a53a5e85d5b46f0e9dc83604051808273ffffffffffffffffffffffffffffffffffffffff1673ffffffffffffffffffffffffffffffffffffffff16815260200191505060405180910390a1505050565b60086020528060005260406000206000915090508060000154908060010154908060020160009054906101000a900473ffffffffffffffffffffffffffffffffffffffff16905083565b600260009054906101000a900473ffffffffffffffffffffffffffffffffffffffff1681565b60036020528060005260406000206000915090508060000160009054906101000a900473ffffffffffffffffffffffffffffffffffffffff16908060010154908060020160009054906101000a900460ff16905083565b612cb5613c3c565b6000600b600001600073__BadgeLibrary__________________________63c1eabde9896000604051602001526040518263ffffffff167c01000000000000000000000000000000000000000000000000000000000281526004018080602001828103825283818151815260200191508051906020019080838360005b83811015612d4d578082015181840152602081019050612d32565b50505050905090810190601f168015612d7a5780820380516001836020036101000a031916815260200191505b509250505060206040518083038186803b1515612d9657600080fd5b6102c65a03f41515612da757600080fd5b505050604051805190506000191660001916815260200190815260200160002060a060405190810160405290816000820160009054906101000a900473ffffffffffffffffffffffffffffffffffffffff1673ffffffffffffffffffffffffffffffffffffffff1673ffffffffffffffffffffffffffffffffffffffff168152602001600182018054600181600116156101000203166002900480601f016020809104026020016040519081016040528092919081815260200182805460018160011615610100020316600290048015612ec25780601f10612e9757610100808354040283529160200191612ec2565b820191906000526020600020905b815481529060010190602001808311612ea557829003601f168201915b50505050508152602001600282018054600181600116156101000203166002900480601f016020809104026020016040519081016040528092919081815260200182805460018160011615610100020316600290048015612f645780601f10612f3957610100808354040283529160200191612f64565b820191906000526020600020905b815481529060010190602001808311612f4757829003601f168201915b50505050508152602001600382018054600181600116156101000203166002900480601f0160208091040260200160405190810160405280929190818152602001828054600181600116156101000203166002900480156130065780601f10612fdb57610100808354040283529160200191613006565b820191906000526020600020905b815481529060010190602001808311612fe957829003601f168201915b50505050508152602001600482018054600181600116156101000203166002900480601f0160208091040260200160405190810160405280929190818152602001828054600181600116156101000203166002900480156130a85780601f1061307d576101008083540402835291602001916130a8565b820191906000526020600020905b81548152906001019060200180831161308b57829003601f168201915b5050505050815250509150600073ffffffffffffffffffffffffffffffffffffffff16826000015173ffffffffffffffffffffffffffffffffffffffff16141515156130f357600080fd5b8390508073ffffffffffffffffffffffffffffffffffffffff16634e3943e7836000015184602001518560400151866060015187608001518b8b8b6040518963ffffffff167c0100000000000000000000000000000000000000000000000000000000028152600401808973ffffffffffffffffffffffffffffffffffffffff1673ffffffffffffffffffffffffffffffffffffffff168152602001806020018060200180602001806020018881526020018773ffffffffffffffffffffffffffffffffffffffff1673ffffffffffffffffffffffffffffffffffffffff168152602001866000191660001916815260200185810385528c818151815260200191508051906020019080838360005b8381101561321d578082015181840152602081019050613202565b50505050905090810190601f16801561324a5780820380516001836020036101000a031916815260200191505b5085810384528b818151815260200191508051906020019080838360005b83811015613283578082015181840152602081019050613268565b50505050905090810190601f1680156132b05780820380516001836020036101000a031916815260200191505b5085810383528a818151815260200191508051906020019080838360005b838110156132e95780820151818401526020810190506132ce565b50505050905090810190601f1680156133165780820380516001836020036101000a031916815260200191505b50858103825289818151815260200191508051906020019080838360005b8381101561334f578082015181840152602081019050613334565b50505050905090810190601f16801561337c5780820380516001836020036101000a031916815260200191505b509c50505050505050505050505050600060405180830381600087803b15156133a457600080fd5b6102c65a03f115156133b557600080fd5b5050508373ffffffffffffffffffffffffffffffffffffffff167fba451c931e2011b181517e87b4faa9ded9887fd9fdc41479f2e4ed86c0ce300183604001516040518080602001828103825283818151815260200191508051906020019080838360005b8381101561343557808201518184015260208101905061341a565b50505050905090810190601f1680156134625780820380516001836020036101000a031916815260200191505b509250505060405180910390a2505050505050565b6000613481613c3c565b600061348b613cc6565b600a6000815480929190600101919050555073__BadgeLibrary__________________________63c1eabde9876000604051602001526040518263ffffffff167c01000000000000000000000000000000000000000000000000000000000281526004018080602001828103825283818151815260200191508051906020019080838360005b8381101561352c578082015181840152602081019050613511565b50505050905090810190601f1680156135595780820380516001836020036101000a031916815260200191505b509250505060206040518083038186803b151561357557600080fd5b6102c65a03f4151561358657600080fd5b505050604051805190509350600b6000016000856000191660001916815260200190815260200160002060a060405190810160405290816000820160009054906101000a900473ffffffffffffffffffffffffffffffffffffffff1673ffffffffffffffffffffffffffffffffffffffff1673ffffffffffffffffffffffffffffffffffffffff168152602001600182018054600181600116156101000203166002900480601f0160208091040260200160405190810160405280929190818152602001828054600181600116156101000203166002900480156136ab5780601f10613680576101008083540402835291602001916136ab565b820191906000526020600020905b81548152906001019060200180831161368e57829003601f168201915b50505050508152602001600282018054600181600116156101000203166002900480601f01602080910402602001604051908101604052809291908181526020018280546001816001161561010002031660029004801561374d5780601f106137225761010080835404028352916020019161374d565b820191906000526020600020905b81548152906001019060200180831161373057829003601f168201915b50505050508152602001600382018054600181600116156101000203166002900480601f0160208091040260200160405190810160405280929190818152602001828054600181600116156101000203166002900480156137ef5780601f106137c4576101008083540402835291602001916137ef565b820191906000526020600020905b8154815290600101906020018083116137d257829003601f168201915b50505050508152602001600482018054600181600116156101000203166002900480601f0160208091040260200160405190810160405280929190818152602001828054600181600116156101000203166002900480156138915780601f1061386657610100808354040283529160200191613891565b820191906000526020600020905b81548152906001019060200180831161387457829003601f168201915b505050505081525050925073__VerifierLibrary_______________________638d803783846000015185602001518660400151876060015188608001518b8e6000604051602001526040518863ffffffff167c0100000000000000000000000000000000000000000000000000000000028152600401808873ffffffffffffffffffffffffffffffffffffffff1673ffffffffffffffffffffffffffffffffffffffff168152602001806020018060200180602001806020018781526020018673ffffffffffffffffffffffffffffffffffffffff1673ffffffffffffffffffffffffffffffffffffffff16815260200185810385528b818151815260200191508051906020019080838360005b838110156139bb5780820151818401526020810190506139a0565b50505050905090810190601f1680156139e85780820380516001836020036101000a031916815260200191505b5085810384528a818151815260200191508051906020019080838360005b83811015613a21578082015181840152602081019050613a06565b50505050905090810190601f168015613a4e5780820380516001836020036101000a031916815260200191505b50858103835289818151815260200191508051906020019080838360005b83811015613a87578082015181840152602081019050613a6c565b50505050905090810190601f168015613ab45780820380516001836020036101000a031916815260200191505b50858103825288818151815260200191508051906020019080838360005b83811015613aed578082015181840152602081019050613ad2565b50505050905090810190601f168015613b1a5780820380516001836020036101000a031916815260200191505b509b50505050505050505050505060206040518083038186803b1515613b3f57600080fd5b6102c65a03f41515613b5057600080fd5b50505060405180519050915060606040519081016040528089600019168152602001836000191681526020018873ffffffffffffffffffffffffffffffffffffffff16815250905080600860008a60001916600019168152602001908152602001600020600082015181600001906000191690556020820151816001019060001916905560408201518160020160006101000a81548173ffffffffffffffffffffffffffffffffffffffff021916908373ffffffffffffffffffffffffffffffffffffffff1602179055509050505050505050505050565b602060405190810160405280600081525090565b60a060405190810160405280600073ffffffffffffffffffffffffffffffffffffffff168152602001613c6d613e24565b8152602001613c7a613e24565b8152602001613c87613e24565b8152602001613c94613e24565b81525090565b815481835581811511613cc157818360005260206000209182019101613cc09190613e38565b5b505050565b6060604051908101604052806000801916815260200160008019168152602001600073ffffffffffffffffffffffffffffffffffffffff1681525090565b815481835581811511613d2b57818360005260206000209182019101613d2a9190613e5d565b5b505050565b828054600181600116156101000203166002900490600052602060002090601f016020900481019282601f10613d7157805160ff1916838001178555613d9f565b82800160010185558215613d9f579182015b82811115613d9e578251825591602001919060010190613d83565b5b509050613dac9190613e38565b5090565b815481835581811511613dd757818360005260206000209182019101613dd69190613e5d565b5b505050565b50805460018160011615610100020316600290046000825580601f10613e025750613e21565b601f016020900490600052602060002090810190613e209190613e38565b5b50565b602060405190810160405280600081525090565b613e5a91905b80821115613e56576000816000905550600101613e3e565b5090565b90565b613e7f91905b80821115613e7b576000816000905550600101613e63565b5090565b905600a165627a7a723058202573754e67f6e22d5b0f650f04cf9bd4ff6f35ca04f3ebe2b4058b96e8cd18530029",
  "source": "pragma solidity ^0.4.15;\n\nimport \"BadgeLibrary/contracts/BadgeLibrary.sol\";\nimport \"BadgeLibrary/contracts/VerifierInterface.sol\";\nimport \"BadgeLibrary/contracts/VerifierLibrary.sol\";\nimport \"BadgeForceToken/contracts/BadgeForceToken.sol\";\n\nimport \"./IssuerInterface.sol\";\nimport \"./HolderInterface.sol\";\n\n\ncontract Issuer is IssuerInterface {\n    //access the badgeforce token contract\n    BadgeForceToken private BFT;\n\n    // badgeforce verifier v1\n    VerifierInterface verifier;\n\n    address constant NONE = 0x0000000000000000000000000000000000000000;\n    /// @notice the god account for this contract\n    address public admin;\n\n    struct AuthorizedAccount {\n        address issuer;\n        uint index;\n        bool isAuthorized;\n    }\n    /// @notice authorized issuers on this contract\n    mapping (address=>AuthorizedAccount) public authorizedAccountsMap;\n    /// @notice list of authorized acounts\n    address[] authorizedAccountsList;\n\n    /// @notice address of this contract \n    address public issuerContract; \n\n    string public name;\n    string public url;\n    \n    /// @notice mapping of badgename hash to badge\n    /// @notice array of badge hash names\n    struct Vault {\n        mapping (bytes32=>BadgeLibrary.Badge) badges;\n        mapping (bytes32=>uint) indexMap;\n        bytes32[] badgeHashNames;\n    }\n\n    struct IssueTransaction {\n        bytes32 key; \n        bytes32 integrityHash;\n        address recipient;\n    }\n\n    /// @notice mapping of a unique hash to a recipient address, used to verify issuer of a credential \n    mapping (bytes32=>IssueTransaction) public credentialTxtMap;\n    mapping (bytes32=>bool) public revokationMap;\n    uint private nonce = 0;\n\n    /// @notice storage for earnable badges \n    Vault badgeVault;\n\n    function Issuer(address _issuer, string _name, string _url, address _token, address _verifier) {\n        admin = _issuer;\n        name = _name;\n        url = _url;\n        issuerContract = address(this);\n        nonce = 0;\n        BFT = BadgeForceToken(_token);\n        verifier = VerifierInterface(_verifier);\n    }\n\n    event AuthorizeAttempt(address _actor, bool authorized);\n    /// @notice make sure caller is the issuer that owns this contract because badgeforce tokens will be used \n    modifier authorized(address _issuer) {\n        bool isAuthorized = (_issuer == admin || authorizedAccountsMap[_issuer].isAuthorized);\n        AuthorizeAttempt(_issuer, isAuthorized);\n        require(isAuthorized);\n        _;\n    }\n    \n    /// @notice make sure caller is the admin of this contract\n    modifier onlyAdmin(address _issuer) {\n        bool isAuthorized = (_issuer == admin);\n        AuthorizeAttempt(_issuer, isAuthorized);\n        require(isAuthorized);\n        _;\n    }\n   \n    /// @notice makes sure badge is unique\n    modifier uniqueBadge(string _name) {\n        require(isUnique(_name));\n        _;\n    }\n\n    function isUnique(string _name) public constant returns(bool unique) {\n        bytes32 badgeNameHash = BadgeLibrary.getBadgeNameHash(_name);\n        return (badgeVault.badgeHashNames.length == 0 || badgeVault.badgeHashNames[badgeVault.indexMap[badgeNameHash]] != badgeNameHash);\n    }\n\n    /// @notice checks if a badge exists by name\n    modifier badgeExists(string _name) {\n        bytes32 badgeNameHash = BadgeLibrary.getBadgeNameHash(_name);\n        require(badgeVault.badgeHashNames.length > 0 && badgeVault.badgeHashNames[badgeVault.indexMap[badgeNameHash]] == badgeNameHash);\n        _;\n    }\n\n    event BadgeCreated(\n        string _name,\n        address indexed _issuer\n    ); \n    /// @notice create a new badge store it in the badging map \n    /// @param _description Description of the badge \n    /// @param _name name of the badge\n    /// @param _image badge image\n    /// @param _version badge version\n    function createBadge(\n        string _description, \n        string _name,\n        string _image,\n        string _version)     \n        authorized(msg.sender) uniqueBadge(_name) public\n        {   \n        bytes32 badgeNameHash = BadgeLibrary.getBadgeNameHash(_name);\n        uint index = badgeVault.badgeHashNames.push(badgeNameHash)-1;\n        BadgeLibrary.Badge memory badge = BadgeLibrary.Badge(\n            address(this), \n            _description, \n            _name,\n            _image, \n            _version\n        );\n        badgeVault.badges[badgeNameHash] = badge;\n        badgeVault.indexMap[badgeNameHash] = index;\n        BadgeCreated(badge.name, badge.issuer);\n    }\n\n    event CredentialIssued(\n        string _badgeName,\n        address indexed _recipient\n    );\n    /// @notice issue a new credential to a recipient contract\n    /// @param _badgeName name of the badge to issue \n    /// @param _recipient address of the holder contract\n    /// @param _expires expire date (number of weeks)\n    function issue(\n        string _badgeName, \n        address _recipient, \n        uint _expires) \n    public authorized(msg.sender)\n    {\n        uint expires;\n        if (_expires <= 0) {\n            expires = _expires;\n        } else {\n            expires = now + (_expires * 1 weeks);\n        }\n        bytes32 _txtKey = VerifierLibrary.getCredentialTxKey(issuerContract, msg.data, nonce);\n        _sendToRecipient(\n            _badgeName, \n            expires, \n            _recipient, \n            _txtKey\n        );\n       _setNewTxt(_txtKey, _recipient, _badgeName, expires);\n    }\n    \n    event CredentialRevoked(bytes32 _txKey);\n    /// @notice revoke a credential\n    function revoke(bytes32 _txKey) public authorized(msg.sender) {\n        revokationMap[_txKey] = true;\n        CredentialRevoked(_txKey);\n    }\n\n    event CredentialUnRevoked(bytes32 _txKey);\n    /// @notice unrevoke a credential\n    function unRevoke(bytes32 _txKey) public authorized(msg.sender) {\n        revokationMap[_txKey] = false;\n        CredentialUnRevoked(_txKey);\n    }\n\n    event NewAccountAuthorized(address _newIssuer);\n    /// @notice add a new account that will be able to issue credentials from this contract\n    function authorzeAccount(address _newIssuer) public onlyAdmin(msg.sender) {\n        authorizedAccountsMap[_newIssuer] = AuthorizedAccount(_newIssuer, authorizedAccountsList.push(_newIssuer)-1, true);\n        NewAccountAuthorized(_newIssuer);\n    }\n\n    event AuthorizedAccountRemoved(address _issuer);\n    /// @notice remove an authorized issuer from this contract \n    /// @param _issuer address of the account that will be authorized\n    //@TODO remove account entirely from contract\n    function removeAuthorizedAccount(address _issuer) public onlyAdmin(msg.sender) {\n        authorizedAccountsMap[_issuer].isAuthorized = false;\n        AuthorizedAccountRemoved(_issuer);\n    }\n\n    /// @notice gets a authorized account, can be used in conjuntion with numOfAuthorizedAccounts to get all in UI\n    /// @param _index the index of the account in the authorizedAccountsList\n    function getAuthorizedAccount(uint _index) public returns(address _issuer) {\n        if (authorizedAccountsMap[authorizedAccountsList[_index]].isAuthorized) {\n            return authorizedAccountsList[_index];\n        } else {\n            return NONE;\n        }\n    }\n\n    /// @notice returns number of accounts ever authorized \n    function getNumberOfAuthorizedAccounts() public returns(uint _numOfAccounts) {\n        return authorizedAccountsList.length;\n    }\n\n    /// @notice check if credential is revoked\n    function isRevoked(bytes32 _key) public constant returns(bool c) {\n        return revokationMap[_key];\n    }\n    \n    /// @notice set a new transaction (credential issued to recipient)\n    /// @param _txtKey the transaction key \n    /// @param _recipient recipient of the credential \n    function _setNewTxt(\n        bytes32 _txtKey, \n        address _recipient, \n        string _badgeName,\n        uint _expires) private\n        {\n        //increase nonce\n        nonce++;\n        bytes32 badgeNameHash = BadgeLibrary.getBadgeNameHash(_badgeName);\n        BadgeLibrary.Badge memory badge = badgeVault.badges[badgeNameHash];\n        bytes32 integrityHash = VerifierLibrary.getIntegrityHash(\n            badge.issuer, \n            badge.description, \n            badge.name, \n            badge.image, \n            badge.version, \n            _expires,\n            _recipient \n        );\n        IssueTransaction memory transaction = IssueTransaction(_txtKey, integrityHash, _recipient);\n        credentialTxtMap[_txtKey] = transaction;\n    }\n    function getTransaction(bytes32 _txtKey) constant public returns(bytes32 txtKey, bytes32 integrityHash, address recipient) {\n        IssueTransaction memory transaction = credentialTxtMap[_txtKey];\n        return(\n            transaction.key,\n            transaction.integrityHash,\n            transaction.recipient\n        );\n    } \n\n    /// @notice internal method that gets instance of recipient contract and stores credential\n    function _sendToRecipient(\n        string _badgeName, \n        uint expires, \n        address _recipient, \n        bytes32 _txtKey\n    ) private\n    {   \n        BadgeLibrary.Badge memory badge = badgeVault.badges[BadgeLibrary.getBadgeNameHash(_badgeName)];\n        require(badge.issuer != NONE);\n        HolderInterface holder = HolderInterface(_recipient);\n        holder.storeCredential(\n            badge.issuer,\n            badge.description,\n            badge.name,\n            badge.image,\n            badge.version,\n            expires,\n            _recipient, \n            _txtKey\n        );\n        CredentialIssued(\n            badge.name,\n            _recipient\n        );\n    }\n    \n    event BadgeDeleted(string _name, uint count);\n    /// @notice delete a created badge \n    function deleteBadge(string _name) \n    authorized(msg.sender)\n    public returns(bool success) \n    {\n        bytes32 badgeNameHash = BadgeLibrary.getBadgeNameHash(_name);\n        uint rowToDelete = badgeVault.indexMap[badgeNameHash];\n        bytes32 rowToMove = badgeVault.badgeHashNames[badgeVault.badgeHashNames.length-1];\n        badgeVault.indexMap[rowToMove] = rowToDelete; \n        badgeVault.badgeHashNames[rowToDelete] = rowToMove; \n        badgeVault.badgeHashNames.length--;\n        delete badgeVault.badges[badgeNameHash];\n        delete badgeVault.indexMap[badgeNameHash];\n\n        BadgeDeleted(_name, badgeVault.badgeHashNames.length);\n        return true;\n    }\n \n    // @notice get the number of badges (used by frontend as iterator index to retrieve each badge)     authorized(_sig, _v, _r, _s) \n    function getNumberOfBadges()\n    constant public returns(uint count)\n    {   \n        return badgeVault.badgeHashNames.length;\n    }\n\n    /// @notice get a badge by it's index (should be used by frontend in a loop to get all the badges)\n    /// @param _name name of the badge to get inside the badge map\n    function getBadge(string _name) constant badgeExists(_name) public returns(\n        address issuer, \n        string description, \n        string bName, \n        string image, \n        string version\n    ) {\n        bytes32 badgeNameHash = BadgeLibrary.getBadgeNameHash(_name);\n        BadgeLibrary.Badge memory badge = badgeVault.badges[badgeNameHash];\n        return (\n            badge.issuer, \n            badge.description,\n            badge.name, \n            badge.image,\n            badge.version\n        );\n    } \n\n    /// @notice helper function for UI to retrieve all names then retrieve the badges\n    /// @param _index index of the name you want\n    function getNameByIndex(uint _index) constant public returns(bytes32 _name) {\n        return badgeVault.badgeHashNames[_index];\n    }\n\n    /// @notice get issuer info\n    function getInfo() public constant returns(address _issuer, address _contract, string _name, string _url) {\n        return(admin, issuerContract, name, url);\n    }\n}",
  "sourcePath": "/Users/khalil.claybon/Desktop/some_work/badgeforce_dev/badgeforce/contracts/Issuer.sol",
  "compiler": {
    "name": "solc",
    "version": "0.4.18+commit.9cf6e910.Emscripten.clang"
  },
  "schemaVersion": "1.0.1",
  "updatedAt": "2017-12-24T18:06:51.119Z"
}