{
  "contractName": "Issuer",
  "abi": [
    {
      "constant": true,
      "inputs": [],
      "name": "name",
      "outputs": [
        {
          "name": "",
          "type": "string"
        }
      ],
      "payable": false,
      "type": "function",
      "stateMutability": "view"
    },
    {
      "constant": true,
      "inputs": [],
      "name": "issuerContract",
      "outputs": [
        {
          "name": "",
          "type": "address"
        }
      ],
      "payable": false,
      "type": "function",
      "stateMutability": "view"
    },
    {
      "constant": true,
      "inputs": [
        {
          "name": "_data",
          "type": "bytes"
        }
      ],
      "name": "_getTxtKey",
      "outputs": [
        {
          "name": "txtKey",
          "type": "bytes32"
        }
      ],
      "payable": false,
      "type": "function",
      "stateMutability": "view"
    },
    {
      "constant": true,
      "inputs": [
        {
          "name": "_hash",
          "type": "bytes32"
        },
        {
          "name": "_sig",
          "type": "bytes"
        }
      ],
      "name": "extractAddress",
      "outputs": [
        {
          "name": "_issuer",
          "type": "address"
        }
      ],
      "payable": false,
      "type": "function",
      "stateMutability": "view"
    },
    {
      "constant": true,
      "inputs": [],
      "name": "getNumberOfBadges",
      "outputs": [
        {
          "name": "count",
          "type": "uint256"
        }
      ],
      "payable": false,
      "type": "function",
      "stateMutability": "view"
    },
    {
      "constant": false,
      "inputs": [
        {
          "name": "_index",
          "type": "uint256"
        }
      ],
      "name": "getAuthorizedAccount",
      "outputs": [
        {
          "name": "_issuer",
          "type": "address"
        }
      ],
      "payable": false,
      "type": "function",
      "stateMutability": "nonpayable"
    },
    {
      "constant": false,
      "inputs": [
        {
          "name": "_badgeName",
          "type": "string"
        },
        {
          "name": "_recipient",
          "type": "address"
        },
        {
          "name": "_expires",
          "type": "uint256"
        }
      ],
      "name": "issue",
      "outputs": [],
      "payable": false,
      "type": "function",
      "stateMutability": "nonpayable"
    },
    {
      "constant": false,
      "inputs": [
        {
          "name": "_newIssuer",
          "type": "address"
        }
      ],
      "name": "authorzeAccount",
      "outputs": [],
      "payable": false,
      "type": "function",
      "stateMutability": "nonpayable"
    },
    {
      "constant": true,
      "inputs": [
        {
          "name": "_key",
          "type": "bytes32"
        }
      ],
      "name": "getRevoked",
      "outputs": [
        {
          "name": "c",
          "type": "bool"
        }
      ],
      "payable": false,
      "type": "function",
      "stateMutability": "view"
    },
    {
      "constant": true,
      "inputs": [],
      "name": "url",
      "outputs": [
        {
          "name": "",
          "type": "string"
        }
      ],
      "payable": false,
      "type": "function",
      "stateMutability": "view"
    },
    {
      "constant": true,
      "inputs": [],
      "name": "getInfo",
      "outputs": [
        {
          "name": "_issuer",
          "type": "address"
        },
        {
          "name": "_contract",
          "type": "address"
        },
        {
          "name": "_name",
          "type": "string"
        },
        {
          "name": "_url",
          "type": "string"
        }
      ],
      "payable": false,
      "type": "function",
      "stateMutability": "view"
    },
    {
      "constant": true,
      "inputs": [
        {
          "name": "_txtKey",
          "type": "bytes32"
        },
        {
          "name": "_integrityHash",
          "type": "bytes32"
        },
        {
          "name": "_recipient",
          "type": "address"
        }
      ],
      "name": "_checkTransaction",
      "outputs": [
        {
          "name": "_revoked",
          "type": "bool"
        },
        {
          "name": "_integrityHashCheck",
          "type": "bool"
        },
        {
          "name": "_recipientCheck",
          "type": "bool"
        }
      ],
      "payable": false,
      "type": "function",
      "stateMutability": "view"
    },
    {
      "constant": false,
      "inputs": [],
      "name": "getNumberOfAuthorizedAccounts",
      "outputs": [
        {
          "name": "_numOfAccounts",
          "type": "uint256"
        }
      ],
      "payable": false,
      "type": "function",
      "stateMutability": "nonpayable"
    },
    {
      "constant": true,
      "inputs": [
        {
          "name": "",
          "type": "bytes32"
        }
      ],
      "name": "revokationMap",
      "outputs": [
        {
          "name": "",
          "type": "bool"
        }
      ],
      "payable": false,
      "type": "function",
      "stateMutability": "view"
    },
    {
      "constant": true,
      "inputs": [
        {
          "name": "_index",
          "type": "uint256"
        }
      ],
      "name": "getBadge",
      "outputs": [
        {
          "name": "_issuer",
          "type": "address"
        },
        {
          "name": "_description",
          "type": "string"
        },
        {
          "name": "_name",
          "type": "string"
        },
        {
          "name": "_image",
          "type": "string"
        },
        {
          "name": "_version",
          "type": "string"
        }
      ],
      "payable": false,
      "type": "function",
      "stateMutability": "view"
    },
    {
      "constant": false,
      "inputs": [
        {
          "name": "_description",
          "type": "string"
        },
        {
          "name": "_name",
          "type": "string"
        },
        {
          "name": "_image",
          "type": "string"
        },
        {
          "name": "_version",
          "type": "string"
        },
        {
          "name": "_json",
          "type": "string"
        }
      ],
      "name": "createBadge",
      "outputs": [],
      "payable": false,
      "type": "function",
      "stateMutability": "nonpayable"
    },
    {
      "constant": false,
      "inputs": [
        {
          "name": "_txKey",
          "type": "bytes32"
        }
      ],
      "name": "unRevoke",
      "outputs": [],
      "payable": false,
      "type": "function",
      "stateMutability": "nonpayable"
    },
    {
      "constant": false,
      "inputs": [
        {
          "name": "_name",
          "type": "string"
        }
      ],
      "name": "deleteBadge",
      "outputs": [
        {
          "name": "success",
          "type": "bool"
        }
      ],
      "payable": false,
      "type": "function",
      "stateMutability": "nonpayable"
    },
    {
      "constant": false,
      "inputs": [
        {
          "name": "_txKey",
          "type": "bytes32"
        }
      ],
      "name": "revoke",
      "outputs": [],
      "payable": false,
      "type": "function",
      "stateMutability": "nonpayable"
    },
    {
      "constant": false,
      "inputs": [
        {
          "name": "_issuer",
          "type": "address"
        }
      ],
      "name": "removeAuthorizedAccount",
      "outputs": [],
      "payable": false,
      "type": "function",
      "stateMutability": "nonpayable"
    },
    {
      "constant": true,
      "inputs": [
        {
          "name": "",
          "type": "bytes32"
        }
      ],
      "name": "credentialTxtMap",
      "outputs": [
        {
          "name": "key",
          "type": "bytes32"
        },
        {
          "name": "integrityHash",
          "type": "bytes32"
        },
        {
          "name": "recipient",
          "type": "address"
        }
      ],
      "payable": false,
      "type": "function",
      "stateMutability": "view"
    },
    {
      "constant": true,
      "inputs": [],
      "name": "admin",
      "outputs": [
        {
          "name": "",
          "type": "address"
        }
      ],
      "payable": false,
      "type": "function",
      "stateMutability": "view"
    },
    {
      "inputs": [
        {
          "name": "",
          "type": "address"
        },
        {
          "name": "_name",
          "type": "string"
        },
        {
          "name": "_url",
          "type": "string"
        },
        {
          "name": "_token",
          "type": "address"
        }
      ],
      "payable": false,
      "type": "function",
      "constant": true,
      "name": "authorizedAccountsMap",
      "outputs": [
        {
          "name": "issuer",
          "type": "address"
        },
        {
          "name": "index",
          "type": "uint256"
        },
        {
          "name": "isAuthorized",
          "type": "bool"
        }
      ],
      "stateMutability": "view"
    },
    {
      "anonymous": false,
      "inputs": [
        {
          "indexed": false,
          "name": "_issuer",
          "type": "address"
        },
        {
          "indexed": false,
          "name": "_name",
          "type": "string"
        },
        {
          "name": "_url",
          "type": "string"
        },
        {
          "name": "_token",
          "type": "address"
        }
      ],
      "name": "AuthorizeAttempt",
      "type": "constructor",
      "payable": false,
      "stateMutability": "nonpayable"
    },
    {
      "anonymous": false,
      "inputs": [
        {
          "indexed": false,
          "name": "_actor",
          "type": "address"
        },
        {
          "indexed": false,
          "name": "authorized",
          "type": "bool"
        }
      ],
      "name": "AuthorizeAttempt",
      "type": "event"
    },
    {
      "anonymous": false,
      "inputs": [
        {
          "indexed": false,
          "name": "_name",
          "type": "string"
        },
        {
          "indexed": true,
          "name": "_issuer",
          "type": "address"
        }
      ],
      "name": "BadgeCreated",
      "type": "event"
    },
    {
      "anonymous": false,
      "inputs": [
        {
          "indexed": false,
          "name": "_badgeName",
          "type": "string"
        },
        {
          "indexed": true,
          "name": "_recipient",
          "type": "address"
        }
      ],
      "name": "CredentialIssued",
      "type": "event"
    },
    {
      "anonymous": false,
      "inputs": [
        {
          "indexed": false,
          "name": "_txKey",
          "type": "bytes32"
        }
      ],
      "name": "CredentialRevoked",
      "type": "event"
    },
    {
      "anonymous": false,
      "inputs": [
        {
          "indexed": false,
          "name": "_txKey",
          "type": "bytes32"
        }
      ],
      "name": "CredentialUnRevoked",
      "type": "event"
    },
    {
      "anonymous": false,
      "inputs": [
        {
          "indexed": false,
          "name": "_newIssuer",
          "type": "address"
        }
      ],
      "name": "NewAccountAuthorized",
      "type": "event"
    },
    {
      "anonymous": false,
      "inputs": [
        {
          "indexed": false,
          "name": "_issuer",
          "type": "address"
        },
        {
          "indexed": false,
          "name": "count",
          "type": "uint256"
        }
      ],
      "name": "AuthorizedAccountRemoved",
      "type": "event"
    },
    {
      "anonymous": false,
      "inputs": [
        {
          "indexed": false,
          "name": "_name",
          "type": "string"
        },
        {
          "indexed": false,
          "name": "count",
          "type": "uint256"
        }
      ],
      "name": "BadgeDeleted",
      "type": "event"
    }
  ],
  "bytecode": "0x606060405234156200001057600080fd5b60405162004f8b38038062004f8b8339810160405280805190602001909190805182019190602001805182019190602001805190602001909190505083600160006101000a81548173ffffffffffffffffffffffffffffffffffffffff021916908373ffffffffffffffffffffffffffffffffffffffff1602179055508260059080519060200190620000a592919062000152565b508160069080519060200190620000be92919062000152565b5030600460006101000a81548173ffffffffffffffffffffffffffffffffffffffff021916908373ffffffffffffffffffffffffffffffffffffffff1602179055506000600981905550806000806101000a81548173ffffffffffffffffffffffffffffffffffffffff021916908373ffffffffffffffffffffffffffffffffffffffff1602179055505050505062000201565b828054600181600116156101000203166002900490600052602060002090601f016020900481019282601f106200019557805160ff1916838001178555620001c6565b82800160010185558215620001c6579182015b82811115620001c5578251825591602001919060010190620001a8565b5b509050620001d59190620001d9565b5090565b620001fe91905b80821115620001fa576000816000905550600101620001e0565b5090565b90565b614d7a80620002116000396000f300606060405260043610610133576000357c0100000000000000000000000000000000000000000000000000000000900463ffffffff16806306fdde03146101385780630c43ae9c146101c657806310b2c37e1461021b57806314a202511461029457806324ddd51a1461033e5780633557b6c314610367578063368a1709146103ca5780633b57391a1461044f5780634e6c6492146104885780635600f04f146104c75780635a9b0b89146105555780637a432e8c146106b55780637c59fda0146107365780637eb80b331461075f5780638d8386221461079e57806391c82a7a146109b1578063a5aef15b14610b1a578063b610922114610b41578063b75c7dc614610bb6578063be47aa0914610bdd578063ea590dbc14610c16578063f851a44014610c9b578063f9afc24214610cf0575b600080fd5b341561014357600080fd5b61014b610d7b565b6040518080602001828103825283818151815260200191508051906020019080838360005b8381101561018b578082015181840152602081019050610170565b50505050905090810190601f1680156101b85780820380516001836020036101000a031916815260200191505b509250505060405180910390f35b34156101d157600080fd5b6101d9610e19565b604051808273ffffffffffffffffffffffffffffffffffffffff1673ffffffffffffffffffffffffffffffffffffffff16815260200191505060405180910390f35b341561022657600080fd5b610276600480803590602001908201803590602001908080601f01602080910402602001604051908101604052809392919081815260200183838082843782019150505050505091905050610e3f565b60405180826000191660001916815260200191505060405180910390f35b341561029f57600080fd5b6102fc60048080356000191690602001909190803590602001908201803590602001908080601f01602080910402602001604051908101604052809392919081815260200183838082843782019150505050505091905050610f9b565b604051808273ffffffffffffffffffffffffffffffffffffffff1673ffffffffffffffffffffffffffffffffffffffff16815260200191505060405180910390f35b341561034957600080fd5b61035161109c565b6040518082815260200191505060405180910390f35b341561037257600080fd5b61038860048080359060200190919050506110ac565b604051808273ffffffffffffffffffffffffffffffffffffffff1673ffffffffffffffffffffffffffffffffffffffff16815260200191505060405180910390f35b34156103d557600080fd5b61044d600480803590602001908201803590602001908080601f0160208091040260200160405190810160405280939291908181526020018383808284378201915050505050509190803573ffffffffffffffffffffffffffffffffffffffff16906020019091908035906020019091905050611189565b005b341561045a57600080fd5b610486600480803573ffffffffffffffffffffffffffffffffffffffff16906020019091905050611419565b005b341561049357600080fd5b6104ad60048080356000191690602001909190505061169e565b604051808215151515815260200191505060405180910390f35b34156104d257600080fd5b6104da6116d0565b6040518080602001828103825283818151815260200191508051906020019080838360005b8381101561051a5780820151818401526020810190506104ff565b50505050905090810190601f1680156105475780820380516001836020036101000a031916815260200191505b509250505060405180910390f35b341561056057600080fd5b61056861176e565b604051808573ffffffffffffffffffffffffffffffffffffffff1673ffffffffffffffffffffffffffffffffffffffff1681526020018473ffffffffffffffffffffffffffffffffffffffff1673ffffffffffffffffffffffffffffffffffffffff1681526020018060200180602001838103835285818151815260200191508051906020019080838360005b838110156106105780820151818401526020810190506105f5565b50505050905090810190601f16801561063d5780820380516001836020036101000a031916815260200191505b50838103825284818151815260200191508051906020019080838360005b8381101561067657808201518184015260208101905061065b565b50505050905090810190601f1680156106a35780820380516001836020036101000a031916815260200191505b50965050505050505060405180910390f35b34156106c057600080fd5b6107066004808035600019169060200190919080356000191690602001909190803573ffffffffffffffffffffffffffffffffffffffff16906020019091905050611911565b60405180841515151581526020018315151515815260200182151515158152602001935050505060405180910390f35b341561074157600080fd5b610749611a9d565b6040518082815260200191505060405180910390f35b341561076a57600080fd5b610784600480803560001916906020019091905050611aaa565b604051808215151515815260200191505060405180910390f35b34156107a957600080fd5b6107bf6004808035906020019091905050611aca565b604051808673ffffffffffffffffffffffffffffffffffffffff1673ffffffffffffffffffffffffffffffffffffffff16815260200180602001806020018060200180602001858103855289818151815260200191508051906020019080838360005b8381101561083d578082015181840152602081019050610822565b50505050905090810190601f16801561086a5780820380516001836020036101000a031916815260200191505b50858103845288818151815260200191508051906020019080838360005b838110156108a3578082015181840152602081019050610888565b50505050905090810190601f1680156108d05780820380516001836020036101000a031916815260200191505b50858103835287818151815260200191508051906020019080838360005b838110156109095780820151818401526020810190506108ee565b50505050905090810190601f1680156109365780820380516001836020036101000a031916815260200191505b50858103825286818151815260200191508051906020019080838360005b8381101561096f578082015181840152602081019050610954565b50505050905090810190601f16801561099c5780820380516001836020036101000a031916815260200191505b50995050505050505050505060405180910390f35b34156109bc57600080fd5b610b18600480803590602001908201803590602001908080601f0160208091040260200160405190810160405280939291908181526020018383808284378201915050505050509190803590602001908201803590602001908080601f0160208091040260200160405190810160405280939291908181526020018383808284378201915050505050509190803590602001908201803590602001908080601f0160208091040260200160405190810160405280939291908181526020018383808284378201915050505050509190803590602001908201803590602001908080601f0160208091040260200160405190810160405280939291908181526020018383808284378201915050505050509190803590602001908201803590602001908080601f01602080910402602001604051908101604052809392919081815260200183838082843782019150505050505091905050612427565b005b3415610b2557600080fd5b610b3f600480803560001916906020019091905050612b76565b005b3415610b4c57600080fd5b610b9c600480803590602001908201803590602001908080601f01602080910402602001604051908101604052809392919081815260200183838082843782019150505050505091905050612d16565b604051808215151515815260200191505060405180910390f35b3415610bc157600080fd5b610bdb600480803560001916906020019091905050613231565b005b3415610be857600080fd5b610c14600480803573ffffffffffffffffffffffffffffffffffffffff169060200190919050506133d1565b005b3415610c2157600080fd5b610c3b600480803560001916906020019091905050613565565b60405180846000191660001916815260200183600019166000191681526020018273ffffffffffffffffffffffffffffffffffffffff1673ffffffffffffffffffffffffffffffffffffffff168152602001935050505060405180910390f35b3415610ca657600080fd5b610cae6135af565b604051808273ffffffffffffffffffffffffffffffffffffffff1673ffffffffffffffffffffffffffffffffffffffff16815260200191505060405180910390f35b3415610cfb57600080fd5b610d27600480803573ffffffffffffffffffffffffffffffffffffffff169060200190919050506135d5565b604051808473ffffffffffffffffffffffffffffffffffffffff1673ffffffffffffffffffffffffffffffffffffffff16815260200183815260200182151515158152602001935050505060405180910390f35b60058054600181600116156101000203166002900480601f016020809104026020016040519081016040528092919081815260200182805460018160011615610100020316600290048015610e115780601f10610de657610100808354040283529160200191610e11565b820191906000526020600020905b815481529060010190602001808311610df457829003601f168201915b505050505081565b600460009054906101000a900473ffffffffffffffffffffffffffffffffffffffff1681565b600073__BadgeLibrary__________________________63cc2b2ca4600460009054906101000a900473ffffffffffffffffffffffffffffffffffffffff16846009546000604051602001526040518463ffffffff167c0100000000000000000000000000000000000000000000000000000000028152600401808473ffffffffffffffffffffffffffffffffffffffff1673ffffffffffffffffffffffffffffffffffffffff16815260200180602001838152602001828103825284818151815260200191508051906020019080838360005b83811015610f2e578082015181840152602081019050610f13565b50505050905090810190601f168015610f5b5780820380516001836020036101000a031916815260200191505b5094505050505060206040518083038186803b1515610f7957600080fd5b6102c65a03f41515610f8a57600080fd5b505050604051805190509050919050565b60008060008060418551141515610fb55760009350611093565b6020850151925060408501519150606085015160001a9050601b8160ff161015610fe057601b810190505b601b8160ff1614158015610ff85750601c8160ff1614155b156110065760009350611093565b600186828585604051600081526020016040526000604051602001526040518085600019166000191681526020018460ff1660ff16815260200183600019166000191681526020018260001916600019168152602001945050505050602060405160208103908084039060008661646e5a03f1151561108457600080fd5b50506020604051035193508393505b50505092915050565b6000600a60010180549050905090565b6000600260006003848154811015156110c157fe5b906000526020600020900160009054906101000a900473ffffffffffffffffffffffffffffffffffffffff1673ffffffffffffffffffffffffffffffffffffffff1673ffffffffffffffffffffffffffffffffffffffff16815260200190815260200160002060020160009054906101000a900460ff161561117f5760038281548110151561114c57fe5b906000526020600020900160009054906101000a900473ffffffffffffffffffffffffffffffffffffffff169050611184565b600090505b919050565b600080336000600160009054906101000a900473ffffffffffffffffffffffffffffffffffffffff1673ffffffffffffffffffffffffffffffffffffffff168273ffffffffffffffffffffffffffffffffffffffff1614806112375750600260008373ffffffffffffffffffffffffffffffffffffffff1673ffffffffffffffffffffffffffffffffffffffff16815260200190815260200160002060020160009054906101000a900460ff165b90507f7fca019a0a52664785803f352d793a992f66c4affa261b3daf127976e7ad67998282604051808373ffffffffffffffffffffffffffffffffffffffff1673ffffffffffffffffffffffffffffffffffffffff168152602001821515151581526020019250505060405180910390a18015156112b457600080fd5b6000809054906101000a900473ffffffffffffffffffffffffffffffffffffffff1673ffffffffffffffffffffffffffffffffffffffff16630835cb63336000604051602001526040518263ffffffff167c0100000000000000000000000000000000000000000000000000000000028152600401808273ffffffffffffffffffffffffffffffffffffffff1673ffffffffffffffffffffffffffffffffffffffff168152602001915050602060405180830381600087803b151561137857600080fd5b6102c65a03f1151561138957600080fd5b50505060405180519050151561139e57600080fd5b6113da6000368080601f016020809104026020016040519081016040528093929190818152602001838380828437820191505050505050610e3f565b93506113e784878961362c565b6000851115156113f957849250611404565b62093a808502420192505b61141087868887613e51565b50505050505050565b336000600160009054906101000a900473ffffffffffffffffffffffffffffffffffffffff1673ffffffffffffffffffffffffffffffffffffffff168273ffffffffffffffffffffffffffffffffffffffff161490507f7fca019a0a52664785803f352d793a992f66c4affa261b3daf127976e7ad67998282604051808373ffffffffffffffffffffffffffffffffffffffff1673ffffffffffffffffffffffffffffffffffffffff168152602001821515151581526020019250505060405180910390a18015156114ea57600080fd5b6060604051908101604052808473ffffffffffffffffffffffffffffffffffffffff1681526020016001600380548060010182816115289190614ae0565b9160005260206000209001600088909190916101000a81548173ffffffffffffffffffffffffffffffffffffffff021916908373ffffffffffffffffffffffffffffffffffffffff16021790555003815260200160011515815250600260008573ffffffffffffffffffffffffffffffffffffffff1673ffffffffffffffffffffffffffffffffffffffff16815260200190815260200160002060008201518160000160006101000a81548173ffffffffffffffffffffffffffffffffffffffff021916908373ffffffffffffffffffffffffffffffffffffffff1602179055506020820151816001015560408201518160020160006101000a81548160ff0219169083151502179055509050507f7fd215c956537f33ef9064c457003d82df8562a7b03e1f896c0b39c7abc8355883604051808273ffffffffffffffffffffffffffffffffffffffff1673ffffffffffffffffffffffffffffffffffffffff16815260200191505060405180910390a1505050565b600060086000836000191660001916815260200190815260200160002060009054906101000a900460ff169050919050565b60068054600181600116156101000203166002900480601f0160208091040260200160405190810160405280929190818152602001828054600181600116156101000203166002900480156117665780601f1061173b57610100808354040283529160200191611766565b820191906000526020600020905b81548152906001019060200180831161174957829003601f168201915b505050505081565b600080611779614b0c565b611781614b0c565b600160009054906101000a900473ffffffffffffffffffffffffffffffffffffffff16600460009054906101000a900473ffffffffffffffffffffffffffffffffffffffff1660056006818054600181600116156101000203166002900480601f0160208091040260200160405190810160405280929190818152602001828054600181600116156101000203166002900480156118605780601f1061183557610100808354040283529160200191611860565b820191906000526020600020905b81548152906001019060200180831161184357829003601f168201915b50505050509150808054600181600116156101000203166002900480601f0160208091040260200160405190810160405280929190818152602001828054600181600116156101000203166002900480156118fc5780601f106118d1576101008083540402835291602001916118fc565b820191906000526020600020905b8154815290600101906020018083116118df57829003601f168201915b50505050509050935093509350935090919293565b600080600061191e614b20565b600760008860001916600019168152602001908152602001600020606060405190810160405290816000820154600019166000191681526020016001820154600019166000191681526020016002820160009054906101000a900473ffffffffffffffffffffffffffffffffffffffff1673ffffffffffffffffffffffffffffffffffffffff1673ffffffffffffffffffffffffffffffffffffffff16815250509050600093506000925060009150600073ffffffffffffffffffffffffffffffffffffffff16816040015173ffffffffffffffffffffffffffffffffffffffff161415611a1457838383935093509350611a93565b6008600082600001516000191660001916815260200190815260200160002060009054906101000a900460ff1693508060200151600019168660001916149250806040015173ffffffffffffffffffffffffffffffffffffffff168573ffffffffffffffffffffffffffffffffffffffff161491508383839350935093505b5093509350939050565b6000600380549050905090565b60086020528060005260406000206000915054906101000a900460ff1681565b6000611ad4614b0c565b611adc614b0c565b611ae4614b0c565b611aec614b0c565b6000611af6614b5e565b87611aff614b5e565b6000600a6000016000600a60010185815481101515611b1a57fe5b9060005260206000209001546000191660001916815260200190815260200160002060e060405190810160405290816000820160009054906101000a900473ffffffffffffffffffffffffffffffffffffffff1673ffffffffffffffffffffffffffffffffffffffff1673ffffffffffffffffffffffffffffffffffffffff168152602001600182018054600181600116156101000203166002900480601f016020809104026020016040519081016040528092919081815260200182805460018160011615610100020316600290048015611c375780601f10611c0c57610100808354040283529160200191611c37565b820191906000526020600020905b815481529060010190602001808311611c1a57829003601f168201915b50505050508152602001600282018054600181600116156101000203166002900480601f016020809104026020016040519081016040528092919081815260200182805460018160011615610100020316600290048015611cd95780601f10611cae57610100808354040283529160200191611cd9565b820191906000526020600020905b815481529060010190602001808311611cbc57829003601f168201915b50505050508152602001600382018054600181600116156101000203166002900480601f016020809104026020016040519081016040528092919081815260200182805460018160011615610100020316600290048015611d7b5780601f10611d5057610100808354040283529160200191611d7b565b820191906000526020600020905b815481529060010190602001808311611d5e57829003601f168201915b50505050508152602001600482018054600181600116156101000203166002900480601f016020809104026020016040519081016040528092919081815260200182805460018160011615610100020316600290048015611e1d5780601f10611df257610100808354040283529160200191611e1d565b820191906000526020600020905b815481529060010190602001808311611e0057829003601f168201915b50505050508152602001600582018054600181600116156101000203166002900480601f016020809104026020016040519081016040528092919081815260200182805460018160011615610100020316600290048015611ebf5780601f10611e9457610100808354040283529160200191611ebf565b820191906000526020600020905b815481529060010190602001808311611ea257829003601f168201915b50505050508152602001600682015481525050915073__BadgeLibrary__________________________63c1eabde983604001516000604051602001526040518263ffffffff167c01000000000000000000000000000000000000000000000000000000000281526004018080602001828103825283818151815260200191508051906020019080838360005b83811015611f67578082015181840152602081019050611f4c565b50505050905090810190601f168015611f945780820380516001836020036101000a031916815260200191505b509250505060206040518083038186803b1515611fb057600080fd5b6102c65a03f41515611fc157600080fd5b5050506040518051905090506000600a6001018054905011801561200957508060001916600a60010184815481101515611ff757fe5b90600052602060002090015460001916145b151561201457600080fd5b600a6001018b81548110151561202657fe5b9060005260206000209001549450600a6000016000866000191660001916815260200190815260200160002060e060405190810160405290816000820160009054906101000a900473ffffffffffffffffffffffffffffffffffffffff1673ffffffffffffffffffffffffffffffffffffffff1673ffffffffffffffffffffffffffffffffffffffff168152602001600182018054600181600116156101000203166002900480601f01602080910402602001604051908101604052809291908181526020018280546001816001161561010002031660029004801561214d5780601f106121225761010080835404028352916020019161214d565b820191906000526020600020905b81548152906001019060200180831161213057829003601f168201915b50505050508152602001600282018054600181600116156101000203166002900480601f0160208091040260200160405190810160405280929190818152602001828054600181600116156101000203166002900480156121ef5780601f106121c4576101008083540402835291602001916121ef565b820191906000526020600020905b8154815290600101906020018083116121d257829003601f168201915b50505050508152602001600382018054600181600116156101000203166002900480601f0160208091040260200160405190810160405280929190818152602001828054600181600116156101000203166002900480156122915780601f1061226657610100808354040283529160200191612291565b820191906000526020600020905b81548152906001019060200180831161227457829003601f168201915b50505050508152602001600482018054600181600116156101000203166002900480601f0160208091040260200160405190810160405280929190818152602001828054600181600116156101000203166002900480156123335780601f1061230857610100808354040283529160200191612333565b820191906000526020600020905b81548152906001019060200180831161231657829003601f168201915b50505050508152602001600582018054600181600116156101000203166002900480601f0160208091040260200160405190810160405280929190818152602001828054600181600116156101000203166002900480156123d55780601f106123aa576101008083540402835291602001916123d5565b820191906000526020600020905b8154815290600101906020018083116123b857829003601f168201915b5050505050815260200160068201548152505093508360000151846020015185604001518660600151876080015183935082925081915080905099509950995099509950505050505091939590929450565b336000600160009054906101000a900473ffffffffffffffffffffffffffffffffffffffff1673ffffffffffffffffffffffffffffffffffffffff168273ffffffffffffffffffffffffffffffffffffffff1614806124d25750600260008373ffffffffffffffffffffffffffffffffffffffff1673ffffffffffffffffffffffffffffffffffffffff16815260200190815260200160002060020160009054906101000a900460ff165b90507f7fca019a0a52664785803f352d793a992f66c4affa261b3daf127976e7ad67998282604051808373ffffffffffffffffffffffffffffffffffffffff1673ffffffffffffffffffffffffffffffffffffffff168152602001821515151581526020019250505060405180910390a180151561254f57600080fd5b85600061255a614b5e565b73__BadgeLibrary__________________________63c1eabde9846000604051602001526040518263ffffffff167c01000000000000000000000000000000000000000000000000000000000281526004018080602001828103825283818151815260200191508051906020019080838360005b838110156125e95780820151818401526020810190506125ce565b50505050905090810190601f1680156126165780820380516001836020036101000a031916815260200191505b509250505060206040518083038186803b151561263257600080fd5b6102c65a03f4151561264357600080fd5b505050604051805190509150600a6000016000836000191660001916815260200190815260200160002060e060405190810160405290816000820160009054906101000a900473ffffffffffffffffffffffffffffffffffffffff1673ffffffffffffffffffffffffffffffffffffffff1673ffffffffffffffffffffffffffffffffffffffff168152602001600182018054600181600116156101000203166002900480601f0160208091040260200160405190810160405280929190818152602001828054600181600116156101000203166002900480156127685780601f1061273d57610100808354040283529160200191612768565b820191906000526020600020905b81548152906001019060200180831161274b57829003601f168201915b50505050508152602001600282018054600181600116156101000203166002900480601f01602080910402602001604051908101604052809291908181526020018280546001816001161561010002031660029004801561280a5780601f106127df5761010080835404028352916020019161280a565b820191906000526020600020905b8154815290600101906020018083116127ed57829003601f168201915b50505050508152602001600382018054600181600116156101000203166002900480601f0160208091040260200160405190810160405280929190818152602001828054600181600116156101000203166002900480156128ac5780601f10612881576101008083540402835291602001916128ac565b820191906000526020600020905b81548152906001019060200180831161288f57829003601f168201915b50505050508152602001600482018054600181600116156101000203166002900480601f01602080910402602001604051908101604052809291908181526020018280546001816001161561010002031660029004801561294e5780601f106129235761010080835404028352916020019161294e565b820191906000526020600020905b81548152906001019060200180831161293157829003601f168201915b50505050508152602001600582018054600181600116156101000203166002900480601f0160208091040260200160405190810160405280929190818152602001828054600181600116156101000203166002900480156129f05780601f106129c5576101008083540402835291602001916129f0565b820191906000526020600020905b8154815290600101906020018083116129d357829003601f168201915b5050505050815260200160068201548152505090506000600a600101805490501480612a4557508160001916600a6001018260c00151815481101515612a3257fe5b9060005260206000209001546000191614155b1515612a5057600080fd5b6000809054906101000a900473ffffffffffffffffffffffffffffffffffffffff1673ffffffffffffffffffffffffffffffffffffffff1663d26748fc336000604051602001526040518263ffffffff167c0100000000000000000000000000000000000000000000000000000000028152600401808273ffffffffffffffffffffffffffffffffffffffff1673ffffffffffffffffffffffffffffffffffffffff168152602001915050602060405180830381600087803b1515612b1457600080fd5b6102c65a03f11515612b2557600080fd5b505050604051805190501515612b3a57600080fd5b612b6a600460009054906101000a900473ffffffffffffffffffffffffffffffffffffffff168b8b8b8b8b614738565b50505050505050505050565b336000600160009054906101000a900473ffffffffffffffffffffffffffffffffffffffff1673ffffffffffffffffffffffffffffffffffffffff168273ffffffffffffffffffffffffffffffffffffffff161480612c215750600260008373ffffffffffffffffffffffffffffffffffffffff1673ffffffffffffffffffffffffffffffffffffffff16815260200190815260200160002060020160009054906101000a900460ff165b90507f7fca019a0a52664785803f352d793a992f66c4affa261b3daf127976e7ad67998282604051808373ffffffffffffffffffffffffffffffffffffffff1673ffffffffffffffffffffffffffffffffffffffff168152602001821515151581526020019250505060405180910390a1801515612c9e57600080fd5b600060086000856000191660001916815260200190815260200160002060006101000a81548160ff0219169083151502179055507fd1e55fd73bb60d490f023f5239b9c0ca41f4503cca514ab5c7c8649a188afdd38360405180826000191660001916815260200191505060405180910390a1505050565b600080600080336000600160009054906101000a900473ffffffffffffffffffffffffffffffffffffffff1673ffffffffffffffffffffffffffffffffffffffff168273ffffffffffffffffffffffffffffffffffffffff161480612dc75750600260008373ffffffffffffffffffffffffffffffffffffffff1673ffffffffffffffffffffffffffffffffffffffff16815260200190815260200160002060020160009054906101000a900460ff165b90507f7fca019a0a52664785803f352d793a992f66c4affa261b3daf127976e7ad67998282604051808373ffffffffffffffffffffffffffffffffffffffff1673ffffffffffffffffffffffffffffffffffffffff168152602001821515151581526020019250505060405180910390a1801515612e4457600080fd5b6000809054906101000a900473ffffffffffffffffffffffffffffffffffffffff1673ffffffffffffffffffffffffffffffffffffffff1663b0ce4d84336000604051602001526040518263ffffffff167c0100000000000000000000000000000000000000000000000000000000028152600401808273ffffffffffffffffffffffffffffffffffffffff1673ffffffffffffffffffffffffffffffffffffffff168152602001915050602060405180830381600087803b1515612f0857600080fd5b6102c65a03f11515612f1957600080fd5b505050604051805190501515612f2e57600080fd5b73__BadgeLibrary__________________________63c1eabde9886000604051602001526040518263ffffffff167c01000000000000000000000000000000000000000000000000000000000281526004018080602001828103825283818151815260200191508051906020019080838360005b83811015612fbd578082015181840152602081019050612fa2565b50505050905090810190601f168015612fea5780820380516001836020036101000a031916815260200191505b509250505060206040518083038186803b151561300657600080fd5b6102c65a03f4151561301757600080fd5b505050604051805190509450600a60000160008660001916600019168152602001908152602001600020600601549350600a6001016001600a600101805490500381548110151561306457fe5b906000526020600020900154925083600a600001600085600019166000191681526020019081526020016000206006018190555082600a600101858154811015156130ab57fe5b90600052602060002090018160001916905550600a6001018054809190600190036130d69190614bd0565b50600a60000160008660001916600019168152602001908152602001600020600080820160006101000a81549073ffffffffffffffffffffffffffffffffffffffff021916905560018201600061312d9190614bfc565b60028201600061313d9190614bfc565b60038201600061314d9190614bfc565b60048201600061315d9190614bfc565b60058201600061316d9190614bfc565b600682016000905550507f25011d6c52f8dd436cbad877a1e1bfa99b3fc7b3df1c4f7b68d6f6403e943a5187600a600101805490506040518080602001838152602001828103825284818151815260200191508051906020019080838360005b838110156131e85780820151818401526020810190506131cd565b50505050905090810190601f1680156132155780820380516001836020036101000a031916815260200191505b50935050505060405180910390a1600195505050505050919050565b336000600160009054906101000a900473ffffffffffffffffffffffffffffffffffffffff1673ffffffffffffffffffffffffffffffffffffffff168273ffffffffffffffffffffffffffffffffffffffff1614806132dc5750600260008373ffffffffffffffffffffffffffffffffffffffff1673ffffffffffffffffffffffffffffffffffffffff16815260200190815260200160002060020160009054906101000a900460ff165b90507f7fca019a0a52664785803f352d793a992f66c4affa261b3daf127976e7ad67998282604051808373ffffffffffffffffffffffffffffffffffffffff1673ffffffffffffffffffffffffffffffffffffffff168152602001821515151581526020019250505060405180910390a180151561335957600080fd5b600160086000856000191660001916815260200190815260200160002060006101000a81548160ff0219169083151502179055507f3cc2375f3fc7711ba27361cde93880f578742f9f050acee766bed662d117ba728360405180826000191660001916815260200191505060405180910390a1505050565b336000600160009054906101000a900473ffffffffffffffffffffffffffffffffffffffff1673ffffffffffffffffffffffffffffffffffffffff168273ffffffffffffffffffffffffffffffffffffffff161490507f7fca019a0a52664785803f352d793a992f66c4affa261b3daf127976e7ad67998282604051808373ffffffffffffffffffffffffffffffffffffffff1673ffffffffffffffffffffffffffffffffffffffff168152602001821515151581526020019250505060405180910390a18015156134a257600080fd5b6000600260008573ffffffffffffffffffffffffffffffffffffffff1673ffffffffffffffffffffffffffffffffffffffff16815260200190815260200160002060020160006101000a81548160ff0219169083151502179055507f56a53756e1db2ff35a90edee9bd205b4b2bb8633ee3d6a53a5e85d5b46f0e9dc83604051808273ffffffffffffffffffffffffffffffffffffffff1673ffffffffffffffffffffffffffffffffffffffff16815260200191505060405180910390a1505050565b60076020528060005260406000206000915090508060000154908060010154908060020160009054906101000a900473ffffffffffffffffffffffffffffffffffffffff16905083565b600160009054906101000a900473ffffffffffffffffffffffffffffffffffffffff1681565b60026020528060005260406000206000915090508060000160009054906101000a900473ffffffffffffffffffffffffffffffffffffffff16908060010154908060020160009054906101000a900460ff16905083565b6000613636614b5e565b6000613640614b20565b60096000815480929190600101919050555073__BadgeLibrary__________________________63c1eabde9866000604051602001526040518263ffffffff167c01000000000000000000000000000000000000000000000000000000000281526004018080602001828103825283818151815260200191508051906020019080838360005b838110156136e15780820151818401526020810190506136c6565b50505050905090810190601f16801561370e5780820380516001836020036101000a031916815260200191505b509250505060206040518083038186803b151561372a57600080fd5b6102c65a03f4151561373b57600080fd5b505050604051805190509350600a6000016000856000191660001916815260200190815260200160002060e060405190810160405290816000820160009054906101000a900473ffffffffffffffffffffffffffffffffffffffff1673ffffffffffffffffffffffffffffffffffffffff1673ffffffffffffffffffffffffffffffffffffffff168152602001600182018054600181600116156101000203166002900480601f0160208091040260200160405190810160405280929190818152602001828054600181600116156101000203166002900480156138605780601f1061383557610100808354040283529160200191613860565b820191906000526020600020905b81548152906001019060200180831161384357829003601f168201915b50505050508152602001600282018054600181600116156101000203166002900480601f0160208091040260200160405190810160405280929190818152602001828054600181600116156101000203166002900480156139025780601f106138d757610100808354040283529160200191613902565b820191906000526020600020905b8154815290600101906020018083116138e557829003601f168201915b50505050508152602001600382018054600181600116156101000203166002900480601f0160208091040260200160405190810160405280929190818152602001828054600181600116156101000203166002900480156139a45780601f10613979576101008083540402835291602001916139a4565b820191906000526020600020905b81548152906001019060200180831161398757829003601f168201915b50505050508152602001600482018054600181600116156101000203166002900480601f016020809104026020016040519081016040528092919081815260200182805460018160011615610100020316600290048015613a465780601f10613a1b57610100808354040283529160200191613a46565b820191906000526020600020905b815481529060010190602001808311613a2957829003601f168201915b50505050508152602001600582018054600181600116156101000203166002900480601f016020809104026020016040519081016040528092919081815260200182805460018160011615610100020316600290048015613ae85780601f10613abd57610100808354040283529160200191613ae8565b820191906000526020600020905b815481529060010190602001808311613acb57829003601f168201915b50505050508152602001600682015481525050925073__BadgeLibrary__________________________631ddb6af6846000015185602001518660400151876060015188608001518c6000604051602001526040518763ffffffff167c0100000000000000000000000000000000000000000000000000000000028152600401808773ffffffffffffffffffffffffffffffffffffffff1673ffffffffffffffffffffffffffffffffffffffff168152602001806020018060200180602001806020018673ffffffffffffffffffffffffffffffffffffffff1673ffffffffffffffffffffffffffffffffffffffff16815260200185810385528a818151815260200191508051906020019080838360005b83811015613c15578082015181840152602081019050613bfa565b50505050905090810190601f168015613c425780820380516001836020036101000a031916815260200191505b50858103845289818151815260200191508051906020019080838360005b83811015613c7b578082015181840152602081019050613c60565b50505050905090810190601f168015613ca85780820380516001836020036101000a031916815260200191505b50858103835288818151815260200191508051906020019080838360005b83811015613ce1578082015181840152602081019050613cc6565b50505050905090810190601f168015613d0e5780820380516001836020036101000a031916815260200191505b50858103825287818151815260200191508051906020019080838360005b83811015613d47578082015181840152602081019050613d2c565b50505050905090810190601f168015613d745780820380516001836020036101000a031916815260200191505b509a505050505050505050505060206040518083038186803b1515613d9857600080fd5b6102c65a03f41515613da957600080fd5b505050604051805190509150613dc087838861474e565b905080600760008960001916600019168152602001908152602001600020600082015181600001906000191690556020820151816001019060001916905560408201518160020160006101000a81548173ffffffffffffffffffffffffffffffffffffffff021916908373ffffffffffffffffffffffffffffffffffffffff16021790555090505050505050505050565b613e59614b5e565b6000600a600001600073__BadgeLibrary__________________________63c1eabde9896000604051602001526040518263ffffffff167c01000000000000000000000000000000000000000000000000000000000281526004018080602001828103825283818151815260200191508051906020019080838360005b83811015613ef1578082015181840152602081019050613ed6565b50505050905090810190601f168015613f1e5780820380516001836020036101000a031916815260200191505b509250505060206040518083038186803b1515613f3a57600080fd5b6102c65a03f41515613f4b57600080fd5b505050604051805190506000191660001916815260200190815260200160002060e060405190810160405290816000820160009054906101000a900473ffffffffffffffffffffffffffffffffffffffff1673ffffffffffffffffffffffffffffffffffffffff1673ffffffffffffffffffffffffffffffffffffffff168152602001600182018054600181600116156101000203166002900480601f0160208091040260200160405190810160405280929190818152602001828054600181600116156101000203166002900480156140665780601f1061403b57610100808354040283529160200191614066565b820191906000526020600020905b81548152906001019060200180831161404957829003601f168201915b50505050508152602001600282018054600181600116156101000203166002900480601f0160208091040260200160405190810160405280929190818152602001828054600181600116156101000203166002900480156141085780601f106140dd57610100808354040283529160200191614108565b820191906000526020600020905b8154815290600101906020018083116140eb57829003601f168201915b50505050508152602001600382018054600181600116156101000203166002900480601f0160208091040260200160405190810160405280929190818152602001828054600181600116156101000203166002900480156141aa5780601f1061417f576101008083540402835291602001916141aa565b820191906000526020600020905b81548152906001019060200180831161418d57829003601f168201915b50505050508152602001600482018054600181600116156101000203166002900480601f01602080910402602001604051908101604052809291908181526020018280546001816001161561010002031660029004801561424c5780601f106142215761010080835404028352916020019161424c565b820191906000526020600020905b81548152906001019060200180831161422f57829003601f168201915b50505050508152602001600582018054600181600116156101000203166002900480601f0160208091040260200160405190810160405280929190818152602001828054600181600116156101000203166002900480156142ee5780601f106142c3576101008083540402835291602001916142ee565b820191906000526020600020905b8154815290600101906020018083116142d157829003601f168201915b505050505081526020016006820154815250509150600073ffffffffffffffffffffffffffffffffffffffff16826000015173ffffffffffffffffffffffffffffffffffffffff161415151561434357600080fd5b8390508073ffffffffffffffffffffffffffffffffffffffff1663d3414575836000015184602001518560400151866060015187608001518860a001518c8c8c6040518a63ffffffff167c0100000000000000000000000000000000000000000000000000000000028152600401808a73ffffffffffffffffffffffffffffffffffffffff1673ffffffffffffffffffffffffffffffffffffffff16815260200180602001806020018060200180602001806020018981526020018873ffffffffffffffffffffffffffffffffffffffff1673ffffffffffffffffffffffffffffffffffffffff168152602001876000191660001916815260200186810386528e818151815260200191508051906020019080838360005b8381101561447657808201518184015260208101905061445b565b50505050905090810190601f1680156144a35780820380516001836020036101000a031916815260200191505b5086810385528d818151815260200191508051906020019080838360005b838110156144dc5780820151818401526020810190506144c1565b50505050905090810190601f1680156145095780820380516001836020036101000a031916815260200191505b5086810384528c818151815260200191508051906020019080838360005b83811015614542578082015181840152602081019050614527565b50505050905090810190601f16801561456f5780820380516001836020036101000a031916815260200191505b5086810383528b818151815260200191508051906020019080838360005b838110156145a857808201518184015260208101905061458d565b50505050905090810190601f1680156145d55780820380516001836020036101000a031916815260200191505b5086810382528a818151815260200191508051906020019080838360005b8381101561460e5780820151818401526020810190506145f3565b50505050905090810190601f16801561463b5780820380516001836020036101000a031916815260200191505b509e505050505050505050505050505050600060405180830381600087803b151561466557600080fd5b6102c65a03f1151561467657600080fd5b5050508373ffffffffffffffffffffffffffffffffffffffff167fba451c931e2011b181517e87b4faa9ded9887fd9fdc41479f2e4ed86c0ce300183604001516040518080602001828103825283818151815260200191508051906020019080838360005b838110156146f65780820151818401526020810190506146db565b50505050905090810190601f1680156147235780820380516001836020036101000a031916815260200191505b509250505060405180910390a2505050505050565b614746868686868686614799565b505050505050565b614756614b20565b60606040519081016040528085600019168152602001846000191681526020018373ffffffffffffffffffffffffffffffffffffffff1681525090509392505050565b60006147a3614b5e565b73__BadgeLibrary__________________________63c1eabde9876000604051602001526040518263ffffffff167c01000000000000000000000000000000000000000000000000000000000281526004018080602001828103825283818151815260200191508051906020019080838360005b83811015614832578082015181840152602081019050614817565b50505050905090810190601f16801561485f5780820380516001836020036101000a031916815260200191505b509250505060206040518083038186803b151561487b57600080fd5b6102c65a03f4151561488c57600080fd5b50505060405180519050915060e0604051908101604052808973ffffffffffffffffffffffffffffffffffffffff1681526020018881526020018781526020018681526020018581526020018481526020016001600a60010180548060010182816148f79190614c44565b916000526020600020900160008790919091509060001916905503815250905080600a6000016000846000191660001916815260200190815260200160002060008201518160000160006101000a81548173ffffffffffffffffffffffffffffffffffffffff021916908373ffffffffffffffffffffffffffffffffffffffff1602179055506020820151816001019080519060200190614999929190614c70565b5060408201518160020190805190602001906149b6929190614c70565b5060608201518160030190805190602001906149d3929190614c70565b5060808201518160040190805190602001906149f0929190614c70565b5060a0820151816005019080519060200190614a0d929190614c70565b5060c08201518160060155905050806000015173ffffffffffffffffffffffffffffffffffffffff167fde74f67f0ccaf379531f5b3884d0afb87e86192a992d99e7222390f8870a0b5382604001516040518080602001828103825283818151815260200191508051906020019080838360005b83811015614a9c578082015181840152602081019050614a81565b50505050905090810190601f168015614ac95780820380516001836020036101000a031916815260200191505b509250505060405180910390a25050505050505050565b815481835581811511614b0757818360005260206000209182019101614b069190614cf0565b5b505050565b602060405190810160405280600081525090565b6060604051908101604052806000801916815260200160008019168152602001600073ffffffffffffffffffffffffffffffffffffffff1681525090565b60e060405190810160405280600073ffffffffffffffffffffffffffffffffffffffff168152602001614b8f614d15565b8152602001614b9c614d15565b8152602001614ba9614d15565b8152602001614bb6614d15565b8152602001614bc3614d15565b8152602001600081525090565b815481835581811511614bf757818360005260206000209182019101614bf69190614d29565b5b505050565b50805460018160011615610100020316600290046000825580601f10614c225750614c41565b601f016020900490600052602060002090810190614c409190614cf0565b5b50565b815481835581811511614c6b57818360005260206000209182019101614c6a9190614d29565b5b505050565b828054600181600116156101000203166002900490600052602060002090601f016020900481019282601f10614cb157805160ff1916838001178555614cdf565b82800160010185558215614cdf579182015b82811115614cde578251825591602001919060010190614cc3565b5b509050614cec9190614cf0565b5090565b614d1291905b80821115614d0e576000816000905550600101614cf6565b5090565b90565b602060405190810160405280600081525090565b614d4b91905b80821115614d47576000816000905550600101614d2f565b5090565b905600a165627a7a723058204548ca1c78724d6586fdacf645d53836722f8e1b6e259acbb493c5c8d0ba94600029",
  "source": "pragma solidity ^0.4.15;\n\nimport \"BadgeLibrary/contracts/BadgeLibrary.sol\";\nimport \"BadgeForceToken/contracts/BadgeForceToken.sol\";\n\nimport \"./Holder.sol\";\n\n\ncontract Issuer {\n    //access the badgeforce token contract\n    BadgeForceToken private BFT;\n    address constant NONE = 0x0000000000000000000000000000000000000000;\n    /// @notice the god account for this contract\n    address public admin;\n\n    struct AuthorizedAccount {\n        address issuer;\n        uint index;\n        bool isAuthorized;\n    }\n    /// @notice authorized issuers on this contract\n    mapping (address=>AuthorizedAccount) public authorizedAccountsMap;\n    /// @notice list of authorized acounts\n    address[] authorizedAccountsList;\n\n    /// @notice address of this contract \n    address public issuerContract; \n\n    string public name;\n    string public url;\n    \n    /// @notice mapping of badgename hash to badge\n    /// @notice array of badge hash names\n    struct Vault {\n        mapping (bytes32=>BadgeLibrary.BFBadge) badges;\n        bytes32[] badgeHashNames;\n    }\n\n    struct IssueTransaction {\n        bytes32 key; \n        bytes32 integrityHash;\n        address recipient;\n    }\n\n    /// @notice mapping of a unique hash to a recipient address, used to verify issuer of a credential \n    mapping (bytes32=>IssueTransaction) public credentialTxtMap;\n    mapping (bytes32=>bool) public revokationMap;\n    uint private nonce;\n\n    /// @notice storage for earnable badges \n    Vault badgeVault;\n\n    function Issuer(address _issuer, string _name, string _url, address _token) {\n        admin = _issuer;\n        name = _name;\n        url = _url;\n        issuerContract = address(this);\n        nonce = 0;\n        BFT = BadgeForceToken(_token);\n    }\n\n    event AuthorizeAttempt(address _actor, bool authorized);\n    /// @notice make sure caller is the issuer that owns this contract because badgeforce tokens will be used \n    modifier authorized(address _issuer) {\n        bool isAuthorized = (_issuer == admin || authorizedAccountsMap[_issuer].isAuthorized);\n        AuthorizeAttempt(_issuer, isAuthorized);\n        require(isAuthorized);\n        _;\n    }\n    \n    /// @notice make sure caller is the admin of this contract\n    modifier onlyAdmin(address _issuer) {\n        bool isAuthorized = (_issuer == admin);\n        AuthorizeAttempt(_issuer, isAuthorized);\n        require(isAuthorized);\n        _;\n    }\n    \n    /// @notice makes sure badge is unique\n    modifier uniqueBadge(string _name) {\n        bytes32 badgeNameHash = BadgeLibrary.getBadgeNameHash(_name);\n        BadgeLibrary.BFBadge memory badge = badgeVault.badges[badgeNameHash];\n        require(badgeVault.badgeHashNames.length == 0 || badgeVault.badgeHashNames[badge.index] != badgeNameHash);\n        _;\n    }\n\n    /// @notice checks if a badge exists by name\n    modifier badgeExistsN(string _name) {\n        bytes32 badgeNameHash = BadgeLibrary.getBadgeNameHash(_name);\n        BadgeLibrary.BFBadge memory badge = badgeVault.badges[badgeNameHash];\n        require(badgeVault.badgeHashNames.length > 0 && badgeVault.badgeHashNames[badge.index] == badgeNameHash);\n        _;\n    }\n\n    /// @notice checks if a badge exists by index\n    modifier badgeExists(uint _index) {\n        BadgeLibrary.BFBadge memory badge = badgeVault.badges[badgeVault.badgeHashNames[_index]];\n        bytes32 badgeNameHash = BadgeLibrary.getBadgeNameHash(badge.name);\n        require(badgeVault.badgeHashNames.length > 0 && badgeVault.badgeHashNames[_index] == badgeNameHash);\n        _;\n    }\n\n    event BadgeCreated(\n        string _name,\n        address indexed _issuer\n    ); \n    /// @notice create a new badge store it in the badging map \n    /// @param _description Description of the badge \n    /// @param _name name of the badge\n    /// @param _image badge image\n    /// @param _version badge version\n    /// @param _json json string representation\n    function createBadge(\n        string _description, \n        string _name,\n        string _image,\n        string _version, \n        string _json)     \n        authorized(msg.sender) uniqueBadge(_name) public\n        {   \n        require(BFT.payForCreateBadge(msg.sender)); \n        _createBadge(\n            issuerContract, \n            _description, \n            _name, \n            _image, \n            _version, \n            _json\n        );\n    }\n\n    function extractAddress(bytes32 _hash, bytes _sig) constant returns(address _issuer) {\n        bytes32 r;\n        bytes32 s;\n        uint8 v;\n\n        if (_sig.length != 65)\n          return 0;\n\n        // The signature format is a compact form of:\n        //   {bytes32 r}{bytes32 s}{uint8 v}\n        // Compact means, uint8 is not padded to 32 bytes.\n        assembly {\n            r := mload(add(_sig, 32))\n            s := mload(add(_sig, 64))\n\n            // Here we are loading the last 32 bytes. We exploit the fact that\n            // 'mload' will pad with zeroes if we overread.\n            // There is no 'mload8' to do this, but that would be nicer.\n            v := byte(0, mload(add(_sig, 96)))\n\n            // Alternative solution:\n            // 'byte' is not working due to the Solidity parser, so lets\n            // use the second best option, 'and'\n            // v := and(mload(add(sig, 65)), 255)\n        }\n\n        // albeit non-transactional signatures are not specified by the YP, one would expect it\n        // to match the YP range of [27, 28]\n        //\n        // geth uses [0, 1] and some clients have followed. This might change, see:\n        //  https://github.com/ethereum/go-ethereum/issues/2053\n        if (v < 27)\n          v += 27;\n\n        if (v != 27 && v != 28)\n            return 0;\n\n        _issuer = ecrecover(_hash, v, r, s);\n        return _issuer;\n    }\n\n    event CredentialIssued(\n        string _badgeName,\n        address indexed _recipient\n    );\n    /// @notice issue a new credential to a recipient contract\n    /// @param _badgeName name of the badge to issue \n    /// @param _recipient address of the holder contract\n    /// @param _expires expire date (number of weeks)\n    function issue(\n        string _badgeName, \n        address _recipient, \n        uint _expires) \n    public authorized(msg.sender)\n    {\n        require(BFT.payForIssueCredential(msg.sender));\n        bytes32 _txtKey = _getTxtKey(msg.data);\n        _setNewTxt(_txtKey, _recipient, _badgeName);\n        uint expires;\n        if (_expires <= 0) {\n            expires = _expires;\n        } else {\n            expires = now + (_expires * 1 weeks);\n        }\n        _sendToRecipient(\n            _badgeName, \n            _expires, \n            _recipient, \n            _txtKey\n        );\n    }\n    \n    event CredentialRevoked(bytes32 _txKey);\n    /// @notice revoke a credential\n    function revoke(bytes32 _txKey) public authorized(msg.sender) {\n        revokationMap[_txKey] = true;\n        CredentialRevoked(_txKey);\n    }\n\n    event CredentialUnRevoked(bytes32 _txKey);\n    /// @notice unrevoke a credential\n    function unRevoke(bytes32 _txKey) public authorized(msg.sender) {\n        revokationMap[_txKey] = false;\n        CredentialUnRevoked(_txKey);\n    }\n\n    event NewAccountAuthorized(address _newIssuer);\n    /// @notice add a new account that will be able to issue credentials from this contract\n    function authorzeAccount(address _newIssuer) public onlyAdmin(msg.sender) {\n        authorizedAccountsMap[_newIssuer] = AuthorizedAccount(_newIssuer, authorizedAccountsList.push(_newIssuer)-1, true);\n        NewAccountAuthorized(_newIssuer);\n    }\n\n    event AuthorizedAccountRemoved(address _issuer);\n    /// @notice remove an authorized issuer from this contract \n    /// @param _issuer address of the account that will be authorized\n    //@TODO remove account entirely from contract\n    function removeAuthorizedAccount(address _issuer) public onlyAdmin(msg.sender) {\n        authorizedAccountsMap[_issuer].isAuthorized = false;\n        AuthorizedAccountRemoved(_issuer);\n    }\n\n    /// @notice gets a authorized account, can be used in conjuntion with numOfAuthorizedAccounts to get all in UI\n    /// @param _index the index of the account in the authorizedAccountsList\n    function getAuthorizedAccount(uint _index) public returns(address _issuer) {\n        if (authorizedAccountsMap[authorizedAccountsList[_index]].isAuthorized) {\n            return authorizedAccountsList[_index];\n        } else {\n            return NONE;\n        }\n    }\n\n    /// @notice returns number of accounts ever authorized \n    function getNumberOfAuthorizedAccounts() public returns(uint _numOfAccounts) {\n        return authorizedAccountsList.length;\n    }\n\n    /// @notice check if credential is revoked\n    function getRevoked(bytes32 _key) public constant returns(bool c) {\n        return revokationMap[_key];\n    }\n\n    /// @notice get a badgeforce transaction key \n    function _getTxtKey(bytes _data) constant public returns (bytes32 txtKey) {\n        return BadgeLibrary.credentialTxKey(issuerContract, _data, nonce);\n    }\n    \n    /// @notice get integrity hash of some credential data \n    function _getIntegrityHash(string[] _data) constant private returns (bytes32 _hash) {\n        return sha3(_data);\n    }\n\n    function _getIssueTransaction(bytes32 _key, bytes32 _integrityHash, address _recipient) constant private returns (IssueTransaction transaction) {\n        return IssueTransaction(_key, _integrityHash, _recipient);\n    }\n\n    /// @notice set a new transaction (credential issued to recipient)\n    /// @param _txtKey the transaction key \n    /// @param _recipient recipient of the credential \n    function _setNewTxt(\n        bytes32 _txtKey, \n        address _recipient, \n        string _badgeName) private\n        {\n        //increase nonce\n        nonce++;\n        bytes32 badgeNameHash = BadgeLibrary.getBadgeNameHash(_badgeName);\n        BadgeLibrary.BFBadge memory badge = badgeVault.badges[badgeNameHash];\n        bytes32 integrityHash = BadgeLibrary.getIntegrityHash(\n            badge.issuer, \n            badge.description, \n            badge.name, \n            badge.image, \n            badge.version, \n            _recipient \n        );\n        IssueTransaction memory transaction = _getIssueTransaction(_txtKey, integrityHash, _recipient);\n        credentialTxtMap[_txtKey] = transaction;\n    }\n\n    /// @notice check that a transaction key exists in the transaction map (verify credential issuer)\n    /// @param _txtKey the transaction key to check \n    function _checkTransaction(bytes32 _txtKey, bytes32 _integrityHash, address _recipient) constant public returns(bool _revoked, bool _integrityHashCheck, bool _recipientCheck) {\n        \n        IssueTransaction memory transaction = credentialTxtMap[_txtKey];\n        _revoked = false;\n        _integrityHashCheck = false;\n        _recipientCheck = false;\n        if (transaction.recipient == NONE) {\n            return(_revoked, _integrityHashCheck, _recipientCheck);\n        } \n\n        _revoked = revokationMap[transaction.key];\n        _integrityHashCheck = (_integrityHash == transaction.integrityHash);\n        _recipientCheck = (_recipient == transaction.recipient);\n\n        return(_revoked, _integrityHashCheck, _recipientCheck);\n\n    }\n\n    /// @notice internal method that gets instance of recipient contract and stores credential\n    function _sendToRecipient(\n        string _badgeName, \n        uint expires, \n        address _recipient, \n        bytes32 _txtKey\n    ) private\n    {   \n        BadgeLibrary.BFBadge memory badge = badgeVault.badges[BadgeLibrary.getBadgeNameHash(_badgeName)];\n        require(badge.issuer != NONE);\n        Holder holder = Holder(_recipient);\n        holder.storeCredential(\n            badge.issuer,\n            badge.description,\n            badge.name,\n            badge.image,\n            badge.version,\n            badge.json, \n            expires,\n            _recipient, \n            _txtKey\n        );\n        CredentialIssued(\n            badge.name,\n            _recipient\n        );\n    }\n    \n    /// @notice internal method to call create badge method from library\n    function _createBadge(\n        address _issuer, \n        string _description, \n        string _name,\n        string _image,\n        string _version, \n        string _json) private \n        {\n        addBadge(\n            _issuer, \n            _description, \n            _name,\n            _image, \n            _version,\n            _json\n        );\n    }\n\n    function addBadge(\n        address _issuer, \n        string _description, \n        string _name,\n        string _image,\n        string _version, \n        string _json) private \n    {   \n        bytes32 badgeNameHash = BadgeLibrary.getBadgeNameHash(_name);\n        BadgeLibrary.BFBadge memory badge = BadgeLibrary.BFBadge(\n            _issuer, \n            _description, \n            _name,\n            _image, \n            _version,\n            _json, \n            badgeVault.badgeHashNames.push(badgeNameHash)-1\n        );\n        badgeVault.badges[badgeNameHash] = badge;\n        BadgeCreated(badge.name, badge.issuer);\n    }\n\n    event BadgeDeleted(string _name, uint count);\n    /// @notice delete a created badge \n    function deleteBadge(string _name) \n    authorized(msg.sender)\n    public returns(bool success) \n    {\n        require(BFT.payForDeleteBadge(msg.sender));\n        bytes32 badgeNameHash = BadgeLibrary.getBadgeNameHash(_name);\n        uint rowToDelete = badgeVault.badges[badgeNameHash].index; \n        bytes32 rowToMove = badgeVault.badgeHashNames[badgeVault.badgeHashNames.length-1];\n        badgeVault.badges[rowToMove].index = rowToDelete; \n        badgeVault.badgeHashNames[rowToDelete] = rowToMove; \n        badgeVault.badgeHashNames.length--;\n        delete badgeVault.badges[badgeNameHash];\n        BadgeDeleted(_name, badgeVault.badgeHashNames.length);\n        return true;\n    }\n \n    // @notice get the number of badges (used by frontend as iterator index to retrieve each badge)     authorized(_sig, _v, _r, _s) \n    function getNumberOfBadges()\n    constant public returns(uint count)\n    {   \n        return badgeVault.badgeHashNames.length;\n    }\n\n    /// @notice get a badge by it's index (should be used by frontend in a loop to get all the badges)\n    /// @param _index index of the badge to get inside the badge array\n    function getBadge(uint _index) constant badgeExists(_index) public returns(\n        address _issuer, \n        string _description, \n        string _name, \n        string _image, \n        string _version\n    ) {\n        bytes32 badgeNameHash = badgeVault.badgeHashNames[_index];\n        BadgeLibrary.BFBadge memory badge = badgeVault.badges[badgeNameHash];\n        return (\n            badge.issuer, \n            badge.description,\n            badge.name, \n            badge.image,\n            badge.version\n        );\n    } \n\n    /// @notice get issuer info\n    function getInfo() public constant returns(address _issuer, address _contract, string _name, string _url) {\n        return(admin, issuerContract, name, url);\n    }\n}",
  "sourcePath": "/Users/khalil.claybon/Desktop/some_work/badgeforce_dev/badgeforce/contracts/Issuer.sol",
  "compiler": {
    "name": "solc",
    "version": "0.4.18+commit.9cf6e910.Emscripten.clang"
  },
  "schemaVersion": "1.0.1",
  "updatedAt": "2017-11-25T12:06:18.576Z"
}