{
  "contractName": "PaymentLibrary",
  "abi": [
    {
      "constant": true,
      "inputs": [],
      "name": "getCreateBadgeCost",
      "outputs": [
        {
          "name": "cost",
          "type": "uint256"
        }
      ],
      "payable": false,
      "stateMutability": "view",
      "type": "function"
    },
    {
      "constant": true,
      "inputs": [],
      "name": "payDeleteBadgeCost",
      "outputs": [
        {
          "name": "cost",
          "type": "uint256"
        }
      ],
      "payable": false,
      "stateMutability": "view",
      "type": "function"
    },
    {
      "constant": true,
      "inputs": [],
      "name": "getVerifyCredentialCost",
      "outputs": [
        {
          "name": "cost",
          "type": "uint256"
        }
      ],
      "payable": false,
      "stateMutability": "view",
      "type": "function"
    },
    {
      "constant": true,
      "inputs": [],
      "name": "getIssueCredentialCost",
      "outputs": [
        {
          "name": "cost",
          "type": "uint256"
        }
      ],
      "payable": false,
      "stateMutability": "view",
      "type": "function"
    }
  ],
  "bytecode": "0x6060604052341561000f57600080fd5b6101578061001e6000396000f300606060405260043610610062576000357c0100000000000000000000000000000000000000000000000000000000900463ffffffff1680636a0452dd146100675780636c39838114610085578063d57b55e8146100a3578063df35e590146100c1575b600080fd5b61006f6100df565b6040518082815260200191505060405180910390f35b61008d6100f2565b6040518082815260200191505060405180910390f35b6100ab610105565b6040518082815260200191505060405180910390f35b6100c9610118565b6040518082815260200191505060405180910390f35b6000670de0b6b3a7640000601902905090565b6000670de0b6b3a7640000600c02905090565b6000670de0b6b3a7640000600f02905090565b6000670de0b6b3a76400006032029050905600a165627a7a723058209470444517b0221324591bb7260508d747ca88bb7839073fc9a8089e818f3d570029",
  "source": "pragma solidity ^0.4.15;\n\n\nlibrary PaymentLibrary {\n\n    uint constant BASE = 10**18;\n    uint256 constant CREATE_BADGE_COST = 25*BASE;\n    uint256 constant DELETE_BADGE_COST = 12*BASE;\n    uint256 constant ISSUE_CREDENTIAL_COST = 50*BASE;\n    uint256 constant VERIFY_CREDENTIAL_COST = 15*BASE;\n\n    function getCreateBadgeCost() constant returns(uint256 cost) {\n        return CREATE_BADGE_COST;\n    }\n\n    function getIssueCredentialCost() constant returns(uint256 cost) {\n        return ISSUE_CREDENTIAL_COST;\n    }\n\n    function getVerifyCredentialCost() constant returns(uint256 cost) {\n        return VERIFY_CREDENTIAL_COST;\n    }\n\n    function payDeleteBadgeCost() constant returns(uint256 cost) {\n        return DELETE_BADGE_COST;\n    }\n}",
  "sourcePath": "BadgeForceToken/contracts/PaymentLibrary.sol",
  "compiler": {
    "name": "solc",
    "version": "0.4.18+commit.9cf6e910.Emscripten.clang"
  },
  "schemaVersion": "1.0.1",
  "updatedAt": "2017-12-24T18:06:51.121Z"
}