{
  "contractName": "TransactionManager",
  "abi": [
    {
      "constant": false,
      "inputs": [
        {
          "name": "_txnKey",
          "type": "bytes32"
        },
        {
          "name": "_recipient",
          "type": "address"
        },
        {
          "name": "_badgeName",
          "type": "string"
        }
      ],
      "name": "setNewTxn",
      "outputs": [],
      "payable": false,
      "stateMutability": "nonpayable",
      "type": "function"
    },
    {
      "constant": true,
      "inputs": [
        {
          "name": "",
          "type": "bytes32"
        }
      ],
      "name": "credentialTxnMap",
      "outputs": [
        {
          "name": "key",
          "type": "bytes32"
        },
        {
          "name": "integrityHash",
          "type": "bytes32"
        },
        {
          "name": "recipient",
          "type": "address"
        },
        {
          "name": "revoked",
          "type": "bool"
        }
      ],
      "payable": false,
      "stateMutability": "view",
      "type": "function"
    },
    {
      "constant": true,
      "inputs": [
        {
          "name": "_txnKey",
          "type": "bytes32"
        }
      ],
      "name": "getTxn",
      "outputs": [
        {
          "name": "txnKey",
          "type": "bytes32"
        },
        {
          "name": "integrityHash",
          "type": "bytes32"
        },
        {
          "name": "recipient",
          "type": "address"
        },
        {
          "name": "revoked",
          "type": "bool"
        }
      ],
      "payable": false,
      "stateMutability": "view",
      "type": "function"
    },
    {
      "constant": true,
      "inputs": [],
      "name": "getNumberOfBadges",
      "outputs": [
        {
          "name": "count",
          "type": "uint256"
        }
      ],
      "payable": false,
      "stateMutability": "view",
      "type": "function"
    },
    {
      "constant": true,
      "inputs": [
        {
          "name": "_name",
          "type": "string"
        }
      ],
      "name": "getBadge",
      "outputs": [
        {
          "name": "issuer",
          "type": "address"
        },
        {
          "name": "description",
          "type": "string"
        },
        {
          "name": "bName",
          "type": "string"
        },
        {
          "name": "image",
          "type": "string"
        },
        {
          "name": "version",
          "type": "string"
        }
      ],
      "payable": false,
      "stateMutability": "view",
      "type": "function"
    },
    {
      "constant": true,
      "inputs": [
        {
          "name": "_index",
          "type": "uint256"
        }
      ],
      "name": "getAuthorizedAccount",
      "outputs": [
        {
          "name": "_issuer",
          "type": "address"
        }
      ],
      "payable": false,
      "stateMutability": "view",
      "type": "function"
    },
    {
      "constant": false,
      "inputs": [
        {
          "name": "_newIssuer",
          "type": "address"
        }
      ],
      "name": "authorzeAccount",
      "outputs": [],
      "payable": false,
      "stateMutability": "nonpayable",
      "type": "function"
    },
    {
      "constant": true,
      "inputs": [
        {
          "name": "_txnKey",
          "type": "bytes32"
        }
      ],
      "name": "isRevoked",
      "outputs": [
        {
          "name": "c",
          "type": "bool"
        }
      ],
      "payable": false,
      "stateMutability": "view",
      "type": "function"
    },
    {
      "constant": true,
      "inputs": [
        {
          "name": "_index",
          "type": "uint256"
        }
      ],
      "name": "getNameByIndex",
      "outputs": [
        {
          "name": "_name",
          "type": "bytes32"
        }
      ],
      "payable": false,
      "stateMutability": "view",
      "type": "function"
    },
    {
      "constant": false,
      "inputs": [
        {
          "name": "_description",
          "type": "string"
        },
        {
          "name": "_name",
          "type": "string"
        },
        {
          "name": "_image",
          "type": "string"
        },
        {
          "name": "_version",
          "type": "string"
        }
      ],
      "name": "createBadge",
      "outputs": [],
      "payable": false,
      "stateMutability": "nonpayable",
      "type": "function"
    },
    {
      "constant": true,
      "inputs": [
        {
          "name": "_name",
          "type": "string"
        }
      ],
      "name": "isUnique",
      "outputs": [
        {
          "name": "unique",
          "type": "bool"
        }
      ],
      "payable": false,
      "stateMutability": "view",
      "type": "function"
    },
    {
      "constant": true,
      "inputs": [],
      "name": "getNumberOfAuthorizedAccounts",
      "outputs": [
        {
          "name": "_numOfAccounts",
          "type": "uint256"
        }
      ],
      "payable": false,
      "stateMutability": "view",
      "type": "function"
    },
    {
      "constant": false,
      "inputs": [
        {
          "name": "_txnKey",
          "type": "bytes32"
        }
      ],
      "name": "unRevoke",
      "outputs": [],
      "payable": false,
      "stateMutability": "nonpayable",
      "type": "function"
    },
    {
      "constant": true,
      "inputs": [],
      "name": "nonce",
      "outputs": [
        {
          "name": "",
          "type": "uint256"
        }
      ],
      "payable": false,
      "stateMutability": "view",
      "type": "function"
    },
    {
      "constant": false,
      "inputs": [
        {
          "name": "_name",
          "type": "string"
        }
      ],
      "name": "deleteBadge",
      "outputs": [
        {
          "name": "success",
          "type": "bool"
        }
      ],
      "payable": false,
      "stateMutability": "nonpayable",
      "type": "function"
    },
    {
      "constant": false,
      "inputs": [
        {
          "name": "_txnKey",
          "type": "bytes32"
        }
      ],
      "name": "revoke",
      "outputs": [],
      "payable": false,
      "stateMutability": "nonpayable",
      "type": "function"
    },
    {
      "constant": false,
      "inputs": [
        {
          "name": "_issuer",
          "type": "address"
        }
      ],
      "name": "removeAuthorizedAccount",
      "outputs": [],
      "payable": false,
      "stateMutability": "nonpayable",
      "type": "function"
    },
    {
      "constant": true,
      "inputs": [
        {
          "name": "_issuer",
          "type": "address"
        },
        {
          "name": "_msgData",
          "type": "bytes"
        }
      ],
      "name": "getCredentialTxnKey",
      "outputs": [
        {
          "name": "key",
          "type": "bytes32"
        }
      ],
      "payable": false,
      "stateMutability": "view",
      "type": "function"
    },
    {
      "constant": true,
      "inputs": [],
      "name": "admin",
      "outputs": [
        {
          "name": "",
          "type": "address"
        }
      ],
      "payable": false,
      "stateMutability": "view",
      "type": "function"
    },
    {
      "constant": true,
      "inputs": [
        {
          "name": "",
          "type": "address"
        }
      ],
      "name": "authorizedAccountsMap",
      "outputs": [
        {
          "name": "issuer",
          "type": "address"
        },
        {
          "name": "index",
          "type": "uint256"
        },
        {
          "name": "isAuthorized",
          "type": "bool"
        }
      ],
      "payable": false,
      "stateMutability": "view",
      "type": "function"
    },
    {
      "inputs": [
        {
          "name": "_adminWalletAddr",
          "type": "address"
        }
      ],
      "payable": false,
      "stateMutability": "nonpayable",
      "type": "constructor"
    },
    {
      "anonymous": false,
      "inputs": [
        {
          "indexed": false,
          "name": "_txnKey",
          "type": "bytes32"
        }
      ],
      "name": "CredentialRevoked",
      "type": "event"
    },
    {
      "anonymous": false,
      "inputs": [
        {
          "indexed": false,
          "name": "_txnKey",
          "type": "bytes32"
        }
      ],
      "name": "CredentialUnRevoked",
      "type": "event"
    },
    {
      "anonymous": false,
      "inputs": [
        {
          "indexed": false,
          "name": "_name",
          "type": "string"
        },
        {
          "indexed": true,
          "name": "_issuer",
          "type": "address"
        }
      ],
      "name": "BadgeCreated",
      "type": "event"
    },
    {
      "anonymous": false,
      "inputs": [
        {
          "indexed": false,
          "name": "_name",
          "type": "string"
        },
        {
          "indexed": false,
          "name": "count",
          "type": "uint256"
        }
      ],
      "name": "BadgeDeleted",
      "type": "event"
    },
    {
      "anonymous": false,
      "inputs": [
        {
          "indexed": false,
          "name": "_actor",
          "type": "address"
        },
        {
          "indexed": false,
          "name": "authorized",
          "type": "bool"
        }
      ],
      "name": "AuthorizeAttempt",
      "type": "event"
    },
    {
      "anonymous": false,
      "inputs": [
        {
          "indexed": false,
          "name": "_newIssuer",
          "type": "address"
        }
      ],
      "name": "NewAccountAuthorized",
      "type": "event"
    },
    {
      "anonymous": false,
      "inputs": [
        {
          "indexed": false,
          "name": "_issuer",
          "type": "address"
        }
      ],
      "name": "AuthorizedAccountRemoved",
      "type": "event"
    }
  ],
  "bytecode": "0x6060604052341561000f57600080fd5b604051602080613141833981016040528080519060200190919050508080806000806101000a81548173ffffffffffffffffffffffffffffffffffffffff021916908373ffffffffffffffffffffffffffffffffffffffff16021790555050506000600781905550506130ba806100876000396000f300606060405260043610610112576000357c0100000000000000000000000000000000000000000000000000000000900463ffffffff168063029a2858146101175780630decfdea146101a05780631041eb961461023057806324ddd51a146102c05780632d902fe7146102e95780633557b6c3146105365780633b57391a146105995780634294857f146105d257806359c293f1146106115780635c9d3a941461065057806372ee19a2146107765780637c59fda0146107eb578063a5aef15b14610814578063affed0e01461083b578063b610922114610864578063b75c7dc6146108d9578063be47aa0914610900578063eb92948114610939578063f851a440146109d1578063f9afc24214610a26575b600080fd5b341561012257600080fd5b61019e60048080356000191690602001909190803573ffffffffffffffffffffffffffffffffffffffff1690602001909190803590602001908201803590602001908080601f01602080910402602001604051908101604052809392919081815260200183838082843782019150505050505091905050610ab1565b005b34156101ab57600080fd5b6101c560048080356000191690602001909190505061139f565b60405180856000191660001916815260200184600019166000191681526020018373ffffffffffffffffffffffffffffffffffffffff1673ffffffffffffffffffffffffffffffffffffffff1681526020018215151515815260200194505050505060405180910390f35b341561023b57600080fd5b6102556004808035600019169060200190919050506113fc565b60405180856000191660001916815260200184600019166000191681526020018373ffffffffffffffffffffffffffffffffffffffff1673ffffffffffffffffffffffffffffffffffffffff1681526020018215151515815260200194505050505060405180910390f35b34156102cb57600080fd5b6102d36114ba565b6040518082815260200191505060405180910390f35b34156102f457600080fd5b610344600480803590602001908201803590602001908080601f016020809104026020016040519081016040528093929190818152602001838380828437820191505050505050919050506114ca565b604051808673ffffffffffffffffffffffffffffffffffffffff1673ffffffffffffffffffffffffffffffffffffffff16815260200180602001806020018060200180602001858103855289818151815260200191508051906020019080838360005b838110156103c25780820151818401526020810190506103a7565b50505050905090810190601f1680156103ef5780820380516001836020036101000a031916815260200191505b50858103845288818151815260200191508051906020019080838360005b8381101561042857808201518184015260208101905061040d565b50505050905090810190601f1680156104555780820380516001836020036101000a031916815260200191505b50858103835287818151815260200191508051906020019080838360005b8381101561048e578082015181840152602081019050610473565b50505050905090810190601f1680156104bb5780820380516001836020036101000a031916815260200191505b50858103825286818151815260200191508051906020019080838360005b838110156104f45780820151818401526020810190506104d9565b50505050905090810190601f1680156105215780820380516001836020036101000a031916815260200191505b50995050505050505050505060405180910390f35b341561054157600080fd5b6105576004808035906020019091905050611a8e565b604051808273ffffffffffffffffffffffffffffffffffffffff1673ffffffffffffffffffffffffffffffffffffffff16815260200191505060405180910390f35b34156105a457600080fd5b6105d0600480803573ffffffffffffffffffffffffffffffffffffffff16906020019091905050611b6b565b005b34156105dd57600080fd5b6105f7600480803560001916906020019091905050611def565b604051808215151515815260200191505060405180910390f35b341561061c57600080fd5b6106326004808035906020019091905050611e24565b60405180826000191660001916815260200191505060405180910390f35b341561065b57600080fd5b610774600480803590602001908201803590602001908080601f0160208091040260200160405190810160405280939291908181526020018383808284378201915050505050509190803590602001908201803590602001908080601f0160208091040260200160405190810160405280939291908181526020018383808284378201915050505050509190803590602001908201803590602001908080601f0160208091040260200160405190810160405280939291908181526020018383808284378201915050505050509190803590602001908201803590602001908080601f01602080910402602001604051908101604052809392919081815260200183838082843782019150505050505091905050611e4b565b005b341561078157600080fd5b6107d1600480803590602001908201803590602001908080601f016020809104026020016040519081016040528093929190818152602001838380828437820191505050505050919050506122c4565b604051808215151515815260200191505060405180910390f35b34156107f657600080fd5b6107fe61241e565b6040518082815260200191505060405180910390f35b341561081f57600080fd5b61083960048080356000191690602001909190505061242b565b005b341561084657600080fd5b61084e6125cd565b6040518082815260200191505060405180910390f35b341561086f57600080fd5b6108bf600480803590602001908201803590602001908080601f016020809104026020016040519081016040528093929190818152602001838380828437820191505050505050919050506125d3565b604051808215151515815260200191505060405180910390f35b34156108e457600080fd5b6108fe600480803560001916906020019091905050612a07565b005b341561090b57600080fd5b610937600480803573ffffffffffffffffffffffffffffffffffffffff16906020019091905050612ba9565b005b341561094457600080fd5b6109b3600480803573ffffffffffffffffffffffffffffffffffffffff1690602001909190803590602001908201803590602001908080601f01602080910402602001604051908101604052809392919081815260200183838082843782019150505050505091905050612d3c565b60405180826000191660001916815260200191505060405180910390f35b34156109dc57600080fd5b6109e4612df6565b604051808273ffffffffffffffffffffffffffffffffffffffff1673ffffffffffffffffffffffffffffffffffffffff16815260200191505060405180910390f35b3415610a3157600080fd5b610a5d600480803573ffffffffffffffffffffffffffffffffffffffff16906020019091905050612e1b565b604051808473ffffffffffffffffffffffffffffffffffffffff1673ffffffffffffffffffffffffffffffffffffffff16815260200183815260200182151515158152602001935050505060405180910390f35b6000610abb612e72565b60003360008060009054906101000a900473ffffffffffffffffffffffffffffffffffffffff1673ffffffffffffffffffffffffffffffffffffffff168273ffffffffffffffffffffffffffffffffffffffff161480610b675750600160008373ffffffffffffffffffffffffffffffffffffffff1673ffffffffffffffffffffffffffffffffffffffff16815260200190815260200160002060020160009054906101000a900460ff165b90507f7fca019a0a52664785803f352d793a992f66c4affa261b3daf127976e7ad67998282604051808373ffffffffffffffffffffffffffffffffffffffff1673ffffffffffffffffffffffffffffffffffffffff168152602001821515151581526020019250505060405180910390a1801515610be457600080fd5b60076000815480929190600101919050555073__BadgeLibrary__________________________63c1eabde9876000604051602001526040518263ffffffff167c01000000000000000000000000000000000000000000000000000000000281526004018080602001828103825283818151815260200191508051906020019080838360005b83811015610c85578082015181840152602081019050610c6a565b50505050905090810190601f168015610cb25780820380516001836020036101000a031916815260200191505b509250505060206040518083038186803b1515610cce57600080fd5b6102c65a03f41515610cdf57600080fd5b50505060405180519050945060036000016000866000191660001916815260200190815260200160002060a060405190810160405290816000820160009054906101000a900473ffffffffffffffffffffffffffffffffffffffff1673ffffffffffffffffffffffffffffffffffffffff1673ffffffffffffffffffffffffffffffffffffffff168152602001600182018054600181600116156101000203166002900480601f016020809104026020016040519081016040528092919081815260200182805460018160011615610100020316600290048015610e045780601f10610dd957610100808354040283529160200191610e04565b820191906000526020600020905b815481529060010190602001808311610de757829003601f168201915b50505050508152602001600282018054600181600116156101000203166002900480601f016020809104026020016040519081016040528092919081815260200182805460018160011615610100020316600290048015610ea65780601f10610e7b57610100808354040283529160200191610ea6565b820191906000526020600020905b815481529060010190602001808311610e8957829003601f168201915b50505050508152602001600382018054600181600116156101000203166002900480601f016020809104026020016040519081016040528092919081815260200182805460018160011615610100020316600290048015610f485780601f10610f1d57610100808354040283529160200191610f48565b820191906000526020600020905b815481529060010190602001808311610f2b57829003601f168201915b50505050508152602001600482018054600181600116156101000203166002900480601f016020809104026020016040519081016040528092919081815260200182805460018160011615610100020316600290048015610fea5780601f10610fbf57610100808354040283529160200191610fea565b820191906000526020600020905b815481529060010190602001808311610fcd57829003601f168201915b505050505081525050935073__BadgeLibrary__________________________631ddb6af6856000015186602001518760400151886060015189608001518d6000604051602001526040518763ffffffff167c0100000000000000000000000000000000000000000000000000000000028152600401808773ffffffffffffffffffffffffffffffffffffffff1673ffffffffffffffffffffffffffffffffffffffff168152602001806020018060200180602001806020018673ffffffffffffffffffffffffffffffffffffffff1673ffffffffffffffffffffffffffffffffffffffff16815260200185810385528a818151815260200191508051906020019080838360005b8381101561110d5780820151818401526020810190506110f2565b50505050905090810190601f16801561113a5780820380516001836020036101000a031916815260200191505b50858103845289818151815260200191508051906020019080838360005b83811015611173578082015181840152602081019050611158565b50505050905090810190601f1680156111a05780820380516001836020036101000a031916815260200191505b50858103835288818151815260200191508051906020019080838360005b838110156111d95780820151818401526020810190506111be565b50505050905090810190601f1680156112065780820380516001836020036101000a031916815260200191505b50858103825287818151815260200191508051906020019080838360005b8381101561123f578082015181840152602081019050611224565b50505050905090810190601f16801561126c5780820380516001836020036101000a031916815260200191505b509a505050505050505050505060206040518083038186803b151561129057600080fd5b6102c65a03f415156112a157600080fd5b50505060405180519050925060806040519081016040528089600019168152602001846000191681526020018873ffffffffffffffffffffffffffffffffffffffff16815260200160001515815250600660008a60001916600019168152602001908152602001600020600082015181600001906000191690556020820151816001019060001916905560408201518160020160006101000a81548173ffffffffffffffffffffffffffffffffffffffff021916908373ffffffffffffffffffffffffffffffffffffffff16021790555060608201518160020160146101000a81548160ff0219169083151502179055509050505050505050505050565b60066020528060005260406000206000915090508060000154908060010154908060020160009054906101000a900473ffffffffffffffffffffffffffffffffffffffff16908060020160149054906101000a900460ff16905084565b600080600080600660008660001916600019168152602001908152602001600020600001546006600087600019166000191681526020019081526020016000206001015460066000886000191660001916815260200190815260200160002060020160009054906101000a900473ffffffffffffffffffffffffffffffffffffffff1660066000896000191660001916815260200190815260200160002060020160149054906101000a900460ff1693509350935093509193509193565b6000600360020180549050905090565b60006114d4612ed0565b6114dc612ed0565b6114e4612ed0565b6114ec612ed0565b60006114f6612e72565b87600073__BadgeLibrary__________________________63c1eabde9836000604051602001526040518263ffffffff167c01000000000000000000000000000000000000000000000000000000000281526004018080602001828103825283818151815260200191508051906020019080838360005b8381101561158857808201518184015260208101905061156d565b50505050905090810190601f1680156115b55780820380516001836020036101000a031916815260200191505b509250505060206040518083038186803b15156115d157600080fd5b6102c65a03f415156115e257600080fd5b50505060405180519050905060006003600201805490501180156116485750806000191660036002016003600101600084600019166000191681526020019081526020016000205481548110151561163657fe5b90600052602060002090015460001916145b151561165357600080fd5b73__BadgeLibrary__________________________63c1eabde98b6000604051602001526040518263ffffffff167c01000000000000000000000000000000000000000000000000000000000281526004018080602001828103825283818151815260200191508051906020019080838360005b838110156116e25780820151818401526020810190506116c7565b50505050905090810190601f16801561170f5780820380516001836020036101000a031916815260200191505b509250505060206040518083038186803b151561172b57600080fd5b6102c65a03f4151561173c57600080fd5b50505060405180519050935060036000016000856000191660001916815260200190815260200160002060a060405190810160405290816000820160009054906101000a900473ffffffffffffffffffffffffffffffffffffffff1673ffffffffffffffffffffffffffffffffffffffff1673ffffffffffffffffffffffffffffffffffffffff168152602001600182018054600181600116156101000203166002900480601f0160208091040260200160405190810160405280929190818152602001828054600181600116156101000203166002900480156118615780601f1061183657610100808354040283529160200191611861565b820191906000526020600020905b81548152906001019060200180831161184457829003601f168201915b50505050508152602001600282018054600181600116156101000203166002900480601f0160208091040260200160405190810160405280929190818152602001828054600181600116156101000203166002900480156119035780601f106118d857610100808354040283529160200191611903565b820191906000526020600020905b8154815290600101906020018083116118e657829003601f168201915b50505050508152602001600382018054600181600116156101000203166002900480601f0160208091040260200160405190810160405280929190818152602001828054600181600116156101000203166002900480156119a55780601f1061197a576101008083540402835291602001916119a5565b820191906000526020600020905b81548152906001019060200180831161198857829003601f168201915b50505050508152602001600482018054600181600116156101000203166002900480601f016020809104026020016040519081016040528092919081815260200182805460018160011615610100020316600290048015611a475780601f10611a1c57610100808354040283529160200191611a47565b820191906000526020600020905b815481529060010190602001808311611a2a57829003601f168201915b505050505081525050925082600001518360200151846040015185606001518660800151839350829250819150809050985098509850985098505050505091939590929450565b600060016000600284815481101515611aa357fe5b906000526020600020900160009054906101000a900473ffffffffffffffffffffffffffffffffffffffff1673ffffffffffffffffffffffffffffffffffffffff1673ffffffffffffffffffffffffffffffffffffffff16815260200190815260200160002060020160009054906101000a900460ff1615611b6157600282815481101515611b2e57fe5b906000526020600020900160009054906101000a900473ffffffffffffffffffffffffffffffffffffffff169050611b66565b600090505b919050565b3360008060009054906101000a900473ffffffffffffffffffffffffffffffffffffffff1673ffffffffffffffffffffffffffffffffffffffff168273ffffffffffffffffffffffffffffffffffffffff161490507f7fca019a0a52664785803f352d793a992f66c4affa261b3daf127976e7ad67998282604051808373ffffffffffffffffffffffffffffffffffffffff1673ffffffffffffffffffffffffffffffffffffffff168152602001821515151581526020019250505060405180910390a1801515611c3b57600080fd5b6060604051908101604052808473ffffffffffffffffffffffffffffffffffffffff168152602001600160028054806001018281611c799190612ee4565b9160005260206000209001600088909190916101000a81548173ffffffffffffffffffffffffffffffffffffffff021916908373ffffffffffffffffffffffffffffffffffffffff16021790555003815260200160011515815250600160008573ffffffffffffffffffffffffffffffffffffffff1673ffffffffffffffffffffffffffffffffffffffff16815260200190815260200160002060008201518160000160006101000a81548173ffffffffffffffffffffffffffffffffffffffff021916908373ffffffffffffffffffffffffffffffffffffffff1602179055506020820151816001015560408201518160020160006101000a81548160ff0219169083151502179055509050507f7fd215c956537f33ef9064c457003d82df8562a7b03e1f896c0b39c7abc8355883604051808273ffffffffffffffffffffffffffffffffffffffff1673ffffffffffffffffffffffffffffffffffffffff16815260200191505060405180910390a1505050565b600060066000836000191660001916815260200190815260200160002060020160149054906101000a900460ff169050919050565b6000600360020182815481101515611e3857fe5b9060005260206000209001549050919050565b600080611e56612e72565b3360008060009054906101000a900473ffffffffffffffffffffffffffffffffffffffff1673ffffffffffffffffffffffffffffffffffffffff168273ffffffffffffffffffffffffffffffffffffffff161480611f005750600160008373ffffffffffffffffffffffffffffffffffffffff1673ffffffffffffffffffffffffffffffffffffffff16815260200190815260200160002060020160009054906101000a900460ff165b90507f7fca019a0a52664785803f352d793a992f66c4affa261b3daf127976e7ad67998282604051808373ffffffffffffffffffffffffffffffffffffffff1673ffffffffffffffffffffffffffffffffffffffff168152602001821515151581526020019250505060405180910390a1801515611f7d57600080fd5b87611f87816122c4565b1515611f9257600080fd5b73__BadgeLibrary__________________________63c1eabde98a6000604051602001526040518263ffffffff167c01000000000000000000000000000000000000000000000000000000000281526004018080602001828103825283818151815260200191508051906020019080838360005b83811015612021578082015181840152602081019050612006565b50505050905090810190601f16801561204e5780820380516001836020036101000a031916815260200191505b509250505060206040518083038186803b151561206a57600080fd5b6102c65a03f4151561207b57600080fd5b5050506040518051905095506001600360020180548060010182816120a09190612f10565b916000526020600020900160008990919091509060001916905503945060a0604051908101604052803073ffffffffffffffffffffffffffffffffffffffff1681526020018b81526020018a81526020018981526020018881525093508360036000016000886000191660001916815260200190815260200160002060008201518160000160006101000a81548173ffffffffffffffffffffffffffffffffffffffff021916908373ffffffffffffffffffffffffffffffffffffffff160217905550602082015181600101908051906020019061217f929190612f3c565b50604082015181600201908051906020019061219c929190612f3c565b5060608201518160030190805190602001906121b9929190612f3c565b5060808201518160040190805190602001906121d6929190612f3c565b509050508460036001016000886000191660001916815260200190815260200160002081905550836000015173ffffffffffffffffffffffffffffffffffffffff167fde74f67f0ccaf379531f5b3884d0afb87e86192a992d99e7222390f8870a0b5385604001516040518080602001828103825283818151815260200191508051906020019080838360005b8381101561227e578082015181840152602081019050612263565b50505050905090810190601f1680156122ab5780820380516001836020036101000a031916815260200191505b509250505060405180910390a250505050505050505050565b60008073__BadgeLibrary__________________________63c1eabde9846000604051602001526040518263ffffffff167c01000000000000000000000000000000000000000000000000000000000281526004018080602001828103825283818151815260200191508051906020019080838360005b8381101561235657808201518184015260208101905061233b565b50505050905090810190601f1680156123835780820380516001836020036101000a031916815260200191505b509250505060206040518083038186803b151561239f57600080fd5b6102c65a03f415156123b057600080fd5b505050604051805190509050600060036002018054905014806124165750806000191660036002016003600101600084600019166000191681526020019081526020016000205481548110151561240357fe5b9060005260206000209001546000191614155b915050919050565b6000600280549050905090565b3360008060009054906101000a900473ffffffffffffffffffffffffffffffffffffffff1673ffffffffffffffffffffffffffffffffffffffff168273ffffffffffffffffffffffffffffffffffffffff1614806124d55750600160008373ffffffffffffffffffffffffffffffffffffffff1673ffffffffffffffffffffffffffffffffffffffff16815260200190815260200160002060020160009054906101000a900460ff165b90507f7fca019a0a52664785803f352d793a992f66c4affa261b3daf127976e7ad67998282604051808373ffffffffffffffffffffffffffffffffffffffff1673ffffffffffffffffffffffffffffffffffffffff168152602001821515151581526020019250505060405180910390a180151561255257600080fd5b600060066000856000191660001916815260200190815260200160002060020160146101000a81548160ff0219169083151502179055507fd1e55fd73bb60d490f023f5239b9c0ca41f4503cca514ab5c7c8649a188afdd38360405180826000191660001916815260200191505060405180910390a1505050565b60075481565b6000806000803360008060009054906101000a900473ffffffffffffffffffffffffffffffffffffffff1673ffffffffffffffffffffffffffffffffffffffff168273ffffffffffffffffffffffffffffffffffffffff1614806126835750600160008373ffffffffffffffffffffffffffffffffffffffff1673ffffffffffffffffffffffffffffffffffffffff16815260200190815260200160002060020160009054906101000a900460ff165b90507f7fca019a0a52664785803f352d793a992f66c4affa261b3daf127976e7ad67998282604051808373ffffffffffffffffffffffffffffffffffffffff1673ffffffffffffffffffffffffffffffffffffffff168152602001821515151581526020019250505060405180910390a180151561270057600080fd5b73__BadgeLibrary__________________________63c1eabde9886000604051602001526040518263ffffffff167c01000000000000000000000000000000000000000000000000000000000281526004018080602001828103825283818151815260200191508051906020019080838360005b8381101561278f578082015181840152602081019050612774565b50505050905090810190601f1680156127bc5780820380516001836020036101000a031916815260200191505b509250505060206040518083038186803b15156127d857600080fd5b6102c65a03f415156127e957600080fd5b505050604051805190509450600360010160008660001916600019168152602001908152602001600020549350600360020160016003600201805490500381548110151561283357fe5b906000526020600020900154925083600360010160008560001916600019168152602001908152602001600020819055508260036002018581548110151561287757fe5b9060005260206000209001816000191690555060036002018054809190600190036128a29190612fbc565b50600360000160008660001916600019168152602001908152602001600020600080820160006101000a81549073ffffffffffffffffffffffffffffffffffffffff02191690556001820160006128f99190612fe8565b6002820160006129099190612fe8565b6003820160006129199190612fe8565b6004820160006129299190612fe8565b5050600360010160008660001916600019168152602001908152602001600020600090557f25011d6c52f8dd436cbad877a1e1bfa99b3fc7b3df1c4f7b68d6f6403e943a51876003600201805490506040518080602001838152602001828103825284818151815260200191508051906020019080838360005b838110156129be5780820151818401526020810190506129a3565b50505050905090810190601f1680156129eb5780820380516001836020036101000a031916815260200191505b50935050505060405180910390a1600195505050505050919050565b3360008060009054906101000a900473ffffffffffffffffffffffffffffffffffffffff1673ffffffffffffffffffffffffffffffffffffffff168273ffffffffffffffffffffffffffffffffffffffff161480612ab15750600160008373ffffffffffffffffffffffffffffffffffffffff1673ffffffffffffffffffffffffffffffffffffffff16815260200190815260200160002060020160009054906101000a900460ff165b90507f7fca019a0a52664785803f352d793a992f66c4affa261b3daf127976e7ad67998282604051808373ffffffffffffffffffffffffffffffffffffffff1673ffffffffffffffffffffffffffffffffffffffff168152602001821515151581526020019250505060405180910390a1801515612b2e57600080fd5b600160066000856000191660001916815260200190815260200160002060020160146101000a81548160ff0219169083151502179055507f3cc2375f3fc7711ba27361cde93880f578742f9f050acee766bed662d117ba728360405180826000191660001916815260200191505060405180910390a1505050565b3360008060009054906101000a900473ffffffffffffffffffffffffffffffffffffffff1673ffffffffffffffffffffffffffffffffffffffff168273ffffffffffffffffffffffffffffffffffffffff161490507f7fca019a0a52664785803f352d793a992f66c4affa261b3daf127976e7ad67998282604051808373ffffffffffffffffffffffffffffffffffffffff1673ffffffffffffffffffffffffffffffffffffffff168152602001821515151581526020019250505060405180910390a1801515612c7957600080fd5b6000600160008573ffffffffffffffffffffffffffffffffffffffff1673ffffffffffffffffffffffffffffffffffffffff16815260200190815260200160002060020160006101000a81548160ff0219169083151502179055507f56a53756e1db2ff35a90edee9bd205b4b2bb8633ee3d6a53a5e85d5b46f0e9dc83604051808273ffffffffffffffffffffffffffffffffffffffff1673ffffffffffffffffffffffffffffffffffffffff16815260200191505060405180910390a1505050565b60008282600754604051808473ffffffffffffffffffffffffffffffffffffffff1673ffffffffffffffffffffffffffffffffffffffff166c0100000000000000000000000002815260140183805190602001908083835b602083101515612db95780518252602082019150602081019050602083039250612d94565b6001836020036101000a03801982511681845116808217855250505050505090500182815260200193505050506040518091039020905092915050565b6000809054906101000a900473ffffffffffffffffffffffffffffffffffffffff1681565b60016020528060005260406000206000915090508060000160009054906101000a900473ffffffffffffffffffffffffffffffffffffffff16908060010154908060020160009054906101000a900460ff16905083565b60a060405190810160405280600073ffffffffffffffffffffffffffffffffffffffff168152602001612ea3613030565b8152602001612eb0613030565b8152602001612ebd613030565b8152602001612eca613030565b81525090565b602060405190810160405280600081525090565b815481835581811511612f0b57818360005260206000209182019101612f0a9190613044565b5b505050565b815481835581811511612f3757818360005260206000209182019101612f369190613069565b5b505050565b828054600181600116156101000203166002900490600052602060002090601f016020900481019282601f10612f7d57805160ff1916838001178555612fab565b82800160010185558215612fab579182015b82811115612faa578251825591602001919060010190612f8f565b5b509050612fb89190613044565b5090565b815481835581811511612fe357818360005260206000209182019101612fe29190613069565b5b505050565b50805460018160011615610100020316600290046000825580601f1061300e575061302d565b601f01602090049060005260206000209081019061302c9190613044565b5b50565b602060405190810160405280600081525090565b61306691905b8082111561306257600081600090555060010161304a565b5090565b90565b61308b91905b8082111561308757600081600090555060010161306f565b5090565b905600a165627a7a72305820271456014428bab34bc8bd1810d62803968fa87ab37c253bd93789b0dbb95f6f0029",
  "source": "pragma solidity ^0.4.17;\n\nimport \"BadgeLibrary/contracts/BadgeLibrary.sol\";\n\nimport \"./BadgeManager.sol\";\n\ncontract TransactionManager is BadgeManager {\n\n    struct Transaction {\n        bytes32 key; \n        bytes32 integrityHash;\n        address recipient;\n        bool revoked;\n    }\n\n    /// @notice mapping of a unique hash to a recipient address, used to verify issuer of a credential \n    mapping (bytes32=>Transaction) public credentialTxnMap;\n\n    uint public nonce;\n\n    function TransactionManager(address _adminWalletAddr) public BadgeManager(_adminWalletAddr) {\n        nonce = 0;\n    }\n\n    /** @dev sets a new transaction (credential issued to recipient)\n      * @param _txnKey the transaction key \n      * @param _recipient recipient of the credential\n    */\n    function setNewTxn(\n        bytes32 _txnKey, \n        address _recipient, \n        string _badgeName) authorized(msg.sender) public \n        {\n        //increase nonce\n        nonce++;\n        bytes32 badgeNameHash = BadgeLibrary.getBadgeNameHash(_badgeName);\n        BadgeLibrary.Badge memory badge = badgeVault.badges[badgeNameHash];\n        bytes32 integrityHash = BadgeLibrary.getIntegrityHash(\n            badge.issuer, \n            badge.description, \n            badge.name, \n            badge.image, \n            badge.version, \n            _recipient \n        );\n        credentialTxnMap[_txnKey] = Transaction(_txnKey, integrityHash, _recipient, false);\n    }\n\n    /** @dev gets a transaction\n      * @param _txnKey the transaction key \n      * @return txnKey the key for the transaction\n      * @return integrityHash proof of integrity hash for badge issued in this transaction\n      * @return recipient address of the wallet associated with the person who received this badge\n    */ \n    function getTxn(bytes32 _txnKey) constant public returns(bytes32 txnKey, bytes32 integrityHash, address recipient, bool revoked) {\n        return(\n            credentialTxnMap[_txnKey].key,\n            credentialTxnMap[_txnKey].integrityHash,\n            credentialTxnMap[_txnKey].recipient,\n            credentialTxnMap[_txnKey].revoked\n        );\n    }\n\n    /// @notice generate a credential transaction key\n    /// @param _issuer address of the issuer\n    /// @param _msgData msg data\n    function getCredentialTxnKey(address _issuer, bytes _msgData) public view returns(bytes32 key) {\n        return keccak256(_issuer, _msgData, nonce);\n    }\n\n    event CredentialRevoked(bytes32 _txnKey);\n    /// @notice revoke a credential\n    function revoke(bytes32 _txnKey) public authorized(msg.sender) {\n        credentialTxnMap[_txnKey].revoked = true;\n        CredentialRevoked(_txnKey);\n    }\n\n    event CredentialUnRevoked(bytes32 _txnKey);\n    /// @notice unrevoke a credential\n    function unRevoke(bytes32 _txnKey) public authorized(msg.sender) {\n        credentialTxnMap[_txnKey].revoked = false;\n        CredentialUnRevoked(_txnKey);\n    }\n\n    /// @notice check if credential is revoked\n    function isRevoked(bytes32 _txnKey) public constant returns(bool c) {\n        return credentialTxnMap[_txnKey].revoked;\n    }\n}",
  "sourcePath": "/Users/khalil.claybon/Desktop/migrate-to-new-cpu/some_work/badgeforce_dev/badgeforce/contracts/TransactionManager.sol",
  "compiler": {
    "name": "solc",
    "version": "0.4.18+commit.9cf6e910.Emscripten.clang"
  },
  "schemaVersion": "1.0.1",
  "updatedAt": "2018-01-02T09:04:20.807Z"
}