{
  "contractName": "TransactionManager",
  "abi": [
    {
      "constant": false,
      "inputs": [
        {
          "name": "_txnKey",
          "type": "bytes32"
        },
        {
          "name": "_recipient",
          "type": "address"
        },
        {
          "name": "_badgeName",
          "type": "string"
        }
      ],
      "name": "setNewTxn",
      "outputs": [],
      "payable": false,
      "stateMutability": "nonpayable",
      "type": "function"
    },
    {
      "constant": true,
      "inputs": [
        {
          "name": "",
          "type": "bytes32"
        }
      ],
      "name": "credentialTxnMap",
      "outputs": [
        {
          "name": "key",
          "type": "bytes32"
        },
        {
          "name": "integrityHash",
          "type": "bytes32"
        },
        {
          "name": "recipient",
          "type": "address"
        },
        {
          "name": "revoked",
          "type": "bool"
        }
      ],
      "payable": false,
      "stateMutability": "view",
      "type": "function"
    },
    {
      "constant": true,
      "inputs": [
        {
          "name": "_txnKey",
          "type": "bytes32"
        }
      ],
      "name": "getTxn",
      "outputs": [
        {
          "name": "txnKey",
          "type": "bytes32"
        },
        {
          "name": "integrityHash",
          "type": "bytes32"
        },
        {
          "name": "recipient",
          "type": "address"
        },
        {
          "name": "revoked",
          "type": "bool"
        }
      ],
      "payable": false,
      "stateMutability": "view",
      "type": "function"
    },
    {
      "constant": true,
      "inputs": [
        {
          "name": "_name",
          "type": "string"
        },
        {
          "name": "_issuer",
          "type": "address"
        }
      ],
      "name": "getBadgeLinkHash",
      "outputs": [
        {
          "name": "hash",
          "type": "bytes32"
        }
      ],
      "payable": false,
      "stateMutability": "pure",
      "type": "function"
    },
    {
      "constant": true,
      "inputs": [
        {
          "name": "issuer",
          "type": "address"
        },
        {
          "name": "description",
          "type": "string"
        },
        {
          "name": "name",
          "type": "string"
        },
        {
          "name": "image",
          "type": "string"
        },
        {
          "name": "version",
          "type": "string"
        },
        {
          "name": "recipient",
          "type": "address"
        }
      ],
      "name": "getIntegrityHash",
      "outputs": [
        {
          "name": "_hash",
          "type": "bytes32"
        }
      ],
      "payable": false,
      "stateMutability": "pure",
      "type": "function"
    },
    {
      "constant": true,
      "inputs": [],
      "name": "getNumberOfBadges",
      "outputs": [
        {
          "name": "count",
          "type": "uint256"
        }
      ],
      "payable": false,
      "stateMutability": "view",
      "type": "function"
    },
    {
      "constant": true,
      "inputs": [
        {
          "name": "_index",
          "type": "uint256"
        }
      ],
      "name": "getAuthorizedAccount",
      "outputs": [
        {
          "name": "_issuer",
          "type": "address"
        }
      ],
      "payable": false,
      "stateMutability": "view",
      "type": "function"
    },
    {
      "constant": false,
      "inputs": [
        {
          "name": "_newIssuer",
          "type": "address"
        }
      ],
      "name": "authorzeAccount",
      "outputs": [],
      "payable": false,
      "stateMutability": "nonpayable",
      "type": "function"
    },
    {
      "constant": true,
      "inputs": [
        {
          "name": "_txnKey",
          "type": "bytes32"
        }
      ],
      "name": "isRevoked",
      "outputs": [
        {
          "name": "c",
          "type": "bool"
        }
      ],
      "payable": false,
      "stateMutability": "view",
      "type": "function"
    },
    {
      "constant": true,
      "inputs": [
        {
          "name": "_index",
          "type": "uint256"
        }
      ],
      "name": "getNameByIndex",
      "outputs": [
        {
          "name": "_name",
          "type": "bytes32"
        }
      ],
      "payable": false,
      "stateMutability": "view",
      "type": "function"
    },
    {
      "constant": false,
      "inputs": [
        {
          "name": "_description",
          "type": "string"
        },
        {
          "name": "_name",
          "type": "string"
        },
        {
          "name": "_image",
          "type": "string"
        },
        {
          "name": "_version",
          "type": "string"
        }
      ],
      "name": "createBadge",
      "outputs": [],
      "payable": false,
      "stateMutability": "nonpayable",
      "type": "function"
    },
    {
      "constant": true,
      "inputs": [
        {
          "name": "_name",
          "type": "string"
        }
      ],
      "name": "isUnique",
      "outputs": [
        {
          "name": "unique",
          "type": "bool"
        }
      ],
      "payable": false,
      "stateMutability": "view",
      "type": "function"
    },
    {
      "constant": true,
      "inputs": [
        {
          "name": "_badgeNameHash",
          "type": "bytes32"
        }
      ],
      "name": "getBadge",
      "outputs": [
        {
          "name": "issuer",
          "type": "address"
        },
        {
          "name": "description",
          "type": "string"
        },
        {
          "name": "bName",
          "type": "string"
        },
        {
          "name": "image",
          "type": "string"
        },
        {
          "name": "version",
          "type": "string"
        }
      ],
      "payable": false,
      "stateMutability": "view",
      "type": "function"
    },
    {
      "constant": true,
      "inputs": [],
      "name": "getNumberOfAuthorizedAccounts",
      "outputs": [
        {
          "name": "_numOfAccounts",
          "type": "uint256"
        }
      ],
      "payable": false,
      "stateMutability": "view",
      "type": "function"
    },
    {
      "constant": false,
      "inputs": [
        {
          "name": "_txnKey",
          "type": "bytes32"
        }
      ],
      "name": "unRevoke",
      "outputs": [],
      "payable": false,
      "stateMutability": "nonpayable",
      "type": "function"
    },
    {
      "constant": true,
      "inputs": [],
      "name": "nonce",
      "outputs": [
        {
          "name": "",
          "type": "uint256"
        }
      ],
      "payable": false,
      "stateMutability": "view",
      "type": "function"
    },
    {
      "constant": false,
      "inputs": [
        {
          "name": "_name",
          "type": "string"
        }
      ],
      "name": "deleteBadge",
      "outputs": [
        {
          "name": "success",
          "type": "bool"
        }
      ],
      "payable": false,
      "stateMutability": "nonpayable",
      "type": "function"
    },
    {
      "constant": false,
      "inputs": [
        {
          "name": "_txnKey",
          "type": "bytes32"
        }
      ],
      "name": "revoke",
      "outputs": [],
      "payable": false,
      "stateMutability": "nonpayable",
      "type": "function"
    },
    {
      "constant": false,
      "inputs": [
        {
          "name": "_issuer",
          "type": "address"
        }
      ],
      "name": "removeAuthorizedAccount",
      "outputs": [],
      "payable": false,
      "stateMutability": "nonpayable",
      "type": "function"
    },
    {
      "constant": true,
      "inputs": [
        {
          "name": "_badgename",
          "type": "string"
        }
      ],
      "name": "getBadgeNameHash",
      "outputs": [
        {
          "name": "_hash",
          "type": "bytes32"
        }
      ],
      "payable": false,
      "stateMutability": "pure",
      "type": "function"
    },
    {
      "constant": true,
      "inputs": [
        {
          "name": "_issuer",
          "type": "address"
        },
        {
          "name": "_msgData",
          "type": "bytes"
        }
      ],
      "name": "getCredentialTxnKey",
      "outputs": [
        {
          "name": "key",
          "type": "bytes32"
        }
      ],
      "payable": false,
      "stateMutability": "view",
      "type": "function"
    },
    {
      "constant": true,
      "inputs": [],
      "name": "admin",
      "outputs": [
        {
          "name": "",
          "type": "address"
        }
      ],
      "payable": false,
      "stateMutability": "view",
      "type": "function"
    },
    {
      "constant": true,
      "inputs": [
        {
          "name": "",
          "type": "address"
        }
      ],
      "name": "authorizedAccountsMap",
      "outputs": [
        {
          "name": "issuer",
          "type": "address"
        },
        {
          "name": "index",
          "type": "uint256"
        },
        {
          "name": "isAuthorized",
          "type": "bool"
        }
      ],
      "payable": false,
      "stateMutability": "view",
      "type": "function"
    },
    {
      "inputs": [
        {
          "name": "_adminWalletAddr",
          "type": "address"
        }
      ],
      "payable": false,
      "stateMutability": "nonpayable",
      "type": "constructor"
    },
    {
      "anonymous": false,
      "inputs": [
        {
          "indexed": false,
          "name": "_txnKey",
          "type": "bytes32"
        }
      ],
      "name": "CredentialRevoked",
      "type": "event"
    },
    {
      "anonymous": false,
      "inputs": [
        {
          "indexed": false,
          "name": "_txnKey",
          "type": "bytes32"
        }
      ],
      "name": "CredentialUnRevoked",
      "type": "event"
    },
    {
      "anonymous": false,
      "inputs": [
        {
          "indexed": false,
          "name": "_name",
          "type": "string"
        },
        {
          "indexed": true,
          "name": "_issuer",
          "type": "address"
        }
      ],
      "name": "BadgeCreated",
      "type": "event"
    },
    {
      "anonymous": false,
      "inputs": [
        {
          "indexed": false,
          "name": "_name",
          "type": "string"
        },
        {
          "indexed": false,
          "name": "count",
          "type": "uint256"
        }
      ],
      "name": "BadgeDeleted",
      "type": "event"
    },
    {
      "anonymous": false,
      "inputs": [
        {
          "indexed": false,
          "name": "_actor",
          "type": "address"
        },
        {
          "indexed": false,
          "name": "authorized",
          "type": "bool"
        }
      ],
      "name": "AuthorizeAttempt",
      "type": "event"
    },
    {
      "anonymous": false,
      "inputs": [
        {
          "indexed": false,
          "name": "_newIssuer",
          "type": "address"
        }
      ],
      "name": "NewAccountAuthorized",
      "type": "event"
    },
    {
      "anonymous": false,
      "inputs": [
        {
          "indexed": false,
          "name": "_issuer",
          "type": "address"
        }
      ],
      "name": "AuthorizedAccountRemoved",
      "type": "event"
    }
  ],
  "bytecode": "0x6060604052341561000f57600080fd5b604051602080612ea3833981016040528080519060200190919050508080806000806101000a81548173ffffffffffffffffffffffffffffffffffffffff021916908373ffffffffffffffffffffffffffffffffffffffff1602179055505050600060078190555050612e1c806100876000396000f300606060405260043610610133576000357c0100000000000000000000000000000000000000000000000000000000900463ffffffff168063029a2858146101385780630decfdea146101c15780631041eb9614610251578063164f0a4e146102e15780631ddb6af61461037957806324ddd51a146104f95780633557b6c3146105225780633b57391a146105855780634294857f146105be57806359c293f1146105fd5780635c9d3a941461063c57806372ee19a21461076257806377002fcf146107d75780637c59fda0146109ee578063a5aef15b14610a17578063affed0e014610a3e578063b610922114610a67578063b75c7dc614610adc578063be47aa0914610b03578063c1eabde914610b3c578063eb92948114610bb5578063f851a44014610c4d578063f9afc24214610ca2575b600080fd5b341561014357600080fd5b6101bf60048080356000191690602001909190803573ffffffffffffffffffffffffffffffffffffffff1690602001909190803590602001908201803590602001908080601f01602080910402602001604051908101604052809392919081815260200183838082843782019150505050505091905050610d2d565b005b34156101cc57600080fd5b6101e660048080356000191690602001909190505061129d565b60405180856000191660001916815260200184600019166000191681526020018373ffffffffffffffffffffffffffffffffffffffff1673ffffffffffffffffffffffffffffffffffffffff1681526020018215151515815260200194505050505060405180910390f35b341561025c57600080fd5b6102766004808035600019169060200190919050506112fa565b60405180856000191660001916815260200184600019166000191681526020018373ffffffffffffffffffffffffffffffffffffffff1673ffffffffffffffffffffffffffffffffffffffff1681526020018215151515815260200194505050505060405180910390f35b34156102ec57600080fd5b61035b600480803590602001908201803590602001908080601f0160208091040260200160405190810160405280939291908181526020018383808284378201915050505050509190803573ffffffffffffffffffffffffffffffffffffffff169060200190919050506113b8565b60405180826000191660001916815260200191505060405180910390f35b341561038457600080fd5b6104db600480803573ffffffffffffffffffffffffffffffffffffffff1690602001909190803590602001908201803590602001908080601f0160208091040260200160405190810160405280939291908181526020018383808284378201915050505050509190803590602001908201803590602001908080601f0160208091040260200160405190810160405280939291908181526020018383808284378201915050505050509190803590602001908201803590602001908080601f0160208091040260200160405190810160405280939291908181526020018383808284378201915050505050509190803590602001908201803590602001908080601f0160208091040260200160405190810160405280939291908181526020018383808284378201915050505050509190803573ffffffffffffffffffffffffffffffffffffffff16906020019091905050611468565b60405180826000191660001916815260200191505060405180910390f35b341561050457600080fd5b61050c61165e565b6040518082815260200191505060405180910390f35b341561052d57600080fd5b610543600480803590602001909190505061166e565b604051808273ffffffffffffffffffffffffffffffffffffffff1673ffffffffffffffffffffffffffffffffffffffff16815260200191505060405180910390f35b341561059057600080fd5b6105bc600480803573ffffffffffffffffffffffffffffffffffffffff1690602001909190505061174b565b005b34156105c957600080fd5b6105e36004808035600019169060200190919050506119cf565b604051808215151515815260200191505060405180910390f35b341561060857600080fd5b61061e6004808035906020019091905050611a04565b60405180826000191660001916815260200191505060405180910390f35b341561064757600080fd5b610760600480803590602001908201803590602001908080601f0160208091040260200160405190810160405280939291908181526020018383808284378201915050505050509190803590602001908201803590602001908080601f0160208091040260200160405190810160405280939291908181526020018383808284378201915050505050509190803590602001908201803590602001908080601f0160208091040260200160405190810160405280939291908181526020018383808284378201915050505050509190803590602001908201803590602001908080601f01602080910402602001604051908101604052809392919081815260200183838082843782019150505050505091905050611a2b565b005b341561076d57600080fd5b6107bd600480803590602001908201803590602001908080601f01602080910402602001604051908101604052809392919081815260200183838082843782019150505050505091905050611dba565b604051808215151515815260200191505060405180910390f35b34156107e257600080fd5b6107fc600480803560001916906020019091905050611e2a565b604051808673ffffffffffffffffffffffffffffffffffffffff1673ffffffffffffffffffffffffffffffffffffffff16815260200180602001806020018060200180602001858103855289818151815260200191508051906020019080838360005b8381101561087a57808201518184015260208101905061085f565b50505050905090810190601f1680156108a75780820380516001836020036101000a031916815260200191505b50858103845288818151815260200191508051906020019080838360005b838110156108e05780820151818401526020810190506108c5565b50505050905090810190601f16801561090d5780820380516001836020036101000a031916815260200191505b50858103835287818151815260200191508051906020019080838360005b8381101561094657808201518184015260208101905061092b565b50505050905090810190601f1680156109735780820380516001836020036101000a031916815260200191505b50858103825286818151815260200191508051906020019080838360005b838110156109ac578082015181840152602081019050610991565b50505050905090810190601f1680156109d95780820380516001836020036101000a031916815260200191505b50995050505050505050505060405180910390f35b34156109f957600080fd5b610a016121fe565b6040518082815260200191505060405180910390f35b3415610a2257600080fd5b610a3c60048080356000191690602001909190505061220b565b005b3415610a4957600080fd5b610a516123ad565b6040518082815260200191505060405180910390f35b3415610a7257600080fd5b610ac2600480803590602001908201803590602001908080601f016020809104026020016040519081016040528093929190818152602001838380828437820191505050505050919050506123b3565b604051808215151515815260200191505060405180910390f35b3415610ae757600080fd5b610b016004808035600019169060200190919050506126fd565b005b3415610b0e57600080fd5b610b3a600480803573ffffffffffffffffffffffffffffffffffffffff1690602001909190505061289f565b005b3415610b4757600080fd5b610b97600480803590602001908201803590602001908080601f01602080910402602001604051908101604052809392919081815260200183838082843782019150505050505091905050612a32565b60405180826000191660001916815260200191505060405180910390f35b3415610bc057600080fd5b610c2f600480803573ffffffffffffffffffffffffffffffffffffffff1690602001909190803590602001908201803590602001908080601f01602080910402602001604051908101604052809392919081815260200183838082843782019150505050505091905050612a9e565b60405180826000191660001916815260200191505060405180910390f35b3415610c5857600080fd5b610c60612b58565b604051808273ffffffffffffffffffffffffffffffffffffffff1673ffffffffffffffffffffffffffffffffffffffff16815260200191505060405180910390f35b3415610cad57600080fd5b610cd9600480803573ffffffffffffffffffffffffffffffffffffffff16906020019091905050612b7d565b604051808473ffffffffffffffffffffffffffffffffffffffff1673ffffffffffffffffffffffffffffffffffffffff16815260200183815260200182151515158152602001935050505060405180910390f35b6000610d37612bd4565b60003360008060009054906101000a900473ffffffffffffffffffffffffffffffffffffffff1673ffffffffffffffffffffffffffffffffffffffff168273ffffffffffffffffffffffffffffffffffffffff161480610de35750600160008373ffffffffffffffffffffffffffffffffffffffff1673ffffffffffffffffffffffffffffffffffffffff16815260200190815260200160002060020160009054906101000a900460ff165b90507f7fca019a0a52664785803f352d793a992f66c4affa261b3daf127976e7ad67998282604051808373ffffffffffffffffffffffffffffffffffffffff1673ffffffffffffffffffffffffffffffffffffffff168152602001821515151581526020019250505060405180910390a1801515610e6057600080fd5b600760008154809291906001019190505550610e7b86612a32565b945060036000016000866000191660001916815260200190815260200160002060a060405190810160405290816000820160009054906101000a900473ffffffffffffffffffffffffffffffffffffffff1673ffffffffffffffffffffffffffffffffffffffff1673ffffffffffffffffffffffffffffffffffffffff168152602001600182018054600181600116156101000203166002900480601f016020809104026020016040519081016040528092919081815260200182805460018160011615610100020316600290048015610f965780601f10610f6b57610100808354040283529160200191610f96565b820191906000526020600020905b815481529060010190602001808311610f7957829003601f168201915b50505050508152602001600282018054600181600116156101000203166002900480601f0160208091040260200160405190810160405280929190818152602001828054600181600116156101000203166002900480156110385780601f1061100d57610100808354040283529160200191611038565b820191906000526020600020905b81548152906001019060200180831161101b57829003601f168201915b50505050508152602001600382018054600181600116156101000203166002900480601f0160208091040260200160405190810160405280929190818152602001828054600181600116156101000203166002900480156110da5780601f106110af576101008083540402835291602001916110da565b820191906000526020600020905b8154815290600101906020018083116110bd57829003601f168201915b50505050508152602001600482018054600181600116156101000203166002900480601f01602080910402602001604051908101604052809291908181526020018280546001816001161561010002031660029004801561117c5780601f106111515761010080835404028352916020019161117c565b820191906000526020600020905b81548152906001019060200180831161115f57829003601f168201915b50505050508152505093506111a9846000015185602001518660400151876060015188608001518c611468565b925060806040519081016040528089600019168152602001846000191681526020018873ffffffffffffffffffffffffffffffffffffffff16815260200160001515815250600660008a60001916600019168152602001908152602001600020600082015181600001906000191690556020820151816001019060001916905560408201518160020160006101000a81548173ffffffffffffffffffffffffffffffffffffffff021916908373ffffffffffffffffffffffffffffffffffffffff16021790555060608201518160020160146101000a81548160ff0219169083151502179055509050505050505050505050565b60066020528060005260406000206000915090508060000154908060010154908060020160009054906101000a900473ffffffffffffffffffffffffffffffffffffffff16908060020160149054906101000a900460ff16905084565b600080600080600660008660001916600019168152602001908152602001600020600001546006600087600019166000191681526020019081526020016000206001015460066000886000191660001916815260200190815260200160002060020160009054906101000a900473ffffffffffffffffffffffffffffffffffffffff1660066000896000191660001916815260200190815260200160002060020160149054906101000a900460ff1693509350935093509193509193565b600082826040518083805190602001908083835b6020831015156113f157805182526020820191506020810190506020830392506113cc565b6001836020036101000a0380198251168184511680821785525050505050509050018273ffffffffffffffffffffffffffffffffffffffff1673ffffffffffffffffffffffffffffffffffffffff166c01000000000000000000000000028152601401925050506040518091039020905092915050565b6000868686868686604051808773ffffffffffffffffffffffffffffffffffffffff1673ffffffffffffffffffffffffffffffffffffffff166c0100000000000000000000000002815260140186805190602001908083835b6020831015156114e657805182526020820191506020810190506020830392506114c1565b6001836020036101000a03801982511681845116808217855250505050505090500185805190602001908083835b6020831015156115395780518252602082019150602081019050602083039250611514565b6001836020036101000a03801982511681845116808217855250505050505090500184805190602001908083835b60208310151561158c5780518252602082019150602081019050602083039250611567565b6001836020036101000a03801982511681845116808217855250505050505090500183805190602001908083835b6020831015156115df57805182526020820191506020810190506020830392506115ba565b6001836020036101000a0380198251168184511680821785525050505050509050018273ffffffffffffffffffffffffffffffffffffffff1673ffffffffffffffffffffffffffffffffffffffff166c010000000000000000000000000281526014019650505050505050604051809103902090509695505050505050565b6000600360020180549050905090565b60006001600060028481548110151561168357fe5b906000526020600020900160009054906101000a900473ffffffffffffffffffffffffffffffffffffffff1673ffffffffffffffffffffffffffffffffffffffff1673ffffffffffffffffffffffffffffffffffffffff16815260200190815260200160002060020160009054906101000a900460ff16156117415760028281548110151561170e57fe5b906000526020600020900160009054906101000a900473ffffffffffffffffffffffffffffffffffffffff169050611746565b600090505b919050565b3360008060009054906101000a900473ffffffffffffffffffffffffffffffffffffffff1673ffffffffffffffffffffffffffffffffffffffff168273ffffffffffffffffffffffffffffffffffffffff161490507f7fca019a0a52664785803f352d793a992f66c4affa261b3daf127976e7ad67998282604051808373ffffffffffffffffffffffffffffffffffffffff1673ffffffffffffffffffffffffffffffffffffffff168152602001821515151581526020019250505060405180910390a180151561181b57600080fd5b6060604051908101604052808473ffffffffffffffffffffffffffffffffffffffff1681526020016001600280548060010182816118599190612c32565b9160005260206000209001600088909190916101000a81548173ffffffffffffffffffffffffffffffffffffffff021916908373ffffffffffffffffffffffffffffffffffffffff16021790555003815260200160011515815250600160008573ffffffffffffffffffffffffffffffffffffffff1673ffffffffffffffffffffffffffffffffffffffff16815260200190815260200160002060008201518160000160006101000a81548173ffffffffffffffffffffffffffffffffffffffff021916908373ffffffffffffffffffffffffffffffffffffffff1602179055506020820151816001015560408201518160020160006101000a81548160ff0219169083151502179055509050507f7fd215c956537f33ef9064c457003d82df8562a7b03e1f896c0b39c7abc8355883604051808273ffffffffffffffffffffffffffffffffffffffff1673ffffffffffffffffffffffffffffffffffffffff16815260200191505060405180910390a1505050565b600060066000836000191660001916815260200190815260200160002060020160149054906101000a900460ff169050919050565b6000600360020182815481101515611a1857fe5b9060005260206000209001549050919050565b600080611a36612bd4565b3360008060009054906101000a900473ffffffffffffffffffffffffffffffffffffffff1673ffffffffffffffffffffffffffffffffffffffff168273ffffffffffffffffffffffffffffffffffffffff161480611ae05750600160008373ffffffffffffffffffffffffffffffffffffffff1673ffffffffffffffffffffffffffffffffffffffff16815260200190815260200160002060020160009054906101000a900460ff165b90507f7fca019a0a52664785803f352d793a992f66c4affa261b3daf127976e7ad67998282604051808373ffffffffffffffffffffffffffffffffffffffff1673ffffffffffffffffffffffffffffffffffffffff168152602001821515151581526020019250505060405180910390a1801515611b5d57600080fd5b87611b6781611dba565b1515611b7257600080fd5b611b7b89612a32565b9550600160036002018054806001018281611b969190612c5e565b916000526020600020900160008990919091509060001916905503945060a0604051908101604052803073ffffffffffffffffffffffffffffffffffffffff1681526020018b81526020018a81526020018981526020018881525093508360036000016000886000191660001916815260200190815260200160002060008201518160000160006101000a81548173ffffffffffffffffffffffffffffffffffffffff021916908373ffffffffffffffffffffffffffffffffffffffff1602179055506020820151816001019080519060200190611c75929190612c8a565b506040820151816002019080519060200190611c92929190612c8a565b506060820151816003019080519060200190611caf929190612c8a565b506080820151816004019080519060200190611ccc929190612c8a565b509050508460036001016000886000191660001916815260200190815260200160002081905550836000015173ffffffffffffffffffffffffffffffffffffffff167fde74f67f0ccaf379531f5b3884d0afb87e86192a992d99e7222390f8870a0b5385604001516040518080602001828103825283818151815260200191508051906020019080838360005b83811015611d74578082015181840152602081019050611d59565b50505050905090810190601f168015611da15780820380516001836020036101000a031916815260200191505b509250505060405180910390a250505050505050505050565b600080611dc683612a32565b905060006003600201805490501480611e2257508060001916600360020160036001016000846000191660001916815260200190815260200160002054815481101515611e0f57fe5b9060005260206000209001546000191614155b915050919050565b6000611e34612d0a565b611e3c612d0a565b611e44612d0a565b611e4c612d0a565b611e54612bd4565b866000600360020180549050118015611eaf57508060001916600360020160036001016000846000191660001916815260200190815260200160002054815481101515611e9d57fe5b90600052602060002090015460001916145b1515611eba57600080fd5b60036000016000896000191660001916815260200190815260200160002060a060405190810160405290816000820160009054906101000a900473ffffffffffffffffffffffffffffffffffffffff1673ffffffffffffffffffffffffffffffffffffffff1673ffffffffffffffffffffffffffffffffffffffff168152602001600182018054600181600116156101000203166002900480601f016020809104026020016040519081016040528092919081815260200182805460018160011615610100020316600290048015611fd35780601f10611fa857610100808354040283529160200191611fd3565b820191906000526020600020905b815481529060010190602001808311611fb657829003601f168201915b50505050508152602001600282018054600181600116156101000203166002900480601f0160208091040260200160405190810160405280929190818152602001828054600181600116156101000203166002900480156120755780601f1061204a57610100808354040283529160200191612075565b820191906000526020600020905b81548152906001019060200180831161205857829003601f168201915b50505050508152602001600382018054600181600116156101000203166002900480601f0160208091040260200160405190810160405280929190818152602001828054600181600116156101000203166002900480156121175780601f106120ec57610100808354040283529160200191612117565b820191906000526020600020905b8154815290600101906020018083116120fa57829003601f168201915b50505050508152602001600482018054600181600116156101000203166002900480601f0160208091040260200160405190810160405280929190818152602001828054600181600116156101000203166002900480156121b95780601f1061218e576101008083540402835291602001916121b9565b820191906000526020600020905b81548152906001019060200180831161219c57829003601f168201915b50505050508152505091508160000151826020015183604001518460600151856080015183935082925081915080905096509650965096509650505091939590929450565b6000600280549050905090565b3360008060009054906101000a900473ffffffffffffffffffffffffffffffffffffffff1673ffffffffffffffffffffffffffffffffffffffff168273ffffffffffffffffffffffffffffffffffffffff1614806122b55750600160008373ffffffffffffffffffffffffffffffffffffffff1673ffffffffffffffffffffffffffffffffffffffff16815260200190815260200160002060020160009054906101000a900460ff165b90507f7fca019a0a52664785803f352d793a992f66c4affa261b3daf127976e7ad67998282604051808373ffffffffffffffffffffffffffffffffffffffff1673ffffffffffffffffffffffffffffffffffffffff168152602001821515151581526020019250505060405180910390a180151561233257600080fd5b600060066000856000191660001916815260200190815260200160002060020160146101000a81548160ff0219169083151502179055507fd1e55fd73bb60d490f023f5239b9c0ca41f4503cca514ab5c7c8649a188afdd38360405180826000191660001916815260200191505060405180910390a1505050565b60075481565b6000806000803360008060009054906101000a900473ffffffffffffffffffffffffffffffffffffffff1673ffffffffffffffffffffffffffffffffffffffff168273ffffffffffffffffffffffffffffffffffffffff1614806124635750600160008373ffffffffffffffffffffffffffffffffffffffff1673ffffffffffffffffffffffffffffffffffffffff16815260200190815260200160002060020160009054906101000a900460ff165b90507f7fca019a0a52664785803f352d793a992f66c4affa261b3daf127976e7ad67998282604051808373ffffffffffffffffffffffffffffffffffffffff1673ffffffffffffffffffffffffffffffffffffffff168152602001821515151581526020019250505060405180910390a18015156124e057600080fd5b6124e987612a32565b9450600360010160008660001916600019168152602001908152602001600020549350600360020160016003600201805490500381548110151561252957fe5b906000526020600020900154925083600360010160008560001916600019168152602001908152602001600020819055508260036002018581548110151561256d57fe5b9060005260206000209001816000191690555060036002018054809190600190036125989190612d1e565b50600360000160008660001916600019168152602001908152602001600020600080820160006101000a81549073ffffffffffffffffffffffffffffffffffffffff02191690556001820160006125ef9190612d4a565b6002820160006125ff9190612d4a565b60038201600061260f9190612d4a565b60048201600061261f9190612d4a565b5050600360010160008660001916600019168152602001908152602001600020600090557f25011d6c52f8dd436cbad877a1e1bfa99b3fc7b3df1c4f7b68d6f6403e943a51876003600201805490506040518080602001838152602001828103825284818151815260200191508051906020019080838360005b838110156126b4578082015181840152602081019050612699565b50505050905090810190601f1680156126e15780820380516001836020036101000a031916815260200191505b50935050505060405180910390a1600195505050505050919050565b3360008060009054906101000a900473ffffffffffffffffffffffffffffffffffffffff1673ffffffffffffffffffffffffffffffffffffffff168273ffffffffffffffffffffffffffffffffffffffff1614806127a75750600160008373ffffffffffffffffffffffffffffffffffffffff1673ffffffffffffffffffffffffffffffffffffffff16815260200190815260200160002060020160009054906101000a900460ff165b90507f7fca019a0a52664785803f352d793a992f66c4affa261b3daf127976e7ad67998282604051808373ffffffffffffffffffffffffffffffffffffffff1673ffffffffffffffffffffffffffffffffffffffff168152602001821515151581526020019250505060405180910390a180151561282457600080fd5b600160066000856000191660001916815260200190815260200160002060020160146101000a81548160ff0219169083151502179055507f3cc2375f3fc7711ba27361cde93880f578742f9f050acee766bed662d117ba728360405180826000191660001916815260200191505060405180910390a1505050565b3360008060009054906101000a900473ffffffffffffffffffffffffffffffffffffffff1673ffffffffffffffffffffffffffffffffffffffff168273ffffffffffffffffffffffffffffffffffffffff161490507f7fca019a0a52664785803f352d793a992f66c4affa261b3daf127976e7ad67998282604051808373ffffffffffffffffffffffffffffffffffffffff1673ffffffffffffffffffffffffffffffffffffffff168152602001821515151581526020019250505060405180910390a180151561296f57600080fd5b6000600160008573ffffffffffffffffffffffffffffffffffffffff1673ffffffffffffffffffffffffffffffffffffffff16815260200190815260200160002060020160006101000a81548160ff0219169083151502179055507f56a53756e1db2ff35a90edee9bd205b4b2bb8633ee3d6a53a5e85d5b46f0e9dc83604051808273ffffffffffffffffffffffffffffffffffffffff1673ffffffffffffffffffffffffffffffffffffffff16815260200191505060405180910390a1505050565b6000816040518082805190602001908083835b602083101515612a6a5780518252602082019150602081019050602083039250612a45565b6001836020036101000a03801982511681845116808217855250505050505090500191505060405180910390209050919050565b60008282600754604051808473ffffffffffffffffffffffffffffffffffffffff1673ffffffffffffffffffffffffffffffffffffffff166c0100000000000000000000000002815260140183805190602001908083835b602083101515612b1b5780518252602082019150602081019050602083039250612af6565b6001836020036101000a03801982511681845116808217855250505050505090500182815260200193505050506040518091039020905092915050565b6000809054906101000a900473ffffffffffffffffffffffffffffffffffffffff1681565b60016020528060005260406000206000915090508060000160009054906101000a900473ffffffffffffffffffffffffffffffffffffffff16908060010154908060020160009054906101000a900460ff16905083565b60a060405190810160405280600073ffffffffffffffffffffffffffffffffffffffff168152602001612c05612d92565b8152602001612c12612d92565b8152602001612c1f612d92565b8152602001612c2c612d92565b81525090565b815481835581811511612c5957818360005260206000209182019101612c589190612da6565b5b505050565b815481835581811511612c8557818360005260206000209182019101612c849190612dcb565b5b505050565b828054600181600116156101000203166002900490600052602060002090601f016020900481019282601f10612ccb57805160ff1916838001178555612cf9565b82800160010185558215612cf9579182015b82811115612cf8578251825591602001919060010190612cdd565b5b509050612d069190612da6565b5090565b602060405190810160405280600081525090565b815481835581811511612d4557818360005260206000209182019101612d449190612dcb565b5b505050565b50805460018160011615610100020316600290046000825580601f10612d705750612d8f565b601f016020900490600052602060002090810190612d8e9190612da6565b5b50565b602060405190810160405280600081525090565b612dc891905b80821115612dc4576000816000905550600101612dac565b5090565b90565b612ded91905b80821115612de9576000816000905550600101612dd1565b5090565b905600a165627a7a7230582056b15e846aacdb94a4ef93475ae2437285d4d533d236fd114cf706a9c06e8f350029",
  "source": "pragma solidity ^0.4.17;\n\nimport \"./BadgeManager.sol\";\n\ncontract TransactionManager is BadgeManager {\n\n    struct Transaction {\n        bytes32 key;\n        bytes32 integrityHash;\n        address recipient;\n        bool revoked;\n    }\n\n    /// @notice mapping of a unique hash to a recipient address, used to verify issuer of a credential\n    mapping (bytes32=>Transaction) public credentialTxnMap;\n\n    uint public nonce;\n\n    function TransactionManager(address _adminWalletAddr) public BadgeManager(_adminWalletAddr) {\n        nonce = 0;\n    }\n\n    /** @dev sets a new transaction (credential issued to recipient)\n      * @param _txnKey the transaction key\n      * @param _recipient recipient of the credential\n    */\n    function setNewTxn(\n        bytes32 _txnKey,\n        address _recipient,\n        string _badgeName) authorized(msg.sender) public\n        {\n        //increase nonce\n        nonce++;\n        bytes32 badgeNameHash = getBadgeNameHash(_badgeName);\n        Badge memory badge = badgeVault.badges[badgeNameHash];\n        bytes32 integrityHash = getIntegrityHash(\n            badge.issuer,\n            badge.description,\n            badge.name,\n            badge.image,\n            badge.version,\n            _recipient\n        );\n        credentialTxnMap[_txnKey] = Transaction(_txnKey, integrityHash, _recipient, false);\n    }\n\n    /** @dev gets a transaction\n      * @param _txnKey the transaction key\n      * @return txnKey the key for the transaction\n      * @return integrityHash proof of integrity hash for badge issued in this transaction\n      * @return recipient address of the wallet associated with the person who received this badge\n    */\n    function getTxn(bytes32 _txnKey) constant public returns(bytes32 txnKey, bytes32 integrityHash, address recipient, bool revoked) {\n        return(\n            credentialTxnMap[_txnKey].key,\n            credentialTxnMap[_txnKey].integrityHash,\n            credentialTxnMap[_txnKey].recipient,\n            credentialTxnMap[_txnKey].revoked\n        );\n    }\n\n    /// @notice generate a credential transaction key\n    /// @param _issuer address of the issuer\n    /// @param _msgData msg data\n    function getCredentialTxnKey(address _issuer, bytes _msgData) public view returns(bytes32 key) {\n        return keccak256(_issuer, _msgData, nonce);\n    }\n\n    event CredentialRevoked(bytes32 _txnKey);\n    /// @notice revoke a credential\n    function revoke(bytes32 _txnKey) public authorized(msg.sender) {\n        credentialTxnMap[_txnKey].revoked = true;\n        CredentialRevoked(_txnKey);\n    }\n\n    event CredentialUnRevoked(bytes32 _txnKey);\n    /// @notice unrevoke a credential\n    function unRevoke(bytes32 _txnKey) public authorized(msg.sender) {\n        credentialTxnMap[_txnKey].revoked = false;\n        CredentialUnRevoked(_txnKey);\n    }\n\n    /// @notice check if credential is revoked\n    function isRevoked(bytes32 _txnKey) public constant returns(bool c) {\n        return credentialTxnMap[_txnKey].revoked;\n    }\n}\n",
  "sourcePath": "/home/kc1116/Desktop/badgeforce_development/badgeforce/contracts/TransactionManager.sol",
  "compiler": {
    "name": "solc",
    "version": "0.4.18+commit.9cf6e910.Emscripten.clang"
  },
  "schemaVersion": "1.0.1",
  "updatedAt": "2018-01-14T10:53:22.997Z"
}