{
  "contractName": "TransactionManager",
  "abi": [
    {
      "constant": false,
      "inputs": [
        {
          "name": "_txnKey",
          "type": "bytes32"
        },
        {
          "name": "_recipient",
          "type": "address"
        },
        {
          "name": "_badgeName",
          "type": "string"
        }
      ],
      "name": "setNewTxn",
      "outputs": [],
      "payable": false,
      "stateMutability": "nonpayable",
      "type": "function"
    },
    {
      "constant": true,
      "inputs": [
        {
          "name": "",
          "type": "bytes32"
        }
      ],
      "name": "credentialTxnMap",
      "outputs": [
        {
          "name": "key",
          "type": "bytes32"
        },
        {
          "name": "integrityHash",
          "type": "bytes32"
        },
        {
          "name": "recipient",
          "type": "address"
        },
        {
          "name": "revoked",
          "type": "bool"
        }
      ],
      "payable": false,
      "stateMutability": "view",
      "type": "function"
    },
    {
      "constant": true,
      "inputs": [
        {
          "name": "_txnKey",
          "type": "bytes32"
        }
      ],
      "name": "getTxn",
      "outputs": [
        {
          "name": "txnKey",
          "type": "bytes32"
        },
        {
          "name": "integrityHash",
          "type": "bytes32"
        },
        {
          "name": "recipient",
          "type": "address"
        },
        {
          "name": "revoked",
          "type": "bool"
        }
      ],
      "payable": false,
      "stateMutability": "view",
      "type": "function"
    },
    {
      "constant": true,
      "inputs": [],
      "name": "getNumberOfBadges",
      "outputs": [
        {
          "name": "count",
          "type": "uint256"
        }
      ],
      "payable": false,
      "stateMutability": "view",
      "type": "function"
    },
    {
      "constant": true,
      "inputs": [
        {
          "name": "_name",
          "type": "string"
        }
      ],
      "name": "getBadge",
      "outputs": [
        {
          "name": "issuer",
          "type": "address"
        },
        {
          "name": "description",
          "type": "string"
        },
        {
          "name": "bName",
          "type": "string"
        },
        {
          "name": "image",
          "type": "string"
        },
        {
          "name": "version",
          "type": "string"
        }
      ],
      "payable": false,
      "stateMutability": "view",
      "type": "function"
    },
    {
      "constant": false,
      "inputs": [
        {
          "name": "_index",
          "type": "uint256"
        }
      ],
      "name": "getAuthorizedAccount",
      "outputs": [
        {
          "name": "_issuer",
          "type": "address"
        }
      ],
      "payable": false,
      "stateMutability": "nonpayable",
      "type": "function"
    },
    {
      "constant": false,
      "inputs": [
        {
          "name": "_newIssuer",
          "type": "address"
        }
      ],
      "name": "authorzeAccount",
      "outputs": [],
      "payable": false,
      "stateMutability": "nonpayable",
      "type": "function"
    },
    {
      "constant": true,
      "inputs": [
        {
          "name": "_txnKey",
          "type": "bytes32"
        }
      ],
      "name": "isRevoked",
      "outputs": [
        {
          "name": "c",
          "type": "bool"
        }
      ],
      "payable": false,
      "stateMutability": "view",
      "type": "function"
    },
    {
      "constant": true,
      "inputs": [
        {
          "name": "_index",
          "type": "uint256"
        }
      ],
      "name": "getNameByIndex",
      "outputs": [
        {
          "name": "_name",
          "type": "bytes32"
        }
      ],
      "payable": false,
      "stateMutability": "view",
      "type": "function"
    },
    {
      "constant": false,
      "inputs": [
        {
          "name": "_description",
          "type": "string"
        },
        {
          "name": "_name",
          "type": "string"
        },
        {
          "name": "_image",
          "type": "string"
        },
        {
          "name": "_version",
          "type": "string"
        }
      ],
      "name": "createBadge",
      "outputs": [],
      "payable": false,
      "stateMutability": "nonpayable",
      "type": "function"
    },
    {
      "constant": true,
      "inputs": [
        {
          "name": "_name",
          "type": "string"
        }
      ],
      "name": "isUnique",
      "outputs": [
        {
          "name": "unique",
          "type": "bool"
        }
      ],
      "payable": false,
      "stateMutability": "view",
      "type": "function"
    },
    {
      "constant": false,
      "inputs": [],
      "name": "getNumberOfAuthorizedAccounts",
      "outputs": [
        {
          "name": "_numOfAccounts",
          "type": "uint256"
        }
      ],
      "payable": false,
      "stateMutability": "nonpayable",
      "type": "function"
    },
    {
      "constant": false,
      "inputs": [
        {
          "name": "_txnKey",
          "type": "bytes32"
        }
      ],
      "name": "unRevoke",
      "outputs": [],
      "payable": false,
      "stateMutability": "nonpayable",
      "type": "function"
    },
    {
      "constant": true,
      "inputs": [],
      "name": "nonce",
      "outputs": [
        {
          "name": "",
          "type": "uint256"
        }
      ],
      "payable": false,
      "stateMutability": "view",
      "type": "function"
    },
    {
      "constant": false,
      "inputs": [
        {
          "name": "_name",
          "type": "string"
        }
      ],
      "name": "deleteBadge",
      "outputs": [
        {
          "name": "success",
          "type": "bool"
        }
      ],
      "payable": false,
      "stateMutability": "nonpayable",
      "type": "function"
    },
    {
      "constant": false,
      "inputs": [
        {
          "name": "_txnKey",
          "type": "bytes32"
        }
      ],
      "name": "revoke",
      "outputs": [],
      "payable": false,
      "stateMutability": "nonpayable",
      "type": "function"
    },
    {
      "constant": false,
      "inputs": [
        {
          "name": "_issuer",
          "type": "address"
        }
      ],
      "name": "removeAuthorizedAccount",
      "outputs": [],
      "payable": false,
      "stateMutability": "nonpayable",
      "type": "function"
    },
    {
      "constant": true,
      "inputs": [
        {
          "name": "_issuer",
          "type": "address"
        },
        {
          "name": "_msgData",
          "type": "bytes"
        }
      ],
      "name": "getCredentialTxnKey",
      "outputs": [
        {
          "name": "key",
          "type": "bytes32"
        }
      ],
      "payable": false,
      "stateMutability": "view",
      "type": "function"
    },
    {
      "constant": true,
      "inputs": [],
      "name": "admin",
      "outputs": [
        {
          "name": "",
          "type": "address"
        }
      ],
      "payable": false,
      "stateMutability": "view",
      "type": "function"
    },
    {
      "constant": true,
      "inputs": [
        {
          "name": "",
          "type": "address"
        }
      ],
      "name": "authorizedAccountsMap",
      "outputs": [
        {
          "name": "issuer",
          "type": "address"
        },
        {
          "name": "index",
          "type": "uint256"
        },
        {
          "name": "isAuthorized",
          "type": "bool"
        }
      ],
      "payable": false,
      "stateMutability": "view",
      "type": "function"
    },
    {
      "inputs": [
        {
          "name": "_adminWalletAddr",
          "type": "address"
        }
      ],
      "payable": false,
      "stateMutability": "nonpayable",
      "type": "constructor"
    },
    {
      "anonymous": false,
      "inputs": [
        {
          "indexed": false,
          "name": "_txnKey",
          "type": "bytes32"
        }
      ],
      "name": "CredentialRevoked",
      "type": "event"
    },
    {
      "anonymous": false,
      "inputs": [
        {
          "indexed": false,
          "name": "_txnKey",
          "type": "bytes32"
        }
      ],
      "name": "CredentialUnRevoked",
      "type": "event"
    },
    {
      "anonymous": false,
      "inputs": [
        {
          "indexed": false,
          "name": "_name",
          "type": "string"
        },
        {
          "indexed": true,
          "name": "_issuer",
          "type": "address"
        }
      ],
      "name": "BadgeCreated",
      "type": "event"
    },
    {
      "anonymous": false,
      "inputs": [
        {
          "indexed": false,
          "name": "_name",
          "type": "string"
        },
        {
          "indexed": false,
          "name": "count",
          "type": "uint256"
        }
      ],
      "name": "BadgeDeleted",
      "type": "event"
    },
    {
      "anonymous": false,
      "inputs": [
        {
          "indexed": false,
          "name": "_actor",
          "type": "address"
        },
        {
          "indexed": false,
          "name": "authorized",
          "type": "bool"
        }
      ],
      "name": "AuthorizeAttempt",
      "type": "event"
    },
    {
      "anonymous": false,
      "inputs": [
        {
          "indexed": false,
          "name": "_newIssuer",
          "type": "address"
        }
      ],
      "name": "NewAccountAuthorized",
      "type": "event"
    },
    {
      "anonymous": false,
      "inputs": [
        {
          "indexed": false,
          "name": "_issuer",
          "type": "address"
        }
      ],
      "name": "AuthorizedAccountRemoved",
      "type": "event"
    }
  ],
  "bytecode": "0x6060604052341561000f57600080fd5b6040516020806131c6833981016040528080519060200190919050508080806000806101000a81548173ffffffffffffffffffffffffffffffffffffffff021916908373ffffffffffffffffffffffffffffffffffffffff160217905550505060006007819055505061313f806100876000396000f300606060405260043610610112576000357c0100000000000000000000000000000000000000000000000000000000900463ffffffff168063029a2858146101175780630decfdea146101a05780631041eb961461023057806324ddd51a146102c05780632d902fe7146102e95780633557b6c3146105365780633b57391a146105995780634294857f146105d257806359c293f1146106115780635c9d3a941461065057806372ee19a2146107765780637c59fda0146107eb578063a5aef15b14610814578063affed0e01461083b578063b610922114610864578063b75c7dc6146108d9578063be47aa0914610900578063eb92948114610939578063f851a440146109d1578063f9afc24214610a26575b600080fd5b341561012257600080fd5b61019e60048080356000191690602001909190803573ffffffffffffffffffffffffffffffffffffffff1690602001909190803590602001908201803590602001908080601f01602080910402602001604051908101604052809392919081815260200183838082843782019150505050505091905050610ab1565b005b34156101ab57600080fd5b6101c56004808035600019169060200190919050506113ab565b60405180856000191660001916815260200184600019166000191681526020018373ffffffffffffffffffffffffffffffffffffffff1673ffffffffffffffffffffffffffffffffffffffff1681526020018215151515815260200194505050505060405180910390f35b341561023b57600080fd5b610255600480803560001916906020019091905050611408565b60405180856000191660001916815260200184600019166000191681526020018373ffffffffffffffffffffffffffffffffffffffff1673ffffffffffffffffffffffffffffffffffffffff1681526020018215151515815260200194505050505060405180910390f35b34156102cb57600080fd5b6102d36114f8565b6040518082815260200191505060405180910390f35b34156102f457600080fd5b610344600480803590602001908201803590602001908080601f01602080910402602001604051908101604052809392919081815260200183838082843782019150505050505091905050611508565b604051808673ffffffffffffffffffffffffffffffffffffffff1673ffffffffffffffffffffffffffffffffffffffff16815260200180602001806020018060200180602001858103855289818151815260200191508051906020019080838360005b838110156103c25780820151818401526020810190506103a7565b50505050905090810190601f1680156103ef5780820380516001836020036101000a031916815260200191505b50858103845288818151815260200191508051906020019080838360005b8381101561042857808201518184015260208101905061040d565b50505050905090810190601f1680156104555780820380516001836020036101000a031916815260200191505b50858103835287818151815260200191508051906020019080838360005b8381101561048e578082015181840152602081019050610473565b50505050905090810190601f1680156104bb5780820380516001836020036101000a031916815260200191505b50858103825286818151815260200191508051906020019080838360005b838110156104f45780820151818401526020810190506104d9565b50505050905090810190601f1680156105215780820380516001836020036101000a031916815260200191505b50995050505050505050505060405180910390f35b341561054157600080fd5b6105576004808035906020019091905050611acc565b604051808273ffffffffffffffffffffffffffffffffffffffff1673ffffffffffffffffffffffffffffffffffffffff16815260200191505060405180910390f35b34156105a457600080fd5b6105d0600480803573ffffffffffffffffffffffffffffffffffffffff16906020019091905050611ba9565b005b34156105dd57600080fd5b6105f7600480803560001916906020019091905050611e2d565b604051808215151515815260200191505060405180910390f35b341561061c57600080fd5b6106326004808035906020019091905050611e62565b60405180826000191660001916815260200191505060405180910390f35b341561065b57600080fd5b610774600480803590602001908201803590602001908080601f0160208091040260200160405190810160405280939291908181526020018383808284378201915050505050509190803590602001908201803590602001908080601f0160208091040260200160405190810160405280939291908181526020018383808284378201915050505050509190803590602001908201803590602001908080601f0160208091040260200160405190810160405280939291908181526020018383808284378201915050505050509190803590602001908201803590602001908080601f01602080910402602001604051908101604052809392919081815260200183838082843782019150505050505091905050611e89565b005b341561078157600080fd5b6107d1600480803590602001908201803590602001908080601f01602080910402602001604051908101604052809392919081815260200183838082843782019150505050505091905050612302565b604051808215151515815260200191505060405180910390f35b34156107f657600080fd5b6107fe61245c565b6040518082815260200191505060405180910390f35b341561081f57600080fd5b610839600480803560001916906020019091905050612469565b005b341561084657600080fd5b61084e61260b565b6040518082815260200191505060405180910390f35b341561086f57600080fd5b6108bf600480803590602001908201803590602001908080601f01602080910402602001604051908101604052809392919081815260200183838082843782019150505050505091905050612611565b604051808215151515815260200191505060405180910390f35b34156108e457600080fd5b6108fe600480803560001916906020019091905050612a45565b005b341561090b57600080fd5b610937600480803573ffffffffffffffffffffffffffffffffffffffff16906020019091905050612be7565b005b341561094457600080fd5b6109b3600480803573ffffffffffffffffffffffffffffffffffffffff1690602001909190803590602001908201803590602001908080601f01602080910402602001604051908101604052809392919081815260200183838082843782019150505050505091905050612d7a565b60405180826000191660001916815260200191505060405180910390f35b34156109dc57600080fd5b6109e4612e34565b604051808273ffffffffffffffffffffffffffffffffffffffff1673ffffffffffffffffffffffffffffffffffffffff16815260200191505060405180910390f35b3415610a3157600080fd5b610a5d600480803573ffffffffffffffffffffffffffffffffffffffff16906020019091905050612e59565b604051808473ffffffffffffffffffffffffffffffffffffffff1673ffffffffffffffffffffffffffffffffffffffff16815260200183815260200182151515158152602001935050505060405180910390f35b6000610abb612eb0565b6000610ac5612f0e565b3360008060009054906101000a900473ffffffffffffffffffffffffffffffffffffffff1673ffffffffffffffffffffffffffffffffffffffff168273ffffffffffffffffffffffffffffffffffffffff161480610b6f5750600160008373ffffffffffffffffffffffffffffffffffffffff1673ffffffffffffffffffffffffffffffffffffffff16815260200190815260200160002060020160009054906101000a900460ff165b90507f7fca019a0a52664785803f352d793a992f66c4affa261b3daf127976e7ad67998282604051808373ffffffffffffffffffffffffffffffffffffffff1673ffffffffffffffffffffffffffffffffffffffff168152602001821515151581526020019250505060405180910390a1801515610bec57600080fd5b60076000815480929190600101919050555073__BadgeLibrary__________________________63c1eabde9886000604051602001526040518263ffffffff167c01000000000000000000000000000000000000000000000000000000000281526004018080602001828103825283818151815260200191508051906020019080838360005b83811015610c8d578082015181840152602081019050610c72565b50505050905090810190601f168015610cba5780820380516001836020036101000a031916815260200191505b509250505060206040518083038186803b1515610cd657600080fd5b6102c65a03f41515610ce757600080fd5b50505060405180519050955060036000016000876000191660001916815260200190815260200160002060a060405190810160405290816000820160009054906101000a900473ffffffffffffffffffffffffffffffffffffffff1673ffffffffffffffffffffffffffffffffffffffff1673ffffffffffffffffffffffffffffffffffffffff168152602001600182018054600181600116156101000203166002900480601f016020809104026020016040519081016040528092919081815260200182805460018160011615610100020316600290048015610e0c5780601f10610de157610100808354040283529160200191610e0c565b820191906000526020600020905b815481529060010190602001808311610def57829003601f168201915b50505050508152602001600282018054600181600116156101000203166002900480601f016020809104026020016040519081016040528092919081815260200182805460018160011615610100020316600290048015610eae5780601f10610e8357610100808354040283529160200191610eae565b820191906000526020600020905b815481529060010190602001808311610e9157829003601f168201915b50505050508152602001600382018054600181600116156101000203166002900480601f016020809104026020016040519081016040528092919081815260200182805460018160011615610100020316600290048015610f505780601f10610f2557610100808354040283529160200191610f50565b820191906000526020600020905b815481529060010190602001808311610f3357829003601f168201915b50505050508152602001600482018054600181600116156101000203166002900480601f016020809104026020016040519081016040528092919081815260200182805460018160011615610100020316600290048015610ff25780601f10610fc757610100808354040283529160200191610ff2565b820191906000526020600020905b815481529060010190602001808311610fd557829003601f168201915b505050505081525050945073__BadgeLibrary__________________________631ddb6af686600001518760200151886040015189606001518a608001518e6000604051602001526040518763ffffffff167c0100000000000000000000000000000000000000000000000000000000028152600401808773ffffffffffffffffffffffffffffffffffffffff1673ffffffffffffffffffffffffffffffffffffffff168152602001806020018060200180602001806020018673ffffffffffffffffffffffffffffffffffffffff1673ffffffffffffffffffffffffffffffffffffffff16815260200185810385528a818151815260200191508051906020019080838360005b838110156111155780820151818401526020810190506110fa565b50505050905090810190601f1680156111425780820380516001836020036101000a031916815260200191505b50858103845289818151815260200191508051906020019080838360005b8381101561117b578082015181840152602081019050611160565b50505050905090810190601f1680156111a85780820380516001836020036101000a031916815260200191505b50858103835288818151815260200191508051906020019080838360005b838110156111e15780820151818401526020810190506111c6565b50505050905090810190601f16801561120e5780820380516001836020036101000a031916815260200191505b50858103825287818151815260200191508051906020019080838360005b8381101561124757808201518184015260208101905061122c565b50505050905090810190601f1680156112745780820380516001836020036101000a031916815260200191505b509a505050505050505050505060206040518083038186803b151561129857600080fd5b6102c65a03f415156112a957600080fd5b5050506040518051905093506080604051908101604052808a600019168152602001856000191681526020018973ffffffffffffffffffffffffffffffffffffffff16815260200160001515815250925082600660008b60001916600019168152602001908152602001600020600082015181600001906000191690556020820151816001019060001916905560408201518160020160006101000a81548173ffffffffffffffffffffffffffffffffffffffff021916908373ffffffffffffffffffffffffffffffffffffffff16021790555060608201518160020160146101000a81548160ff021916908315150217905550905050505050505050505050565b60066020528060005260406000206000915090508060000154908060010154908060020160009054906101000a900473ffffffffffffffffffffffffffffffffffffffff16908060020160149054906101000a900460ff16905084565b600080600080611416612f0e565b600660008760001916600019168152602001908152602001600020608060405190810160405290816000820154600019166000191681526020016001820154600019166000191681526020016002820160009054906101000a900473ffffffffffffffffffffffffffffffffffffffff1673ffffffffffffffffffffffffffffffffffffffff1673ffffffffffffffffffffffffffffffffffffffff1681526020016002820160149054906101000a900460ff161515151581525050905080600001518160200151826040015183606001519450945094509450509193509193565b6000600360020180549050905090565b6000611512612f55565b61151a612f55565b611522612f55565b61152a612f55565b6000611534612eb0565b87600073__BadgeLibrary__________________________63c1eabde9836000604051602001526040518263ffffffff167c01000000000000000000000000000000000000000000000000000000000281526004018080602001828103825283818151815260200191508051906020019080838360005b838110156115c65780820151818401526020810190506115ab565b50505050905090810190601f1680156115f35780820380516001836020036101000a031916815260200191505b509250505060206040518083038186803b151561160f57600080fd5b6102c65a03f4151561162057600080fd5b50505060405180519050905060006003600201805490501180156116865750806000191660036002016003600101600084600019166000191681526020019081526020016000205481548110151561167457fe5b90600052602060002090015460001916145b151561169157600080fd5b73__BadgeLibrary__________________________63c1eabde98b6000604051602001526040518263ffffffff167c01000000000000000000000000000000000000000000000000000000000281526004018080602001828103825283818151815260200191508051906020019080838360005b83811015611720578082015181840152602081019050611705565b50505050905090810190601f16801561174d5780820380516001836020036101000a031916815260200191505b509250505060206040518083038186803b151561176957600080fd5b6102c65a03f4151561177a57600080fd5b50505060405180519050935060036000016000856000191660001916815260200190815260200160002060a060405190810160405290816000820160009054906101000a900473ffffffffffffffffffffffffffffffffffffffff1673ffffffffffffffffffffffffffffffffffffffff1673ffffffffffffffffffffffffffffffffffffffff168152602001600182018054600181600116156101000203166002900480601f01602080910402602001604051908101604052809291908181526020018280546001816001161561010002031660029004801561189f5780601f106118745761010080835404028352916020019161189f565b820191906000526020600020905b81548152906001019060200180831161188257829003601f168201915b50505050508152602001600282018054600181600116156101000203166002900480601f0160208091040260200160405190810160405280929190818152602001828054600181600116156101000203166002900480156119415780601f1061191657610100808354040283529160200191611941565b820191906000526020600020905b81548152906001019060200180831161192457829003601f168201915b50505050508152602001600382018054600181600116156101000203166002900480601f0160208091040260200160405190810160405280929190818152602001828054600181600116156101000203166002900480156119e35780601f106119b8576101008083540402835291602001916119e3565b820191906000526020600020905b8154815290600101906020018083116119c657829003601f168201915b50505050508152602001600482018054600181600116156101000203166002900480601f016020809104026020016040519081016040528092919081815260200182805460018160011615610100020316600290048015611a855780601f10611a5a57610100808354040283529160200191611a85565b820191906000526020600020905b815481529060010190602001808311611a6857829003601f168201915b505050505081525050925082600001518360200151846040015185606001518660800151839350829250819150809050985098509850985098505050505091939590929450565b600060016000600284815481101515611ae157fe5b906000526020600020900160009054906101000a900473ffffffffffffffffffffffffffffffffffffffff1673ffffffffffffffffffffffffffffffffffffffff1673ffffffffffffffffffffffffffffffffffffffff16815260200190815260200160002060020160009054906101000a900460ff1615611b9f57600282815481101515611b6c57fe5b906000526020600020900160009054906101000a900473ffffffffffffffffffffffffffffffffffffffff169050611ba4565b600090505b919050565b3360008060009054906101000a900473ffffffffffffffffffffffffffffffffffffffff1673ffffffffffffffffffffffffffffffffffffffff168273ffffffffffffffffffffffffffffffffffffffff161490507f7fca019a0a52664785803f352d793a992f66c4affa261b3daf127976e7ad67998282604051808373ffffffffffffffffffffffffffffffffffffffff1673ffffffffffffffffffffffffffffffffffffffff168152602001821515151581526020019250505060405180910390a1801515611c7957600080fd5b6060604051908101604052808473ffffffffffffffffffffffffffffffffffffffff168152602001600160028054806001018281611cb79190612f69565b9160005260206000209001600088909190916101000a81548173ffffffffffffffffffffffffffffffffffffffff021916908373ffffffffffffffffffffffffffffffffffffffff16021790555003815260200160011515815250600160008573ffffffffffffffffffffffffffffffffffffffff1673ffffffffffffffffffffffffffffffffffffffff16815260200190815260200160002060008201518160000160006101000a81548173ffffffffffffffffffffffffffffffffffffffff021916908373ffffffffffffffffffffffffffffffffffffffff1602179055506020820151816001015560408201518160020160006101000a81548160ff0219169083151502179055509050507f7fd215c956537f33ef9064c457003d82df8562a7b03e1f896c0b39c7abc8355883604051808273ffffffffffffffffffffffffffffffffffffffff1673ffffffffffffffffffffffffffffffffffffffff16815260200191505060405180910390a1505050565b600060066000836000191660001916815260200190815260200160002060020160149054906101000a900460ff169050919050565b6000600360020182815481101515611e7657fe5b9060005260206000209001549050919050565b600080611e94612eb0565b3360008060009054906101000a900473ffffffffffffffffffffffffffffffffffffffff1673ffffffffffffffffffffffffffffffffffffffff168273ffffffffffffffffffffffffffffffffffffffff161480611f3e5750600160008373ffffffffffffffffffffffffffffffffffffffff1673ffffffffffffffffffffffffffffffffffffffff16815260200190815260200160002060020160009054906101000a900460ff165b90507f7fca019a0a52664785803f352d793a992f66c4affa261b3daf127976e7ad67998282604051808373ffffffffffffffffffffffffffffffffffffffff1673ffffffffffffffffffffffffffffffffffffffff168152602001821515151581526020019250505060405180910390a1801515611fbb57600080fd5b87611fc581612302565b1515611fd057600080fd5b73__BadgeLibrary__________________________63c1eabde98a6000604051602001526040518263ffffffff167c01000000000000000000000000000000000000000000000000000000000281526004018080602001828103825283818151815260200191508051906020019080838360005b8381101561205f578082015181840152602081019050612044565b50505050905090810190601f16801561208c5780820380516001836020036101000a031916815260200191505b509250505060206040518083038186803b15156120a857600080fd5b6102c65a03f415156120b957600080fd5b5050506040518051905095506001600360020180548060010182816120de9190612f95565b916000526020600020900160008990919091509060001916905503945060a0604051908101604052803073ffffffffffffffffffffffffffffffffffffffff1681526020018b81526020018a81526020018981526020018881525093508360036000016000886000191660001916815260200190815260200160002060008201518160000160006101000a81548173ffffffffffffffffffffffffffffffffffffffff021916908373ffffffffffffffffffffffffffffffffffffffff16021790555060208201518160010190805190602001906121bd929190612fc1565b5060408201518160020190805190602001906121da929190612fc1565b5060608201518160030190805190602001906121f7929190612fc1565b506080820151816004019080519060200190612214929190612fc1565b509050508460036001016000886000191660001916815260200190815260200160002081905550836000015173ffffffffffffffffffffffffffffffffffffffff167fde74f67f0ccaf379531f5b3884d0afb87e86192a992d99e7222390f8870a0b5385604001516040518080602001828103825283818151815260200191508051906020019080838360005b838110156122bc5780820151818401526020810190506122a1565b50505050905090810190601f1680156122e95780820380516001836020036101000a031916815260200191505b509250505060405180910390a250505050505050505050565b60008073__BadgeLibrary__________________________63c1eabde9846000604051602001526040518263ffffffff167c01000000000000000000000000000000000000000000000000000000000281526004018080602001828103825283818151815260200191508051906020019080838360005b83811015612394578082015181840152602081019050612379565b50505050905090810190601f1680156123c15780820380516001836020036101000a031916815260200191505b509250505060206040518083038186803b15156123dd57600080fd5b6102c65a03f415156123ee57600080fd5b505050604051805190509050600060036002018054905014806124545750806000191660036002016003600101600084600019166000191681526020019081526020016000205481548110151561244157fe5b9060005260206000209001546000191614155b915050919050565b6000600280549050905090565b3360008060009054906101000a900473ffffffffffffffffffffffffffffffffffffffff1673ffffffffffffffffffffffffffffffffffffffff168273ffffffffffffffffffffffffffffffffffffffff1614806125135750600160008373ffffffffffffffffffffffffffffffffffffffff1673ffffffffffffffffffffffffffffffffffffffff16815260200190815260200160002060020160009054906101000a900460ff165b90507f7fca019a0a52664785803f352d793a992f66c4affa261b3daf127976e7ad67998282604051808373ffffffffffffffffffffffffffffffffffffffff1673ffffffffffffffffffffffffffffffffffffffff168152602001821515151581526020019250505060405180910390a180151561259057600080fd5b600060066000856000191660001916815260200190815260200160002060020160146101000a81548160ff0219169083151502179055507fd1e55fd73bb60d490f023f5239b9c0ca41f4503cca514ab5c7c8649a188afdd38360405180826000191660001916815260200191505060405180910390a1505050565b60075481565b6000806000803360008060009054906101000a900473ffffffffffffffffffffffffffffffffffffffff1673ffffffffffffffffffffffffffffffffffffffff168273ffffffffffffffffffffffffffffffffffffffff1614806126c15750600160008373ffffffffffffffffffffffffffffffffffffffff1673ffffffffffffffffffffffffffffffffffffffff16815260200190815260200160002060020160009054906101000a900460ff165b90507f7fca019a0a52664785803f352d793a992f66c4affa261b3daf127976e7ad67998282604051808373ffffffffffffffffffffffffffffffffffffffff1673ffffffffffffffffffffffffffffffffffffffff168152602001821515151581526020019250505060405180910390a180151561273e57600080fd5b73__BadgeLibrary__________________________63c1eabde9886000604051602001526040518263ffffffff167c01000000000000000000000000000000000000000000000000000000000281526004018080602001828103825283818151815260200191508051906020019080838360005b838110156127cd5780820151818401526020810190506127b2565b50505050905090810190601f1680156127fa5780820380516001836020036101000a031916815260200191505b509250505060206040518083038186803b151561281657600080fd5b6102c65a03f4151561282757600080fd5b505050604051805190509450600360010160008660001916600019168152602001908152602001600020549350600360020160016003600201805490500381548110151561287157fe5b90600052602060002090015492508360036001016000856000191660001916815260200190815260200160002081905550826003600201858154811015156128b557fe5b9060005260206000209001816000191690555060036002018054809190600190036128e09190613041565b50600360000160008660001916600019168152602001908152602001600020600080820160006101000a81549073ffffffffffffffffffffffffffffffffffffffff0219169055600182016000612937919061306d565b600282016000612947919061306d565b600382016000612957919061306d565b600482016000612967919061306d565b5050600360010160008660001916600019168152602001908152602001600020600090557f25011d6c52f8dd436cbad877a1e1bfa99b3fc7b3df1c4f7b68d6f6403e943a51876003600201805490506040518080602001838152602001828103825284818151815260200191508051906020019080838360005b838110156129fc5780820151818401526020810190506129e1565b50505050905090810190601f168015612a295780820380516001836020036101000a031916815260200191505b50935050505060405180910390a1600195505050505050919050565b3360008060009054906101000a900473ffffffffffffffffffffffffffffffffffffffff1673ffffffffffffffffffffffffffffffffffffffff168273ffffffffffffffffffffffffffffffffffffffff161480612aef5750600160008373ffffffffffffffffffffffffffffffffffffffff1673ffffffffffffffffffffffffffffffffffffffff16815260200190815260200160002060020160009054906101000a900460ff165b90507f7fca019a0a52664785803f352d793a992f66c4affa261b3daf127976e7ad67998282604051808373ffffffffffffffffffffffffffffffffffffffff1673ffffffffffffffffffffffffffffffffffffffff168152602001821515151581526020019250505060405180910390a1801515612b6c57600080fd5b600160066000856000191660001916815260200190815260200160002060020160146101000a81548160ff0219169083151502179055507f3cc2375f3fc7711ba27361cde93880f578742f9f050acee766bed662d117ba728360405180826000191660001916815260200191505060405180910390a1505050565b3360008060009054906101000a900473ffffffffffffffffffffffffffffffffffffffff1673ffffffffffffffffffffffffffffffffffffffff168273ffffffffffffffffffffffffffffffffffffffff161490507f7fca019a0a52664785803f352d793a992f66c4affa261b3daf127976e7ad67998282604051808373ffffffffffffffffffffffffffffffffffffffff1673ffffffffffffffffffffffffffffffffffffffff168152602001821515151581526020019250505060405180910390a1801515612cb757600080fd5b6000600160008573ffffffffffffffffffffffffffffffffffffffff1673ffffffffffffffffffffffffffffffffffffffff16815260200190815260200160002060020160006101000a81548160ff0219169083151502179055507f56a53756e1db2ff35a90edee9bd205b4b2bb8633ee3d6a53a5e85d5b46f0e9dc83604051808273ffffffffffffffffffffffffffffffffffffffff1673ffffffffffffffffffffffffffffffffffffffff16815260200191505060405180910390a1505050565b60008282600754604051808473ffffffffffffffffffffffffffffffffffffffff1673ffffffffffffffffffffffffffffffffffffffff166c0100000000000000000000000002815260140183805190602001908083835b602083101515612df75780518252602082019150602081019050602083039250612dd2565b6001836020036101000a03801982511681845116808217855250505050505090500182815260200193505050506040518091039020905092915050565b6000809054906101000a900473ffffffffffffffffffffffffffffffffffffffff1681565b60016020528060005260406000206000915090508060000160009054906101000a900473ffffffffffffffffffffffffffffffffffffffff16908060010154908060020160009054906101000a900460ff16905083565b60a060405190810160405280600073ffffffffffffffffffffffffffffffffffffffff168152602001612ee16130b5565b8152602001612eee6130b5565b8152602001612efb6130b5565b8152602001612f086130b5565b81525090565b6080604051908101604052806000801916815260200160008019168152602001600073ffffffffffffffffffffffffffffffffffffffff1681526020016000151581525090565b602060405190810160405280600081525090565b815481835581811511612f9057818360005260206000209182019101612f8f91906130c9565b5b505050565b815481835581811511612fbc57818360005260206000209182019101612fbb91906130ee565b5b505050565b828054600181600116156101000203166002900490600052602060002090601f016020900481019282601f1061300257805160ff1916838001178555613030565b82800160010185558215613030579182015b8281111561302f578251825591602001919060010190613014565b5b50905061303d91906130c9565b5090565b8154818355818115116130685781836000526020600020918201910161306791906130ee565b5b505050565b50805460018160011615610100020316600290046000825580601f1061309357506130b2565b601f0160209004906000526020600020908101906130b191906130c9565b5b50565b602060405190810160405280600081525090565b6130eb91905b808211156130e75760008160009055506001016130cf565b5090565b90565b61311091905b8082111561310c5760008160009055506001016130f4565b5090565b905600a165627a7a72305820de2891b3cb50217176f9ad70833056c6d8c93e6e08966628531a9e176821edf20029",
  "source": "pragma solidity ^0.4.17;\n\nimport \"BadgeLibrary/contracts/BadgeLibrary.sol\";\n\nimport \"./BadgeManager.sol\";\n\ncontract TransactionManager is BadgeManager {\n\n    struct Transaction {\n        bytes32 key; \n        bytes32 integrityHash;\n        address recipient;\n        bool revoked;\n    }\n\n    /// @notice mapping of a unique hash to a recipient address, used to verify issuer of a credential \n    mapping (bytes32=>Transaction) public credentialTxnMap;\n    uint public nonce;\n\n    function TransactionManager(address _adminWalletAddr) public BadgeManager(_adminWalletAddr) {\n        nonce = 0;\n    }\n\n    /** @dev sets a new transaction (credential issued to recipient)\n      * @param _txnKey the transaction key \n      * @param _recipient recipient of the credential\n    */\n    function setNewTxn(\n        bytes32 _txnKey, \n        address _recipient, \n        string _badgeName) authorized(msg.sender) public \n        {\n        //increase nonce\n        nonce++;\n        bytes32 badgeNameHash = BadgeLibrary.getBadgeNameHash(_badgeName);\n        BadgeLibrary.Badge memory badge = badgeVault.badges[badgeNameHash];\n        bytes32 integrityHash = BadgeLibrary.getIntegrityHash(\n            badge.issuer, \n            badge.description, \n            badge.name, \n            badge.image, \n            badge.version, \n            _recipient \n        );\n        Transaction memory transaction = Transaction(_txnKey, integrityHash, _recipient, false);\n        credentialTxnMap[_txnKey] = transaction;\n    }\n\n    /** @dev gets a transaction\n      * @param _txnKey the transaction key \n      * @return txnKey the key for the transaction\n      * @return integrityHash proof of integrity hash for badge issued in this transaction\n      * @return recipient address of the wallet associated with the person who received this badge\n    */ \n    function getTxn(bytes32 _txnKey) constant public returns(bytes32 txnKey, bytes32 integrityHash, address recipient, bool revoked) {\n        Transaction memory transaction = credentialTxnMap[_txnKey];\n        return(\n            transaction.key,\n            transaction.integrityHash,\n            transaction.recipient,\n            transaction.revoked\n        );\n    }\n\n    /// @notice generate a credential transaction key\n    /// @param _issuer address of the issuer\n    /// @param _msgData msg data\n    function getCredentialTxnKey(address _issuer, bytes _msgData) public view returns(bytes32 key) {\n        return keccak256(_issuer, _msgData, nonce);\n    }\n\n    event CredentialRevoked(bytes32 _txnKey);\n    /// @notice revoke a credential\n    function revoke(bytes32 _txnKey) public authorized(msg.sender) {\n        credentialTxnMap[_txnKey].revoked = true;\n        CredentialRevoked(_txnKey);\n    }\n\n    event CredentialUnRevoked(bytes32 _txnKey);\n    /// @notice unrevoke a credential\n    function unRevoke(bytes32 _txnKey) public authorized(msg.sender) {\n        credentialTxnMap[_txnKey].revoked = false;\n        CredentialUnRevoked(_txnKey);\n    }\n\n    /// @notice check if credential is revoked\n    function isRevoked(bytes32 _txnKey) public constant returns(bool c) {\n        return credentialTxnMap[_txnKey].revoked;\n    }\n}",
  "sourcePath": "/Users/khalil.claybon/Desktop/migrate-to-new-cpu/some_work/badgeforce_dev/badgeforce/contracts/TransactionManager.sol",
  "compiler": {
    "name": "solc",
    "version": "0.4.18+commit.9cf6e910.Emscripten.clang"
  },
  "schemaVersion": "1.0.1",
  "updatedAt": "2017-12-29T12:58:31.824Z"
}