{
  "contractName": "Verifier",
  "abi": [
    {
      "constant": false,
      "inputs": [
        {
          "name": "_txnKey",
          "type": "bytes32"
        },
        {
          "name": "_recipient",
          "type": "address"
        },
        {
          "name": "_badgeName",
          "type": "string"
        }
      ],
      "name": "setNewTxn",
      "outputs": [],
      "payable": false,
      "stateMutability": "nonpayable",
      "type": "function"
    },
    {
      "constant": true,
      "inputs": [
        {
          "name": "",
          "type": "bytes32"
        }
      ],
      "name": "credentialTxnMap",
      "outputs": [
        {
          "name": "key",
          "type": "bytes32"
        },
        {
          "name": "integrityHash",
          "type": "bytes32"
        },
        {
          "name": "recipient",
          "type": "address"
        },
        {
          "name": "revoked",
          "type": "bool"
        }
      ],
      "payable": false,
      "stateMutability": "view",
      "type": "function"
    },
    {
      "constant": true,
      "inputs": [
        {
          "name": "_txnKey",
          "type": "bytes32"
        }
      ],
      "name": "getTxn",
      "outputs": [
        {
          "name": "txnKey",
          "type": "bytes32"
        },
        {
          "name": "integrityHash",
          "type": "bytes32"
        },
        {
          "name": "recipient",
          "type": "address"
        },
        {
          "name": "revoked",
          "type": "bool"
        }
      ],
      "payable": false,
      "stateMutability": "view",
      "type": "function"
    },
    {
      "constant": true,
      "inputs": [],
      "name": "getNumberOfBadges",
      "outputs": [
        {
          "name": "count",
          "type": "uint256"
        }
      ],
      "payable": false,
      "stateMutability": "view",
      "type": "function"
    },
    {
      "constant": true,
      "inputs": [
        {
          "name": "_name",
          "type": "string"
        }
      ],
      "name": "getBadge",
      "outputs": [
        {
          "name": "issuer",
          "type": "address"
        },
        {
          "name": "description",
          "type": "string"
        },
        {
          "name": "bName",
          "type": "string"
        },
        {
          "name": "image",
          "type": "string"
        },
        {
          "name": "version",
          "type": "string"
        }
      ],
      "payable": false,
      "stateMutability": "view",
      "type": "function"
    },
    {
      "constant": false,
      "inputs": [
        {
          "name": "_index",
          "type": "uint256"
        }
      ],
      "name": "getAuthorizedAccount",
      "outputs": [
        {
          "name": "_issuer",
          "type": "address"
        }
      ],
      "payable": false,
      "stateMutability": "nonpayable",
      "type": "function"
    },
    {
      "constant": false,
      "inputs": [
        {
          "name": "_newIssuer",
          "type": "address"
        }
      ],
      "name": "authorzeAccount",
      "outputs": [],
      "payable": false,
      "stateMutability": "nonpayable",
      "type": "function"
    },
    {
      "constant": true,
      "inputs": [
        {
          "name": "_txnKey",
          "type": "bytes32"
        }
      ],
      "name": "isRevoked",
      "outputs": [
        {
          "name": "c",
          "type": "bool"
        }
      ],
      "payable": false,
      "stateMutability": "view",
      "type": "function"
    },
    {
      "constant": true,
      "inputs": [
        {
          "name": "_txnKey",
          "type": "bytes32"
        },
        {
          "name": "_recipient",
          "type": "address"
        }
      ],
      "name": "verifyCredentialTxn",
      "outputs": [
        {
          "name": "_revoked",
          "type": "bool"
        },
        {
          "name": "_integrityHashCheck",
          "type": "bool"
        },
        {
          "name": "_recipientCheck",
          "type": "bool"
        }
      ],
      "payable": false,
      "stateMutability": "view",
      "type": "function"
    },
    {
      "constant": true,
      "inputs": [
        {
          "name": "_index",
          "type": "uint256"
        }
      ],
      "name": "getNameByIndex",
      "outputs": [
        {
          "name": "_name",
          "type": "bytes32"
        }
      ],
      "payable": false,
      "stateMutability": "view",
      "type": "function"
    },
    {
      "constant": false,
      "inputs": [
        {
          "name": "_description",
          "type": "string"
        },
        {
          "name": "_name",
          "type": "string"
        },
        {
          "name": "_image",
          "type": "string"
        },
        {
          "name": "_version",
          "type": "string"
        }
      ],
      "name": "createBadge",
      "outputs": [],
      "payable": false,
      "stateMutability": "nonpayable",
      "type": "function"
    },
    {
      "constant": true,
      "inputs": [
        {
          "name": "_name",
          "type": "string"
        }
      ],
      "name": "isUnique",
      "outputs": [
        {
          "name": "unique",
          "type": "bool"
        }
      ],
      "payable": false,
      "stateMutability": "view",
      "type": "function"
    },
    {
      "constant": false,
      "inputs": [],
      "name": "getNumberOfAuthorizedAccounts",
      "outputs": [
        {
          "name": "_numOfAccounts",
          "type": "uint256"
        }
      ],
      "payable": false,
      "stateMutability": "nonpayable",
      "type": "function"
    },
    {
      "constant": false,
      "inputs": [
        {
          "name": "_txnKey",
          "type": "bytes32"
        }
      ],
      "name": "unRevoke",
      "outputs": [],
      "payable": false,
      "stateMutability": "nonpayable",
      "type": "function"
    },
    {
      "constant": true,
      "inputs": [],
      "name": "nonce",
      "outputs": [
        {
          "name": "",
          "type": "uint256"
        }
      ],
      "payable": false,
      "stateMutability": "view",
      "type": "function"
    },
    {
      "constant": false,
      "inputs": [
        {
          "name": "_name",
          "type": "string"
        }
      ],
      "name": "deleteBadge",
      "outputs": [
        {
          "name": "success",
          "type": "bool"
        }
      ],
      "payable": false,
      "stateMutability": "nonpayable",
      "type": "function"
    },
    {
      "constant": false,
      "inputs": [
        {
          "name": "_txnKey",
          "type": "bytes32"
        }
      ],
      "name": "revoke",
      "outputs": [],
      "payable": false,
      "stateMutability": "nonpayable",
      "type": "function"
    },
    {
      "constant": false,
      "inputs": [
        {
          "name": "_issuer",
          "type": "address"
        }
      ],
      "name": "removeAuthorizedAccount",
      "outputs": [],
      "payable": false,
      "stateMutability": "nonpayable",
      "type": "function"
    },
    {
      "constant": true,
      "inputs": [
        {
          "name": "_txnKey",
          "type": "bytes32"
        },
        {
          "name": "_recipient",
          "type": "address"
        }
      ],
      "name": "verifyCredential",
      "outputs": [
        {
          "name": "isVerified",
          "type": "bool"
        },
        {
          "name": "errMsg",
          "type": "string"
        }
      ],
      "payable": false,
      "stateMutability": "view",
      "type": "function"
    },
    {
      "constant": true,
      "inputs": [
        {
          "name": "_issuer",
          "type": "address"
        },
        {
          "name": "_msgData",
          "type": "bytes"
        }
      ],
      "name": "getCredentialTxnKey",
      "outputs": [
        {
          "name": "key",
          "type": "bytes32"
        }
      ],
      "payable": false,
      "stateMutability": "view",
      "type": "function"
    },
    {
      "constant": true,
      "inputs": [],
      "name": "admin",
      "outputs": [
        {
          "name": "",
          "type": "address"
        }
      ],
      "payable": false,
      "stateMutability": "view",
      "type": "function"
    },
    {
      "constant": true,
      "inputs": [
        {
          "name": "",
          "type": "address"
        }
      ],
      "name": "authorizedAccountsMap",
      "outputs": [
        {
          "name": "issuer",
          "type": "address"
        },
        {
          "name": "index",
          "type": "uint256"
        },
        {
          "name": "isAuthorized",
          "type": "bool"
        }
      ],
      "payable": false,
      "stateMutability": "view",
      "type": "function"
    },
    {
      "inputs": [
        {
          "name": "_adminWalletAddr",
          "type": "address"
        }
      ],
      "payable": false,
      "stateMutability": "nonpayable",
      "type": "constructor"
    },
    {
      "anonymous": false,
      "inputs": [
        {
          "indexed": false,
          "name": "_txnKey",
          "type": "bytes32"
        }
      ],
      "name": "CredentialRevoked",
      "type": "event"
    },
    {
      "anonymous": false,
      "inputs": [
        {
          "indexed": false,
          "name": "_txnKey",
          "type": "bytes32"
        }
      ],
      "name": "CredentialUnRevoked",
      "type": "event"
    },
    {
      "anonymous": false,
      "inputs": [
        {
          "indexed": false,
          "name": "_name",
          "type": "string"
        },
        {
          "indexed": true,
          "name": "_issuer",
          "type": "address"
        }
      ],
      "name": "BadgeCreated",
      "type": "event"
    },
    {
      "anonymous": false,
      "inputs": [
        {
          "indexed": false,
          "name": "_name",
          "type": "string"
        },
        {
          "indexed": false,
          "name": "count",
          "type": "uint256"
        }
      ],
      "name": "BadgeDeleted",
      "type": "event"
    },
    {
      "anonymous": false,
      "inputs": [
        {
          "indexed": false,
          "name": "_actor",
          "type": "address"
        },
        {
          "indexed": false,
          "name": "authorized",
          "type": "bool"
        }
      ],
      "name": "AuthorizeAttempt",
      "type": "event"
    },
    {
      "anonymous": false,
      "inputs": [
        {
          "indexed": false,
          "name": "_newIssuer",
          "type": "address"
        }
      ],
      "name": "NewAccountAuthorized",
      "type": "event"
    },
    {
      "anonymous": false,
      "inputs": [
        {
          "indexed": false,
          "name": "_issuer",
          "type": "address"
        }
      ],
      "name": "AuthorizedAccountRemoved",
      "type": "event"
    }
  ],
  "bytecode": "0x6060604052341561000f57600080fd5b60405160208061368b83398101604052808051906020019091905050808080806000806101000a81548173ffffffffffffffffffffffffffffffffffffffff021916908373ffffffffffffffffffffffffffffffffffffffff160217905550505060006007819055505050613602806100896000396000f300606060405260043610610128576000357c0100000000000000000000000000000000000000000000000000000000900463ffffffff168063029a28581461012d5780630decfdea146101b65780631041eb961461024657806324ddd51a146102d65780632d902fe7146102ff5780633557b6c31461054c5780633b57391a146105af5780634294857f146105e85780635629aec91461062757806359c293f11461069b5780635c9d3a94146106da57806372ee19a2146108005780637c59fda014610875578063a5aef15b1461089e578063affed0e0146108c5578063b6109221146108ee578063b75c7dc614610963578063be47aa091461098a578063d8c0941b146109c3578063eb92948114610a8d578063f851a44014610b25578063f9afc24214610b7a575b600080fd5b341561013857600080fd5b6101b460048080356000191690602001909190803573ffffffffffffffffffffffffffffffffffffffff1690602001909190803590602001908201803590602001908080601f01602080910402602001604051908101604052809392919081815260200183838082843782019150505050505091905050610c05565b005b34156101c157600080fd5b6101db6004808035600019169060200190919050506114ff565b60405180856000191660001916815260200184600019166000191681526020018373ffffffffffffffffffffffffffffffffffffffff1673ffffffffffffffffffffffffffffffffffffffff1681526020018215151515815260200194505050505060405180910390f35b341561025157600080fd5b61026b60048080356000191690602001909190505061155c565b60405180856000191660001916815260200184600019166000191681526020018373ffffffffffffffffffffffffffffffffffffffff1673ffffffffffffffffffffffffffffffffffffffff1681526020018215151515815260200194505050505060405180910390f35b34156102e157600080fd5b6102e961164c565b6040518082815260200191505060405180910390f35b341561030a57600080fd5b61035a600480803590602001908201803590602001908080601f0160208091040260200160405190810160405280939291908181526020018383808284378201915050505050509190505061165c565b604051808673ffffffffffffffffffffffffffffffffffffffff1673ffffffffffffffffffffffffffffffffffffffff16815260200180602001806020018060200180602001858103855289818151815260200191508051906020019080838360005b838110156103d85780820151818401526020810190506103bd565b50505050905090810190601f1680156104055780820380516001836020036101000a031916815260200191505b50858103845288818151815260200191508051906020019080838360005b8381101561043e578082015181840152602081019050610423565b50505050905090810190601f16801561046b5780820380516001836020036101000a031916815260200191505b50858103835287818151815260200191508051906020019080838360005b838110156104a4578082015181840152602081019050610489565b50505050905090810190601f1680156104d15780820380516001836020036101000a031916815260200191505b50858103825286818151815260200191508051906020019080838360005b8381101561050a5780820151818401526020810190506104ef565b50505050905090810190601f1680156105375780820380516001836020036101000a031916815260200191505b50995050505050505050505060405180910390f35b341561055757600080fd5b61056d6004808035906020019091905050611c20565b604051808273ffffffffffffffffffffffffffffffffffffffff1673ffffffffffffffffffffffffffffffffffffffff16815260200191505060405180910390f35b34156105ba57600080fd5b6105e6600480803573ffffffffffffffffffffffffffffffffffffffff16906020019091905050611cfd565b005b34156105f357600080fd5b61060d600480803560001916906020019091905050611f81565b604051808215151515815260200191505060405180910390f35b341561063257600080fd5b61066b60048080356000191690602001909190803573ffffffffffffffffffffffffffffffffffffffff16906020019091905050611fb6565b60405180841515151581526020018315151515815260200182151515158152602001935050505060405180910390f35b34156106a657600080fd5b6106bc600480803590602001909190505061211d565b60405180826000191660001916815260200191505060405180910390f35b34156106e557600080fd5b6107fe600480803590602001908201803590602001908080601f0160208091040260200160405190810160405280939291908181526020018383808284378201915050505050509190803590602001908201803590602001908080601f0160208091040260200160405190810160405280939291908181526020018383808284378201915050505050509190803590602001908201803590602001908080601f0160208091040260200160405190810160405280939291908181526020018383808284378201915050505050509190803590602001908201803590602001908080601f01602080910402602001604051908101604052809392919081815260200183838082843782019150505050505091905050612144565b005b341561080b57600080fd5b61085b600480803590602001908201803590602001908080601f016020809104026020016040519081016040528093929190818152602001838380828437820191505050505050919050506125bd565b604051808215151515815260200191505060405180910390f35b341561088057600080fd5b610888612717565b6040518082815260200191505060405180910390f35b34156108a957600080fd5b6108c3600480803560001916906020019091905050612724565b005b34156108d057600080fd5b6108d86128c6565b6040518082815260200191505060405180910390f35b34156108f957600080fd5b610949600480803590602001908201803590602001908080601f016020809104026020016040519081016040528093929190818152602001838380828437820191505050505050919050506128cc565b604051808215151515815260200191505060405180910390f35b341561096e57600080fd5b610988600480803560001916906020019091905050612d00565b005b341561099557600080fd5b6109c1600480803573ffffffffffffffffffffffffffffffffffffffff16906020019091905050612ea2565b005b34156109ce57600080fd5b610a0760048080356000191690602001909190803573ffffffffffffffffffffffffffffffffffffffff16906020019091905050613035565b604051808315151515815260200180602001828103825283818151815260200191508051906020019080838360005b83811015610a51578082015181840152602081019050610a36565b50505050905090810190601f168015610a7e5780820380516001836020036101000a031916815260200191505b50935050505060405180910390f35b3415610a9857600080fd5b610b07600480803573ffffffffffffffffffffffffffffffffffffffff1690602001909190803590602001908201803590602001908080601f0160208091040260200160405190810160405280939291908181526020018383808284378201915050505050509190505061323d565b60405180826000191660001916815260200191505060405180910390f35b3415610b3057600080fd5b610b386132f7565b604051808273ffffffffffffffffffffffffffffffffffffffff1673ffffffffffffffffffffffffffffffffffffffff16815260200191505060405180910390f35b3415610b8557600080fd5b610bb1600480803573ffffffffffffffffffffffffffffffffffffffff1690602001909190505061331c565b604051808473ffffffffffffffffffffffffffffffffffffffff1673ffffffffffffffffffffffffffffffffffffffff16815260200183815260200182151515158152602001935050505060405180910390f35b6000610c0f613373565b6000610c196133d1565b3360008060009054906101000a900473ffffffffffffffffffffffffffffffffffffffff1673ffffffffffffffffffffffffffffffffffffffff168273ffffffffffffffffffffffffffffffffffffffff161480610cc35750600160008373ffffffffffffffffffffffffffffffffffffffff1673ffffffffffffffffffffffffffffffffffffffff16815260200190815260200160002060020160009054906101000a900460ff165b90507f7fca019a0a52664785803f352d793a992f66c4affa261b3daf127976e7ad67998282604051808373ffffffffffffffffffffffffffffffffffffffff1673ffffffffffffffffffffffffffffffffffffffff168152602001821515151581526020019250505060405180910390a1801515610d4057600080fd5b60076000815480929190600101919050555073__BadgeLibrary__________________________63c1eabde9886000604051602001526040518263ffffffff167c01000000000000000000000000000000000000000000000000000000000281526004018080602001828103825283818151815260200191508051906020019080838360005b83811015610de1578082015181840152602081019050610dc6565b50505050905090810190601f168015610e0e5780820380516001836020036101000a031916815260200191505b509250505060206040518083038186803b1515610e2a57600080fd5b6102c65a03f41515610e3b57600080fd5b50505060405180519050955060036000016000876000191660001916815260200190815260200160002060a060405190810160405290816000820160009054906101000a900473ffffffffffffffffffffffffffffffffffffffff1673ffffffffffffffffffffffffffffffffffffffff1673ffffffffffffffffffffffffffffffffffffffff168152602001600182018054600181600116156101000203166002900480601f016020809104026020016040519081016040528092919081815260200182805460018160011615610100020316600290048015610f605780601f10610f3557610100808354040283529160200191610f60565b820191906000526020600020905b815481529060010190602001808311610f4357829003601f168201915b50505050508152602001600282018054600181600116156101000203166002900480601f0160208091040260200160405190810160405280929190818152602001828054600181600116156101000203166002900480156110025780601f10610fd757610100808354040283529160200191611002565b820191906000526020600020905b815481529060010190602001808311610fe557829003601f168201915b50505050508152602001600382018054600181600116156101000203166002900480601f0160208091040260200160405190810160405280929190818152602001828054600181600116156101000203166002900480156110a45780601f10611079576101008083540402835291602001916110a4565b820191906000526020600020905b81548152906001019060200180831161108757829003601f168201915b50505050508152602001600482018054600181600116156101000203166002900480601f0160208091040260200160405190810160405280929190818152602001828054600181600116156101000203166002900480156111465780601f1061111b57610100808354040283529160200191611146565b820191906000526020600020905b81548152906001019060200180831161112957829003601f168201915b505050505081525050945073__BadgeLibrary__________________________631ddb6af686600001518760200151886040015189606001518a608001518e6000604051602001526040518763ffffffff167c0100000000000000000000000000000000000000000000000000000000028152600401808773ffffffffffffffffffffffffffffffffffffffff1673ffffffffffffffffffffffffffffffffffffffff168152602001806020018060200180602001806020018673ffffffffffffffffffffffffffffffffffffffff1673ffffffffffffffffffffffffffffffffffffffff16815260200185810385528a818151815260200191508051906020019080838360005b8381101561126957808201518184015260208101905061124e565b50505050905090810190601f1680156112965780820380516001836020036101000a031916815260200191505b50858103845289818151815260200191508051906020019080838360005b838110156112cf5780820151818401526020810190506112b4565b50505050905090810190601f1680156112fc5780820380516001836020036101000a031916815260200191505b50858103835288818151815260200191508051906020019080838360005b8381101561133557808201518184015260208101905061131a565b50505050905090810190601f1680156113625780820380516001836020036101000a031916815260200191505b50858103825287818151815260200191508051906020019080838360005b8381101561139b578082015181840152602081019050611380565b50505050905090810190601f1680156113c85780820380516001836020036101000a031916815260200191505b509a505050505050505050505060206040518083038186803b15156113ec57600080fd5b6102c65a03f415156113fd57600080fd5b5050506040518051905093506080604051908101604052808a600019168152602001856000191681526020018973ffffffffffffffffffffffffffffffffffffffff16815260200160001515815250925082600660008b60001916600019168152602001908152602001600020600082015181600001906000191690556020820151816001019060001916905560408201518160020160006101000a81548173ffffffffffffffffffffffffffffffffffffffff021916908373ffffffffffffffffffffffffffffffffffffffff16021790555060608201518160020160146101000a81548160ff021916908315150217905550905050505050505050505050565b60066020528060005260406000206000915090508060000154908060010154908060020160009054906101000a900473ffffffffffffffffffffffffffffffffffffffff16908060020160149054906101000a900460ff16905084565b60008060008061156a6133d1565b600660008760001916600019168152602001908152602001600020608060405190810160405290816000820154600019166000191681526020016001820154600019166000191681526020016002820160009054906101000a900473ffffffffffffffffffffffffffffffffffffffff1673ffffffffffffffffffffffffffffffffffffffff1673ffffffffffffffffffffffffffffffffffffffff1681526020016002820160149054906101000a900460ff161515151581525050905080600001518160200151826040015183606001519450945094509450509193509193565b6000600360020180549050905090565b6000611666613418565b61166e613418565b611676613418565b61167e613418565b6000611688613373565b87600073__BadgeLibrary__________________________63c1eabde9836000604051602001526040518263ffffffff167c01000000000000000000000000000000000000000000000000000000000281526004018080602001828103825283818151815260200191508051906020019080838360005b8381101561171a5780820151818401526020810190506116ff565b50505050905090810190601f1680156117475780820380516001836020036101000a031916815260200191505b509250505060206040518083038186803b151561176357600080fd5b6102c65a03f4151561177457600080fd5b50505060405180519050905060006003600201805490501180156117da575080600019166003600201600360010160008460001916600019168152602001908152602001600020548154811015156117c857fe5b90600052602060002090015460001916145b15156117e557600080fd5b73__BadgeLibrary__________________________63c1eabde98b6000604051602001526040518263ffffffff167c01000000000000000000000000000000000000000000000000000000000281526004018080602001828103825283818151815260200191508051906020019080838360005b83811015611874578082015181840152602081019050611859565b50505050905090810190601f1680156118a15780820380516001836020036101000a031916815260200191505b509250505060206040518083038186803b15156118bd57600080fd5b6102c65a03f415156118ce57600080fd5b50505060405180519050935060036000016000856000191660001916815260200190815260200160002060a060405190810160405290816000820160009054906101000a900473ffffffffffffffffffffffffffffffffffffffff1673ffffffffffffffffffffffffffffffffffffffff1673ffffffffffffffffffffffffffffffffffffffff168152602001600182018054600181600116156101000203166002900480601f0160208091040260200160405190810160405280929190818152602001828054600181600116156101000203166002900480156119f35780601f106119c8576101008083540402835291602001916119f3565b820191906000526020600020905b8154815290600101906020018083116119d657829003601f168201915b50505050508152602001600282018054600181600116156101000203166002900480601f016020809104026020016040519081016040528092919081815260200182805460018160011615610100020316600290048015611a955780601f10611a6a57610100808354040283529160200191611a95565b820191906000526020600020905b815481529060010190602001808311611a7857829003601f168201915b50505050508152602001600382018054600181600116156101000203166002900480601f016020809104026020016040519081016040528092919081815260200182805460018160011615610100020316600290048015611b375780601f10611b0c57610100808354040283529160200191611b37565b820191906000526020600020905b815481529060010190602001808311611b1a57829003601f168201915b50505050508152602001600482018054600181600116156101000203166002900480601f016020809104026020016040519081016040528092919081815260200182805460018160011615610100020316600290048015611bd95780601f10611bae57610100808354040283529160200191611bd9565b820191906000526020600020905b815481529060010190602001808311611bbc57829003601f168201915b505050505081525050925082600001518360200151846040015185606001518660800151839350829250819150809050985098509850985098505050505091939590929450565b600060016000600284815481101515611c3557fe5b906000526020600020900160009054906101000a900473ffffffffffffffffffffffffffffffffffffffff1673ffffffffffffffffffffffffffffffffffffffff1673ffffffffffffffffffffffffffffffffffffffff16815260200190815260200160002060020160009054906101000a900460ff1615611cf357600282815481101515611cc057fe5b906000526020600020900160009054906101000a900473ffffffffffffffffffffffffffffffffffffffff169050611cf8565b600090505b919050565b3360008060009054906101000a900473ffffffffffffffffffffffffffffffffffffffff1673ffffffffffffffffffffffffffffffffffffffff168273ffffffffffffffffffffffffffffffffffffffff161490507f7fca019a0a52664785803f352d793a992f66c4affa261b3daf127976e7ad67998282604051808373ffffffffffffffffffffffffffffffffffffffff1673ffffffffffffffffffffffffffffffffffffffff168152602001821515151581526020019250505060405180910390a1801515611dcd57600080fd5b6060604051908101604052808473ffffffffffffffffffffffffffffffffffffffff168152602001600160028054806001018281611e0b919061342c565b9160005260206000209001600088909190916101000a81548173ffffffffffffffffffffffffffffffffffffffff021916908373ffffffffffffffffffffffffffffffffffffffff16021790555003815260200160011515815250600160008573ffffffffffffffffffffffffffffffffffffffff1673ffffffffffffffffffffffffffffffffffffffff16815260200190815260200160002060008201518160000160006101000a81548173ffffffffffffffffffffffffffffffffffffffff021916908373ffffffffffffffffffffffffffffffffffffffff1602179055506020820151816001015560408201518160020160006101000a81548160ff0219169083151502179055509050507f7fd215c956537f33ef9064c457003d82df8562a7b03e1f896c0b39c7abc8355883604051808273ffffffffffffffffffffffffffffffffffffffff1673ffffffffffffffffffffffffffffffffffffffff16815260200191505060405180910390a1505050565b600060066000836000191660001916815260200190815260200160002060020160149054906101000a900460ff169050919050565b6000806000806000806000806000611fcd8b61155c565b9550955095509550600073ffffffffffffffffffffffffffffffffffffffff168473ffffffffffffffffffffffffffffffffffffffff16141561201a576001600080985098509850612110565b821561202f5782600080985098509850612110565b8991508173ffffffffffffffffffffffffffffffffffffffff16636bcdaa33876000604051602001526040518263ffffffff167c0100000000000000000000000000000000000000000000000000000000028152600401808260001916600019168152602001915050602060405180830381600087803b15156120b157600080fd5b6102c65a03f115156120c257600080fd5b5050506040518051905090508285600019168260001916148573ffffffffffffffffffffffffffffffffffffffff168c73ffffffffffffffffffffffffffffffffffffffff16149850985098505b5050505050509250925092565b600060036002018281548110151561213157fe5b9060005260206000209001549050919050565b60008061214f613373565b3360008060009054906101000a900473ffffffffffffffffffffffffffffffffffffffff1673ffffffffffffffffffffffffffffffffffffffff168273ffffffffffffffffffffffffffffffffffffffff1614806121f95750600160008373ffffffffffffffffffffffffffffffffffffffff1673ffffffffffffffffffffffffffffffffffffffff16815260200190815260200160002060020160009054906101000a900460ff165b90507f7fca019a0a52664785803f352d793a992f66c4affa261b3daf127976e7ad67998282604051808373ffffffffffffffffffffffffffffffffffffffff1673ffffffffffffffffffffffffffffffffffffffff168152602001821515151581526020019250505060405180910390a180151561227657600080fd5b87612280816125bd565b151561228b57600080fd5b73__BadgeLibrary__________________________63c1eabde98a6000604051602001526040518263ffffffff167c01000000000000000000000000000000000000000000000000000000000281526004018080602001828103825283818151815260200191508051906020019080838360005b8381101561231a5780820151818401526020810190506122ff565b50505050905090810190601f1680156123475780820380516001836020036101000a031916815260200191505b509250505060206040518083038186803b151561236357600080fd5b6102c65a03f4151561237457600080fd5b5050506040518051905095506001600360020180548060010182816123999190613458565b916000526020600020900160008990919091509060001916905503945060a0604051908101604052803073ffffffffffffffffffffffffffffffffffffffff1681526020018b81526020018a81526020018981526020018881525093508360036000016000886000191660001916815260200190815260200160002060008201518160000160006101000a81548173ffffffffffffffffffffffffffffffffffffffff021916908373ffffffffffffffffffffffffffffffffffffffff1602179055506020820151816001019080519060200190612478929190613484565b506040820151816002019080519060200190612495929190613484565b5060608201518160030190805190602001906124b2929190613484565b5060808201518160040190805190602001906124cf929190613484565b509050508460036001016000886000191660001916815260200190815260200160002081905550836000015173ffffffffffffffffffffffffffffffffffffffff167fde74f67f0ccaf379531f5b3884d0afb87e86192a992d99e7222390f8870a0b5385604001516040518080602001828103825283818151815260200191508051906020019080838360005b8381101561257757808201518184015260208101905061255c565b50505050905090810190601f1680156125a45780820380516001836020036101000a031916815260200191505b509250505060405180910390a250505050505050505050565b60008073__BadgeLibrary__________________________63c1eabde9846000604051602001526040518263ffffffff167c01000000000000000000000000000000000000000000000000000000000281526004018080602001828103825283818151815260200191508051906020019080838360005b8381101561264f578082015181840152602081019050612634565b50505050905090810190601f16801561267c5780820380516001836020036101000a031916815260200191505b509250505060206040518083038186803b151561269857600080fd5b6102c65a03f415156126a957600080fd5b5050506040518051905090506000600360020180549050148061270f575080600019166003600201600360010160008460001916600019168152602001908152602001600020548154811015156126fc57fe5b9060005260206000209001546000191614155b915050919050565b6000600280549050905090565b3360008060009054906101000a900473ffffffffffffffffffffffffffffffffffffffff1673ffffffffffffffffffffffffffffffffffffffff168273ffffffffffffffffffffffffffffffffffffffff1614806127ce5750600160008373ffffffffffffffffffffffffffffffffffffffff1673ffffffffffffffffffffffffffffffffffffffff16815260200190815260200160002060020160009054906101000a900460ff165b90507f7fca019a0a52664785803f352d793a992f66c4affa261b3daf127976e7ad67998282604051808373ffffffffffffffffffffffffffffffffffffffff1673ffffffffffffffffffffffffffffffffffffffff168152602001821515151581526020019250505060405180910390a180151561284b57600080fd5b600060066000856000191660001916815260200190815260200160002060020160146101000a81548160ff0219169083151502179055507fd1e55fd73bb60d490f023f5239b9c0ca41f4503cca514ab5c7c8649a188afdd38360405180826000191660001916815260200191505060405180910390a1505050565b60075481565b6000806000803360008060009054906101000a900473ffffffffffffffffffffffffffffffffffffffff1673ffffffffffffffffffffffffffffffffffffffff168273ffffffffffffffffffffffffffffffffffffffff16148061297c5750600160008373ffffffffffffffffffffffffffffffffffffffff1673ffffffffffffffffffffffffffffffffffffffff16815260200190815260200160002060020160009054906101000a900460ff165b90507f7fca019a0a52664785803f352d793a992f66c4affa261b3daf127976e7ad67998282604051808373ffffffffffffffffffffffffffffffffffffffff1673ffffffffffffffffffffffffffffffffffffffff168152602001821515151581526020019250505060405180910390a18015156129f957600080fd5b73__BadgeLibrary__________________________63c1eabde9886000604051602001526040518263ffffffff167c01000000000000000000000000000000000000000000000000000000000281526004018080602001828103825283818151815260200191508051906020019080838360005b83811015612a88578082015181840152602081019050612a6d565b50505050905090810190601f168015612ab55780820380516001836020036101000a031916815260200191505b509250505060206040518083038186803b1515612ad157600080fd5b6102c65a03f41515612ae257600080fd5b5050506040518051905094506003600101600086600019166000191681526020019081526020016000205493506003600201600160036002018054905003815481101515612b2c57fe5b9060005260206000209001549250836003600101600085600019166000191681526020019081526020016000208190555082600360020185815481101515612b7057fe5b906000526020600020900181600019169055506003600201805480919060019003612b9b9190613504565b50600360000160008660001916600019168152602001908152602001600020600080820160006101000a81549073ffffffffffffffffffffffffffffffffffffffff0219169055600182016000612bf29190613530565b600282016000612c029190613530565b600382016000612c129190613530565b600482016000612c229190613530565b5050600360010160008660001916600019168152602001908152602001600020600090557f25011d6c52f8dd436cbad877a1e1bfa99b3fc7b3df1c4f7b68d6f6403e943a51876003600201805490506040518080602001838152602001828103825284818151815260200191508051906020019080838360005b83811015612cb7578082015181840152602081019050612c9c565b50505050905090810190601f168015612ce45780820380516001836020036101000a031916815260200191505b50935050505060405180910390a1600195505050505050919050565b3360008060009054906101000a900473ffffffffffffffffffffffffffffffffffffffff1673ffffffffffffffffffffffffffffffffffffffff168273ffffffffffffffffffffffffffffffffffffffff161480612daa5750600160008373ffffffffffffffffffffffffffffffffffffffff1673ffffffffffffffffffffffffffffffffffffffff16815260200190815260200160002060020160009054906101000a900460ff165b90507f7fca019a0a52664785803f352d793a992f66c4affa261b3daf127976e7ad67998282604051808373ffffffffffffffffffffffffffffffffffffffff1673ffffffffffffffffffffffffffffffffffffffff168152602001821515151581526020019250505060405180910390a1801515612e2757600080fd5b600160066000856000191660001916815260200190815260200160002060020160146101000a81548160ff0219169083151502179055507f3cc2375f3fc7711ba27361cde93880f578742f9f050acee766bed662d117ba728360405180826000191660001916815260200191505060405180910390a1505050565b3360008060009054906101000a900473ffffffffffffffffffffffffffffffffffffffff1673ffffffffffffffffffffffffffffffffffffffff168273ffffffffffffffffffffffffffffffffffffffff161490507f7fca019a0a52664785803f352d793a992f66c4affa261b3daf127976e7ad67998282604051808373ffffffffffffffffffffffffffffffffffffffff1673ffffffffffffffffffffffffffffffffffffffff168152602001821515151581526020019250505060405180910390a1801515612f7257600080fd5b6000600160008573ffffffffffffffffffffffffffffffffffffffff1673ffffffffffffffffffffffffffffffffffffffff16815260200190815260200160002060020160006101000a81548160ff0219169083151502179055507f56a53756e1db2ff35a90edee9bd205b4b2bb8633ee3d6a53a5e85d5b46f0e9dc83604051808273ffffffffffffffffffffffffffffffffffffffff1673ffffffffffffffffffffffffffffffffffffffff16815260200191505060405180910390a1505050565b600061303f613418565b600080600061304e8787611fb6565b92509250925082156130c5576000606060405190810160405280602681526020017f496e76616c69642063726564656e7469616c3a2063726564656e7469616c207281526020017f65766f6b6564000000000000000000000000000000000000000000000000000081525080905094509450613233565b80151561315c5780608060405190810160405280604581526020017f496e76616c696420726563697069656e743a20726563697069656e7420646f6581526020017f73206e6f74206d61746368206f726967696e616c207472616e73616374696f6e81526020017f206461746100000000000000000000000000000000000000000000000000000081525080905094509450613233565b8115156131f35781608060405190810160405280605381526020017f496e76616c6964206461746120696e746567726974793a206461746120696e2081526020017f63726564656e7469616c20646f6573206e6f74206d61746368206f726967696e81526020017f616c207472616e73616374696f6e20646174610000000000000000000000000081525080905094509450613233565b60016040805190810160405280601381526020017f43726564656e7469616c2069732076616c696400000000000000000000000000815250809050945094505b5050509250929050565b60008282600754604051808473ffffffffffffffffffffffffffffffffffffffff1673ffffffffffffffffffffffffffffffffffffffff166c0100000000000000000000000002815260140183805190602001908083835b6020831015156132ba5780518252602082019150602081019050602083039250613295565b6001836020036101000a03801982511681845116808217855250505050505090500182815260200193505050506040518091039020905092915050565b6000809054906101000a900473ffffffffffffffffffffffffffffffffffffffff1681565b60016020528060005260406000206000915090508060000160009054906101000a900473ffffffffffffffffffffffffffffffffffffffff16908060010154908060020160009054906101000a900460ff16905083565b60a060405190810160405280600073ffffffffffffffffffffffffffffffffffffffff1681526020016133a4613578565b81526020016133b1613578565b81526020016133be613578565b81526020016133cb613578565b81525090565b6080604051908101604052806000801916815260200160008019168152602001600073ffffffffffffffffffffffffffffffffffffffff1681526020016000151581525090565b602060405190810160405280600081525090565b81548183558181151161345357818360005260206000209182019101613452919061358c565b5b505050565b81548183558181151161347f5781836000526020600020918201910161347e91906135b1565b5b505050565b828054600181600116156101000203166002900490600052602060002090601f016020900481019282601f106134c557805160ff19168380011785556134f3565b828001600101855582156134f3579182015b828111156134f25782518255916020019190600101906134d7565b5b509050613500919061358c565b5090565b81548183558181151161352b5781836000526020600020918201910161352a91906135b1565b5b505050565b50805460018160011615610100020316600290046000825580601f106135565750613575565b601f016020900490600052602060002090810190613574919061358c565b5b50565b602060405190810160405280600081525090565b6135ae91905b808211156135aa576000816000905550600101613592565b5090565b90565b6135d391905b808211156135cf5760008160009055506001016135b7565b5090565b905600a165627a7a72305820842bd54fb863ab5eb20e6cf1805deb2228d006a2c35599032af0af411a1e3e240029",
  "source": "pragma solidity ^0.4.17;\n\nimport \"BadgeLibrary/contracts/BadgeLibrary.sol\";\n\nimport \"./TransactionManager.sol\";\nimport \"./Holder.sol\";\n\ncontract Verifier is TransactionManager {\n    \n    string constant INVALID_TRANSACTION = \"Invalid transaction: the transaction does not exist\";\n    string constant INVALID_INTEGRITYHASH = \"Invalid data integrity: data in credential does not match original transaction data\";\n    string constant INVALID_RECIPIENT = \"Invalid recipient: recipient does not match original transaction data\";\n    string constant INVALID_TXTKEY = \"Invalid transaction key: transaction keys don't match\";\n    string constant REVOKED = \"Invalid credential: credential revoked\";\n    string constant VALID_CREDENTIAL = \"Credential is valid\";\n    \n    address constant NONE = 0x0000000000000000000000000000000000000000;\n    \n    function Verifier(address _adminWalletAddr) public TransactionManager(_adminWalletAddr) {}\n        \n    function verifyCredential(bytes32 _txnKey, address _recipient) constant public returns(bool isVerified, string errMsg) {\n        var (_revoked, _integrityHashCheck, _recipientCheck) = verifyCredentialTxn(_txnKey, _recipient);\n        if (_revoked) {\n            return(false, REVOKED);\n        } else if (!_recipientCheck) {\n            return(_recipientCheck, INVALID_RECIPIENT);\n        } else if (!_integrityHashCheck) {\n            return(_integrityHashCheck, INVALID_INTEGRITYHASH);\n        } else {\n            return(true, VALID_CREDENTIAL);\n        }\n    }\n\n    /// @notice check that a transaction key exists in the transaction map (verify credential issuer)\n    /// @param _txnKey key to access the transaction\n    /// @param _recipient recipient of the credential being verified\n    function verifyCredentialTxn(bytes32 _txnKey, address _recipient) constant public returns(bool _revoked,  bool _integrityHashCheck, bool _recipientCheck) {\n        var (key, integrityHash, recipient, revoked) = getTxn(_txnKey);\n\n        if (recipient == NONE) {\n            return(true, false, false);\n        } else if (revoked) {\n            return(revoked, false, false);\n        }\n\n        Holder holder = Holder(_recipient);\n        bytes32 _integrityHash = holder.recomputePOIHash(key);\n        return(revoked,\n            (_integrityHash == integrityHash),\n            (_recipient == recipient)\n        );\n    }\n\n}",
  "sourcePath": "/Users/khalil.claybon/Desktop/migrate-to-new-cpu/some_work/badgeforce_dev/badgeforce/contracts/Verifier.sol",
  "compiler": {
    "name": "solc",
    "version": "0.4.18+commit.9cf6e910.Emscripten.clang"
  },
  "schemaVersion": "1.0.1",
  "updatedAt": "2017-12-29T12:58:31.825Z"
}