{
  "contractName": "VerifierLibrary",
  "abi": [
    {
      "constant": true,
      "inputs": [
        {
          "name": "_issuer",
          "type": "address"
        },
        {
          "name": "_msgData",
          "type": "bytes"
        },
        {
          "name": "_nonce",
          "type": "uint256"
        }
      ],
      "name": "getCredentialTxKey",
      "outputs": [
        {
          "name": "key",
          "type": "bytes32"
        }
      ],
      "payable": false,
      "stateMutability": "view",
      "type": "function"
    },
    {
      "constant": true,
      "inputs": [
        {
          "name": "issuer",
          "type": "address"
        },
        {
          "name": "description",
          "type": "string"
        },
        {
          "name": "name",
          "type": "string"
        },
        {
          "name": "image",
          "type": "string"
        },
        {
          "name": "version",
          "type": "string"
        },
        {
          "name": "expires",
          "type": "uint256"
        },
        {
          "name": "recipient",
          "type": "address"
        }
      ],
      "name": "getIntegrityHash",
      "outputs": [
        {
          "name": "_hash",
          "type": "bytes32"
        }
      ],
      "payable": false,
      "stateMutability": "view",
      "type": "function"
    }
  ],
  "bytecode": "0x6060604052341561000f57600080fd5b6105498061001e6000396000f30060606040526004361061004c576000357c0100000000000000000000000000000000000000000000000000000000900463ffffffff168063334abb0b146100515780638d803783146100e7575b600080fd5b6100c9600480803573ffffffffffffffffffffffffffffffffffffffff1690602001909190803590602001908201803590602001908080601f01602080910402602001604051908101604052809392919081815260200183838082843782019150505050505091908035906020019091905050610265565b60405180826000191660001916815260200191505060405180910390f35b610247600480803573ffffffffffffffffffffffffffffffffffffffff1690602001909190803590602001908201803590602001908080601f0160208091040260200160405190810160405280939291908181526020018383808284378201915050505050509190803590602001908201803590602001908080601f0160208091040260200160405190810160405280939291908181526020018383808284378201915050505050509190803590602001908201803590602001908080601f0160208091040260200160405190810160405280939291908181526020018383808284378201915050505050509190803590602001908201803590602001908080601f0160208091040260200160405190810160405280939291908181526020018383808284378201915050505050509190803590602001909190803573ffffffffffffffffffffffffffffffffffffffff1690602001909190505061031e565b60405180826000191660001916815260200191505060405180910390f35b6000838383604051808473ffffffffffffffffffffffffffffffffffffffff1673ffffffffffffffffffffffffffffffffffffffff166c0100000000000000000000000002815260140183805190602001908083835b6020831015156102e057805182526020820191506020810190506020830392506102bb565b6001836020036101000a0380198251168184511680821785525050505050509050018281526020019350505050604051809103902090509392505050565b600087878787878787604051808873ffffffffffffffffffffffffffffffffffffffff1673ffffffffffffffffffffffffffffffffffffffff166c0100000000000000000000000002815260140187805190602001908083835b60208310151561039d5780518252602082019150602081019050602083039250610378565b6001836020036101000a03801982511681845116808217855250505050505090500186805190602001908083835b6020831015156103f057805182526020820191506020810190506020830392506103cb565b6001836020036101000a03801982511681845116808217855250505050505090500185805190602001908083835b602083101515610443578051825260208201915060208101905060208303925061041e565b6001836020036101000a03801982511681845116808217855250505050505090500184805190602001908083835b6020831015156104965780518252602082019150602081019050602083039250610471565b6001836020036101000a0380198251168184511680821785525050505050509050018381526020018273ffffffffffffffffffffffffffffffffffffffff1673ffffffffffffffffffffffffffffffffffffffff166c01000000000000000000000000028152601401975050505050505050604051809103902090509796505050505050505600a165627a7a723058208ad22154cab02571e573e60f647e0737d414958175bb4d0c3997e769266e86f90029",
  "source": "pragma solidity ^0.4.15;\n\nlibrary VerifierLibrary {\n    /// @notice generate a credential transaction key\n    /// @param _issuer address of the issuer\n    /// @param _msgData msg data\n    /// @param _nonce nonce\n    function getCredentialTxKey(address _issuer, bytes _msgData, uint _nonce) constant public returns(bytes32 key) {\n        return keccak256(_issuer, _msgData, _nonce);\n    }\n\n    /// @notice compute integrity hash of credential data\n    function getIntegrityHash(\n        address issuer, \n        string description, \n        string name, \n        string image, \n        string version,\n        uint expires, \n        address recipient\n    ) constant public returns(bytes32 _hash) \n    {\n        return keccak256(\n                issuer, \n                description, \n                name, \n                image, \n                version, \n                expires,\n                recipient\n        );\n    }\n}",
  "sourcePath": "BadgeLibrary/contracts/VerifierLibrary.sol",
  "compiler": {
    "name": "solc",
    "version": "0.4.18+commit.9cf6e910.Emscripten.clang"
  },
  "schemaVersion": "1.0.1",
  "updatedAt": "2017-12-24T18:06:51.122Z"
}